:020000040000FA
:100000000C9465000C948D000C948D000C948D0064
:100010000C948D000C948D000C948D000C948D002C
:100020000C948D000C948D000C948D000C948D001C
:100030000C948D000C948D000C948D000C948D000C
:100040000C94A7100C948D000C9475100C944F1008
:100050000C948D000C94F1100C948D000C948D0078
:100060000C948D000C948D007C3C3E5E2B3D3F2F0C
:100070005B5D3B2C2A225C000000000800020100AE
:100080000003040700000000000000000000000062
:10009000250028002B0000000000240027002A0073
:1000A000040404040404040402020202020203031E
:1000B0000303030301020408102040800102040826
:1000C00010200102040810200C1111241FBECFEFD4
:1000D000D8E0DEBFCDBF11E0A0E0B1E0E8E0F1E3A1
:1000E00002C005900D92A43AB107D9F724E0A4EA22
:1000F000B1E001C01D92AE3AB207E1F710E0C5E6EB
:10010000D0E004C02197FE010E942C17C436D1070D
:10011000C9F70E9454110C9482180C94000090E0CE
:10012000FC01EC54FF4F249180569F4FFC018491B9
:10013000882399F090E0880F991FFC01EA56FF4F41
:10014000A591B491FC01E457FF4F859194918FB72D
:10015000F894EC91E22BEC938FBF0895AF92BF928D
:10016000CF92DF92EF92FF920F931F93CF93DF9383
:100170006C017B018B01040F151FEB015E01AE18B2
:10018000BF08C017D10759F06991D601ED91FC91D4
:100190000190F081E02DC6010995892B79F7C50101
:1001A000DF91CF911F910F91FF90EF90DF90CF9053
:1001B000BF90AF900895FC01538D448D252F30E002
:1001C000842F90E0821B930B541710F0CF96089564
:1001D00001970895FC01918D828D981761F0A28D91
:1001E000AE0FBF2FB11D5D968C91928D9F5F9F7357
:1001F000928F90E008958FEF9FEF0895FC01918D0D
:10020000828D981731F0828DE80FF11D858D90E079
:1002100008958FEF9FEF0895FC01918D228D892F16
:1002200090E0805C9F4F821B91098F7399270895FE
:1002300082EC93E00E940C0121E0892B09F420E07C
:10024000822F089580E090E0892B29F00E94180108
:1002500081110C9400000895FC01A48DA80FB92F02
:10026000B11DA35ABF4F2C91848D90E001968F73DE
:100270009927848FA689B7892C93A089B1898C91FD
:10028000837080648C93938D848D981306C002884C
:10029000F389E02D80818F7D80830895EF92FF9216
:1002A0000F931F93CF93DF93EC0181E0888F9B8D99
:1002B0008C8D98131AC0E889F989808185FF15C053
:1002C0009FB7F894EE89FF896083E889F989808176
:1002D0008370806480839FBF81E090E0DF91CF9145
:1002E0001F910F91FF90EF900895F62E0B8D10E067
:1002F0000F5F1F4F0F731127E02E8C8D8E110CC0D6
:100300000FB607FCFACFE889F989808185FFF5CF20
:10031000CE010E942C01F1CFEB8DEC0FFD2FF11DD2
:10032000E35AFF4FF0829FB7F8940B8FEA89FB895D
:1003300080818062CFCFCF93DF93EC01888D8823BB
:10034000B9F0AA89BB89E889F9898C9185FD03C038
:10035000808186FD0DC00FB607FCF7CF8C9185FF1D
:10036000F2CF808185FFEDCFCE010E942C01E9CF35
:10037000DF91CF91089590E0FC01E858FF4F249160
:10038000FC01EC54FF4F3491FC01E056FF4FE49127
:10039000EE23C9F0222339F0233001F1A8F42130F3
:1003A00019F1223029F1F0E0EE0FFF1FE457FF4F63
:1003B000A591B4918FB7F894EC91611126C0309556
:1003C0003E233C938FBF08952730A9F02830C9F011
:1003D000243049F7809180008F7D03C08091800098
:1003E0008F7780938000DFCF84B58F7784BDDBCF9C
:1003F00084B58F7DFBCF8091B0008F778093B00064
:10040000D2CF8091B0008F7DF9CF3E2BDACF3FB7AE
:10041000F8948091B0019091B101A091B201B09196
:10042000B30126B5A89B05C02F3F19F00196A11D69
:10043000B11D3FBFBA2FA92F982F8827BC01CD012E
:10044000620F711D811D911D42E0660F771F881F8D
:10045000991F4A95D1F708952FB7F8946091AC0190
:100460007091AD018091AE019091AF012FBF0895C1
:100470008FB7F8948091A5018FBF089561E0FC01CA
:1004800084810E94BB018091A40181111092A4017A
:1004900008958EBD00000DB407FEFDCF8EB5089502
:1004A0008FEF0C9449020F931F93CF93DF93EC01CE
:1004B0000E942C028B010E9450028F3F69F00E9423
:1004C0002C02601B710B6C177D07A8F380E0DF9195
:1004D000CF911F910F91089581E0F9CF8CBD9DBD03
:1004E0000895CF93DF93EC018091A401811109C09D
:1004F00081E08093A40180915F04909160040E9448
:100500006E0260E08C81DF91CF910C94BB018F92E1
:100510009F92AF92BF92FF920F931F93CF93DF935F
:10052000EC01F62E49015A018E81882389F08F81D2
:1005300098859C012F5F3F4F38872F8382309240F0
:1005400018F40E945002F3CFCE010E943E021E8298
:10055000CE010E9471028CE291E00E9453028F2D25
:1005600080640E94490208E110E0D501C401002E18
:1005700004C0B695A795979587950A94D2F70E94DF
:10058000490208501109083F8FEF180771F785E9F4
:10059000FF2021F028E087E8F2128FEF0E94490245
:1005A00010E00E9450028A8787FF04C01F3F11F0AD
:1005B0001F5FF7CFDF91CF911F910F91FF90BF90F9
:1005C000AF909F908F900895AF92BF92CF92DF929D
:1005D000EF92FF920F931F93CF93DF93EC0169018A
:1005E000C801820F931F8130924050F58E8188237D
:1005F00079F088819981AA81BB8184179507A60724
:10060000B70731F48F819885C816D90608F042C023
:10061000488359836A837B838B85833039F089E0F3
:10062000440F551F661F771F8A95D1F79A01AB01BA
:1006300061E1CE010E948702882389F083E08D83E7
:10064000CE010E943E0280E0DF91CF911F910F9179
:10065000FF90EF90DF90CF90BF90AF9008950E94F1
:100660002C025B010E9450028A878F3F69F40E942E
:100670002C026A197B096D327140A0F38FE08D83E3
:10068000CE010E943E02DCCF8E3F89F418861F8285
:1006900081E08E838F8198858C159D0550F40E9492
:1006A00050028F819885019698878F83F3CF8DE0D4
:1006B000E6CF6701E00EF11E0E945002F601819321
:1006C0006F01EE15FF05C1F78F819885080F191F7F
:1006D00018870F838985882319F001151240A0F02F
:1006E0008E81882389F08F8198859C012F5F3F4FF1
:1006F00038872F838230924018F40E945002F3CF43
:10070000CE010E943E021E8281E09ECFCF92DF92F8
:10071000EF92FF920F93CF93DF93EC01690182E197
:10072000411551056105710599F08B85833039F0CC
:1007300089E0440F551F661F771F8A95D1F79A01EC
:10074000AB0168E1CE010E948702882319F084E0A2
:100750008D832DC08EEF0E94490276018EEFD81A4C
:10076000F70181917F010E944902EC14FD04C1F759
:100770008FEF0E9449028FEF0E9449020E945002AF
:100780008A878F71853071F4011116C0CE010E94E5
:100790003E0281E0DF91CF910F91FF90EF90DF90CB
:1007A000CF90089581E18D83CE010E943E02CE015B
:1007B0000E943E0280E0EECF88E592E00E94530264
:1007C000811102C085E1C4CF20E030E0A9016DE0D5
:1007D000CE010E948702882311F084E1B9CF0E94E4
:1007E00050028111FACFD2CF0F934091A7015091BF
:1007F000A8016091A9017091AA01411551056105F7
:10080000710599F0082F20EC31E08091C0039091A0
:10081000C1030E948603882349F01092A701109219
:10082000A8011092A9011092AA0181E00F910895E8
:100830000F93CF93C82F8091A601811105C0C1E00D
:100840008C2FCF910F91089540910001509101019B
:1008500060910201709103010C2F20EC31E0809136
:10086000C0039091C1030E948603811102C0C0E0C1
:10087000E7CFCC2321F381E00E94F4038823B9F36E
:100880001092A601DDCF8F929F92AF92BF92EF920E
:10089000FF920F931F93CF934B015C01C42F809164
:1008A000000190910101A0910201B091030188150E
:1008B0009905AA05BB0551F181E00E941804811138
:1008C0000BC080E0CF911F910F91FF90EF90BF90F0
:1008D000AF909F908F90089580ECE82E81E0F82EE5
:1008E00000E012E030E020E0B501A4018091C003F7
:1008F0009091C1030E94E402882319F380920001C1
:1009000090920101A0920201B09203014091A601D0
:100910004C2B4093A60181E0D5CF8F929F92AF924E
:10092000BF92CF92DF92EF92FF92CF9321E634E015
:100930003093C1032093C003882309F46DC040E0C5
:1009400060E070E0CB010E94430481110BC080E0A5
:10095000CF91FF90EF90DF90CF90BF90AF909F909E
:100960008F90089580917E038F7789F780918A0315
:1009700090918B03A0918C03B0918D0384369105E7
:10098000A105B10520F3C0908603D0908703E090C5
:100990008803F0908903C114D104E104F104B9F291
:1009A00040E0C701B6010E944304882381F2809190
:1009B000CB019091CC018115924049F6A091D001D4
:1009C000AA2329F26091CE017091CF0161157105C2
:1009D00009F4BDCF2091CD01222309F4B8CFA09313
:1009E0007F042093710490E080E030E0E1E0F0E0EB
:1009F000C82FAF01082E02C0440F551F0A94E2F71A
:100A00002417350769F041E0480F019689309105B8
:100A100079F740937A049BCFC12CD12C7601C0CFBB
:100A200080937A042091D6013091D70150E040E0C4
:100A30002115310541F42091E4013091E501409107
:100A4000E6015091E70120937204309373044093C0
:100A500074045093750446015701860E971EA11C1D
:100A6000B11C8092800490928104A0928204B09282
:100A70008304E091D101F091D201F0938604E093D8
:100A80008504B0E00E942117DC01CB01880D991D7F
:100A9000AA1DBB1D8093870490938804A0938904AA
:100AA000B0938A0425E0EE0FFF1F2A95E1F7E1508D
:100AB000FE4FEF2FFF27E6958E0F9F1FA11DB11D43
:100AC00080937B0490937C04A0937D04B0937E0478
:100AD0008090D3019090D401B12CA12C8114910469
:100AE00041F48090E0019090E101A090E201B0908B
:100AF000E301C81AD90AEA0AFB0AC80CD91CEA1C85
:100B0000FB1C04C0F694E794D794C794CA95D2F717
:100B1000C0927604D0927704E0927804F09279043F
:100B200085EFC8168FE0D806E104F10428F48CE0C4
:100B30008093840481E00CCF80E125EFC2162FEF73
:100B4000D206E104F104A0F38091EC019091ED0153
:100B5000A091EE01B091EF018093870490938804F7
:100B6000A0938904B0938A0480E2E2CF4F925F920F
:100B70006F927F928F929F92AF92BF92CF92DF92AD
:100B8000EF92FF920F931F93CF93DF93EC014230CC
:100B900051056105710590F480E0DF91CF911F91BF
:100BA0000F91FF90EF90DF90CF90BF90AF909F900C
:100BB0008F907F906F905F904F90089589859A8570
:100BC000AB85BC850196A11DB11D84179507A607AD
:100BD000B70710F3CB88DC88ED88FE888F898031D9
:100BE00009F042C0BB27A72F962F852F4801590136
:100BF0002A013B01C80ED91EEA1EFB1E809100018E
:100C000090910101A0910201B0910301C816D9068B
:100C1000EA06FB0699F58F898031C1F5B301A2017F
:100C2000552766277727440F551F40545E4FFA011A
:100C3000918280828091A60181608093A6018A8939
:100C4000823080F08D819E81AF81B8858C0D9D1D95
:100C5000AE1DBF1D8093A7019093A801A093A90189
:100C6000B093AA0181E099CFDB01CA01E7E0B69514
:100C7000A79597958795EA95D1F7B8CF40E0C7013A
:100C8000B6010E9443048111C6CF86CFB301A201F1
:100C90004F77552766277727440F551F440F551F59
:100CA00040545E4FFA0180829182A282B382C2CF09
:100CB0008F929F92AF92BF92CF92DF92EF92FF926C
:100CC0000F931F93CF93DF93FC0181859285A385BA
:100CD000B4850196A11DB11D84179507A607B70716
:100CE00070F480E0DF91CF911F910F91FF90EF9012
:100CF000DF90CF90BF90AF909F908F9008958388A2
:100D00009488A588B6888789803189F5BB27A72F65
:100D1000962F852FE9016A017B018F01BC01CD016E
:100D2000680D791D8A1D9B1D809000019090010126
:100D3000A0900201B090030186169706A806B90696
:100D400001F5F8018789803111F5DD24EE24FF24B7
:100D5000F601EE0FFF1FE054FE4F80819181B0E05D
:100D6000A0E088839983AA83BB8381E0BBCFDB01AA
:100D7000CA01C7E0B695A79597958795CA95D1F70B
:100D8000C9CF40E00E9443048111DBCFAACFE89491
:100D9000C7F8DD24EE24FF24F601EE0FFF1FEE0F4F
:100DA000FF1FE054FE4F80819181A281B381BF700B
:100DB000D8CF4F925F926F927F92AF92BF92CF92B5
:100DC000DF92EF92FF920F931F93CF93DF9300D0A8
:100DD00000D0CDB7DEB78C0149835A836B837C8307
:100DE0005901C12CD12C7601412C82E0582E612C66
:100DF000712C49815A816B817C819E012F5F3F4F0D
:100E0000C8010E945806882339F1F8018585A3019D
:100E1000920104C0220F331F441F551F8A95D2F739
:100E2000DA01C901C80ED91EEA1EFB1E49815A818A
:100E30006B817C818789803111F188EF9FEFAFEF63
:100E4000BFE0481759076A077B0798F2F501C0828F
:100E5000D182E282F38281E00F900F900F900F9089
:100E6000DF91CF911F910F91FF90EF90DF90CF9086
:100E7000BF90AF907F906F905F904F90089588EFF4
:100E80009FEFA0E0B0E0DDCFCF93DF93FC012581A1
:100E9000222321F080E0DF91CF910895EC01809131
:100EA0008404803159F582E08583178A108E118E73
:100EB000128E8091850490918604B0E0A0E025E038
:100EC000880F991FAA1FBB1F2A95D1F7838B948B7C
:100ED000A58BB68B8DE694E09C8F8B8F81E08C8305
:100EE0001E821F82188619861A861B861C861D86FE
:100EF0001E861F86188A198A1A8ACDCF803251F62B
:100F000083E085834091870450918804609189042F
:100F100070918A04478B508F618F728F9F012D5E75
:100F20003F4F8DE694E00E94D9068111D3CFB2CF16
:100F30008F929F92AF92BF92CF92DF92EF92FF92E9
:100F40000F931F93CF93DF93EC018D8181110EC01E
:100F500080E0DF91CF911F910F91FF90EF90DF9094
:100F6000CF90BF90AF909F908F9008950B891C8970
:100F70002D893E89041715072607370748F34A01CC
:100F80005B01823031F48A869B86AC86BD8681E027
:100F9000E0CF81149104A104B10449F41E821F82A0
:100FA000188619861A861B861C861D86F0CF0A8530
:100FB0001B852C853D85EB8DFC8D858590E0099604
:100FC000B901A8014150510961097109082E04C0F5
:100FD00076956795579547950A94D2F77501640100
:100FE000E1E0CE1AD108E108F10804C0F694E794D4
:100FF000D794C7948A95D2F7C416D506E606F706A5
:1010000020F0012B022B032B11F58F89988DA98DD0
:10101000BA8D8E839F83A887B9878E010A5F1F4F81
:10102000C114D104E104F10409F4ADCF4E815F8114
:101030006885798598018B8D9C8D0E94580691E07A
:10104000C91AD108E108F1088111EACF81CFC41A89
:10105000D50AE60AF70AE1CF3F924F925F926F926C
:101060007F928F929F92AF92BF92CF92DF92EF9238
:10107000FF920F931F93CF93DF93CDB7DEB72C97DB
:101080000FB6F894DEBF0FBECDBF5C01DC015B96EE
:101090008D909C905C9716964D905D906D907C9095
:1010A0001997411451046104710409F468C0BFEF39
:1010B0004B1A5B0A6B0A7B0A312CF40181859285FD
:1010C000A385B4859C01AD012F5F3F4F4F4F5F4F0C
:1010D00029873A874B875C87730162011D821E82D4
:1010E0001F821886F40181859285A385B4852D81A0
:1010F0003E814F815885281739074A075B0708F05A
:1011000056C089859A85AB85BC858C159D05AE0535
:10111000BF0550F482E0C82ED12CE12CF12C92E0D6
:10112000492E512C612C712C9E012F5F3F4FB7012E
:10113000A601C4010E9458068823C9F189819A81B9
:10114000AB81BC81892B8A2B8B2B09F126013701BE
:101150009FEF491A590A690A790A2D813E814F8108
:1011600058852F5F3F4F4F4F5F4F2D833E834F83F7
:1011700058873FEFC31AD30AE30AF30AB3CFF40147
:1011800040805180628073803324339496CFC4149E
:10119000D504E604F70409F70FEF1FEF2FEF3FE048
:1011A000B701A601C4010E94B605811119C080E0F3
:1011B0002C960FB6F894DEBF0FBECDBFDF91CF9156
:1011C0001F910F91FF90EF90DF90CF90BF90AF9065
:1011D0009F908F907F906F905F904F903F90089579
:1011E000D50116964D915D916D917C9119974115A0
:1011F00051056105710539F097018601C4010E940E
:10120000B6058823A1F2D5011696CD92DD92ED9216
:10121000FC921997332051F0D701C6010196A11D08
:10122000B11DF40180839183A283B383F501878983
:10123000908DA18DB28D892B8A2B8B2B39F48481D3
:10124000C78AD08EE18EF28E80688483F501848116
:101250008062848381E0ACCF1F93CF93DF93FC0146
:1012600025812223D1F1162FEC01848187FF2AC02A
:10127000668577858089918941E00E9443048823AF
:1012800061F1EA8980E2E89FF0011124E054FE4F09
:10129000309719F18D81823040F48B899C89AD891A
:1012A000BE89848F958FA68FB78F8F89988D938FE6
:1012B000828F8F89988DA98DBA8DB58BA48B8C81E7
:1012C0008F778C83111103C08C818F7E8C83812F4B
:1012D000DF91CF911F910C94180480E0DF91CF91A2
:1012E0001F910895FF920F931F93CF93DF93EC010B
:1012F0008D81813041F090E080E0DF91CF911F91AE
:101300000F91FF9008958C8181FFF5CF82FD1BC066
:101310000091C0031091C103C8010E9471020E9494
:101320005002F82EC8010E943E028FEFF812E3CF60
:101330008C8185FF1BC060E0CE010E942C098C814E
:101340008F7D8C83D8CF4B895C896D897E898A8516
:101350009B85AC85BD8584179507A607B707C1F2A5
:10136000CE010E9498078111D3CFC5CF4091A7012C
:101370005091A8016091A9017091AA01452B462BBB
:10138000472B21F080E00E94F403B5CF80618C836D
:101390002A853B85317080E092E0821B930BADCFB4
:1013A000CF93DF93EC0161E00E942C09882311F0B8
:1013B0001D8281E0DF91CF9108952F923F924F924D
:1013C0005F926F927F928F929F92AF92BF92CF92D5
:1013D000DF92EF92FF920F931F93CF93DF9300D092
:1013E00000D01F92CDB7DEB77C015B01342E5D8348
:1013F000DC0115968C911597813009F0CEC01496BA
:101400002C9021FECAC022FCB4C0C32CDD802294E3
:101410007FE027222094B22DB1702B2ED7011A968F
:101420004D915D916D917C911D97C114D10409F48A
:1014300028C15B968D919C915C97FC0174807A9495
:101440008A019B0169E036952795179507956A955E
:10145000D1F770228A011170711020C00115110599
:10146000E9F416964D915D916D917C911997411516
:1014700051056105710509F099C057968D919D91AF
:101480000D90BC91A02D0097A105B10509F0B0C049
:10149000C7010E942C08882309F47FC080E092E0F5
:1014A000801B910B46018C159D0508F44C01D7015A
:1014B0005B964D915C915C9716968D919D910D90E8
:1014C000BC91A02D0297A109B109FA01258504C09C
:1014D000880F991FAA1FBB1F2A95D2F746855785EB
:1014E00060897189840F951FA61FB71F9C01AD01EC
:1014F000270D311D411D511D29013A01811432E092
:10150000930609F07BC08091000190910101A091A8
:101510000201B091030184159505A605B70559F49C
:101520008FEF9FEFDC018093000190930101A09366
:101530000201B0930301022D9501B301A201809134
:10154000C0039091C1030E948603882331F19EEF6E
:10155000B91AC818D908F70182859385A485B5857D
:10156000880D991DA11DB11D82879387A487B5871A
:1015700055CFF7014389548965897689828593859A
:10158000A485B585481759076A077B0709F43DCF3D
:10159000C7010E949807811138CF81E090E0D70100
:1015A00013969C938E93129780E007C09E012F5F45
:1015B0003F4F0E945806811102C090E079C0898196
:1015C0009A81AB81BC81F701238D348DF901278984
:1015D00048EF5FEF60E070E0203121F048EF5FEF0F
:1015E0006FEF7FE084179507A607B70708F050CF85
:1015F000F70186839783A087B18750CF0115110526
:1016000099F5D7011A964D915D916D917C911D9739
:1016100053968D919D910D90BC91A02D481759071F
:101620006A077B0708F181E00E941804882309F407
:10163000B4CF409200015092010160920201709279
:1016400003018091A60181608093A601C8018054A6
:101650009E4FD5019C01280D391DFC012E173F0717
:1016600059F04D914193FACF41E0C301B2010E947C
:1016700043048111EBCF91CF281B390BA20EB31E6F
:1016800068CFF70183899489A589B689841795075E
:10169000A607B70738F48481438B548B658B768B10
:1016A00080688483F701848183FD1AC0832D9D8126
:1016B0000F900F900F900F900F90DF91CF911F918F
:1016C0000F91FF90EF90DF90CF90BF90AF909F90E1
:1016D0008F907F906F905F904F903F902F900895E4
:1016E00061E0C7010E942C09882309F456CFDECFA0
:1016F000CF93DF931F92CDB7DEB7698341E050E00F
:10170000BE016F5F7F4F0E94DD090F90DF91CF9187
:101710000895FC01DB0112968D919C9113979383A0
:10172000828382E391E09183808314968C91149755
:10173000848315968C911597858316964D915D91AE
:101740006D917C91199746835783608771871A96AC
:101750004D915D916D917C911D9742875387648770
:1017600075871E964D915D916D917C91519746873D
:101770005787608B718B52968C915297828B5396C0
:101780004D915D916D917C915697438B548B658BF8
:10179000768B57964D915D916D917C915A97478BC1
:1017A000508F618F728F5B968D919C91948F838FF8
:1017B00008950895FC01818D928D009719F061E0E4
:1017C0000C942C090895DC015996ED91FC91309709
:1017D000B9F083899489A589B68942855385648542
:1017E0007585841B950BA60BB70B811520E8920716
:1017F000A105B10538F08FEF9FE7A0E0B0E00895B4
:1018000090E080E00895DC0159968D919C910097BD
:1018100039F0DC01ED91FC910480F581E02D099413
:1018200090E080E00895CF93DF93EC01E98DFA8D8D
:10183000309749F481E090E09B838A8390E080E0D8
:10184000DF91CF91089513821282898D9A8D0E9423
:10185000DD09E98DFA8D22813381232B59F7F0CFF1
:10186000CF93DF931F92CDB7DEB76983DC01ED9193
:10187000FC910280F381E02D41E050E0BE016F5FFA
:101880007F4F09950F90DF91CF9108952F923F924E
:101890004F925F926F927F928F929F92AF92BF9280
:1018A000CF92DF92EF92FF920F931F93CF93DF932C
:1018B00000D01F92CDB7DEB7FC018581811118C021
:1018C0008FEF9FEF0F900F900F90DF91CF911F91AF
:1018D0000F91FF90EF90DF90CF90BF90AF909F90CF
:1018E0008F907F906F905F904F903F902F900895D2
:1018F000848180FFE5CF4389548965897689828513
:101900009385A485B585312C212C481759076A0782
:101910007B0719F022242394312C6F012101CE0181
:1019200001963C01DF011696BB83AA834114510442
:1019300009F4C5C0F60142855385648575854A0161
:10194000F1E09F22D6015B968D919C915C978A0174
:101950009B01E9E03695279517950795EA95D1F70C
:101960001596EC91E230E9F5FC01628D738D848D62
:10197000958D600F711F821F931FA12C22E0B22E44
:10198000A818B9084A145B0408F45201F60124812E
:1019900026FD04C0A114F2E0BF0671F4009100011D
:1019A00010910101209102013091030106171707E0
:1019B0002807390709F05EC040E00E9443048823ED
:1019C00009F47ECFC40180549E4FD3019C012A0D9F
:1019D0003B1DFC012E173F0709F46CC041914D934C
:1019E000F9CFDC011496BC90BA94B0228114910412
:1019F00079F4B1100DC0452B462B472B69F5F60144
:101A00008789908DA18DB28D86839783A087B187BA
:101A1000D6015B96ED91FC915C9716966D917D9148
:101A20008D919C91199762507109810991092585C1
:101A300004C0660F771F881F991F2A95D2F7068565
:101A4000178520893189600F711F821F931F6B0DCD
:101A5000711D811D911D91CFD60116964D915D91FD
:101A60006D917C9119972A813B810E9458068111C2
:101A7000CFCF26CF730185019401AB01BC018091CA
:101A8000C0039091C1030E94E402882309F418CF97
:101A90006A0C7B1CF60182859385A485B5858A0D29
:101AA0009B1DA11DB11D82879387A487B5874A1806
:101AB0005B083CCF281B390B620E731EEBCF2A94B8
:101AC000232809F0FDCE898190E0FCCEFC01818DB8
:101AD000928D009711F00C94460C8FEF9FEF0895B4
:101AE0000F931F93CF93DF93EC01898D9A8D10E0B4
:101AF00000E0009799F00E94460C8C010F3F100700
:101B000069F0898D9A8DFC014285538564857585C0
:101B100041505109610971090E949807C801DF917C
:101B2000CF911F910F910895CF92DF92EF92FF9284
:101B30001F93CF93DF93EC0180E2689FF0011124A3
:101B4000E054FE4F9385917161F0842F827449F0C7
:101B500080E0DF91CF911F91FF90EF90DF90CF90C9
:101B60000895142F6A8B8091000190910101A0913A
:101B70000201B09103018E879F87A88BB98BC4881F
:101B8000D588F12CE12C7601DD24CC24CF8AD88EA7
:101B9000E98EFA8E828D938DB0E0A0E0AC01BD019C
:101BA0004C295D296E297F294F8B588F698F7A8F39
:101BB00083858871B1F4848D958DA68DB78D8B8BBF
:101BC0009C8BAD8BBE8B81E08D831F701C831E822E
:101BD0001F82188619861A861B861C861D8681E040
:101BE000B8CF803109F0B4CF9E012D5E3F4F8B8D71
:101BF0009C8D0E94D906882309F4AACF84E0E4CF03
:101C0000FB0101900020E9F73197AF01461B570B0C
:101C1000DC01ED91FC910280F381E02D09948F921B
:101C20009F92AF92BF92EF92FF920F931F93CF9329
:101C3000DF93CDB7DEB7A1970FB6F894DEBF0FBE26
:101C4000CDBF7C01FA01CB0119A2223008F42AE0B1
:101C50008E010F5D1F4F822E912CB12CA12CBF0144
:101C6000A50194010E94FF16F901CA016A300CF522
:101C7000605DD8016E938D01232B242B252B79F7E2
:101C800090E080E0109721F0BD01C7010E94000E96
:101C9000A1960FB6F894DEBF0FBECDBFDF91CF91F6
:101CA0001F910F91FF90EF90BF90AF909F908F90FA
:101CB0000895695CDECFCF93DF93BC0182EC93E0A3
:101CC0000E94000EEC016AE371E082EC93E00E9456
:101CD000000E8C0F9D1FDF91CF9108953F924F9280
:101CE0005F926F927F928F929F92AF92BF92CF92AC
:101CF000DF92EF92FF920F931F93CF93DF93CDB7B5
:101D0000DEB72B970FB6F894DEBF0FBECDBF7C01B8
:101D1000FE013196CE010C966F0130E23193E81747
:101D2000F907E1F7DA0130E087E09D91B92E9923B8
:101D300009F43CC09E32F1F48A30C9F480E02B965D
:101D40000FB6F894DEBF0FBECDBFDF91CF911F91CC
:101D50000F91FF90EF90DF90CF90BF90AF909F904A
:101D60008F907F906F905F904F903F90089538E0F4
:101D70008AE0DBCFE8E6F0E04491442321F031969D
:101D80009413FACFDBCF8317C8F24FED490F4E35CE
:101D9000A8F64FE9490F4A3118F440EEB42EB90EB7
:101DA000F601E30FF11DB0823F5FBFCF8981803222
:101DB00029F2322E8B01DB015B968D919C915C9711
:101DC000F701948F838F16961D921D921D921C927F
:101DD0001997FB011286138614861586F8018285F1
:101DE0009385A485B5854389548965897689841747
:101DF0009507A607B70708F04DC025E0B695A7954B
:101E0000979587952A95D1F7F82FFF70AF2ED801B7
:101E100015968C91823008F491CFC8010E94460C2F
:101E200097FD8CCFF80182859385A485B5854F9663
:101E3000A11DB11D82879387A487B587F0E2AF9E6D
:101E4000B001112460547E4F6115710509F476CFFD
:101E5000DB018C91882341F0853E09F062C0BB20F4
:101E600029F0BB24B394BACFB1100EC0F701A28AF7
:101E70008091000190910101A0910201B0910301B4
:101E800086879787A08BB18BDB018C918111E9CF7D
:101E9000BB24B394832D8271823109F04FCFBB20D4
:101EA00009F44DC0F701668577858089918941E005
:101EB0000E944304882309F441CFD70152968C91A4
:101EC000B0E28B9FC001112480549E4F009709F40B
:101ED00035CFFC013A9626E1DF011D922A95E9F7FC
:101EE0002BE0F601DC0101900D922A95E1F721E249
:101EF00038E2FC01318B208B40E058E05787468761
:101F0000338B228B318F208F578B468B81E00E9441
:101F10001804882309F412CF432DD70152966C91EF
:101F20000AC04BE050E0C6010E946618892B09F0F8
:101F300055CF432D6A2DC7010E94940D00CFF801A3
:101F40008581823009F4FACEC8010E942C088823CA
:101F500009F4F4CED8015B96ED91FC915C9716964E
:101F60008D909D90AD90BC901997B2E08B1A91081E
:101F7000A108B108858504C0880C991CAA1CBB1C4B
:101F80008A95D2F786859785A089B189880E991E92
:101F9000AA1EBB1E848124013501480E511C611C00
:101FA000711C84149504A604B70409F1E1E04E1AEB
:101FB00051086108710881E00E941804882309F41F
:101FC000BDCEE0ECF1E0119280EC93E08E179F071C
:101FD000D1F740920001509201016092020170928B
:101FE00003018091A60181608093A601DACFD80118
:101FF0005B96ED91FC91258580E092E0A0E0B0E059
:1020000004C0880F991FAA1FBB1F2A95D2F7F80199
:102010004389548965897689840F951FA61FB71F48
:10202000838B948BA58BB68BD70152961C9280EC38
:1020300091E04FCFEF92FF920F931F93CF93DF93D7
:10204000EC017B018A011B821A8288EE93E0A0E0FA
:10205000B0E08C839D83AE83BF838EE091E0998353
:1020600088838DE190E00E9441179A8F898F0097B5
:1020700079F02DE1F701DC0101900D922A95E1F74D
:102080004CE050E0B801CE010C960E947318188EF7
:10209000DF91CF911F910F91FF90EF9008951F92C4
:1020A0000F920FB60F9211242F933F934F935F938C
:1020B0006F937F938F939F93AF93BF93EF93FF9310
:1020C00082EC93E00E942C01FF91EF91BF91AF91C0
:1020D0009F918F917F916F915F914F913F912F9140
:1020E0000F900FBE0F901F9018951F920F920FB672
:1020F0000F9211242F938F939F93EF93FF93E0916F
:10210000D203F091D3038081E091D803F091D903F9
:1021100082FD1BC090818091DB038F5F8F732091C4
:10212000DC03821741F0E091DB03F0E0EE53FC4F5B
:10213000958F8093DB03FF91EF919F918F912F916A
:102140000F900FBE0F901F9018958081F4CF1F92B3
:102150000F920FB60F9211242F933F938F939F935B
:10216000AF93BF938091AC019091AD01A091AE016E
:10217000B091AF013091AB0123E0230F2D3758F51B
:102180000196A11DB11D2093AB018093AC019093EA
:10219000AD01A093AE01B093AF018091B0019091D9
:1021A000B101A091B201B091B3010196A11DB11D81
:1021B0008093B0019093B101A093B201B093B301A9
:1021C000BF91AF919F918F913F912F910F900FBE33
:1021D0000F901F90189526E8230F0296A11DB11DA0
:1021E000D2CF1F920F920FB60F9211248F939F930D
:1021F000809179008093B5018091BE019091BF01DB
:1022000001969093BF018093BE019F918F910F9093
:102210000FBE0F901F901895E2ECF3E0138212822C
:1022200088EE93E0A0E0B0E084839583A683B78333
:1022300080E291E09183808385EC90E095878487AC
:1022400084EC90E09787868780EC90E0918B808B80
:1022500081EC90E0938B828B82EC90E0958B848B69
:1022600086EC90E0978B868B118E128E138E148ED7
:10227000EFE5F4E080E580831182E1E6F4E0158289
:1022800016821186138682E090E0A0E0B0E0848799
:102290009587A687B78713A215A614A682E391E0B7
:1022A00093A782A717A60895CF93DF93CDB7DEB784
:1022B000C257D1090FB6F894DEBF0FBECDBF7894D8
:1022C00084B5826084BD84B5816084BD85B582603B
:1022D00085BD85B5816085BD80916E0081608093EC
:1022E0006E00109281008091810082608093810055
:1022F0008091810081608093810080918000816065
:10230000809380008091B10084608093B1008091BF
:10231000B00081608093B00080917A0084608093E7
:102320007A0080917A00826080937A0080917A00AE
:10233000816080937A0080917A00806880937A002F
:102340001092C100E091D203F091D30382E0808328
:10235000E091CE03F091CF031082E091D003F09191
:10236000D10380E180831092DA03E091D603F091EB
:10237000D70386E08083E091D403F091D503808178
:1023800080618083E091D403F091D50380818860DF
:102390008083E091D403F091D503808180688083AD
:1023A000E091D403F091D50380818F7D80831092DA
:1023B0007A0010927B0080917C0080937C00809159
:1023C0007C00806480937C0080917C00806280939C
:1023D0007C0080917A00846080937A0080917A00FA
:1023E000806280937A0080917A00886080937A007E
:1023F00080917A00806880937A0080917A0080646E
:1024000080937A0080919004882321F08BE894E0F7
:102410000E94D00910926C0410926A041092670412
:10242000109266048AE0809365040E942C028B015E
:10243000809165040E948F0061E0809165040E9494
:10244000BB01FFB6F8948091B401811124C0EAEA7F
:10245000F0E08491EEEBF0E09491E82FF0E0EE0FE5
:10246000FF1FEA56FF4FA591B491EC91E92321F4A7
:1024700061E08AE00E94BB018AE00E948F008CB577
:1024800080618CBD8CB580648CBD8DE00E948F0016
:102490008BE00E948F008091B4018F5F8093B40124
:1024A000FFBE82E580935F041092600480915F0418
:1024B000909160040E946E024AE0F42E8FEF0E9419
:1024C0004902FA94F110FACF81E694E00E94710279
:1024D00020E030E0A90160E081E694E00E948702FC
:1024E000F82E80936B0421E0821799F00E942C0251
:1024F000601B710B613D774058F381E08093660467
:1025000081E694E00E943E028DE391E00E945B0E22
:10251000FFCF2AEA31E040E050E068E081E694E055
:102520000E94870282FF2AC0F0926C0480916C04A2
:10253000C12CD12C7601823029F4C12CD12CE12C74
:1025400020E4F22E20E030E0A90167E381E694E088
:102550000E948702A701960169E281E694E00E9449
:10256000870280936B048823D1F00E942C02601BA9
:10257000710B613D774030F388E0C0CF34E0F32E3B
:102580000E94500280936B04FA94F110F9CF8A3ABA
:1025900011F082E0B3CF82E080936C04C7CF8091CA
:1025A0006C048230D1F420E030E0A9016AE381E6D6
:1025B00094E00E948702882311F086E09FCF0E945A
:1025C0005002807C803C19F483E080936C040E946C
:1025D00050020E9450020E94500281E694E00E9444
:1025E0003E0280E580935F041092600481E00E94C7
:1025F0008D04882309F410C18BE894E00E944407FD
:1026000002E311E09EE0292E91E0392E882309F49F
:102610007BCF8091BE019091BF01883E93400CF426
:1026200090C00E940702C090BA01D090BB01E09018
:10263000BC01F090BD016C197D098E099F09609362
:10264000B6017093B7018093B8019093B9016AE520
:1026500071E082EC93E00E94000E6091B6017091EF
:10266000B7018091B8019091B9010E94D8159B01E2
:10267000AC0160E074E284E799E40E9435156B01D7
:102680007C014B015C01AC019B010E94FA166FE6D4
:1026900071E081111BC026013701E89477F82FEF14
:1026A0003FEF4FE75FE7C301B2010E94FA168111C5
:1026B000BAC02FEF3FEF4FE75FE7C301B2010E94BF
:1026C000301518160CF0AFC063E771E082EC93E0B0
:1026D0000E94000E8BE791E00E945B0E0E940702B1
:1026E0006B017C0180ED882E87E0982EA12CB12C07
:1026F0000E9407026C197D098E099F09683E73408C
:1027000081059105A8F3B1E08B1A9108A108B108E1
:1027100028EEC20E23E0D21EE11CF11C81149104AC
:10272000A104B10429F70E9407026093BA017093D3
:10273000BB018093BC019093BD011092BF01109228
:10274000BE011C821B821A8309831E82CE01019660
:102750000E944407BE016F5F7F4FCE01CB960E945F
:10276000890B19A218A21F8F0E8F1BA221968FAD65
:1027700021978111D8C06C961FAE1EAE6C9788EE63
:1027800093E0A0E0B0E0A0968CAF9DAFAEAFBFAF3E
:10279000A0976A963FAE2EAE6A97E3961FAE1EAE26
:1027A000E397A5961FAEA597E396EEADFFADE39731
:1027B000309709F4E3C08581882309F4DFC0409194
:1027C000B50150E070E060E02AE0CE01885A9F4FEA
:1027D0000E940F0E6AE371E0CE01885A9F4F0E945B
:1027E000000EE3968EAD9FADE397009741F00E94F7
:1027F000D009E3968EAD9FADE3970E94DD17A0E070
:10280000B0E0AB2B09F405CF0E941801882309F42E
:1028100000CF0E940000FDCE80E00E948D0488233E
:1028200009F472CEE9CE2FEF3FEF4FE75FE4C70127
:10283000B6010E94881618161CF467E771E046CFAF
:102840002FEF3FEF4FE75FECC701B6010E94301555
:1028500087FDF3CF20E030E0A901C701B6010E9457
:10286000301587FF0BC06DE282EC93E00E944E01B1
:1028700046015701B7FAB094B7F8B0942AE037EDA3
:1028800043EA5BE3C501B4010E94C4144B015C013F
:102890000E94A7156B017C010E94D6159B01AC011B
:1028A000C501B4010E94C3144B015C012AE0B701C9
:1028B000A60182EC93E00E940F0E6EE282EC93E0A0
:1028C0000E944E0120E030E040E251E4C501B40135
:1028D0000E948D164B015C010E94A7156B01F12C23
:1028E000E12C2AE0B701A60182EC93E00E940F0ED2
:1028F000C701B6010E94D6159B01AC01C501B40108
:102900000E94C31420E030E040E251E40E948D16A2
:102910000E94A715AB0170E060E02AE082EC93E032
:102920000E940F0ED7CE27E140E851E0BE01655C62
:102930007F4FCE014E960E946E0E882309F41BCF66
:10294000CE01CB960E94D00949A95AA96BA97CA9AE
:10295000CE014E960E949807BE01625E7F4FCE0167
:1029600001960E94890B40E851E0BE016F5F7F4FE6
:10297000CE01885A9F4F0E941A1016CF8CE891E022
:102980000E945B0E3CCF5058BB27AA270E94DB1445
:102990000C944E160E94401638F00E94471620F004
:1029A00039F49F3F19F426F40C943D160EF4E0958B
:1029B000E7FB0C943716E92F0E945F1658F3BA17FD
:1029C000620773078407950720F079F4A6F50C9445
:1029D00081160EF4E0950B2EBA2FA02D0B01B90134
:1029E00090010C01CA01A0011124FF27591B99F085
:1029F000593F50F4503E68F11A16F040A22F232F91
:102A0000342F4427585FF3CF469537952795A795E0
:102A1000F0405395C9F77EF41F16BA0B620B730B87
:102A2000840BBAF09150A1F0FF0FBB1F661F771FF8
:102A3000881FC2F70EC0BA0F621F731F841F48F4AD
:102A4000879577956795B795F7959E3F08F0B0CF36
:102A50009395880F08F09927EE0F9795879508951D
:102A60000E94131608F481E008950E9449150C9401
:102A70004E160E94471658F00E94401640F029F466
:102A80005F3F29F00C94371651110C9482160C9468
:102A90003D160E945F1668F39923B1F3552391F315
:102AA000951B550BBB27AA2762177307840738F0BD
:102AB0009F5F5F4F220F331F441FAA1FA9F335D01A
:102AC0000E2E3AF0E0E832D091505040E695001CCE
:102AD000CAF72BD0FE2F29D0660F771F881FBB1F88
:102AE000261737074807AB07B0E809F0BB0B802D66
:102AF000BF01FF2793585F4F3AF09E3F510578F092
:102B00000C9437160C9482165F3FE4F3983ED4F38E
:102B1000869577956795B795F7959F5FC9F7880F65
:102B2000911D9695879597F90895E1E0660F771FB7
:102B3000881FBB1F621773078407BA0720F0621B48
:102B4000730B840BBA0BEE1F88F7E09508950E9473
:102B5000671688F09F5798F0B92F9927B751B0F0B2
:102B6000E1F0660F771F881F991F1AF0BA95C9F711
:102B700014C0B13091F00E948116B1E008950C9418
:102B80008116672F782F8827B85F39F0B93FCCF3CB
:102B9000869577956795B395D9F73EF4909580958E
:102BA000709561957F4F8F4F9F4F0895E89409C0AE
:102BB00097FB3EF490958095709561957F4F8F4F70
:102BC0009F4F9923A9F0F92F96E9BB279395F69586
:102BD000879577956795B795F111F8CFFAF4BB0F04
:102BE00011F460FF1BC06F5F7F4F8F4F9F4F16C068
:102BF000882311F096E911C0772321F09EE8872FF2
:102C0000762F05C0662371F096E8862F70E060E0AD
:102C10002AF09A95660F771F881FDAF7880F969526
:102C2000879597F90895990F0008550FAA0BE0E8CA
:102C3000FEEF16161706E807F907C0F0121613067E
:102C4000E407F50798F0621B730B840B950B39F4BE
:102C50000A2661F0232B242B252B21F408950A2624
:102C600009F4A140A6958FEF811D811D089597F964
:102C70009F6780E870E060E008959FEF80EC089522
:102C800000240A941616170618060906089500244B
:102C90000A9412161306140605060895092E0394C5
:102CA000000C11F4882352F0BB0F40F4BF2B11F439
:102CB00060FF04C06F5F7F4F8F4F9F4F089557FD98
:102CC0009058440F551F59F05F3F71F04795880F9A
:102CD00097FB991F61F09F3F79F087950895121631
:102CE00013061406551FF2CF4695F1DF08C01616DD
:102CF00017061806991FF1CF86957105610508948E
:102D00000895E894BB2766277727CB0197F90895A4
:102D10000E94131608F48FEF08950E94A0160C94D9
:102D20004E160E94401638F00E94471620F0952358
:102D300011F00C9437160C943D1611240C94821645
:102D40000E945F1670F3959FC1F3950F50E0551FD9
:102D5000629FF001729FBB27F00DB11D639FAA27F0
:102D6000F00DB11DAA1F649F6627B00DA11D661F3F
:102D7000829F2227B00DA11D621F739FB00DA11D60
:102D8000621F839FA00D611D221F749F3327A00D1A
:102D9000611D231F849F600D211D822F762F6A2FB6
:102DA00011249F5750409AF0F1F088234AF0EE0F1B
:102DB000FF1FBB1F661F771F881F91505040A9F748
:102DC0009E3F510580F00C9437160C9482165F3F9D
:102DD000E4F3983ED4F3869577956795B795F79584
:102DE000E7959F5FC1F7FE2B880F911D96958795FC
:102DF00097F908950E941316880B990B0895A1E284
:102E00001A2EAA1BBB1BFD010DC0AA1FBB1FEE1F64
:102E1000FF1FA217B307E407F50720F0A21BB30BAF
:102E2000E40BF50B661F771F881F991F1A9469F72B
:102E300060957095809590959B01AC01BD01CF0187
:102E400008950E943217A59F900DB49F900DA49FE6
:102E5000800D911D11240895EE0FFF1F0590F49130
:102E6000E02D0994A29FB001B39FC001A39F700DF4
:102E7000811D1124911DB29F700D811D1124911D82
:102E800008950F931F93CF93DF938230910510F431
:102E900082E090E0E091AC04F091AD0430E020E0FD
:102EA000B0E0A0E0309799F42115310509F44AC04B
:102EB000281B390B24303105D8F58A819B81611597
:102EC000710589F1FB0193838283FE0111C040816A
:102ED00051810281138148175907E0F048175907BB
:102EE00099F4109761F012960C93129713961C9315
:102EF0003296CF01DF91CF911F910F9108950093EA
:102F0000AC041093AD04F4CF2115310551F04217F4
:102F1000530738F0A901DB019A01BD01DF01F80177
:102F2000C1CFEF01F9CF9093AD048093AC04CDCF26
:102F3000FE01E20FF31F81939193225031093983EF
:102F40002883D7CF2091AA043091AB04232B41F4DE
:102F500020910601309107013093AB042093AA041D
:102F600020910401309105012115310541F42DB75F
:102F70003EB74091080150910901241B350BE091A7
:102F8000AA04F091AB04E217F307A0F42E1B3F0B49
:102F90002817390778F0AC014E5F5F4F24173507CB
:102FA00048F04E0F5F1F5093AB044093AA048193E7
:102FB00091939FCFF0E0E0E09CCFCF93DF93009719
:102FC000E9F0FC01329713821282A091AC04B09117
:102FD000AD04ED0130E020E01097A1F420813181B3
:102FE000820F931F2091AA043091AB042817390750
:102FF00009F061C0F093AB04E093AA04DF91CF9194
:103000000895EA01CE17DF07E8F54A815B819E014A
:1030100041155105B1F7E901FB83EA8349915991C3
:10302000C40FD51FEC17FD0761F4808191810296D2
:10303000840F951FE90199838883828193819B8303
:103040008A83F0E0E0E012968D919C9113970097AF
:10305000B9F52D913C911197CD010296820F931FE6
:103060002091AA043091AB042817390739F630971C
:1030700051F51092AD041092AC04B093AB04A09340
:10308000AA04BCCFD383C28340815181840F951F92
:10309000C817D90761F44E5F5F4F88819981480F47
:1030A000591F518340838A819B8193838283211599
:1030B000310509F0B0CFF093AD04E093AC049ECF9E
:1030C000FD01DC01C0CF13821282D7CFFB01DC01EE
:1030D00004C08D910190801921F441505040C8F7EF
:1030E000881B990B0895FB01DC014150504048F0CA
:1030F00001900D920020C9F701C01D92415050402F
:10310000E0F70895F894FFCFFFFFFFFF0000AE0443
:10311000800000000000300C130C030CDA0BE30BF2
:10312000660D700D000000004E01AE00DB009B013B
:103130000C01EA00FE0000000000780BAE007209EE
:10314000D90B0D0A0043617264206661696C656485
:10315000206F72206E6F742070726573656E7420BC
:10316000210053616D706C696E67206672657175C0
:10317000656E63793A20006E616E00696E66006F5D
:10318000766600204B487A006D7573696330342E83
:10319000747874004572726F72206F70656E696E1C
:0C31A00067207468652066696C6521007A
:107E0000112484B714BE81FFF0D085E080938100F7
:107E100082E08093C00088E18093C10086E0809377
:107E2000C20080E18093C4008EE0C9D0259A86E02C
:107E300020E33CEF91E0309385002093840096BBD3
:107E4000B09BFECF1D9AA8958150A9F7CC24DD24C4
:107E500088248394B5E0AB2EA1E19A2EF3E0BF2EE7
:107E6000A2D0813461F49FD0082FAFD0023811F036
:107E7000013811F484E001C083E08DD089C08234E0
:107E800011F484E103C0853419F485E0A6D080C0E4
:107E9000853579F488D0E82EFF2485D0082F10E0AE
:107EA000102F00270E291F29000F111F8ED06801E7
:107EB0006FC0863521F484E090D080E0DECF843638
:107EC00009F040C070D06FD0082F6DD080E0C81688
:107ED00080E7D80618F4F601B7BEE895C0E0D1E017
:107EE00062D089930C17E1F7F0E0CF16F0E7DF06D8
:107EF00018F0F601B7BEE89568D007B600FCFDCFD4
:107F0000A601A0E0B1E02C9130E011968C91119780
:107F100090E0982F8827822B932B1296FA010C0160
:107F200087BEE89511244E5F5F4FF1E0A038BF0790
:107F300051F7F601A7BEE89507B600FCFDCF97BE46
:107F4000E89526C08437B1F42ED02DD0F82E2BD052
:107F50003CD0F601EF2C8F010F5F1F4F84911BD097
:107F6000EA94F801C1F70894C11CD11CFA94CF0C13
:107F7000D11C0EC0853739F428D08EE10CD085E9AC
:107F80000AD08FE07ACF813511F488E018D01DD067
:107F900080E101D065CF982F8091C00085FFFCCF94
:107FA0009093C60008958091C00087FFFCCF809118
:107FB000C00084FD01C0A8958091C6000895E0E648
:107FC000F0E098E1908380830895EDDF803219F02E
:107FD00088E0F5DFFFCF84E1DECF1F93182FE3DFCA
:107FE0001150E9F7F2DF1F91089580E0E8DFEE27F6
:047FF000FF270994CA
:027FFE00040479
:00000001FF
