:100000000C9434000C9451000C9451000C94510049
:100010000C9451000C9451000C9451000C9451001C
:100020000C9451000C9451000C9451000C9451000C
:100030000C9451000C9451000C9451000C945100FC
:100040000C9451000C9451000C9451000C945100EC
:100050000C9451000C9451000C9451000C945100DC
:100060000C9451000C94510011241FBECFEFD8E026
:10007000DEBFCDBF11E0A0E0B1E0E4E0F8E002C0F7
:1000800005900D92AA3AB107D9F721E0AAEAB1E0AA
:1000900001C01D92A13BB207E1F70E94A1030C949D
:1000A00000040C94000082E68093B80084E0809302
:1000B000BC001092B900089584EA8093BC0080913E
:1000C000BC008823E4F708958093BB0084E8809304
:1000D000BC008091BC008823E4F7089540E050E024
:1000E0000AC02F5F3F4F02C020E030E029373105C2
:1000F000C4F34F5F5F4F84179507B4F70895EBEB98
:10010000F0E080818260808384E88093BC008091ED
:10011000BC008823E4F781E090E00E946E00EBEBE6
:10012000F0E080818D7F808384E88093BC008091A3
:10013000BC008823E4F70895EBEBF0E090819E7F0C
:10014000908394E89093BC009091BC009923E4F7CD
:10015000EBEBF0E090819F70908394E89093BC006B
:100160009091BC009923E4F7EBEBF0E09081807F65
:10017000892B808384E88093BC008091BC00882315
:10018000E4F70E947F000895CF93C82FEBEBF0E0D7
:1001900080818E7F808384E88093BC008091BC0046
:1001A0008823E4F7EBEBF0E080818F70808384E8B4
:1001B0008093BC008091BC008823E4F7EBEBF0E077
:1001C00080819C2F907F892B808384E88093BC0062
:1001D0008091BC008823E4F70E947F00EBEBF0E005
:1001E00080818F70808384E88093BC008091BC0004
:1001F0008823E4F7EBEBF0E0208130E1C39FC001FE
:100200001124822B808384E88093BC008091BC0001
:100210008823E4F70E947F00CF91089580E30E9435
:100220009C0080E30E949C0080E20E949C0088E287
:100230000E94C40081E00E94C40086E00E94C400C5
:1002400080E80E94C4008FE00E94C4000895CF930C
:10025000C82FEBEBF0E080818160808384E880939D
:10026000BC008091BC008823E4F7EBEBF0E08081D8
:100270008F70808384E88093BC008091BC008823C9
:10028000E4F7EBEBF0E080819C2F907F892B80835B
:1002900084E88093BC008091BC008823E4F70E942E
:1002A0007F00EBEBF0E080818F70808384E88093A7
:1002B000BC008091BC008823E4F7EBEBF0E02081E8
:1002C00030E1C39FC0011124822B808384E8809396
:1002D000BC008091BC008823E4F70E947F00CF918E
:1002E0000895CF93DF93EC0103C021960E9427016C
:1002F00088818111FACFDF91CF9108958091AE016D
:10030000823049F480E80E94C40081E090E090933C
:10031000AB018093AA018091AD01843049F480EC57
:100320000E94C40082E090E09093AB018093AA0108
:10033000089581E00E94C40080E80E94C40084E126
:100340000E94C40082E091E00E94710180EC0E9452
:10035000C40084E10E94C40081E191E00E94710127
:1003600081E090E090930101809300011092AB0135
:100370001092AA010895CF93DF938091B00181304C
:10038000E9F51FC081E00E94C4008EE191E00E9467
:100390007101C0E0D0E00BC088E291E00E947101E1
:1003A00083ED90E30197F1F700C000002196C5307E
:1003B000D10594F389B181708093B00181E00E94EE
:1003C000C4008091B0018130E9F28AE291E00E949C
:1003D00071019FE32DE083E0915020408040E1F7E0
:1003E00000C000000E9499011092AB011092AA0176
:1003F00081E090E09093010180930001DF91CF9123
:10040000089581E00E94C40080E80E94C40084E155
:100410000E94C40085E591E00E94710180EC0E9479
:10042000C40084E10E94C40083E791E00E9471014E
:1004300082E090E090930101809300011092AB0163
:100440001092AA01089581E00E94C40080E80E94F1
:10045000C40084E10E94C40085E591E00E9471011E
:1004600080EC0E94C40084E10E94C40083E791E014
:100470000E94710183E090E090930101809300015C
:100480001092AB011092AA0108958091AF018830BB
:1004900069F58091AA019091AB01019739F580919E
:1004A000000190910101029709F581E00E94C400CA
:1004B00080E80E94C40084E10E94C40085E391E0CA
:1004C0000E94710180EC0E94C40084E10E94C4007B
:1004D00082E691E00E94710184E090E09093010136
:1004E000809300011092AB011092AA018091AF019C
:1004F000883069F58091AA019091AB01029739F596
:100500008091000190910101029709F581E00E941C
:10051000C40080E80E94C40084E10E94C40085E316
:1005200091E00E94710180EC0E94C40084E10E946D
:10053000C40082E691E00E94710185E090E0909312
:100540000101809300011092AB011092AA0108955D
:100550008091AF018830C9F48091AA019091AB01DC
:10056000019799F48091000190910101049769F439
:1005700081E00E94C40080E80E94C40084E10E94DF
:10058000C4008FE391E00E9471018091AF01883037
:1005900019F58091AA019091AB010297E9F480913D
:1005A0000001909101010497B9F481E00E94C40018
:1005B00080E80E94C40084E10E94C4008DE491E0C0
:1005C0000E94710180EC0E94C40084E10E94C4007A
:1005D0008DE591E00E9471018091AF018830C9F4EE
:1005E0008091AA019091AB01019799F4809100014B
:1005F00090910101059769F481E00E94C40080E8B0
:100600000E94C40084E10E94C4008BE691E00E9435
:1006100071018091AF01883019F58091AA01909104
:10062000AB010297E9F480910001909101010597D7
:10063000B9F481E00E94C40080E80E94C40084E113
:100640000E94C4008BE691E00E94710180EC0E9440
:10065000C40084E10E94C4008DE591E00E94710114
:1006600008958091AF01883069F58091AA01909139
:10067000AB01892B39F18091000190910101039721
:1006800009F581E00E94C40080E80E94C40084E172
:100690000E94C4008BE791E00E94710180EC0E94EF
:1006A000C40084E10E94C40088E891E00E947101C6
:1006B00086E090E090930101809300011092AB01DD
:1006C0001092AA0108958091AF018830F1F48091D1
:1006D0000001909101010697C1F481E00E94C400DD
:1006E00080E80E94C40084E10E94C40082E991E095
:1006F0000E9471012FE38DE093E0215080409040F3
:10070000E1F700C000000E94990108958091AC01BA
:10071000803149F480910001909101010297029784
:1007200010F40E9499018091AC01803149F48091CC
:100730000001909101010497029710F40E940102B8
:1007400008958AB1807E8AB90E9453000E945C009D
:1007500080E70E9464000E940E018AE991E00E94F5
:10076000710183ED90E30197F1F700C000000E9452
:10077000990189B181708093B00189B182708093B1
:10078000AE0189B184708093AD0189B18870809386
:10079000AF0189B180718093AC010E94BB010E94BE
:1007A0007E018091AF01883071F4809100019091B9
:1007B0000101019741F48091AA019091AB01019749
:1007C00011F40E9401028091AF01883071F4809190
:1007D000000190910101019741F48091AA0190914B
:1007E000AB01029711F40E9423020E9445020E946D
:1007F000A8020E9431030E9463030E948603B9CFBE
:04080000F894FFCF9A
:100804000100506C61796261636B20617564696F8A
:100814000044656C65746520417564696F005265B8
:10082400636F7264696E67002E0046696C652053BD
:1008340061766564004E6F2045666665637400509A
:100844006C6179696E6720417564696F00506C61F1
:1008540079696E6720417564696F20310077697426
:100864006820456666656374203100506C6179695F
:100874006E6720417564696F20320050726573732E
:100884002053656C65637400746F2064656C6574D3
:10089400650044656C6574656400566F6963652022
:0A08A4005265636F72646572000014
:00000001FF
