:020000040000FA
:100000000C945D000C9485000C9485000C94850084
:100010000C9485000C9485000C9485000C9485004C
:100020000C9485000C9485000C9485000C9485003C
:100030000C9485000C9485000C9485000C9485002C
:100040000C94EA020C9485000C94B8020C94920271
:100050000C9485000C9485000C9485000C9485000C
:100060000C9485000C94850000000008000201003B
:100070000003040700000000000000000000000072
:10008000250028002B0000000000240027002A0083
:10009000040404040404040402020202020203032E
:1000A0000303030301020408102040800102040836
:1000B0001020010204081020590411241FBECFEFA4
:1000C000D8E0DEBFCDBF11E0A0E0B1E0EAE1FAE0A8
:1000D00002C005900D92AE31B107D9F721E0AEE133
:1000E000B1E001C01D92A63CB207E1F710E0CDE5FA
:1000F000D0E004C02197FE010E940505CC35D10750
:10010000C9F70E9434030C940B050C94000090E096
:10011000FC01EC55FF4F249180579F4FFC018491C7
:10012000882399F090E0880F991FFC01EA57FF4F50
:10013000A591B491FC01E458FF4F859194918FB73C
:10014000F894EC91E22BEC938FBF0895E3E7F0E095
:100150002491EFEAF0E09491EBE9F0E0E491EE23F2
:10016000C9F0222339F0233001F1A8F4213019F12C
:10017000223029F1F0E0EE0FFF1FE458FF4FA59168
:10018000B4912FB7F894EC91811126C090959E23DD
:100190009C932FBF08952730A9F02830C9F0243050
:1001A00049F7209180002F7D03C0209180002F7798
:1001B00020938000DFCF24B52F7724BDDBCF24B57B
:1001C0002F7DFBCF2091B0002F772093B000D2CFAE
:1001D0002091B0002F7DF9CF9E2BDACFAF92BF9246
:1001E000CF92DF92EF92FF920F931F93CF93DF9303
:1001F0006C017B018B01040F151FEB015E01AE1832
:10020000BF08C017D10759F06991D601ED91FC9153
:100210000190F081E02DC6010995892B79F7C50180
:10022000DF91CF911F910F91FF90EF90DF90CF90D2
:10023000BF90AF900895FC01538D448D252F30E081
:10024000842F90E0821B930B541710F0CF960895E3
:1002500001970895FC01918D828D981761F0A28D10
:10026000AE0FBF2FB11D5D968C91928D9F5F9F73D6
:10027000928F90E008958FEF9FEF0895FC01918D8C
:10028000828D981731F0828DE80FF11D858D90E0F9
:1002900008958FEF9FEF0895FC01918D228D892F96
:1002A00090E0805C9F4F821B91098F73992708957E
:1002B00089E291E00E944C0121E0892B09F420E0C1
:1002C000822F089580E090E0892B29F00E94580148
:1002D00081110C9400000895FC01A48DA80FB92F82
:1002E000B11DA35ABF4F2C91848D90E001968F735E
:1002F0009927848FA689B7892C93A089B1898C917D
:10030000837080648C93938D848D981306C00288CB
:10031000F389E02D80818F7D80830895EF92FF9295
:100320000F931F93CF93DF93EC0181E0888F9B8D18
:100330008C8D98131AC0E889F989808185FF15C0D2
:100340009FB7F894EE89FF896083E889F9898081F5
:100350008370806480839FBF81E090E0DF91CF91C4
:100360001F910F91FF90EF900895F62E0B8D10E0E6
:100370000F5F1F4F0F731127E02E8C8D8E110CC055
:100380000FB607FCFACFE889F989808185FFF5CFA0
:10039000CE010E946C01F1CFEB8DEC0FFD2FF11D12
:1003A000E35AFF4FF0829FB7F8940B8FEA89FB89DD
:1003B00080818062CFCFCF93DF93EC01888D88233B
:1003C000B9F0AA89BB89E889F9898C9185FD03C0B8
:1003D000808186FD0DC00FB607FCF7CF8C9185FF9D
:1003E000F2CF808185FFEDCFCE010E946C01E9CF75
:1003F000DF91CF9108953FB7F894809123019091B8
:100400002401A0912501B091260126B5A89B05C025
:100410002F3F19F00196A11DB11D3FBFBA2FA92F83
:10042000982F8827BC01CD01620F711D811D911D80
:1004300042E0660F771F881F991F4A95D1F70895EC
:10044000FC0101900020E9F73197AF01481B590BDF
:10045000BC0189E291E00C94EE008F929F92AF92E2
:10046000BF920F931F93CF93DF93CDB7DEB7A197C2
:100470000FB6F894DEBF0FBECDBF19A2423008F40C
:100480004AE08E010F5D1F4F842E912CB12CA12CC0
:10049000A50194010E94A504E62FB901CA01EA3022
:1004A000F4F4E05DD801EE938D01232B242B252B52
:1004B00079F790E080E0109719F0CD010E942002BA
:1004C000A1960FB6F894DEBF0FBECDBFDF91CF91DE
:1004D0001F910F91BF90AF909F908F900895E95C0E
:1004E000E1CFCF92DF92EF92FF92CF93DF936B0138
:1004F0007C016DE289E291E00E948E01EC016627A9
:100500007727CB016C197D098E099F094AE00E946B
:100510002D028C0F9D1FDF91CF91FF90EF90DF9008
:10052000CF9008951F920F920FB60F9211242F9320
:100530003F934F935F936F937F938F939F93AF936B
:10054000BF93EF93FF9389E291E00E946C01FF91CA
:10055000EF91BF91AF919F918F917F916F915F913B
:100560004F913F912F910F900FBE0F901F901895B4
:100570001F920F920FB60F9211242F938F939F9378
:10058000EF93FF93E0913901F0913A018081E0917E
:100590003F01F091400182FD1BC09081809142019A
:1005A0008F5F8F7320914301821741F0E0914201E8
:1005B000F0E0E75DFE4F958F80934201FF91EF9150
:1005C0009F918F912F910F900FBE0F901F901895B4
:1005D0008081F4CF1F920F920FB60F9211242F93A8
:1005E0003F938F939F93AF93BF9380911F019091FF
:1005F0002001A0912101B091220130911E0123E040
:10060000230F2D3758F50196A11DB11D20931E0112
:1006100080931F0190932001A0932101B0932201A8
:100620008091230190912401A0912501B091260190
:100630000196A11DB11D8093230190932401A093E5
:100640002501B0932601BF91AF919F918F913F916A
:100650002F910F900FBE0F901F90189526E8230F33
:100660000296A11DB11DD2CFCF93DF93CDB7DEB7D8
:1006700060970FB6F894DEBF0FBECDBF789484B5F7
:10068000826084BD84B5816084BD85B5826085BD8E
:1006900085B5816085BD80916E00816080936E001C
:1006A000109281008091810082608093810080910E
:1006B00081008160809381008091800081608093BF
:1006C00080008091B10084608093B1008091B0007F
:1006D00081608093B00080917A00846080937A007A
:1006E00080917A00826080937A0080917A008160A4
:1006F00080937A0080917A00806880937A001092CB
:10070000C100E0913901F0913A0182E08083E091EB
:100710003501F09136011082E0913701F0913801F6
:100720008FEC808310924101E0913D01F0913E01F8
:1007300086E08083E0913B01F0913C018081806103
:100740008083E0913B01F0913C018081886080834F
:10075000E0913B01F0913C01808180688083E091D1
:100760003B01F0913C0180818F7D80838BE00E9472
:10077000870081E00E94870050E4352E44244A948B
:1007800063E0562E612C712CCE0101964C0172E073
:10079000C72ED12CE0E0AE2EE0E0BE2E30927C00E1
:1007A00080917A00806480937A0080917A0086FD3F
:1007B000FCCF9091780080917900382F292F3093C9
:1007C000280120932701B901032E000C880B990BF7
:1007D00037FF61C00E94710282E191E00E94200215
:1007E000009127011091280181E0023011050CF4DD
:1007F00080E00E94A6002FEF30E0D8010E94EA04BA
:10080000A30192010E948604CA01B901890197FFE0
:1008100046C00E94710282E191E00E9420020E9483
:10082000FB0185E191E00E9420029E012F5E3F4F77
:10083000C801B6010E94D60417FF02C00F5F1F4F08
:1008400015950795F901929382937F018E169F0665
:1008500051F58901025F1F4FF701619171917F018D
:10086000072E000C880B990B97FF1FC00E94710286
:10087000E016F10689F782E191E00E942002A114BE
:10088000B10409F48BCF0E945801882309F486CF64
:100890000E94000083CF4AE00E942D029DCF4AE0D3
:1008A0000E942D02B8CF9701C3CF4AE00E942D02CB
:1008B000DFCFE9E2F1E01382128288EE93E0A0E05C
:1008C000B0E084839583A683B78384E091E091832D
:1008D000808385EC90E09587848784EC90E097870F
:1008E000868780EC90E0918B808B81EC90E0938BFD
:1008F000828B82EC90E0958B848B86EC90E0978BDA
:10090000868B118E128E138E148E0895052E97FBF2
:100910001EF400940E949D0457FD07D00E94A50478
:1009200007FC03D04EF40C949D04509540953095EF
:1009300021953F4F4F4F5F4F08959095809570954B
:1009400061957F4F8F4F9F4F0895A1E21A2EAA1BEA
:10095000BB1BFD010DC0AA1FBB1FEE1FFF1FA2176F
:10096000B307E407F50720F0A21BB30BE40BF50B6C
:10097000661F771F881F991F1A9469F760957095F5
:10098000809590959B01AC01BD01CF010895A29F78
:10099000B001B39FC001A39F700D811D1124911D53
:1009A000B29F700D811D1124911D089597FB072E94
:1009B00016F4009407D077FD09D00E94F10407FCDB
:1009C00005D03EF4909581959F4F0895709561955F
:1009D0007F4F08950E94C704B7FF0895821B930BB1
:1009E0000895AA1BBB1B51E107C0AA1FBB1FA61776
:1009F000B70710F0A61BB70B881F991F5A95A9F7C8
:100A000080959095BC01CD010895EE0FFF1F0590D4
:100A1000F491E02D0994F894FFCF000000008E01BE
:100A2000EE001B01DB014C012A013E010D0A0038DA
:080A3000206269743A20000005
:107E0000112484B714BE81FFF0D085E080938100F7
:107E100082E08093C00088E18093C10086E0809377
:107E2000C20080E18093C4008EE0C9D0259A86E02C
:107E300020E33CEF91E0309385002093840096BBD3
:107E4000B09BFECF1D9AA8958150A9F7CC24DD24C4
:107E500088248394B5E0AB2EA1E19A2EF3E0BF2EE7
:107E6000A2D0813461F49FD0082FAFD0023811F036
:107E7000013811F484E001C083E08DD089C08234E0
:107E800011F484E103C0853419F485E0A6D080C0E4
:107E9000853579F488D0E82EFF2485D0082F10E0AE
:107EA000102F00270E291F29000F111F8ED06801E7
:107EB0006FC0863521F484E090D080E0DECF843638
:107EC00009F040C070D06FD0082F6DD080E0C81688
:107ED00080E7D80618F4F601B7BEE895C0E0D1E017
:107EE00062D089930C17E1F7F0E0CF16F0E7DF06D8
:107EF00018F0F601B7BEE89568D007B600FCFDCFD4
:107F0000A601A0E0B1E02C9130E011968C91119780
:107F100090E0982F8827822B932B1296FA010C0160
:107F200087BEE89511244E5F5F4FF1E0A038BF0790
:107F300051F7F601A7BEE89507B600FCFDCF97BE46
:107F4000E89526C08437B1F42ED02DD0F82E2BD052
:107F50003CD0F601EF2C8F010F5F1F4F84911BD097
:107F6000EA94F801C1F70894C11CD11CFA94CF0C13
:107F7000D11C0EC0853739F428D08EE10CD085E9AC
:107F80000AD08FE07ACF813511F488E018D01DD067
:107F900080E101D065CF982F8091C00085FFFCCF94
:107FA0009093C60008958091C00087FFFCCF809118
:107FB000C00084FD01C0A8958091C6000895E0E648
:107FC000F0E098E1908380830895EDDF803219F02E
:107FD00088E0F5DFFFCF84E1DECF1F93182FE3DFCA
:107FE0001150E9F7F2DF1F91089580E0E8DFEE27F6
:047FF000FF270994CA
:027FFE00040479
:00000001FF
