:020000040000FA
:100000000C946B000C9493000C9493000C9493004C
:100010000C9493000C9493000C9493000C94930014
:100020000C9493000C9493000C9493000C94930004
:100030000C9493000C9493000C9493000C949300F4
:100040000C94D0170C9493000C949E170C94781772
:100050000C9493000C9493000C9493000C949300D4
:100060000C941A180C9493007C3C3E5E2B3D3F2F61
:100070005B5D3B2C2A225C0000000000250028006C
:100080002B000000000023002600290000000008CB
:10009000000201000003040700000000000000004F
:1000A00000000000240027002A000102040810209C
:1000B00040800102040810200102040810200404FA
:1000C0000404040404040202020202020303030300
:1000D00003033519092211241FBECFEFD8E0DEBF7C
:1000E000CDBF26E0ACE3B2E001C01D92A539B20756
:1000F000E1F712E0A0E0B1E0EAE4FDE402C005901F
:100100000D92AC33B107D9F710E0CAE6D0E004C0D5
:100110002197FE010E947924C936D107C9F70E94B0
:10012000FD190C9498260C9400000895DB01149698
:100130004D915C9115976D917C91DC01ED91FC9155
:100140000280F381E02D0994AF92BF92CF92DF92AB
:10015000EF92FF920F931F93CF93DF936C017B017C
:100160008B01040F151FEB015E01AE18BF08C0170D
:10017000D10759F06991D601ED91FC910190F08180
:10018000E02DC6010995892B79F7C501DF91CF9143
:100190001F910F91FF90EF90DF90CF90BF90AF90A5
:1001A0000895FC01538D448D252F30E0842F90E07D
:1001B000821B930B541710F0CF9608950197089562
:1001C000FC01918D828D981761F0A28DAE0FBF2F2B
:1001D000B11D5D968C91928D9F5F9F73928F90E081
:1001E00008958FEF9FEF0895FC01918D828D9817F0
:1001F00031F0828DE80FF11D858D90E008958FEF2D
:100200009FEF0895FC01918D228D892F90E0805CF5
:100210009F4F821B91098F739927089582EF94E075
:100220000E94020121E0892B09F420E0822F089529
:1002300080E090E0892B29F00E940E0181110C943E
:1002400000000895FC01A48DA80FB92FB11DA35A79
:10025000BF4F2C91848D90E001968F739927848FE6
:10026000A689B7892C93A089B1898C918370806409
:100270008C93938D848D981306C00288F389E02DAA
:1002800080818F7D80830895EF92FF920F931F935B
:10029000CF93DF93EC0181E0888F9B8D8C8D981339
:1002A0001AC0E889F989808185FF15C09FB7F89445
:1002B000EE89FF896083E889F98980818370806491
:1002C00080839FBF81E090E0DF91CF911F910F91DC
:1002D000FF90EF900895F62E0B8D10E00F5F1F4FEB
:1002E0000F731127E02E8C8D8E110CC00FB607FCFA
:1002F000FACFE889F989808185FFF5CFCE010E9488
:100300002201F1CFEB8DEC0FFD2FF11DE35AFF4FD2
:10031000F0829FB7F8940B8FEA89FB898081806215
:10032000CFCFCF93DF93EC01888D8823B9F0AA89D2
:10033000BB89E889F9898C9185FD03C0808186FDA0
:100340000DC00FB607FCF7CF8C9185FFF2CF8081EF
:1003500085FFEDCFCE010E942201E9CFDF91CF9141
:100360000895833081F028F4813099F08230A9F02B
:1003700008958730A9F08830C9F08430B1F48091B5
:1003800080008F7D03C0809180008F7780938000F4
:10039000089584B58F7784BD089584B58F7DFBCF94
:1003A0008091B0008F778093B00008958091B00065
:1003B0008F7DF9CFCF93DF93282F30E0F901E457F9
:1003C000FF4F8491F901E655FF4FD491F901E254B2
:1003D000FF4FC491CC23A1F081110E94B101EC2FF9
:1003E000F0E0EE0FFF1FEE57FF4FA591B491EC9197
:1003F000ED2381E090E009F480E0DF91CF91089552
:1004000080E090E0FACF1F93CF93DF93282F30E066
:10041000F901E457FF4F8491F901E655FF4FD4915C
:10042000F901E254FF4FC491CC23A9F0162F81119A
:100430000E94B101EC2FF0E0EE0FFF1FE858FF4FD4
:10044000A591B4918FB7F894EC91111108C0D09593
:10045000DE23DC938FBFDF91CF911F910895DE2BB8
:10046000F8CFCF93DF9390E0FC01E655FF4F249146
:1004700082549F4FFC0184918823D1F090E0880F33
:10048000991FFC01E056FF4FA591B491FC01E8587B
:10049000FF4FC591D49161110EC09FB7F8948C9114
:1004A000E22FE0958E238C932881E223E8839FBF7F
:1004B000DF91CF9108958FB7F894EC91E22BEC93F4
:1004C0008FBFF6CF8E50806480937C0080917A003D
:1004D000806480937A0080917A0086FDFCCF8091C1
:1004E00078009091790008953FB7F8948091DF02E9
:1004F0009091E002A091E102B091E20226B5A89BA2
:1005000005C02F3F19F00196A11DB11D3FBFBA2FA5
:10051000A92F982F8827BC01CD01620F711D811D65
:10052000911D42E0660F771F881F991F4A95D1F7EA
:1005300008958F929F92AF92BF92CF92DF92EF92E7
:10054000FF924B015C010E9474026B017C010E94CE
:1005500074026C197D098E099F09683E73408105FC
:100560009105A8F321E0821A9108A108B10888EE4C
:10057000C80E83E0D81EE11CF11C81149104A10473
:10058000B10429F7FF90EF90DF90CF90BF90AF902C
:100590009F908F9008952FB7F8946091DB0270912F
:1005A000DC028091DD029091DE022FBF08958FB7AB
:1005B000F8948091D4028FBF089561E0FC0184819A
:1005C0000E9403028091D30281111092D3020895F8
:1005D0008EBD00000DB407FEFDCF8EB508958FEFE0
:1005E0000C94E8020F931F93CF93DF93EC010E94CA
:1005F000CB028B010E94EF028F3F69F00E94CB0279
:10060000601B710B6C177D07A8F380E0DF91CF9121
:100610001F910F91089581E0F9CF8CBD9DBD089584
:10062000CF93DF93EC018091D302811109C081E067
:100630008093D30280918F05909190050E940D03C5
:1006400060E08C81DF91CF910C9403028F929F9296
:10065000AF92BF92FF920F931F93CF93DF93EC0162
:10066000F62E49015A018E81882389F08F81988561
:100670009C012F5F3F4F38872F838230924018F4C0
:100680000E94EF02F3CFCE010E94DD021E82CE0156
:100690000E9410038CE291E00E94F2028F2D806490
:1006A0000E94E80208E110E0D501C401002E04C058
:1006B000B695A795979587950A94D2F70E94E80278
:1006C00008501109083F8FEF180771F785E9FF20DF
:1006D00021F028E087E8F2128FEF0E94E80210E094
:1006E0000E94EF028A8787FF04C01F3F11F01F5F3F
:1006F000F7CFDF91CF911F910F91FF90BF90AF90F7
:100700009F908F900895AF92BF92CF92DF92EF9219
:10071000FF920F931F93CF93DF93EC016901C80100
:10072000820F931F8130924050F58E81882379F09B
:1007300088819981AA81BB8184179507A607B7078D
:1007400031F48F819885C816D90608F042C04883D5
:1007500059836A837B838B85833039F089E0440F2A
:10076000551F661F771F8A95D1F79A01AB0161E18A
:10077000CE010E942603882389F083E08D83CE0179
:100780000E94DD0280E0DF91CF911F910F91FF90D9
:10079000EF90DF90CF90BF90AF9008950E94CB0272
:1007A0005B010E94EF028A878F3F69F40E94CB02AF
:1007B0006A197B096D327140A0F38FE08D83CE0101
:1007C0000E94DD02DCCF8E3F89F418861F8281E013
:1007D0008E838F8198858C159D0550F40E94EF02C1
:1007E0008F819885019698878F83F3CF8DE0E6CF30
:1007F0006701E00EF11E0E94EF02F60181936F0186
:10080000EE15FF05C1F78F819885080F191F18870E
:100810000F838985882319F001151240A0F08E817D
:10082000882389F08F8198859C012F5F3F4F3887FF
:100830002F838230924018F40E94EF02F3CFCE0152
:100840000E94DD021E8281E09ECFCF92DF92EF9266
:10085000FF920F93CF93DF93EC01690182E1411581
:1008600051056105710599F08B85833039F089E078
:10087000440F551F661F771F8A95D1F79A01AB0168
:1008800068E1CE010E942603882319F084E08D835D
:100890002DC08EEF0E94E80276018EEFD81AF70184
:1008A00081917F010E94E802EC14FD04C1F78FEFF3
:1008B0000E94E8028FEF0E94E8020E94EF028A87FE
:1008C0008F71853071F4011116C0CE010E94DD02D6
:1008D00081E0DF91CF910F91FF90EF90DF90CF906B
:1008E000089581E18D83CE010E94DD02CE010E9438
:1008F000DD0280E0EECF88E592E00E94F2028111F5
:1009000002C085E1C4CF20E030E0A9016DE0CE0156
:100910000E942603882311F084E1B9CF0E94EF02E0
:100920008111FACFD2CF0F934091D6025091D702C6
:100930006091D8027091D902411551056105710588
:1009400099F0082F22EF32E08091F0029091F102AD
:100950000E942504882349F01092D6021092D702F3
:100960001092D8021092D90281E00F9108950F934E
:10097000CF93C82F8091D502811105C0C1E08C2F83
:10098000CF910F9108954091000150910101609124
:100990000201709103010C2F22EF32E08091F002EE
:1009A0009091F1020E942504811102C0C0E0E7CFBE
:1009B000CC2321F381E00E9493048823B9F31092A1
:1009C000D502DDCF8F929F92AF92BF92EF92FF92AE
:1009D0000F931F93CF934B015C01C42F80910001B3
:1009E00090910101A0910201B09103018815990530
:1009F000AA05BB0551F181E00E94B70481110BC02B
:100A000080E0CF911F910F91FF90EF90BF90AF903A
:100A10009F908F90089582EFE82E82E0F82E00E0FC
:100A200012E030E020E0B501A4018091F002909145
:100A3000F1020E948303882319F3809200019092AF
:100A40000101A0920201B09203014091D5024C2B0A
:100A50004093D50281E0D5CFCF93DF93EC016E8533
:100A60007F858889998941E00E94E204882351F0BA
:100A70008A8920E2829FC00111248E509D4FDF9110
:100A8000CF91089590E080E0FACF8F929F92AF923D
:100A9000BF92CF92DF92EF92FF92CF9321E935E0A0
:100AA0003093F1022093F002882309F46DC040E0F6
:100AB00060E070E0CB010E94E20481110BC080E095
:100AC000CF91FF90EF90DF90CF90BF90AF909F902D
:100AD0008F9008958091B0048F7789F78091BC043E
:100AE0009091BD04A091BE04B091BF0484369105DD
:100AF000A105B10520F3C090B804D090B904E090EE
:100B0000BA04F090BB04C114D104E104F104B9F2B9
:100B100040E0C701B6010E94E204882381F280917F
:100B2000FD029091FE028115924049F6A0910203C8
:100B3000AA2329F2609100037091010361157105E8
:100B400009F4BDCF2091FF02222309F4B8CFA0936E
:100B5000AF052093A10590E080E030E0E1E0F0E017
:100B6000C82FAF01082E02C0440F551F0A94E2F7A8
:100B70002417350769F041E0480F01968930910547
:100B800079F74093AA059BCFC12CD12C7601C0CF19
:100B90008093AA05209108033091090350E040E0BA
:100BA0002115310541F4209116033091170340912E
:100BB0001803509119032093A2053093A305409385
:100BC000A4055093A50546015701860E971EA11C4A
:100BD000B11C8092B0059092B105A092B205B0927E
:100BE000B305E0910303F0910403F093B605E0939D
:100BF000B505B0E00E948523DC01CB01880D991D6D
:100C0000AA1DBB1D8093B7059093B805A093B905A5
:100C1000B093BA0525E0EE0FFF1F2A95E1F7E150EA
:100C2000FE4FEF2FFF27E6958E0F9F1FA11DB11DD1
:100C30008093AB059093AC05A093AD05B093AE0542
:100C40008090050390900603B12CA12C811491048F
:100C500041F48090120390901303A0901403B0907D
:100C60001503C81AD90AEA0AFB0AC80CD91CEA1CDF
:100C7000FB1C04C0F694E794D794C794CA95D2F7A6
:100C8000C092A605D092A705E092A805F092A9050A
:100C900085EFC8168FE0D806E104F10428F48CE053
:100CA0008093B40581E00CCF80E125EFC2162FEFD1
:100CB000D206E104F104A0F380911E0390911F037A
:100CC000A0912003B09121038093B7059093B805BC
:100CD000A093B905B093BA0580E2E2CF4F925F923C
:100CE0006F927F928F929F92AF92BF92CF92DF923C
:100CF000EF92FF920F931F93CF93DF93EC0142305B
:100D000051056105710590F480E0DF91CF911F914D
:100D10000F91FF90EF90DF90CF90BF90AF909F909A
:100D20008F907F906F905F904F90089589859A85FE
:100D3000AB85BC850196A11DB11D84179507A6073B
:100D4000B70710F3CB88DC88ED88FE888F89803167
:100D500009F042C0BB27A72F962F852F48015901C4
:100D60002A013B01C80ED91EEA1EFB1E809100011C
:100D700090910101A0910201B0910301C816D9061A
:100D8000EA06FB0699F58F898031C1F5B301A2010E
:100D9000552766277727440F551F4E505D4FFA01A0
:100DA000918280828091D50281608093D5028A8968
:100DB000823080F08D819E81AF81B8858C0D9D1D24
:100DC000AE1DBF1D8093D6029093D702A093D80288
:100DD000B093D90281E099CFDB01CA01E7E0B69573
:100DE000A79597958795EA95D1F7B8CF40E0C701C9
:100DF000B6010E94E2048111C6CF86CFB301A201E1
:100E00004F77552766277727440F551F440F551FE7
:100E10004E505D4FFA0180829182A282B382C2CF8E
:100E20008F929F92AF92BF92CF92DF92EF92FF92FA
:100E30000F931F93CF93DF93FC0181859285A38548
:100E4000B4850196A11DB11D84179507A607B707A4
:100E500070F480E0DF91CF911F910F91FF90EF90A0
:100E6000DF90CF90BF90AF909F908F900895838830
:100E70009488A588B6888789803189F5BB27A72FF4
:100E8000962F852FE9016A017B018F01BC01CD01FD
:100E9000680D791D8A1D9B1D8090000190900101B5
:100EA000A0900201B090030186169706A806B90625
:100EB00001F5F8018789803111F5DD24EE24FF2446
:100EC000F601EE0FFF1FEE50FD4F80819181B0E0E3
:100ED000A0E088839983AA83BB8381E0BBCFDB0139
:100EE000CA01C7E0B695A79597958795CA95D1F79A
:100EF000C9CF40E00E94E2048111DBCFAACFE89481
:100F0000C7F8DD24EE24FF24F601EE0FFF1FEE0FDD
:100F1000FF1FEE50FD4F80819181A281B381BF7090
:100F2000D8CF4F925F926F927F92AF92BF92CF9243
:100F3000DF92EF92FF920F931F93CF93DF9300D036
:100F400000D0CDB7DEB78C0149835A836B837C8395
:100F50005901C12CD12C7601412C82E0582E612CF4
:100F6000712C49815A816B817C819E012F5F3F4F9B
:100F7000C8010E941007882339F1F8018585A30173
:100F8000920104C0220F331F441F551F8A95D2F7C8
:100F9000DA01C901C80ED91EEA1EFB1E49815A8119
:100FA0006B817C818789803111F188EF9FEFAFEFF2
:100FB000BFE0481759076A077B0798F2F501C0821E
:100FC000D182E282F38281E00F900F900F900F9018
:100FD000DF91CF911F910F91FF90EF90DF90CF9015
:100FE000BF90AF907F906F905F904F90089588EF83
:100FF0009FEFA0E0B0E0DDCFCF93DF93FC01258130
:10100000222321F080E0DF91CF910895EC018091BF
:10101000B405803159F582E08583178A108E118ED0
:10102000128E8091B5059091B605B0E0A0E025E064
:10103000880F991FAA1FBB1F2A95D1F7838B948B0A
:10104000A58BB68B8DE995E09C8F8B8F81E08C838F
:101050001E821F82188619861A861B861C861D868C
:101060001E861F86188A198A1A8ACDCF803251F6B9
:1010700083E085834091B7055091B8056091B9052B
:101080007091BA05478B508F618F728F9F012D5ED3
:101090003F4F8DE995E00E9491078111D3CFB2CFE8
:1010A0008F929F92AF92BF92CF92DF92EF92FF9278
:1010B0000F931F93CF93DF93EC018D8181110EC0AD
:1010C00080E0DF91CF911F910F91FF90EF90DF9023
:1010D000CF90BF90AF909F908F9008950B891C89FF
:1010E0002D893E89041715072607370748F34A015B
:1010F0005B01823031F48A869B86AC86BD8681E0B6
:10110000E0CF81149104A104B10449F41E821F822E
:10111000188619861A861B861C861D86F0CF0A85BE
:101120001B852C853D85EB8DFC8D858590E0099692
:10113000B901A8014150510961097109082E04C083
:1011400076956795579547950A94D2F7750164018E
:10115000E1E0CE1AD108E108F10804C0F694E79462
:10116000D794C7948A95D2F7C416D506E606F70633
:1011700020F0012B022B032B11F58F89988DA98D5F
:10118000BA8D8E839F83A887B9878E010A5F1F4F10
:10119000C114D104E104F10409F4ADCF4E815F81A3
:1011A0006885798598018B8D9C8D0E94100791E050
:1011B000C91AD108E108F1088111EACF81CFC41A18
:1011C000D50AE60AF70AE1CF3F924F925F926F92FB
:1011D0007F928F929F92AF92BF92CF92DF92EF92C7
:1011E000FF920F931F93CF93DF93CDB7DEB72C976A
:1011F0000FB6F894DEBF0FBECDBF5C01DC015B967D
:101200008D909C905C9716964D905D906D907C9023
:101210001997411451046104710409F468C0BFEFC7
:101220004B1A5B0A6B0A7B0A312CF401818592858B
:10123000A385B4859C01AD012F5F3F4F4F4F5F4F9A
:1012400029873A874B875C87730162011D821E8262
:101250001F821886F40181859285A385B4852D812E
:101260003E814F815885281739074A075B0708F0E8
:1012700056C089859A85AB85BC858C159D05AE05C4
:10128000BF0550F482E0C82ED12CE12CF12C92E065
:10129000492E512C612C712C9E012F5F3F4FB701BD
:1012A000A601C4010E9410078823C9F189819A818F
:1012B000AB81BC81892B8A2B8B2B09F1260137014D
:1012C0009FEF491A590A690A790A2D813E814F8197
:1012D00058852F5F3F4F4F4F5F4F2D833E834F8386
:1012E00058873FEFC31AD30AE30AF30AB3CFF401D6
:1012F00040805180628073803324339496CFC4142D
:10130000D504E604F70409F70FEF1FEF2FEF3FE0D6
:10131000B701A601C4010E946E06811119C080E0C8
:101320002C960FB6F894DEBF0FBECDBFDF91CF91E4
:101330001F910F91FF90EF90DF90CF90BF90AF90F3
:101340009F908F907F906F905F904F903F90089507
:10135000D50116964D915D916D917C91199741152E
:1013600051056105710539F097018601C4010E949C
:101370006E068823A1F2D5011696CD92DD92ED92EC
:10138000FC921997332051F0D701C6010196A11D97
:10139000B11DF40180839183A283B383F501878912
:1013A000908DA18DB28D892B8A2B8B2B39F4848162
:1013B000C78AD08EE18EF28E80688483F5018481A5
:1013C0008062848381E0ACCF1F93CF93DF93FC01D5
:1013D0002581222371F1162FEC01848187FF1EC025
:1013E000CF010E942C05FC01892B19F18D818230DF
:1013F00040F48B899C89AD89BE89848F958FA68F97
:10140000B78F8F89988D938F828F8F89988DA98DB3
:10141000BA8DB58BA48B8C818F778C83111103C00F
:101420008C818F7E8C83812FDF91CF911F910C94C3
:10143000B70480E0DF91CF911F910895FF920F9341
:101440001F93CF93DF93EC018D81813041F090E0C9
:1014500080E0DF91CF911F910F91FF9008958C81D3
:1014600081FFF5CF82FD1BC00091F0021091F102C7
:10147000C8010E9410030E94EF02F82EC8010E94CA
:10148000DD028FEFF812E3CF8C8185FF1BC060E097
:10149000CE010E94E4098C818F7D8C83D8CF4B894B
:1014A0005C896D897E898A859B85AC85BD8584171D
:1014B0009507A607B707C1F2CE010E945008811117
:1014C000D3CFC5CF4091D6025091D7026091D802B8
:1014D0007091D902452B462B472B21F080E00E94CA
:1014E0009304B5CF80618C832A853B85317080E081
:1014F00092E0821B930BADCFCF93DF93EC0161E0C1
:101500000E94E409882311F01D8281E0DF91CF91D0
:1015100008952F923F924F925F926F927F928F9297
:101520009F92AF92BF92CF92DF92EF92FF920F9372
:101530001F93CF93DF9300D000D01F92CDB7DEB7BB
:101540007C015B01342E5D83DC0115968C9115972F
:10155000813009F0CEC014962C9021FECAC022FC26
:10156000B4C0C32CDD8022947FE027222094B22DCA
:10157000B1702B2ED7011A964D915D916D917C9192
:101580001D97C114D10409F428C15B968D919C91DB
:101590005C97FC0174807A948A019B0169E036951E
:1015A0002795179507956A95D1F770228A011170D2
:1015B000711020C001151105E9F416964D915D9149
:1015C0006D917C911997411551056105710509F0DF
:1015D00099C057968D919D910D90BC91A02D00972B
:1015E000A105B10509F0B0C0C7010E94E408882335
:1015F00009F47FC080E092E0801B910B46018C15BE
:101600009D0508F44C01D7015B964D915C915C9768
:1016100016968D919D910D90BC91A02D0297A109D8
:10162000B109FA01258504C0880F991FAA1FBB1FA5
:101630002A95D2F74685578560897189840F951F51
:10164000A61FB71F9C01AD01270D311D411D511D66
:1016500029013A01811432E0930609F07BC08091A0
:10166000000190910101A0910201B0910301841544
:101670009505A605B70559F48FEF9FEFDC01809320
:10168000000190930101A0930201B0930301022D88
:101690009501B301A2018091F0029091F1020E94A4
:1016A0002504882331F19EEFB91AC818D908F7012B
:1016B00082859385A485B585880D991DA11DB11DD1
:1016C00082879387A487B58755CFF70143895489CB
:1016D0006589768982859385A485B58548175907DC
:1016E0006A077B0709F43DCFC7010E9450088111AA
:1016F00038CF81E090E0D70113969C938E93129798
:1017000080E007C09E012F5F3F4F0E9410078111AC
:1017100002C090E079C089819A81AB81BC81F701D8
:10172000238D348DF901278948EF5FEF60E070E089
:10173000203121F048EF5FEF6FEF7FE084179507CE
:10174000A607B70708F050CFF70186839783A087D5
:10175000B18750CF0115110599F5D7011A964D9112
:101760005D916D917C911D9753968D919D910D90FA
:10177000BC91A02D481759076A077B0708F181E043
:101780000E94B704882309F4B4CF4092000150921C
:10179000010160920201709203018091D502816083
:1017A0008093D502C8018E509D4FD5019C01280D14
:1017B000391DFC012E173F0759F04D914193FACF87
:1017C00041E0C301B2010E94E2048111EBCF91CF4D
:1017D000281B390BA20EB31E68CFF70183899489A9
:1017E000A589B68984179507A607B70738F48481B9
:1017F000438B548B658B768B80688483F70184815F
:1018000083FD1AC0832D9D810F900F900F900F9034
:101810000F90DF91CF911F910F91FF90EF90DF908C
:10182000CF90BF90AF909F908F907F906F905F9080
:101830004F903F902F90089561E0C7010E94E40906
:10184000882309F456CFDECFCF93DF931F92CDB715
:10185000DEB7698341E050E0BE016F5F7F4F0E94B9
:10186000890A0F90DF91CF910895FC01DB01129658
:101870008D919C911397938382838CE291E0918365
:10188000808314968C911497848315968C91159768
:10189000858316964D915D916D917C911997468344
:1018A0005783608771871A964D915D916D917C91F8
:1018B0001D9742875387648775871E964D915D916A
:1018C0006D917C91519746875787608B718B5296AB
:1018D0008C915297828B53964D915D916D917C9135
:1018E0005697438B548B658B768B57964D915D91B4
:1018F0006D917C915A97478B508F618F728F5B9659
:101900008D919C91948F838F0895FC01818D928D90
:10191000009719F061E00C94E4090895DC015996F0
:10192000ED91FC913097B9F083899489A589B689A6
:101930004285538564857585841B950BA60BB70B73
:10194000811520E89207A105B10538F08FEF9FE7D8
:10195000A0E0B0E0089590E080E00895DC015996A1
:101960008D919C91009739F0DC01ED91FC91048000
:10197000F581E02D099490E080E00895CF93DF9306
:10198000EC01E98DFA8D309749F481E090E09B837A
:101990008A8390E080E0DF91CF91089513821282D4
:1019A000898D9A8D0E94890AE98DFA8D2281338171
:1019B000232B59F7F0CFCF93DF931F92CDB7DEB72C
:1019C0006983DC01ED91FC910280F381E02D41E01F
:1019D00050E0BE016F5F7F4F09950F90DF91CF916F
:1019E00008952F923F924F925F926F927F928F92C3
:1019F0009F92AF92BF92CF92DF92EF92FF920F939E
:101A00001F93CF93DF9300D01F92CDB7DEB7FC01B9
:101A10008581811118C08FEF9FEF0F900F900F906D
:101A2000DF91CF911F910F91FF90EF90DF90CF90BA
:101A3000BF90AF909F908F907F906F905F904F90EE
:101A40003F902F900895848180FFE5CF438954898A
:101A50006589768982859385A485B585312C212C6D
:101A6000481759076A077B0719F022242394312C61
:101A70006F012101CE0101963C01DF011696BB8367
:101A8000AA834114510409F4C5C0F6014285538567
:101A9000648575854A01F1E09F22D6015B968D91A0
:101AA0009C915C978A019B01E9E0369527951795F3
:101AB0000795EA95D1F71596EC91E230E9F5FC012E
:101AC000628D738D848D958D600F711F821F931FA2
:101AD000A12C22E0B22EA818B9084A145B0408F41D
:101AE0005201F601248126FD04C0A114F2E0BF06D4
:101AF00071F40091000110910101209102013091D7
:101B00000301061717072807390709F05EC040E0F0
:101B10000E94E204882309F47ECFC4018E509D4FB9
:101B2000D3019C012A0D3B1DFC012E173F0709F430
:101B30006CC041914D93F9CFDC011496BC90BA94DE
:101B4000B0228114910479F4B1100DC0452B462BBD
:101B5000472B69F5F6018789908DA18DB28D86831B
:101B60009783A087B187D6015B96ED91FC915C9736
:101B700016966D917D918D919C9119976250710986
:101B800081099109258504C0660F771F881F991F59
:101B90002A95D2F70685178520893189600F711F34
:101BA000821F931F6B0D711D811D911D91CFD60159
:101BB00016964D915D916D917C9119972A813B818B
:101BC0000E9410078111CFCF26CF730185019401A8
:101BD000AB01BC018091F0029091F1020E9483035D
:101BE000882309F418CF6A0C7B1CF6018285938543
:101BF000A485B5858A0D9B1DA11DB11D8287938784
:101C0000A487B5874A185B083CCF281B390B620EA6
:101C1000731EEBCF2A94232809F0FDCE898190E032
:101C2000FCCEFC01818D928D009711F00C94F10C8B
:101C30008FEF9FEF08950F931F93CF93DF93EC01E6
:101C40000E94CB02688779878A879B87CE010E9492
:101C5000110E97FF15C00E94CB02088519852A85B1
:101C60003B85601B710B820B930B0C811D812E81B8
:101C70003F81601771078207930740F38FEF9FEF53
:101C8000DF91CF911F910F9108950F931F93CF93E1
:101C9000DF93EC01898D9A8D10E000E0009799F0B8
:101CA0000E94F10C8C010F3F100769F0898D9A8D0D
:101CB000FC01428553856485758541505109610950
:101CC00071090E945008C801DF91CF911F910F91B7
:101CD00008951F93CF93DF93C1E0C0933F02882301
:101CE00099F1D091B8001091BA008091BC008A7B24
:101CF0008093BC0060E082E10E94030260E083E127
:101D00000E9403021092A902C093A80210928302BB
:101D100061E082E10E94030261E083E10E9403022C
:101D20008091B9008E7F8093B9008091B9008D7F3A
:101D30008093B90088E48093B80085E48093BC0068
:101D40001093BA00D093B800DF91CF911F910895FE
:101D500020916002260F3327331F21323105ECF426
:101D60002091A902FC0190E080E0243069F082E03B
:101D70000895A09160022191AC01405C5D4FA40FD9
:101D8000B52FB11D2C930196861798F380916002B0
:101D9000680F6093600280E0089581E008950895DF
:101DA0008FEF9FEF08958FEF9FEF089580913E0290
:101DB00090E09195819591090895CF92DF92EF92ED
:101DC000FF920F931F93CF93DF937C01CB018A0186
:101DD0002091AF02222389F0EB016B01C40ED51EC6
:101DE000CC15DD0569F06991D701ED91FC91019069
:101DF000F081E02DC7010995F3CF642F0E94A80E52
:101E0000C801DF91CF911F910F91FF90EF90DF906C
:101E1000CF900895CF93DF931F92CDB7DEB769833C
:101E20002091AF022223F9F02091D202203258F003
:101E300021E030E0FC013383228390E080E00F90CA
:101E4000DF91CF9108958091B002E82FF0E0EF5438
:101E5000FD4F998190838F5F8093B0028093D2026F
:101E600081E090E0ECCF61E0CE0101960E94A80EE7
:101E7000F7CFCF92DF92EF92FF920F931F93CF9302
:101E8000DF93FC01C48121E02093AF02C093D10213
:101E90001092B0021092D2028385682B8AED95E0F1
:101EA0000E940A0FD091D202D13208F092C00E9453
:101EB00074026B017C018091A902811165C082E0EE
:101EC0008093A90281E08093A8028FEF8093A702FC
:101ED0001092A602D093A502A1EBB2E0E5E8F2E0F1
:101EE00080E0D81385C01092840280918402CC0FC8
:101EF000C82BC093840280918302813009F07CC09A
:101F0000109283020E9474026B017C018091840212
:101F10008093BB008091AB029091AC02A091AD0286
:101F2000B091AE02892B8A2B8B2B99F00E94740200
:101F30000091AB021091AC022091AD023091AE0243
:101F40006C197D098E099F0906171707280739079D
:101F5000E0F18091BC0083FDD9CF85EC8093BC007B
:101F60000E9474026B017C018091A902823009F405
:101F700045C08091A7028F3F61F18091A702803216
:101F800041F18091A70225C08091AB029091AC02F3
:101F9000A091AD02B091AE02892B8A2B8B2B09F454
:101FA0008ACF0E9474020091AB021091AC02209182
:101FB000AD023091AE026C197D098E099F0906179A
:101FC00017072807390708F076CF8091AA020E94E8
:101FD000690E1092B0021092D2021092AF02DF91FD
:101FE000CF911F910F91FF90EF90DF90CF900895C8
:101FF0009D9191938F5F75CF85EEB0CF8091AB02AD
:102000009091AC02A091AD02B091AE02892B8A2BC7
:102010008B2B09F4A9CF0E9474020091AB0210919E
:10202000AC022091AD023091AE026C197D098E098F
:102030009F09061717072807390708F095CFC5CF5E
:1020400090E080E00895CF93DF93FB0122813381FC
:10205000DC0113963C932E9312974481558166813F
:10206000778114964D935D936D937C93179740857C
:1020700051856285738518964D935D936D937C931E
:102080001B971C96EF012C969C01275E3F4F4991B0
:102090004D93A217B307D9F7218D328DFC01328FF2
:1020A000218FDF91CF9108958F929F92AF92BF922F
:1020B000CF92DF92EF92FF920F931F93CF93DF9314
:1020C00000D000D0CDB7DEB7FC018581813091F022
:1020D00080E00F900F900F900F90DF91CF911F91A4
:1020E0000F91FF90EF90DF90CF90BF90AF909F90B7
:1020F0008F900895848181FFEBCF83899489A5898E
:10210000B689892B8A2B8B2B09F45FC07F0140E0B5
:1021100050E0BA01CF010E9450088823C9F2F701AC
:10212000C38CD48C8788908CA18CB28C82E090E098
:10213000A0E0B0E0F60180839183A283B3839E0187
:102140002F5F3F4FB501A401C6010E9410078823ED
:1021500009F4BECF00E010E09801B501A401C6016A
:102160000E946E06882309F4B3CF89809A80AB80E1
:10217000BC80F6018789803119F188EF9FEFAFEFBE
:10218000BFE088169906AA06BB06C8F2F701178AAF
:10219000108E118E128E138A148A158A168A8481E3
:1021A0008068848361E0C7010E94E409882309F400
:1021B0008FCF40E050E0BA01C7010E94500889CF9C
:1021C00088EF9FEFA0E0B0E0DCCF81E082CFCF923C
:1021D000DF92EF92FF921F93CF93DF93EC0180E2A7
:1021E000689FF0011124EE50FD4F9385917161F0CD
:1021F000842F827449F080E0DF91CF911F91FF908E
:10220000EF90DF90CF900895142F6A8B809100019A
:1022100090910101A0910201B09103018E879F87E7
:10222000A88BB98BC488D588F12CE12C7601DD24EC
:10223000CC24CF8AD88EE98EFA8E828D938DB0E031
:10224000A0E0AC01BD014C295D296E297F294F8B8F
:10225000588F698F7A8F83858871B1F4848D958DBD
:10226000A68DB78D8B8B9C8BAD8BBE8B81E08D83C8
:102270001F701C831E821F82188619861A861B8671
:102280001C861D8681E0B8CF803109F0B4CF9E0155
:102290002D5E3F4F8B8D9C8D0E949107882309F402
:1022A000AACF84E0E4CF0F931F93CF938C01C62F66
:1022B0000E94390F6C2F6460C8010E94390F6C2F87
:1022C0006B7FC8010E94390F83EC90E00197F1F712
:1022D000CF911F910F910895CF93C82F682F607FE2
:1022E00086EE95E00E94531180E1C89FB001112451
:1022F00086EE95E0CF910C945311CF93DF93CDB739
:10230000DEB728970FB6F894DEBF0FBECDBF98E0BA
:10231000EEE0F1E0DE01119601900D929A95E1F761
:102320009091EE05961708F46FEF70E0660F771F37
:1023300021E030E02C0F3D1F620F731FFB019081E5
:10234000890F806828960FB6F894DEBF0FBECDBF08
:10235000DF91CF910C946C1181E00E946C118BE3A2
:102360009FE10197F1F70895E6EEF5E086818E7F13
:10237000868388600C946C110F931F93CF938C010C
:10238000C62F607F61600E94531180E1C89FB00139
:1023900011246160C8010E94531181E090E0CF9147
:1023A0001F910F9108958091FE059091FF05009770
:1023B00011F00C94192260E070E0CB010895CF93E6
:1023C000DF93EC018091FE059091FF050097E9F005
:1023D0006881798161157105B1F0409100065091D5
:1023E00001062C813D814217530768F00E94822626
:1023F0008C819D8190930306809302061D821C822E
:10240000DF91CF9108950E941B2588819981909337
:10241000FF058093FE058A819B819093010680933E
:1024200000068C819D819093030680930206198299
:1024300018821B821A82E2CFCF93DF93EC0188814E
:102440009981009711F00E941B25198218821D8224
:102450001C821B821A82DF91CF910895FC0180813A
:102460009181009711F00C941B250895CF93DF9371
:10247000EC01898D9A8D009741F00E947C0A898D2C
:102480009A8D0E941B251A8E198EDF91CF91089587
:10249000FB0101900020E9F73197AF01461B570B74
:1024A000DC01ED91FC910280F381E02D09940E9402
:1024B000AC110E94B41160E081E00E947D1164E6DD
:1024C00071E086EE95E00E94481282E090E09093E1
:1024D0000501809304011092E5021092E402089530
:1024E0000E94AC110E94B41160E081E00E947D1155
:1024F0006CE671E086EE95E00E94481261E081E0B2
:102500000E947D116BE771E086EE95E00E94481213
:1025100081E090E090930501809304011092E50220
:102520001092E40208950F931F93CF93DF93EC0171
:1025300088819981009759F02A813B8126173707B6
:1025400030F081E0DF91CF911F910F9108958B01C1
:102550006F5F7F4F0E94A425009759F0998388836D
:102560001B830A832C813D81232B59F7FC011082A8
:10257000E8CF80E0E7CFEF92FF920F931F93CF93C6
:10258000DF936115710541F480E0DF91CF911F91D8
:102590000F91FF90EF90089541155105B1F07B0127
:1025A000EC010C811D81040F151FB8010E949312CC
:1025B000882351F3288139818C819D81B701820F55
:1025C000931F0E9482261D830C8381E0DECFCF9370
:1025D000DF93EC01FB0144815581608171810E9490
:1025E000BB12811103C0CE010E941C12CE01DF91EB
:1025F000CF910895EF92FF920F931F93CF93DF93A4
:10260000CDB7DEB728970FB6F894DEBF0FBECDBFAB
:102610007C01CB014AE08E010F5F1F4FB8010E9481
:102620004022F80101900020E9F73197AF01401BEB
:10263000510BB801C7010E94BB1228960FB6F8943F
:10264000DEBF0FBECDBFDF91CF911F910F91FF90E5
:10265000EF900895EF92FF920F931F93CF93DF9324
:10266000EC017B018A01BA010E94931281110BC017
:10267000CE010E941C12CE01DF91CF911F910F91CC
:10268000FF90EF9008951D830C83B7018881998195
:102690000E948226F0CFCF93DF93EC01FB018617D7
:1026A000970749F0608171816115710541F044819E
:1026B00055810E942A13CE01DF91CF9108950E9487
:1026C0001C12F9CFFC011182108213821282158232
:1026D00014820C944B13FC0111821082138212821B
:1026E00015821482FB0101900020E9F73197AF01B8
:1026F000461B570B0C942A13EF92FF920F931F93D4
:10270000CF93DF9300D0CDB7DEB78C017B0168E9B2
:1027100071E00E946B13C7010E941B0E97FD0EC053
:102720008032910559F089831A8241E050E0BE0160
:102730006F5F7F4FC8010E94BB12EDCFC8010F90A1
:102740000F90DF91CF911F910F91FF90EF9008951F
:102750003F924F925F926F927F928F929F92AF9231
:10276000BF92CF92DF92EF92FF920F931F93CF937E
:10277000DF93CDB7DEB72B970FB6F894DEBF0FBE51
:10278000CDBF7C01FE013196CE010C966F0130E287
:1027900031938E179F07E1F7DA0130E087E09D91D2
:1027A000B92E992309F43CC09E32F1F48A30C9F461
:1027B00080E02B960FB6F894DEBF0FBECDBFDF9141
:1027C000CF911F910F91FF90EF90DF90CF90BF902E
:1027D000AF909F908F907F906F905F904F903F90C1
:1027E000089538E08AE0DBCFE8E6F0E04491442346
:1027F00021F031969413FACFDBCF8317C8F24FED57
:10280000490F4E35A8F64FE9490F4A3118F440EE0A
:10281000B42EB90EF601E30FF11DB0823F5FBFCFBA
:102820008981803229F2322E8B01DB015B968D91FA
:102830009C915C97F701948F838F16961D921D9241
:102840001D921C921997FB01128613861486158619
:10285000F80182859385A485B58543895489658966
:10286000768984179507A607B70708F04DC025E0BD
:10287000B695A795979587952A95D1F7F82FFF706C
:10288000AF2ED80115968C91823008F491CFC801F3
:102890000E94F10C97FD8CCFF80182859385A48569
:1028A000B5854F96A11DB11D82879387A487B587F3
:1028B000F0E2AF9EB00111246E507D4F611571059D
:1028C00009F476CFDB018C91882341F0853E09F035
:1028D00058C0BB2029F0BB24B394BACFB1100EC0AE
:1028E000F701A28A8091000190910101A09102015B
:1028F000B091030186879787A08BB18BDB018C9108
:102900008111E9CFBB24B394832D8271823109F008
:102910004FCFBB2009F443C0C7010E942C0500978C
:1029200009F446CF20E2FC0111922A95E9F72BE049
:10293000F601DC0101900D922A95E1F721E238E2DF
:10294000DC0151963C932E93509740E058E01F963F
:102950005C934E931E9753963C932E9352975996A1
:102960003C932E93589757965C934E93569781E0DD
:102970000E94B704882309F41BCF432DF701628915
:102980000AC04BE050E0C6010E946126892B09F085
:102990005FCF432D6A2DC7010E94E7100ACFF801CF
:1029A0008581823009F404CFC8010E94E40888239D
:1029B00009F4FECED8015B96ED91FC915C971696DA
:1029C0008D909D90AD90BC901997B2E08B1A9108B4
:1029D000A108B108858504C0880C991CAA1CBB1CE1
:1029E0008A95D2F786859785A089B189880E991E28
:1029F000AA1EBB1E848124013501480E511C611C96
:102A0000711C481459046A047B0409F1E1E04E1A70
:102A100051086108710881E00E94B704882309F415
:102A2000C7CEE2EFF2E0119282EF94E08E179F079B
:102A3000D1F7409200015092010160920201709220
:102A400003018091D50281608093D502DACFD8014D
:102A50005B96ED91FC91258580E092E0A0E0B0E0EE
:102A600004C0880F991FAA1FBB1F2A95D2F7F8012F
:102A70004389548965897689840F951FA61FB71FDE
:102A8000838B948BA58BB68BD70152961C9282EFC9
:102A900092E048CFEF92FF920F931F93CF93DF9373
:102AA000EC017B018A011B821A8288EE93E0A0E090
:102AB000B0E08C839D83AE83BF8386E591E09983EC
:102AC00088838DE190E00E947F249A8F898F009700
:102AD00079F02DE1F701DC0101900D922A95E1F7E3
:102AE0004CE050E0B801CE010C960E948926188E69
:102AF000DF91CF911F910F91FF90EF9008952F924A
:102B00003F924F925F926F927F928F929F92AF927D
:102B1000BF92CF92DF92EF92FF920F931F93CF93CA
:102B2000DF93CDB7DEB7C756D1090FB6F894DEBF35
:102B30000FBECDBF6C015B01A6964FAFA69719A241
:102B400018A28CE291E09F8F8E8F1BA21C821B82A9
:102B50009A8389831E824E018EE1880E911CC401E6
:102B60000E94FC0775018E010F5F1F4F24011801A1
:102B70006FE270E0C7010E947726009709F45DC0FC
:102B8000F70120812F3271F4FFEFEF1AFF0A902F27
:102B9000812F8201492E582E942D852D2801092F31
:102BA000182FE6CF8E198D3008F08CE0682E712C2E
:102BB000A301B701CE01885A9F4F0E948926E8E5FC
:102BC000F0E0EC0FFD1FE60DF71D1082C8010E941A
:102BD0007C0AF8018581882301F11EAE1DAE8CE2CE
:102BE00091E09CAF8BAF21961FAE2197A896EEADDA
:102BF000FFADA897AE0EBF1EF501808181112AC0DE
:102C0000BE01655C7F4FC1010E94350C48E851E070
:102C1000B101C6010E944A153BC021E0AE01485AED
:102C20005F4FB201C8010E94A8138823B1F2E60CDD
:102C3000F71CC2010E947C0AAFCFC7018A199B0909
:102C4000A8969FAF8EAFA897B201CE01CB960E94F7
:102C5000350CCCCF19A218A28CE291E09F8F8E8FF9
:102C60001BA221968FAD219781112DC0F6011382F1
:102C7000128288EE93E0A0E0B0E084839583A6837F
:102C8000B78386E591E091838083128E118E14863E
:102C9000C601C959DF4F0FB6F894DEBF0FBECDBFD6
:102CA000DF91CF911F910F91FF90EF90DF90CF9028
:102CB000BF90AF909F908F907F906F905F904F905C
:102CC0003F902F900895A6962FADA697A501BE011F
:102CD000655C7F4FC4010E94A813882339F2CE019E
:102CE000CB960E947C0AA6968FADA69786708630FA
:102CF00039F449A95AA96BA97CA9C4010E945008BA
:102D0000B401C1010E94350CA50182CF85ED8093ED
:102D1000BC008091AB029091AC02A091AD02B09149
:102D2000AE020796A11DB11D23E0B695A795979514
:102D300087952A95D1F72091BC0024FD03C01092FD
:102D4000A90208954091AB025091AC026091AD028E
:102D50007091AE02452B462B472B69F30097A105D6
:102D6000B10541F025E32A95F1F700000197A1098B
:102D7000B109E1CF8091AA020C94690E8F929F92C3
:102D8000AF92BF92CF92DF92EF92FF920F931F9379
:102D9000CF93DF93CDB7DEB7A1970FB6F894DEBF20
:102DA0000FBECDBF6091F8057091F90541E08E012D
:102DB0000F5F1F4FC8010E947F15B8018AE396E09C
:102DC0000E94231047E16AE871E0C8010E947F1564
:102DD000B8018FE196E00E9423108AE396E00E94FA
:102DE0008E0C892B09F465C06AE376E0C8010E9465
:102DF0007C13C8010E94DF11C8010E942E120E949C
:102E0000D3116B0160913C0270913D02072E000CC2
:102E1000880B990B0E948C2225E531EC48ED5EE38E
:102E20000E94C7224B015C01B601DD0C880B990B97
:102E30000E948C2222EF32ED4DE55FE30E94C72213
:102E40009B01AC01C501B4010E94D7230E94432419
:102E50006B011D8E1C8E1F8E1E8E19A218A24AE0B9
:102E6000B801C6010E944022F80101900020E9F754
:102E70003197AF01401B510BB801CE014C960E9417
:102E80002A13BE01645E7F4F8FE196E00E94960098
:102E900042E050E066E971E08FE196E00E94BE0CEE
:102EA000CE014C960E942E12D0923D02C0923C025E
:102EB00094CF8FE196E00E9436128AE396E00E945A
:102EC000361210923D0210923C02A1960FB6F89471
:102ED000DEBF0FBECDBFDF91CF911F910F91FF904D
:102EE000EF90DF90CF90BF90AF909F908F9008951C
:102EF0001F920F920FB60F9211242F933F934F936F
:102F00005F936F937F938F939F93AF93BF93EF9351
:102F1000FF9382EF94E00E942201FF91EF91BF9115
:102F2000AF919F918F917F916F915F914F913F9161
:102F30002F910F900FBE0F901F9018951F920F9218
:102F40000FB60F9211242F938F939F93EF93FF93BC
:102F5000E0910205F09103058081E0910805F09170
:102F6000090582FD1BC0908180910B058F5F8F73D7
:102F700020910C05821741F0E0910B05F0E0EE5036
:102F8000FB4F958F80930B05FF91EF919F918F9150
:102F90002F910F900FBE0F901F9018958081F4CF46
:102FA0001F920F920FB60F9211242F933F938F937E
:102FB0009F93AF93BF938091DB029091DC02A0912D
:102FC000DD02B091DE023091DA0223E0230F2D37CB
:102FD00058F50196A11DB11D2093DA028093DB0202
:102FE0009093DC02A093DD02B093DE028091DF02B9
:102FF0009091E002A091E102B091E2020196A11D40
:10300000B11D8093DF029093E002A093E102B093A0
:10301000E202BF91AF919F918F913F912F910F90BD
:103020000FBE0F901F90189526E8230F0296A11D42
:10303000B11DD2CF1F920F920FB60F9211242F9372
:103040003F934F935F936F937F938F939F93AF9330
:10305000BF93EF93FF938091B900887F803609F486
:103060004AC0F0F5883209F4A5C018F5803109F49A
:1030700099C0B8F4882309F4F5C0883009F492C0E7
:10308000FF91EF91BF91AF919F918F917F916F9140
:103090005F914F913F912F910F900FBE0F901F9016
:1030A0001895883109F486C0803251F78093A702C1
:1030B00014C0803409F49BC040F48033B9F38833E2
:1030C000F9F68093A70285ECAEC0803509F483C081
:1030D000883509F494C0883499F60E948616D0CFBA
:1030E000883909F48AC038F5883729F050F48836D1
:1030F00011F0803729F683E08093A90210928202B2
:1031000055C0883809F479C0803919F0803809F041
:10311000B7CF80918202803208F06FC0E0918202C6
:1031200081E08E0F809382028091BB00F0E0EE5927
:10313000FD4F80833BC0803B39F0D0F4803A09F4E6
:1031400077C0883A09F09CCF84E08093A90210925E
:10315000610210926002F0E0E0E009958091600267
:1031600081110FC081E0809360021092400209C07B
:10317000803C09F4A8CF883C09F4A5CF883B09F02E
:103180007FCFE091610281E08E0F80936102F0E0D9
:10319000E05CFD4F80818093BB0090916102809143
:1031A000600229C0809184028093BB0085EC8093EB
:1031B000BC0066CF9091A6028091A502981758F5A1
:1031C000E091A60281E08E0F8093A602F0E0EB571B
:1031D000FD4F8081E9CFE091A60281E08E0F8093C0
:1031E000A6028091BB00F0E0EB57FD4F80839091E9
:1031F000A6028091A5029817C8F285E8D8CFE09181
:10320000A60281E08E0F8093A6028091BB00F0E0C1
:10321000EB57FD4F80838091A80281115ECF81E042
:103220008093830284EA8093BC001092A90228CF85
:1032300085EC8093BC001092A902809182028032BA
:1032400030F4E0918202F0E0EE59FD4F108260917F
:10325000820270E082E692E0F0E0E0E009951092F0
:1032600082020ECF1092A70238CFCF92DF92EF9258
:10327000FF92E2EFF4E01382128288EEC82E83E020
:10328000D82EE12CF12CC482D582E682F7828AE125
:1032900091E09183808385EC90E09587848784EC2E
:1032A00090E09787868780EC90E0918B808B81EC13
:1032B00090E0938B828B82EC90E0958B848B86ECF4
:1032C00090E0978B868B118E128E138E148EEFE802
:1032D000F5E080E580831182E1E9F5E01582168250
:1032E0001186138682E090E0A0E0B0E084879587A5
:1032F000A687B78713A215A614A68CE291E093A720
:1033000082A717A6EAEDF5E013821282C482D58265
:10331000E682F78288E391E09183808368E971E037
:103320008BE896E00E946B13E0E7F6E013821282CE
:10333000C482D582E682F78286E591E0918380831C
:10334000128E118E1486E5E5F6E013821282C48295
:10335000D582E682F78291838083128E118E148645
:10336000EAE3F6E013821282C482D582E682F78213
:1033700091838083128E118E1486EFE1F6E0138222
:103380001282C482D582E682F78291838083128E74
:10339000118E1486E4E0F6E013821282C482D58294
:1033A000E682F78291838083128E118E148668E9FB
:1033B00071E08EEF95E00E946B1368E971E088EF91
:1033C00095E00E946B1368E971E082EF95E00E943E
:1033D0006B13E6EEF5E0138212828AE491E09183AA
:1033E000808380E2848384E1818784E082871386FE
:1033F000FF90EF90DF90CF900895CF93DF93CDB7FC
:10340000DEB7C556D1090FB6F894DEBF0FBECDBFEB
:10341000789484B5826084BD84B5816084BD85B5AF
:10342000826085BD85B5816085BD80916E008160BB
:1034300080936E0010928100809181008260809361
:103440008100809181008160809381008091800063
:103450008160809380008091B10084608093B1008E
:103460008091B00081608093B00080917A00846088
:1034700080937A0080917A00826080937A008091B4
:103480007A00816080937A0080917A0080688093CE
:103490007A001092C10080917A00846080937A0053
:1034A00080917A008D7F80937A0080917A008E7F60
:1034B00080937A008FEF8AB98091C005882321F02C
:1034C0008BEB95E00E947C0A10929C0510929A0565
:1034D00010929705109296058AE0809395050E94B8
:1034E000CB028B0161E0809195050E94310261E081
:1034F000809195050E940302FFB6F8948091E30243
:10350000811127C0E8ECF0E08491E4EBF0E09491C5
:10351000E82FF0E0EE0FFF1FE056FF4FA591B491AA
:10352000EC91E92321F461E08AE00E94030261E06A
:103530008AE00E9431028CB580618CBD8CB58064BC
:103540008CBD61E08DE00E94310261E08BE00E9461
:1035500031028091E3028F5F8093E302FFBE82E538
:1035600080938F051092900580918F059091900522
:103570000E940D03EAE0FE2E8FEF0E94E802FA940B
:10358000F110FACF81E995E00E94100320E030E0CD
:10359000A90160E081E995E00E942603F82E80935E
:1035A0009B0521E0821779F00E94CB02601B710B12
:1035B000613D774058F381E08093960581E995E07D
:1035C0000E94DD02FFCF2AEA31E040E050E068E0EF
:1035D00081E995E00E94260382FF2AC0F0929C05B3
:1035E00080919C05C12CD12CE12C60E4F62E823018
:1035F00019F0C12CD12C760120E030E0A90167E35D
:1036000081E995E00E942603A701960169E281E91C
:1036100095E00E94260380939B058823D1F00E94A9
:10362000CB02601B710B613D774030F388E0C4CF63
:1036300074E0F72E0E94EF0280939B05FA94F1103C
:10364000F9CF8A3A11F082E0B7CF82E080939C05EF
:10365000C7CF80919C058230D1F420E030E0A901F1
:103660006AE381E995E00E942603882311F086E051
:10367000A3CF0E94EF02807C803C19F483E080930A
:103680009C050E94EF020E94EF020E94EF0281E976
:1036900095E00E94DD0280E580938F0510929005F1
:1036A00081E00E944505882339F08BEB95E00E946C
:1036B000FC07811107C086CF80E00E94450581117B
:1036C000F4CF80CF8091EB0588608093EB0522E0FA
:1036D000F22EF092EE0562E370E080E090E00E944E
:1036E00099026091F10586EE95E00E94390F68EE2F
:1036F00073E080E090E00E94990260E386EE95E03E
:103700000E9453110BE416E4C8010197F1F760E33E
:1037100086EE95E00E945311C8010197F1F760E32E
:1037200086EE95E00E94531183E592E00197F1F750
:1037300060E286EE95E00E9453118091EB05806275
:103740000E946C1184E08093EC058CE00E946C1167
:103750000E94AC11F092ED0586E00E946C1182E0AF
:103760000E946C118BE39FE10197F1F760E089E023
:103770000E94310260E088E00E94310269E971E054
:1037800086EE95E00E94481268EE73E080E090E0DB
:103790000E9499020E947012AA24A394B12C42E0C4
:1037A000442E512C54E6652E712C93E0892E912CD9
:1037B00089E00E94DA019093EF028093EE0280E1AB
:1037C0000E9462029093ED028093EC0288E00E94D6
:1037D000DA019093EB028093EA0281E10E94620297
:1037E0009093E9028093E8028FE00E946202909336
:1037F000E7028093E602009106011091070162E85A
:1038000071E0CE014E960E946B13BE01625E7F4F47
:10381000CE0101960E946213B801CE0101960E946A
:10382000FA12811104C0CE0101960E941C12BE0141
:103830006F5F7F4F88EF95E00E944B13CE0101969A
:103840000E942E12CE014E960E942E1268EF75E055
:10385000CE014E960E946213BE01625E7F4FCE0182
:1038600001960E94621344E050E06EE172E0CE01E6
:1038700001960E94BB12811104C0CE0101960E94E4
:103880001C12BE016F5F7F4F88EF95E00E944B13C3
:10389000CE0101960E942E12CE014E960E942E124B
:1038A0008091EE029091EF02019709F072C00E94A0
:1038B000B4116091F8057091F90547E1CE010196C8
:1038C0000E947F15BE016F5F7F4F80E796E00E94E8
:1038D00023100E94AC1168EA71E086EE95E00E9428
:1038E000481268E971E080E796E00E9448128EE095
:1038F0000E9462028091EE029091EF02019721F501
:1039000089E00E94DA019093EF028093EE028EE04C
:103910000E94620297FD0396BC01759567957595A7
:1039200067958BE896E00E94FA126BE876E080E7F4
:1039300096E00E94960041E050E069E372E08BE877
:1039400096E00E942A13D6CF80E796E00E943612B6
:103950000E94AC1165EB71E086EE95E00E94481282
:103960008091060190910701019690930701809341
:10397000060168EE73E080E090E00E9499020E94E8
:1039800070121092E5021092E402B0920501A0922A
:1039900004018091EC029091ED02853893408CF007
:1039A00060E080E00E947D118091EC05982F91608D
:1039B0009093EC0589600E946C11B092E502A09290
:1039C000E4028091EA029091EB02019789F461E0B0
:1039D00080E00E947D118091EC05982F916090937A
:1039E000EC0589600E946C115092E5024092E4025D
:1039F0008091E8029091E902853893409CF0809193
:103A0000040190910501019769F40091E40210917D
:103A1000E5020130110531F40E945712109307019D
:103A2000009306018091E8029091E9028538934065
:103A30003CF100910401109105010130110501F5DF
:103A40008091E4029091E5020297D1F40E94AC11BA
:103A50000E94B41160E081E00E947D1164E671E093
:103A600086EE95E00E944812709205016092040172
:103A70001092E5021092E4021093070100930601F0
:103A80008091E8029091E902853893402CF1809171
:103A900004019091050102970497F0F48091E402EB
:103AA0009091E5020197C1F40E94AC110E94B411FB
:103AB00060E081E00E947D1160EC71E086EE95E0AF
:103AC0000E94481286E090E09093050180930401E3
:103AD0001092E5021092E4028091E8029091E902CE
:103AE000853893403CF18091040190910501029743
:103AF00009F50091E4021091E50202301105D1F4BC
:103B00000E94AC110E94B41160E081E00E947D111E
:103B10006AEC71E086EE95E00E94481290920501F1
:103B2000809204011092E5021092E40210930701C2
:103B3000009306018091E8029091E9028538934054
:103B40004CF100910401109105010330110511F5AC
:103B50008091E4029091E5020297E1F40E94AC1199
:103B60000E94B41160E081E00E947D1162ED71E07D
:103B700086EE95E00E94481284E090E09093050163
:103B8000809304011092E5021092E4021093070161
:103B9000009306018091E8029091E90285389340F4
:103BA0004CF100910401109105010430110511F54B
:103BB0008091E4029091E5020297E1F40E94AC1139
:103BC0000E94B41160E081E00E947D116AED71E015
:103BD00086EE95E00E94481285E090E09093050102
:103BE000809304011092E5021092E4021093070101
:103BF000009306018091E8029091E9028538934094
:103C000054F180910401909105018436910519F5D4
:103C10000091E4021091E50202301105E1F40E94E6
:103C2000AC110E94B41160E081E00E947D116AEC49
:103C300071E086EE95E00E94481285E690E0909350
:103C40000501809304011092E5021092E4021093A2
:103C50000701009306018091E8029091E9028538FE
:103C600093404CF1809104019091050185369105B6
:103C700011F58091E4029091E5020297E1F40E942F
:103C8000AC110E94B41160E081E00E947D1162EDF0
:103C900071E086EE95E00E94481286E690E09093EF
:103CA0000501809304011092E5021092E4029092C3
:103CB0000701809206018091E8029091E90285381F
:103CC00093405CF180910401909105018636910545
:103CD00021F58091E4029091E5020297F1F40E94AF
:103CE000AC110E94B41160E081E00E947D116AED88
:103CF00071E086EE95E00E94481287E690E090938E
:103D00000501809304011092E5021092E40284E020
:103D100090E090930701809306018091E8029091D2
:103D2000E9028538934024F18091040190910501C6
:103D30000697F1F48091E4029091E5020297C1F4B4
:103D40000E94AC110E94B41160E081E00E947D11DC
:103D500062EE71E086EE95E00E94481287E090E006
:103D600090930501809304011092E5021092E40201
:103D70008091E8029091E9028538934024F1809186
:103D80000401909105010797F1F48091E40290916C
:103D9000E5020297C1F40E94AC110E94B41160E0E8
:103DA00081E00E947D1167EE71E086EE95E00E9451
:103DB000481288E090E090930501809304011092EE
:103DC000E5021092E4028091E8029091E9028538C0
:103DD00093400CF477C08091E4029091E502019742
:103DE00009F078C08091040190910501069709F0CF
:103DF00071C00E94AC110E94B41160E081E00E9489
:103E00007D1161EB71E0CE0101960E946B1368EFAA
:103E100075E0CE014E960E946213BE016F5F7F4F28
:103E2000CE014E960E94E712BC0186EE95E00E94FC
:103E30009600CE014E960E942E12CE0101960E944F
:103E40002E126091F8057091F90541E0CE010196BE
:103E50000E947F15BE016F5F7F4F85E596E00E944F
:103E60002310E0916E06F0916F06309759F185812D
:103E7000882341F185E596E00E948E0C892B91F014
:103E800065E576E0CE0101960E947C13CE01019695
:103E90000E94DF11CE0101960E942E120E94D311C2
:103EA0006BB9E8CF85E596E00E9436120E94AC110E
:103EB00060E081E00E947D116EEE71E086EE95E09B
:103EC0000E9448128091E8029091E902853893405F
:103ED0000CF44EC18091E4029091E502019709F043
:103EE000A4C08091040190910501079709F09DC03D
:103EF0000E94AC110E94B41160E081E00E947D112B
:103F000061EB71E0CE0101960E946B1368EF75E0E2
:103F1000CE014E960E946213BE016F5F7F4FCE01AD
:103F20004E960E94E712BC0186EE95E00E94960034
:103F3000CE014E960E942E12CE0101960E942E12A4
:103F400061E081E00E947D1162EF71E086EE95E014
:103F50000E9448120E94BE166AE871E0CE010196E6
:103F60000E946B1368EF75E0CE014E960E946213BB
:103F7000BE016F5F7F4FCE014E960E94E712BC01DB
:103F800082EF95E00E944B13CE014E960E942E12B6
:103F9000CE0101960E942E126091F2057091F305F8
:103FA00041E0CE0101960E947F15BE016F5F7F4FF9
:103FB00085E596E00E942310E0916E06F0916F0671
:103FC000309759F18581882341F185E596E00E947B
:103FD0008E0C892B91F065E576E0CE0101960E946A
:103FE0007C13CE0101960E94DF11CE0101960E9442
:103FF0002E120E94D3116BB9E8CF85E596E00E949E
:1040000036120E94AC1160E081E00E947D116EEEDC
:1040100071E086EE95E00E9448128091E80290914E
:10402000E902853893400CF4A3C08091E40290919A
:10403000E502019709F0A3C0809104019091050168
:10404000089709F09CC00E94AC110E94B41160E076
:1040500081E00E947D1161EB71E0CE0101960E942A
:104060006B1368EF75E0CE014E960E946213BE019D
:104070006F5F7F4FCE014E960E94E712BC0186EE25
:1040800095E00E949600CE014E960E942E12CE011F
:1040900001960E942E1261E081E00E947D1163E092
:1040A00072E086EE95E00E9448120E94BE1666E11C
:1040B00072E0CE0101960E946B1368EF75E0CE01AD
:1040C0004E960E946213BE016F5F7F4FCE014E96E7
:1040D0000E94E712BC0182EF95E00E944B13CE01D3
:1040E0004E960E942E12CE0101960E942E126091D1
:1040F000F2057091F30541E0CE0101960E947F1513
:10410000BE016F5F7F4F85E596E00E942310E0912E
:104110006E06F0916F06309759F18581882341F141
:1041200085E596E00E948E0C892B91F065E576E09E
:10413000CE0101960E947C13CE0101960E94DF11F0
:10414000CE0101960E942E120E94D3116BB9E8CFC6
:1041500085E596E00E9436120E94AC1160E081E095
:104160000E947D116EEE71E086EE95E00E9448128D
:104170008091E8029091E9028538934084F1809122
:10418000E4029091E502019751F58091040190912C
:10419000050184569109049710F50E94AC110E9404
:1041A000B41160E081E00E947D1163E272E086EE6E
:1041B00095E00E94481261E081E00E947D116BE26F
:1041C00072E086EE95E00E94481288E690E09093B7
:1041D0000501809304011092E5021092E40280919F
:1041E000E8029091E902853893400CF4CDC08091AB
:1041F0000401909105018836910509F0C5C08091B0
:10420000E4029091E502019709F0BEC0C090F80564
:10421000D090F9051EAE1DAE8CE291E09CAF8BAF45
:1042200021961FAE219719A218A29F8F8E8F1BA2D5
:10423000A6961FAEA697212CCE01CB967C010BEB48
:1042400015E0A6968FADA697922DF601E80FF91FFF
:1042500020812F3209F40196D601A80FB91FFE0163
:10426000E85AFF4F30E020E0AF016D916F3249F026
:10427000662339F001962F5F3F4F61932C30310553
:10428000A1F7240F351FF9011082F601E80FF91F7D
:1042900020812F3209F40196A6968FAFA697292E7A
:1042A0008C0D9D1DFC01808181112AC01C821B8206
:1042B0008CE291E09A8389831E8222E0B801CE01CC
:1042C00001960E94A813882399F0CE0101960E94BE
:1042D0005410882369F0CE0101960E942C050097A6
:1042E00039F025EEFC0120831E8281E00E94B70494
:1042F000F5E00B3B1F07C1F0C8010E947C0A14C007
:10430000F701858181117FC021E0B801C7010E94BA
:10431000A813382E25E00B3B120709F468C0C8012A
:104320000E947C0A311069C00E94AC110E94B41135
:1043300060E081E00E947D1162E372E0CE010196AF
:104340000E946B13BE016F5F7F4FCE014E960E949D
:10435000621368EF75E0CE014E960E94E712BC0131
:1043600086EE95E00E949600CE014E960E942E1297
:10437000CE0101960E942E1268EE73E080E090E07C
:104380000E9499020E9470128091E6029091E702C9
:104390008538934084F080910401909105019C013F
:1043A000225031092430310520F0845691090497B8
:1043B00010F40E9470128091E6029091E702853815
:1043C000934044F08091040190910501069711F407
:1043D0000E94571280E090E0892B09F4E9C90E94FD
:1043E0000E01882309F4E1C90E940000DEC9882378
:1043F00009F49ACF8E01025E1F4F902F812F870103
:10440000E92EF82E1ECF25E00B3B120709F48CCFC6
:1044100073CF82EF95E00E942E1288EF95E00E9404
:104420002E128EEF95E00E942E128BE896E00C94EF
:104430002E121F93FC0199278827BC01E894119143
:104440001032E9F3193010F01E30C8F31B3251F06E
:104450001D3249F4689406C00E944B22610F711D01
:10446000811D911D119110531A30B0F33EF49095B7
:104470008095709561957F4F8F4F9F4F1F91089545
:10448000BB274A3031F4992322F4BDE290958195FF
:104490009F4F0C946122592F482F372F262F660FDC
:1044A000771F881F991F660F771F881F991F620F3C
:1044B000731F841F951F660F771F881F991F08950C
:1044C000BB27FB015527AA27880F991FAA1FA417EE
:1044D00010F0A41B83955051B9F7A05DAA3308F0E2
:1044E000A95DA193009779F7B111B1931192CB0116
:1044F0000C947A22DC01FC01672F71917723E1F79C
:10450000329704C07C916D9370836291AE17BF07A0
:10451000C8F30895E89409C097FB3EF49095809500
:10452000709561957F4F8F4F9F4F9923A9F0F92F79
:1045300096E9BB279395F695879577956795B795F7
:10454000F111F8CFFAF4BB0F11F460FF1BC06F5FDD
:104550007F4F8F4F9F4F16C0882311F096E911C0EF
:10456000772321F09EE8872F762F05C0662371F010
:1045700096E8862F70E060E02AF09A95660F771F24
:10458000881FDAF7880F9695879597F908950E9406
:10459000DA220C944B230E943D2338F00E944423DE
:1045A00020F0952311F00C9434230C943A23112419
:1045B0000C947F230E945C2370F3959FC1F3950FA9
:1045C00050E0551F629FF001729FBB27F00DB11D97
:1045D000639FAA27F00DB11DAA1F649F6627B00D27
:1045E000A11D661F829F2227B00DA11D621F739F10
:1045F000B00DA11D621F839FA00D611D221F749F1E
:104600003327A00D611D231F849F600D211D822F64
:10461000762F6A2F11249F5750409AF0F1F088238B
:104620004AF0EE0FFF1FBB1F661F771F881F9150B8
:104630005040A9F79E3F510580F00C9434230C9410
:104640007F235F3FE4F3983ED4F386957795679593
:10465000B795F795E7959F5FC1F7FE2B880F911DE2
:104660009695879597F9089597F99F6780E870E088
:1046700060E008959FEF80EC089500240A941616D8
:10468000170618060906089500240A941216130640
:10469000140605060895092E0394000C11F48823CE
:1046A00052F0BB0F40F4BF2B11F460FF04C06F5FEA
:1046B0007F4F8F4F9F4F089557FD9058440F551FC0
:1046C00059F05F3F71F04795880F97FB991F61F094
:1046D0009F3F79F087950895121613061406551F0B
:1046E000F2CF4695F1DF08C0161617061806991F77
:1046F000F1CF86957105610508940895E894BB276C
:1047000066277727CB0197F908950E94C723A59FB5
:10471000900DB49F900DA49F800D911D11240895BC
:104720002F923F924F925F926F927F928F929F92C1
:10473000AF92BF92CF92DF92EF92FF920F931F93AF
:10474000CF93DF93CDB7DEB7CA1BDB0B0FB6F89460
:10475000DEBF0FBECDBF09942A88398848885F84A0
:104760006E847D848C849B84AA84B984C884DF8011
:10477000EE80FD800C811B81AA81B981CE0FD11DF5
:104780000FB6F894DEBF0FBECDBFED010895A29F16
:10479000B001B39FC001A39F700D811D1124911D15
:1047A000B29F700D811D1124911D08955058BB2793
:1047B000AA270E94EE230C944B230E943D2338F03D
:1047C0000E94442320F039F49F3F19F426F40C94FE
:1047D0003A230EF4E095E7FB0C943423E92F0E9472
:1047E0005C2358F3BA17620773078407950720F014
:1047F00079F4A6F50C947E230EF4E0950B2EBA2FD7
:10480000A02D0B01B90190010C01CA01A0011124D6
:10481000FF27591B99F0593F50F4503E68F11A1682
:10482000F040A22F232F342F4427585FF3CF469513
:1048300037952795A795F0405395C9F77EF41F1635
:10484000BA0B620B730B840BBAF09150A1F0FF0FFF
:10485000BB1F661F771F881FC2F70EC0BA0F621FEB
:10486000731F841F48F4879577956795B795F795DB
:104870009E3F08F0B0CF9395880F08F09927EE0F70
:104880009795879508950E944A246894B1110C94D5
:104890007F2308950E94642388F09F5798F0B92FD2
:1048A0009927B751B0F0E1F0660F771F881F991F65
:1048B0001AF0BA95C9F714C0B13091F00E947E2366
:1048C000B1E008950C947E23672F782F8827B85F76
:1048D00039F0B93FCCF3869577956795B395D9F7BD
:1048E0003EF490958095709561957F4F8F4F9F4FC7
:1048F0000895EE0FFF1F0590F491E02D09940F939A
:104900001F93CF93DF938230910510F482E090E003
:10491000E0919306F091940630E020E0B0E0A0E052
:10492000309799F42115310509F44AC0281B390B39
:1049300024303105D8F58A819B816115710589F193
:10494000FB0193838283FE0111C04081518102816A
:10495000138148175907E0F04817590799F4109741
:1049600061F012960C93129713961C933296CF0116
:10497000DF91CF911F910F910895009393061093AB
:104980009406F4CF2115310551F04217530738F042
:10499000A901DB019A01BD01DF01F801C1CFEF01DF
:1049A000F9CF9093940680939306CDCFFE01E20F4A
:1049B000F31F819391932250310939832883D7CFF4
:1049C0002091910630919206232B41F420910A0107
:1049D00030910B01309392062093910620910801AB
:1049E000309109012115310541F42DB73EB74091B1
:1049F0000C0150910D01241B350BE0919106F091B3
:104A00009206E217F307A0F42E1B3F0B2817390775
:104A100078F0AC014E5F5F4F2417350748F04E0F1A
:104A20005F1F5093920640939106819391939FCF7D
:104A3000F0E0E0E09CCFCF93DF930097E9F0FC013A
:104A4000329713821282A0919306B0919406ED01E1
:104A500030E020E01097A1F420813181820F931F74
:104A600020919106309192062817390709F061C00C
:104A7000F0939206E0939106DF91CF910895EA01B9
:104A8000CE17DF07E8F54A815B819E01411551058C
:104A9000B1F7E901FB83EA8349915991C40FD51F0E
:104AA000EC17FD0761F4808191810296840F951FB8
:104AB000E90199838883828193819B838A83F0E0D3
:104AC000E0E012968D919C9113970097B9F52D9186
:104AD0003C911197CD010296820F931F2091910670
:104AE000309192062817390739F6309751F5109210
:104AF000940610929306B0939206A0939106BCCFB1
:104B0000D383C28340815181840F951FC817D90771
:104B100061F44E5F5F4F88819981480F591F51831F
:104B200040838A819B81938382832115310509F01B
:104B3000B0CFF0939406E09393069ECFFD01DC0185
:104B4000C0CF13821282D7CFB0E0A0E0EAEAF5E24C
:104B50000C9492238C01009751F4CB010E947F2486
:104B60008C01C801CDB7DEB7E0E10C94AE23FC01A7
:104B7000E60FF71F9C0122503109E217F30708F4F2
:104B80009DC0D901CD91DC911197C617D70798F038
:104B9000C530D10530F3CE0104978617970708F387
:104BA000C61BD70B2297C193D1936D937C93CF01F2
:104BB0000E941B25D6CF5B01AC1ABD0A4C018C0E9E
:104BC0009D1EA0919306B0919406512C412CF12C7E
:104BD000E12C109731F580919106909192068815FD
:104BE000990509F05CC04616570608F058C0809138
:104BF000080190910901009741F48DB79EB740914B
:104C00000C0150910D01841B950BE817F90708F072
:104C100055C0F0939206E0939106F9017183608389
:104C2000A0CF8D919C91119712966C90129713962C
:104C30007C901397A815B90559F56C0142E0C40E94
:104C4000D11CCA14DB0420F1AC014A195B09DA015A
:104C50001296159780F06282738251834083D90146
:104C60006D937C93E114F10471F0D7011396FC93DA
:104C7000EE93129776CF22968C0F9D1FF9019183A8
:104C80008083F301EFCFF0939406E093930669CF0E
:104C90004816590608F42C017D01D3019ACFCB01A7
:104CA0000E947F247C01009749F0AE01B8010E9468
:104CB0006E26C8010E941B25870153CF10E000E03B
:104CC00050CFFB01DC0104C08D910190801921F4CB
:104CD00041505040C8F7881B990B0895FB01DC0137
:104CE00002C001900D9241505040D8F70895FC0148
:104CF0008191861721F08823D9F799270895319754
:104D0000CF010895FB01DC0101900D920020E1F735
:104D10000895FB01DC014150504048F001900D9294
:104D20000020C9F701C01D9241505040E0F708959E
:104D300010E0CAE6D0E004C0FE010E94792421966A
:104D4000CB36D107C9F7F894FFCFFFFFFFFF010073
:104D5000010000009506800000004000140054008F
:104D6000000000004401A400D10091010201E00014
:104D7000F40000000000240CA4001E0A95000000AE
:104D800000000A0FDD0E2010CF0ED60ED30ED00E6F
:104D900000000000BC11A4002010950000000000DD
:104DA000DB0CBE0CAE0C850C8E0C110E450E417545
:104DB00064696F203100506C61794261636B2041FE
:104DC0007564696F0044656C65746520417564693C
:104DD0006F002F006C6F77706173732E747874009E
:104DE0000D0A00566F696365205265636F726465D2
:104DF00072005245434F5244494E472E2E2E0046D4
:104E0000696C65205361766564004E6F2045666667
:104E100065637400417564696F203200417564698F
:104E20006F203300417564696F20340042617373F1
:104E300000547265626C6500656E64007769746821
:104E400020426173732045666665637400776974F8
:104E50006820547265626C652045666665637400FF
:104E600068696768706173732E74787400436F6E3D
:104E70006669726D0043616E63656C0044656C65C4
:064E8000746564200000CF
:107E0000112484B714BE81FFF0D085E080938100F7
:107E100082E08093C00088E18093C10086E0809377
:107E2000C20080E18093C4008EE0C9D0259A86E02C
:107E300020E33CEF91E0309385002093840096BBD3
:107E4000B09BFECF1D9AA8958150A9F7CC24DD24C4
:107E500088248394B5E0AB2EA1E19A2EF3E0BF2EE7
:107E6000A2D0813461F49FD0082FAFD0023811F036
:107E7000013811F484E001C083E08DD089C08234E0
:107E800011F484E103C0853419F485E0A6D080C0E4
:107E9000853579F488D0E82EFF2485D0082F10E0AE
:107EA000102F00270E291F29000F111F8ED06801E7
:107EB0006FC0863521F484E090D080E0DECF843638
:107EC00009F040C070D06FD0082F6DD080E0C81688
:107ED00080E7D80618F4F601B7BEE895C0E0D1E017
:107EE00062D089930C17E1F7F0E0CF16F0E7DF06D8
:107EF00018F0F601B7BEE89568D007B600FCFDCFD4
:107F0000A601A0E0B1E02C9130E011968C91119780
:107F100090E0982F8827822B932B1296FA010C0160
:107F200087BEE89511244E5F5F4FF1E0A038BF0790
:107F300051F7F601A7BEE89507B600FCFDCF97BE46
:107F4000E89526C08437B1F42ED02DD0F82E2BD052
:107F50003CD0F601EF2C8F010F5F1F4F84911BD097
:107F6000EA94F801C1F70894C11CD11CFA94CF0C13
:107F7000D11C0EC0853739F428D08EE10CD085E9AC
:107F80000AD08FE07ACF813511F488E018D01DD067
:107F900080E101D065CF982F8091C00085FFFCCF94
:107FA0009093C60008958091C00087FFFCCF809118
:107FB000C00084FD01C0A8958091C6000895E0E648
:107FC000F0E098E1908380830895EDDF803219F02E
:107FD00088E0F5DFFFCF84E1DECF1F93182FE3DFCA
:107FE0001150E9F7F2DF1F91089580E0E8DFEE27F6
:047FF000FF270994CA
:027FFE00040479
:00000001FF
