:100000000C9434000C9451000C9451000C94510049
:100010000C9451000C9451000C9451000C9451001C
:100020000C9451000C9451000C9451000C9451000C
:100030000C9451000C9451000C9451000C945100FC
:100040000C9451000C9451000C9451000C945100EC
:100050000C9451000C9451000C9451000C945100DC
:100060000C9451000C94510011241FBECFEFD8E026
:10007000DEBFCDBF11E0A0E0B1E0E2ECFCE002C0E9
:1000800005900D92A43CB107D9F721E0A4ECB1E0B2
:1000900001C01D92AB3CB207E1F70E94DC050C9455
:1000A0005F060C94000082E68093B80084E08093A1
:1000B000BC001092B900089584EA8093BC0080913E
:1000C000BC008823E4F708958093BB0084E8809304
:1000D000BC008091BC008823E4F7089540E050E024
:1000E0000AC02F5F3F4F02C020E030E029373105C2
:1000F000C4F34F5F5F4F84179507B4F70895EBEB98
:10010000F0E080818260808384E88093BC008091ED
:10011000BC008823E4F781E090E00E946E00EBEBE6
:10012000F0E080818D7F808384E88093BC008091A3
:10013000BC008823E4F70895EBEBF0E090819E7F0C
:10014000908394E89093BC009091BC009923E4F7CD
:10015000EBEBF0E090819F70908394E89093BC006B
:100160009091BC009923E4F7EBEBF0E09081807F65
:10017000892B808384E88093BC008091BC00882315
:10018000E4F70E947F000895CF93C82FEBEBF0E0D7
:1001900080818E7F808384E88093BC008091BC0046
:1001A0008823E4F7EBEBF0E080818F70808384E8B4
:1001B0008093BC008091BC008823E4F7EBEBF0E077
:1001C00080819C2F907F892B808384E88093BC0062
:1001D0008091BC008823E4F70E947F00EBEBF0E005
:1001E00080818F70808384E88093BC008091BC0004
:1001F0008823E4F7EBEBF0E0208130E1C39FC001FE
:100200001124822B808384E88093BC008091BC0001
:100210008823E4F70E947F00CF91089580E30E9435
:100220009C0080E30E949C0080E20E949C0088E287
:100230000E94C40081E00E94C40086E00E94C400C5
:1002400080E80E94C4008FE00E94C4000895CF930C
:10025000C82FEBEBF0E080818160808384E880939D
:10026000BC008091BC008823E4F7EBEBF0E08081D8
:100270008F70808384E88093BC008091BC008823C9
:10028000E4F7EBEBF0E080819C2F907F892B80835B
:1002900084E88093BC008091BC008823E4F70E942E
:1002A0007F00EBEBF0E080818F70808384E88093A7
:1002B000BC008091BC008823E4F7EBEBF0E02081E8
:1002C00030E1C39FC0011124822B808384E8809396
:1002D000BC008091BC008823E4F70E947F00CF918E
:1002E0000895CF93DF93EC0103C021960E9427016C
:1002F00088818111FACFDF91CF9108958091C80153
:10030000823061F48FE00E94C40080E80E94C40043
:1003100081E090E09093C5018093C4018091C70172
:10032000843061F48FE00E94C40080EC0E94C4001D
:1003300082E090E09093C5018093C401089581E02C
:100340000E94C40080E80E94C40084E10E94C400AE
:1003500084E091E00E94710180EC0E94C40084E17D
:100360000E94C40083E191E00E9471018CE00E9430
:10037000C40081E090E09093030180930201109209
:10038000C5011092C40108958091CA018130A9F578
:100390000EC081E00E94C40080E291E00E947101E1
:1003A00089B181708093CA0181E00E94C40080916C
:1003B000CA01813071F38DE291E00E947101809158
:1003C0000001909101010196909301018093000139
:1003D0002FEF83ED90E3215080409040E1F700C083
:1003E00000000E949F011092C5011092C40181E09B
:1003F00090E09093030180930201089581E00E94B0
:10040000C40080E80E94C40084E10E94C40088E324
:1004100091E00E9471018CE00E94C40082E090E0B3
:1004200090930301809302011092C5011092C401C0
:10043000089581E00E94C40080E80E94C40084E125
:100440000E94C40080E491E00E9471018CE00E944F
:10045000C40083E090E09093030180930201109226
:10046000C5011092C401089581E00E94C40080E893
:100470000E94C40084E10E94C40088E491E00E94CC
:1004800071018CE00E94C40084E090E0909303012D
:10049000809302011092C5011092C401089581E079
:1004A0000E94C40080E80E94C40084E10E94C4004D
:1004B00080E591E00E9471018CE00E94C40085E01B
:1004C00090E090930301809302011092C501109275
:1004D000C401089581E00E94C40080E80E94C40025
:1004E00084E10E94C40088E391E00E9471018CE0E5
:1004F0000E94C40084E690E090930301809302017F
:100500001092C5011092C401089581E00E94C400B8
:1005100080E80E94C40084E10E94C40080E491E06D
:100520000E9471018CE00E94C40085E690E09093E7
:100530000301809302011092C5011092C401089535
:1005400081E00E94C40080E80E94C40084E10E940F
:10055000C40088E491E00E9471018CE00E94C40014
:1005600086E690E090930301809302011092C5010A
:100570001092C401089581E00E94C40080E80E94A6
:10058000C40084E10E94C40080E591E00E947101F2
:100590008CE00E94C40087E690E090930301809372
:1005A00002011092C5011092C401089581E00E94D9
:1005B000C40080E80E94C40084E10E94C40088E571
:1005C00091E00E9471018CE00E94C40086E090E0FE
:1005D00090930301809302011092C5011092C4010F
:1005E000089581E00E94C40080E80E94C40084E174
:1005F0000E94C40082E691E00E9471018CE00E949A
:10060000C40087E090E09093030180930201109270
:10061000C5011092C401089581E00E94C40080E8E1
:100620000E94C40084E10E94C40087E691E00E9419
:1006300071018CE00E94C40088E090E09093030177
:10064000809302011092C5011092C4010895809117
:10065000C9018830A1F480910201909103010297B1
:1006600071F48091C4019091C501029741F40E94F8
:10067000190282E090E09093010180930001809143
:10068000C9018830A1F48091020190910301039780
:1006900071F48091C4019091C501029741F40E94C8
:1006A000340283E090E090930101809300018091F7
:1006B000C9018830A1F4809102019091030104974F
:1006C00071F48091C4019091C501029741F40E9498
:1006D0004F0284E090E090930101809300018091AB
:1006E000C9018830A9F480910201909103018436F8
:1006F000910571F48091C4019091C501029741F474
:100700000E94850282E090E09093010180930001B5
:100710008091C9018830A9F4809102019091030170
:100720008536910571F48091C4019091C5010297BD
:1007300041F40E94A00283E090E090930101809335
:1007400000018091C9018830A9F480910201909143
:1007500003018636910571F48091C4019091C50121
:10076000029741F40E94BB0284E090E09093010163
:10077000809300018091C901883071F48091020159
:1007800090910301069741F48091C4019091C501B5
:10079000029711F40E94F1028091C901883071F42E
:1007A0008091020190910301079741F48091C40167
:1007B0009091C501029711F40E940C030895809155
:1007C000C901883009F070C08091C4019091C501C1
:1007D000019709F069C08091020190910301069789
:1007E00009F062C081E00E94C40080E80E94C40059
:1007F00084E10E94C4008EE691E00E94710180ECC9
:100800000E94C40084E10E94C40080910001909184
:100810000101019721F488E391E00E947101809128
:10082000000190910101029721F480E491E00E947F
:1008300071018091000190910101039721F488E4F6
:1008400091E00E9471018091000190910101049753
:1008500021F480E591E00E9471018CE00E94C400C7
:100860002FEF87EA91E6215080409040E1F700C0E9
:10087000000081E00E94C40080E80E94C40084E17E
:100880000E94C40086E791E00E9471018CE00E9402
:10089000C4002FEF83ED90E3215080409040E1F7BA
:1008A00000C000000E949F018091C901883009F0BA
:1008B00062C08091C4019091C501019709F05BC0AD
:1008C0008091020190910301079709F054C081E0E3
:1008D0000E94C40080E80E94C40084E10E94C40019
:1008E0008091000190910101019721F488E391E04A
:1008F0000E9471018091000190910101029721F401
:1009000080E491E00E9471018091000190910101C9
:10091000039721F488E491E00E9471018091000125
:1009200090910101049721F480E591E00E9471010A
:1009300080EC0E94C4008AE791E00E9471018CE083
:100940000E94C4002FEF87EA91E62150804090403A
:10095000E1F700C0000081E00E94C40080E80E942E
:10096000C40084E10E94C40086E791E00E94710106
:100970008CE00E94C4008091C901883009F062C0F7
:100980008091C4019091C501019709F05BC08091ED
:10099000020190910301089709F054C081E00E9480
:1009A000C40080E80E94C40084E10E94C4008091D9
:1009B000000190910101019721F488E391E00E94E8
:1009C00071018091000190910101029721F480E46E
:1009D00091E00E94710180910001909101010397C3
:1009E00021F488E491E00E947101809100019091CE
:1009F0000101049721F480E591E00E94710180ECEF
:100A00000E94C4008BE891E00E9471018CE00E947A
:100A1000C4002FEF87EA91E6215080409040E1F733
:100A200000C0000081E00E94C40080E80E94C40071
:100A300084E10E94C40086E791E00E9471018CE08D
:100A40000E94C40008958091C901883091F5809179
:100A5000C4019091C501892B61F1809102019091AF
:100A6000030184569109049720F581E00E94C40097
:100A700080E80E94C40084E10E94C4008EE991E0F5
:100A80000E94710180EC0E94C40084E10E94C400B5
:100A900086EA91E00E9471018CE00E94C40088E621
:100AA00090E090930301809302011092C50110928F
:100AB000C40108958091C901883009F058C080911F
:100AC0000201909103018836910509F050C0809190
:100AD000C4019091C501019709F049C081E00E94CD
:100AE000C40080E80E94C40084E10E94C4008DEA32
:100AF00091E00E94710180EC0E94C40084E10E9498
:100B0000C4008091000190910101019721F488E3D4
:100B100091E00E9471018091000190910101029782
:100B200021F480E491E00E94710180910001909194
:100B30000101039721F488E491E00E947101809102
:100B4000000190910101049721F480E591E00E9459
:100B500071018CE00E94C4002FEF83ED90E32150DF
:100B600080409040E1F700C000000E949F0108957E
:100B70008091C601803181F480910201909103013E
:100B80009C01225031092430310520F0845691090E
:100B9000049710F40E949F018091C601803159F49E
:100BA00080910201909103018630910524F009970C
:100BB00014F40E94FE0108958AB1807E8AB90E94D1
:100BC00053000E945C0080E70E9464000E940E01B6
:100BD00085EB91E00E9471012FEF80E792E02150B8
:100BE00080409040E1F700C000000E949F0189B161
:100BF00081708093CA0189B182708093C80189B1E4
:100C000084708093C70189B188708093C90189B1CC
:100C100080718093C6010E94C4010E947E01809170
:100C2000C9018830A1F480910201909103010197DC
:100C300071F48091C4019091C501019741F40E9423
:100C4000FE0181E090E0909301018093000180918A
:100C5000C9018830A1F480910201909103010197AC
:100C600071F48091C4019091C501029741F40E94F2
:100C70006A0281E090E090930101809300018091ED
:100C8000C901883089F4809102019091030182307A
:100C9000910554F0069744F48091C4019091C501E8
:100CA000019711F40E94D6020E9427030E94DF03DD
:100CB0000E9423050E945A050E94B80598CFF89417
:020CC000FFCF64
:100CC20001000100506C61796261636B206175649F
:100CD200696F0044656C65746520417564696F00D5
:100CE2005265636F7264696E672E2E2E0046696CC0
:100CF2006520536176656400417564696F20310037
:100D0200417564696F203200417564696F20330058
:100D1200417564696F2034004E6F204566666563D5
:100D220074004261737300547265626C6500506CAA
:100D32006179696E6700656E640077697468204244
:100D42006173732045666665637400776974682011
:100D5200547265626C652045666665637400436F14
:100D62006E6669726D0043616E63656C0044656C0A
:100D72006574656400566F696365205265636F72BE
:040D82006465720032
:00000001FF
