:020000040000FA
:100000000C946B000C9493000C9493000C9493004C
:100010000C9493000C9493000C9493000C94930014
:100020000C9493000C9493000C9493000C94930004
:100030000C9493000C9493000C9493000C949300F4
:100040000C94A1170C9493000C946F170C944917FF
:100050000C9493000C9493000C9493000C949300D4
:100060000C94EB170C9493007C3C3E5E2B3D3F2F91
:100070005B5D3B2C2A225C0000000000250028006C
:100080002B000000000023002600290000000008CB
:10009000000201000003040700000000000000004F
:1000A00000000000240027002A000102040810209C
:1000B00040800102040810200102040810200404FA
:1000C0000404040404040202020202020303030300
:1000D000030306199E2211241FBECFEFD8E0DEBF16
:1000E000CDBF26E0A0E4B2E001C01D92AD39B20759
:1000F000E1F712E0A0E0B1E0E0E4FEE402C0059028
:100100000D92A034B107D9F710E0CAE6D0E004C0E0
:100110002197FE010E94F424C936D107C9F70E9435
:10012000CE190C9413270C940000DB0114964D910A
:100130005C9115976D917C91DC01ED91FC910280B1
:10014000F381E02D0994AF92BF92CF92DF92EF92AC
:10015000FF920F931F93CF93DF936C017B018B0171
:10016000040F151FEB015E01AE18BF08C017D107C1
:1001700059F06991D601ED91FC910190F081E02D4B
:10018000C6010995892B79F7C501DF91CF911F91A0
:100190000F91FF90EF90DF90CF90BF90AF900895B8
:1001A000FC01538D448D252F30E0842F90E0821B7D
:1001B000930B541710F0CF96089501970895FC0102
:1001C000918D828D981761F0A28DAE0FBF2FB11D5A
:1001D0005D968C91928D9F5F9F73928F90E00895B2
:1001E0008FEF9FEF0895FC01918D828D981731F06C
:1001F000828DE80FF11D858D90E008958FEF9FEFC0
:100200000895FC01918D228D892F90E0805C9F4F95
:10021000821B91098F73992708958AEF94E00E94B9
:10022000010121E0892B09F420E0822F089580E06C
:1002300090E0892B29F00E940D0181110C9400009F
:100240000895FC01A48DA80FB92FB11DA35ABF4F6B
:100250002C91848D90E001968F739927848FA689C5
:10026000B7892C93A089B1898C91837080648C9319
:10027000938D848D981306C00288F389E02D8081C8
:100280008F7D80830895EF92FF920F931F93CF93FA
:10029000DF93EC0181E0888F9B8D8C8D98131AC0C1
:1002A000E889F989808185FF15C09FB7F894EE89A8
:1002B000FF896083E889F989808183708064808305
:1002C0009FBF81E090E0DF91CF911F910F91FF9050
:1002D000EF900895F62E0B8D10E00F5F1F4F0F73F8
:1002E0001127E02E8C8D8E110CC00FB607FCFACFB3
:1002F000E889F989808185FFF5CFCE010E9421012F
:10030000F1CFEB8DEC0FFD2FF11DE35AFF4FF08283
:100310009FB7F8940B8FEA89FB8980818062CFCFE9
:10032000CF93DF93EC01888D8823B9F0AA89BB892C
:10033000E889F9898C9185FD03C0808186FD0DC017
:100340000FB607FCF7CF8C9185FFF2CF808185FF38
:10035000EDCFCE010E942101E9CFDF91CF91089529
:10036000833081F028F4813099F08230A9F008952B
:100370008730A9F08830C9F08430B1F480918000D2
:100380008F7D03C0809180008F77809380000895D7
:1003900084B58F7784BD089584B58F7DFBCF809120
:1003A000B0008F778093B00008958091B0008F7D6A
:1003B000F9CFCF93DF93282F30E0F901E457FF4FB7
:1003C0008491F901E655FF4FD491F901E254FF4FB2
:1003D000C491CC23A1F081110E94B001EC2FF0E078
:1003E000EE0FFF1FEE57FF4FA591B491EC91ED2357
:1003F00081E090E009F480E0DF91CF91089580E002
:1004000090E0FACF1F93CF93DF93282F30E0F901CC
:10041000E457FF4F8491F901E655FF4FD491F9015C
:10042000E254FF4FC491CC23A9F0162F81110E94F2
:10043000B001EC2FF0E0EE0FFF1FE858FF4FA59141
:10044000B4918FB7F894EC91111108C0D095DE23C8
:10045000DC938FBFDF91CF911F910895DE2BF8CFF2
:10046000CF93DF9390E0FC01E655FF4F2491825437
:100470009F4FFC0184918823D1F090E0880F991F51
:10048000FC01E056FF4FA591B491FC01E858FF4FE5
:10049000C591D49161110EC09FB7F8948C91E22F51
:1004A000E0958E238C932881E223E8839FBFDF9120
:1004B000CF9108958FB7F894EC91E22BEC938FBF16
:1004C000F6CF8E50806480937C0080917A008064A7
:1004D00080937A0080917A0086FDFCCF809178002D
:1004E0009091790008953FB7F8948091E30290913C
:1004F000E402A091E502B091E60226B5A89B05C0F2
:100500002F3F19F00196A11DB11D3FBFBA2FA92F92
:10051000982F8827BC01CD01620F711D811D911D8F
:1005200042E0660F771F881F991F4A95D1F70895FB
:100530008F929F92AF92BF92CF92DF92EF92FF92F3
:100540004B015C010E9473026B017C010E947302EB
:100550006C197D098E099F09683E734081059105DC
:10056000A8F321E0821A9108A108B10888EEC80E0C
:1005700083E0D81EE11CF11C81149104A104B10494
:1005800029F7FF90EF90DF90CF90BF90AF909F90B2
:100590008F9008952FB7F8946091DF027091E00278
:1005A0008091E1029091E2022FBF08958FB7F894F5
:1005B0008091D8028FBF089561E0FC0184810E9480
:1005C00002028091D70281111092D70208958EBD48
:1005D00000000DB407FEFDCF8EB508958FEF0C948B
:1005E000E7020F931F93CF93DF93EC010E94CA029F
:1005F0008B010E94EE028F3F69F00E94CA02601BCD
:10060000710B6C177D07A8F380E0DF91CF911F91EC
:100610000F91089581E0F9CF8CBD9DBD0895CF93D2
:10062000DF93EC018091D702811109C081E08093B2
:10063000D70280919705909198050E940C0360E085
:100640008C81DF91CF910C9402028F929F92AF9296
:10065000BF92FF920F931F93CF93DF93EC01F62E7F
:1006600049015A018E81882389F08F8198859C01E8
:100670002F5F3F4F38872F838230924018F40E94BB
:10068000EE02F3CFCE010E94DC021E82CE010E9458
:100690000F038CE291E00E94F1028F2D80640E9492
:1006A000E70208E110E0D501C401002E04C0B695B0
:1006B000A795979587950A94D2F70E94E70208506C
:1006C0001109083F8FEF180771F785E9FF2021F026
:1006D00028E087E8F2128FEF0E94E70210E00E9404
:1006E000EE028A8787FF04C01F3F11F01F5FF7CF1C
:1006F000DF91CF911F910F91FF90BF90AF909F908E
:100700008F900895AF92BF92CF92DF92EF92FF92B7
:100710000F931F93CF93DF93EC016901C801820F00
:10072000931F8130924050F58E81882379F0888123
:100730009981AA81BB8184179507A607B70731F471
:100740008F819885C816D90608F042C0488359831E
:100750006A837B838B85833039F089E0440F551F92
:10076000661F771F8A95D1F79A01AB0161E1CE012F
:100770000E942503882389F083E08D83CE010E94A7
:10078000DC0280E0DF91CF911F910F91FF90EF90FD
:10079000DF90CF90BF90AF9008950E94CA025B0196
:1007A0000E94EE028A878F3F69F40E94CA026A198A
:1007B0007B096D327140A0F38FE08D83CE010E94E2
:1007C000DC02DCCF8E3F89F418861F8281E08E83A5
:1007D0008F8198858C159D0550F40E94EE028F81C3
:1007E0009885019698878F83F3CF8DE0E6CF6701D8
:1007F000E00EF11E0E94EE02F60181936F01EE15EC
:10080000FF05C1F78F819885080F191F18870F837F
:100810008985882319F001151240A0F08E81882364
:1008200089F08F8198859C012F5F3F4F38872F83F8
:100830008230924018F40E94EE02F3CFCE010E9463
:10084000DC021E8281E09ECFCF92DF92EF92FF9278
:100850000F93CF93DF93EC01690182E141155105BC
:100860006105710599F08B85833039F089E0440F7B
:10087000551F661F771F8A95D1F79A01AB0168E172
:10088000CE010E942503882319F084E08D832DC0BA
:100890008EEF0E94E70276018EEFD81AF701819160
:1008A0007F010E94E702EC14FD04C1F78FEF0E9464
:1008B000E7028FEF0E94E7020E94EE028A878F71A3
:1008C000853071F4011116C0CE010E94DC0281E076
:1008D000DF91CF910F91FF90EF90DF90CF9008952F
:1008E00081E18D83CE010E94DC02CE010E94DC02F8
:1008F00080E0EECF88E592E00E94F102811102C013
:1009000085E1C4CF20E030E0A9016DE0CE010E9476
:100910002503882311F084E1B9CF0E94EE028111F2
:10092000FACFD2CF0F934091DA025091DB0260915F
:10093000DC027091DD02411551056105710599F0E8
:10094000082F2AEF32E08091F8029091F9020E947C
:100950002404882349F01092DA021092DB021092EC
:10096000DC021092DD0281E00F9108950F93CF9386
:10097000C82F8091D902811105C0C1E08C2FCF9181
:100980000F91089540910001509101016091020181
:10099000709103010C2F2AEF32E08091F8029091C0
:1009A000F9020E942404811102C0C0E0E7CFCC23E9
:1009B00021F381E00E9492048823B9F31092D902B6
:1009C000DDCF8F929F92AF92BF92EF92FF920F93E3
:1009D0001F93CF934B015C01C42F80910001909134
:1009E0000101A0910201B091030188159905AA05A2
:1009F000BB0551F181E00E94B60481110BC080E07B
:100A0000CF911F910F91FF90EF90BF90AF909F906B
:100A10008F9008958AEFE82E82E0F82E00E012E031
:100A200030E020E0B501A4018091F8029091F90234
:100A30000E948203882319F38092000190920101A1
:100A4000A0920201B09203014091D9024C2B409335
:100A5000D90281E0D5CFCF93DF93EC016E857F85FE
:100A60008889998941E00E94E104882351F08A89AC
:100A700020E2829FC001112486509D4FDF91CF91CB
:100A8000089590E080E0FACF8F929F92AF92BF924C
:100A9000CF92DF92EF92FF92CF9329E935E0309326
:100AA000F9022093F802882309F46DC040E060E069
:100AB00070E0CB010E94E10481110BC080E0CF9176
:100AC000FF90EF90DF90CF90BF90AF909F908F906E
:100AD00008958091B8048F7789F78091C40490912C
:100AE000C504A091C604B091C70484369105A10540
:100AF000B10520F3C090C004D090C104E090C204BE
:100B0000F090C304C114D104E104F104B9F240E04F
:100B1000C701B6010E94E104882381F28091050398
:100B2000909106038115924049F6A0910A03AA23E9
:100B300029F260910803709109036115710509F4A8
:100B4000BDCF20910703222309F4B8CFA093B705A6
:100B50002093A90590E080E030E0E1E0F0E0C82FCC
:100B6000AF01082E02C0440F551F0A94E2F7241764
:100B7000350769F041E0480F01968930910579F712
:100B80004093B2059BCFC12CD12C7601C0CF80936E
:100B9000B205209110033091110350E040E021157F
:100BA000310541F420911E0330911F034091200331
:100BB000509121032093AA053093AB054093AC05D7
:100BC0005093AD0546015701860E971EA11CB11C1E
:100BD0008092B8059092B905A092BA05B092BB0573
:100BE000E0910B03F0910C03F093BE05E093BD057B
:100BF000B0E00E94DE23DC01CB01880D991DAA1D07
:100C0000BB1D8093BF059093C005A093C105B09311
:100C1000C20525E0EE0FFF1F2A95E1F7E150FE4FD8
:100C2000EF2FFF27E6958E0F9F1FA11DB11D80930B
:100C3000B3059093B405A093B505B093B605809025
:100C40000D0390900E03B12CA12C8114910441F45A
:100C500080901A0390901B03A0901C03B0901D037A
:100C6000C81AD90AEA0AFB0AC80CD91CEA1CFB1CE0
:100C700004C0F694E794D794C794CA95D2F7C0926B
:100C8000AE05D092AF05E092B005F092B10585EFC8
:100C9000C8168FE0D806E104F10428F48CE08093B4
:100CA000BC0581E00CCF80E125EFC2162FEFD20604
:100CB000E104F104A0F38091260390912703A09111
:100CC0002803B09129038093BF059093C005A0939A
:100CD000C105B093C20580E2E2CF4F925F926F925E
:100CE0007F928F929F92AF92BF92CF92DF92EF92BC
:100CF000FF920F931F93CF93DF93EC014230510586
:100D00006105710590F480E0DF91CF911F910F9103
:100D1000FF90EF90DF90CF90BF90AF909F908F901B
:100D20007F906F905F904F90089589859A85AB85ED
:100D3000BC850196A11DB11D84179507A607B707AD
:100D400010F3CB88DC88ED88FE888F89803109F02C
:100D500042C0BB27A72F962F852F480159012A0192
:100D60003B01C80ED91EEA1EFB1E80910001909126
:100D70000101A0910201B0910301C816D906EA064B
:100D8000FB0699F58F898031C1F5B301A201552782
:100D900066277727440F551F46505D4FFA01918211
:100DA00080828091D90281608093D9028A898230C1
:100DB00080F08D819E81AF81B8858C0D9D1DAE1D0B
:100DC000BF1D8093DA029093DB02A093DC02B09304
:100DD000DD0281E099CFDB01CA01E7E0B695A79576
:100DE00097958795EA95D1F7B8CF40E0C701B6014E
:100DF0000E94E1048111C6CF86CFB301A2014F77D3
:100E0000552766277727440F551F440F551F465017
:100E10005D4FFA0180829182A282B382C2CF8F920B
:100E20009F92AF92BF92CF92DF92EF92FF920F9379
:100E30001F93CF93DF93FC0181859285A385B485B1
:100E40000196A11DB11D84179507A607B70770F479
:100E500080E0DF91CF911F910F91FF90EF90DF9095
:100E6000CF90BF90AF909F908F9008958388948883
:100E7000A588B6888789803189F5BB27A72F962F4B
:100E8000852FE9016A017B018F01BC01CD01680D4D
:100E9000791D8A1D9B1D8090000190900101A090FA
:100EA0000201B090030186169706A806B90601F55F
:100EB000F8018789803111F5DD24EE24FF24F60145
:100EC000EE0FFF1FE650FD4F80819181B0E0A0E062
:100ED00088839983AA83BB8381E0BBCFDB01CA01EE
:100EE000C7E0B695A79597958795CA95D1F7C9CFCD
:100EF00040E00E94E1048111DBCFAACFE894C7F85B
:100F0000DD24EE24FF24F601EE0FFF1FEE0FFF1F7E
:100F1000E650FD4F80819181A281B381BF70D8CF0F
:100F20004F925F926F927F92AF92BF92CF92DF9279
:100F3000EF92FF920F931F93CF93DF9300D000D0D7
:100F4000CDB7DEB78C0149835A836B837C8359010B
:100F5000C12CD12C7601412C82E0582E612C712CB1
:100F600049815A816B817C819E012F5F3F4FC8016F
:100F70000E940F07882339F1F8018585A3019201AA
:100F800004C0220F331F441F551F8A95D2F7DA0180
:100F9000C901C80ED91EEA1EFB1E49815A816B8108
:100FA0007C818789803111F188EF9FEFAFEFBFE03F
:100FB000481759076A077B0798F2F501C082D1826A
:100FC000E282F38281E00F900F900F900F90DF91FB
:100FD000CF911F910F91FF90EF90DF90CF90BF9036
:100FE000AF907F906F905F904F90089588EF9FEF44
:100FF000A0E0B0E0DDCFCF93DF93FC012581222379
:1010000021F080E0DF91CF910895EC018091BC0543
:10101000803159F582E08583178A108E118E128EE9
:101020008091BD059091BE05B0E0A0E025E0880F5D
:10103000991FAA1FBB1F2A95D1F7838B948BA58B71
:10104000B68B85EA95E09C8F8B8F81E08C831E8226
:101050001F82188619861A861B861C861D861E8688
:101060001F86188A198A1A8ACDCF803251F683E0FA
:1010700085834091BF055091C0056091C105709175
:10108000C205478B508F618F728F9F012D5E3F4F3E
:1010900085EA95E00E9490078111D3CFB2CF8F925D
:1010A0009F92AF92BF92CF92DF92EF92FF920F93F7
:1010B0001F93CF93DF93EC018D8181110EC080E0EF
:1010C000DF91CF911F910F91FF90EF90DF90CF9024
:1010D000BF90AF909F908F9008950B891C892D89A8
:1010E0003E89041715072607370748F34A015B01B5
:1010F000823031F48A869B86AC86BD8681E0E0CF63
:1011000081149104A104B10449F41E821F8218863F
:1011100019861A861B861C861D86F0CF0A851B85BC
:101120002C853D85EB8DFC8D858590E00996B90178
:10113000A8014150510961097109082E04C0769532
:101140006795579547950A94D2F775016401E1E0D8
:10115000CE1AD108E108F10804C0F694E794D794B8
:10116000C7948A95D2F7C416D506E606F70620F08E
:10117000012B022B032B11F58F89988DA98DBA8D28
:101180008E839F83A887B9878E010A5F1F4FC11482
:10119000D104E104F10409F4ADCF4E815F8168858B
:1011A000798598018B8D9C8D0E940F0791E0C91A5B
:1011B000D108E108F1088111EACF81CFC41AD50A1C
:1011C000E60AF70AE1CF3F924F925F926F927F92C9
:1011D0008F929F92AF92BF92CF92DF92EF92FF9247
:1011E0000F931F93CF93DF93CDB7DEB72C970FB636
:1011F000F894DEBF0FBECDBF5C01DC015B968D9025
:101200009C905C9716964D905D906D907C90199790
:10121000411451046104710409F468C0BFEF4B1A12
:101220005B0A6B0A7B0A312CF40181859285A385C8
:10123000B4859C01AD012F5F3F4F4F4F5F4F298712
:101240003A874B875C87730162011D821E821F8271
:101250001886F40181859285A385B4852D813E8110
:101260004F815885281739074A075B0708F056C091
:1012700089859A85AB85BC858C159D05AE05BF0516
:1012800050F482E0C82ED12CE12CF12C92E0492EB2
:10129000512C612C712C9E012F5F3F4FB701A6018D
:1012A000C4010E940F078823C9F189819A81AB810B
:1012B000BC81892B8A2B8B2B09F1260137019FEFEB
:1012C000491A590A690A790A2D813E814F81588548
:1012D0002F5F3F4F4F4F5F4F2D833E834F83588784
:1012E0003FEFC31AD30AE30AF30AB3CFF4014080F5
:1012F0005180628073803324339496CFC414D50414
:10130000E604F70409F70FEF1FEF2FEF3FE0B701F7
:10131000A601C4010E946D06811119C080E02C96BF
:101320000FB6F894DEBF0FBECDBFDF91CF911F91F6
:101330000F91FF90EF90DF90CF90BF90AF909F9074
:101340008F907F906F905F904F903F900895D50160
:1013500016964D915D916D917C91199741155105AE
:101360006105710539F097018601C4010E946D067F
:101370008823A1F2D5011696CD92DD92ED92FC92D2
:101380001997332051F0D701C6010196A11DB11D57
:10139000F40180839183A283B383F5018789908DC3
:1013A000A18DB28D892B8A2B8B2B39F48481C78A2E
:1013B000D08EE18EF28E80688483F5018481806214
:1013C000848381E0ACCF2F923F924F925F926F92D5
:1013D0007F928F929F92AF92BF92CF92DF92EF92C5
:1013E000FF920F931F93CF93DF93EC015B012A01D0
:1013F0008D81811115C08FEF9FEFDF91CF911F91EC
:101400000F91FF90EF90DF90CF90BF90AF909F90A3
:101410008F907F906F905F904F903F902F900895A6
:101420008C8180FFE8CF0B891C892D893E894A85F4
:101430005B856C857D85C201B0E0A0E06801790123
:10144000C41AD50AE60AF70AC816D906EA06FB0640
:1014500018F42801441A550A42011E0126E0220E02
:10146000311C8114910409F4B3C04A855B856C85F5
:101470007D856A0181E0D8228B8D9C8D8A019B013C
:10148000E9E03695279517950795EA95D1F7ED810F
:10149000E230E1F5FC01628D738D848D958D600FD6
:1014A000711F821F931F612C22E0722E6C187D0821
:1014B0008614970408F434012C8126FD04C06114BD
:1014C000F2E07F0671F4009100011091010120917A
:1014D000020130910301061717072807390709F0A1
:1014E00053C040E00E94E104882309F484CFC60180
:1014F00086509D4FD5019C01260D371DFC012E17EE
:101500003F0709F460C041914D93F9CFFC0174800D
:101510007A947022C114D10471F471100CC0452B5F
:10152000462B472B39F58F89988DA98DBA8D8E83DF
:101530009F83A887B987EB8DFC8D6E817F8188851D
:1015400099856250710981099109258504C0660F4A
:10155000771F881F991F2A95D2F70685178520893E
:101560003189600F711F821F931F670D711D811DCF
:10157000911D99CF4E815F816885798591010E9487
:101580000F078111D8CF37CF750183019601AB01C9
:10159000BC018091F8029091F9020E948203882395
:1015A00009F429CFA60CB71C8A859B85AC85BD851F
:1015B000860D971DA11DB11D8A879B87AC87BD87AE
:1015C000861897084ECF281B390BA20EB31EECCFFE
:1015D000C20113CFFC01818D928D009731F043E061
:1015E00050E064EF72E00C94E30990E080E008952D
:1015F0001F93CF93DF93FC012581222371F1162FD6
:10160000EC01848187FF1EC0CF010E942B05FC01E5
:10161000892B19F18D81823040F48B899C89AD89A9
:10162000BE89848F958FA68FB78F8F89988D938F62
:10163000828F8F89988DA98DBA8DB58BA48B8C8163
:101640008F778C83111103C08C818F7E8C83812FC7
:10165000DF91CF911F910C94B60480E0DF91CF9180
:101660001F910895FF920F931F93CF93DF93EC0187
:101670008D81813041F090E080E0DF91CF911F912A
:101680000F91FF9008958C8181FFF5CF82FD1BC0E3
:101690000091F8021091F902C8010E940F030E9404
:1016A000EE02F82EC8010E94DC028FEFF812E3CFA1
:1016B0008C8185FF1BC060E0CE010E94F80A8C81FE
:1016C0008F7D8C83D8CF4B895C896D897E898A8593
:1016D0009B85AC85BD8584179507A607B707C1F222
:1016E000CE010E944F088111D3CFC5CF4091DA02BD
:1016F0005091DB026091DC027091DD02452B462B9C
:10170000472B21F080E00E949204B5CF80618C834A
:101710002A853B85317080E092E0821B930BADCF30
:10172000CF93DF93EC0161E00E94F80A882311F067
:101730001D8281E0DF91CF9108952F923F924F92C9
:101740005F926F927F928F929F92AF92BF92CF9251
:10175000DF92EF92FF920F931F93CF93DF9300D00E
:1017600000D01F92CDB7DEB77C015B01342E5D83C4
:10177000DC0115968C911597813009F0CEC0149636
:101780002C9021FECAC022FCB4C0C32CDD80229460
:101790007FE027222094B22DB1702B2ED7011A960C
:1017A0004D915D916D917C911D97C114D10409F407
:1017B00028C15B968D919C915C97FC0174807A9412
:1017C0008A019B0169E036952795179507956A95DB
:1017D000D1F770228A011170711020C00115110516
:1017E000E9F416964D915D916D917C911997411593
:1017F00051056105710509F099C057968D919D912C
:101800000D90BC91A02D0097A105B10509F0B0C0C5
:10181000C7010E94E308882309F47FC080E092E0BA
:10182000801B910B46018C159D0508F44C01D701D6
:101830005B964D915C915C9716968D919D910D9064
:10184000BC91A02D0297A109B109FA01258504C018
:10185000880F991FAA1FBB1F2A95D2F74685578567
:1018600060897189840F951FA61FB71F9C01AD0168
:10187000270D311D411D511D29013A01811432E00E
:10188000930609F07BC08091000190910101A09125
:101890000201B091030184159505A605B70559F419
:1018A0008FEF9FEFDC018093000190930101A093E3
:1018B0000201B0930301022D9501B301A2018091B1
:1018C000F8029091F9020E942404882331F19EEFDE
:1018D000B91AC818D908F70182859385A485B585FA
:1018E000880D991DA11DB11D82879387A487B58797
:1018F00055CFF70143895489658976898285938517
:10190000A485B585481759076A077B0709F43DCFB9
:10191000C7010E944F08811138CF81E090E0D701C4
:1019200013969C938E93129780E007C09E012F5FC1
:101930003F4F0E940F07811102C090E079C089815A
:101940009A81AB81BC81F701238D348DF901278900
:1019500048EF5FEF60E070E0203121F048EF5FEF8B
:101960006FEF7FE084179507A607B70708F050CF01
:10197000F70186839783A087B18750CF01151105A2
:1019800099F5D7011A964D915D916D917C911D97B6
:1019900053968D919D910D90BC91A02D481759079C
:1019A0006A077B0708F181E00E94B604882309F4E6
:1019B000B4CF4092000150920101609202017092F6
:1019C00003018091D90281608093D902C8018650B9
:1019D0009D4FD5019C01280D391DFC012E173F0795
:1019E00059F04D914193FACF41E0C301B2010E94F9
:1019F000E1048111EBCF91CF281B390BA20EB31E4E
:101A000068CFF70183899489A589B68984179507DA
:101A1000A607B70738F48481438B548B658B768B8C
:101A200080688483F701848183FD1AC0832D9D81A2
:101A30000F900F900F900F900F90DF91CF911F910B
:101A40000F91FF90EF90DF90CF90BF90AF909F905D
:101A50008F907F906F905F904F903F902F90089560
:101A600061E0C7010E94F80A882309F456CFDECF4F
:101A7000CF93DF931F92CDB7DEB7698341E050E08B
:101A8000BE016F5F7F4F0E949D0B0F90DF91CF9142
:101A90000895FC01DB0112968D919C91139793831D
:101AA00082838CE291E09183808314968C911497C9
:101AB000848315968C911597858316964D915D912B
:101AC0006D917C91199746835783608771871A9629
:101AD0004D915D916D917C911D97428753876487ED
:101AE00075871E964D915D916D917C9151974687BA
:101AF0005787608B718B52968C915297828B53963D
:101B00004D915D916D917C915697438B548B658B74
:101B1000768B57964D915D916D917C915A97478B3D
:101B2000508F618F728F5B968D919C91948F838F74
:101B30000895FC01818D928D009719F061E00C945D
:101B4000F80A0895DC015996ED91FC913097B9F0AF
:101B500083899489A589B68942855385648575856D
:101B6000841B950BA60BB70B811520E89207A105E6
:101B7000B10538F08FEF9FE7A0E0B0E0089590E066
:101B800080E00895DC0159968D919C91009739F081
:101B9000DC01ED91FC910480F581E02D099490E049
:101BA00080E00895CF93DF93EC01E98DFA8D3097B3
:101BB00049F481E090E09B838A8390E080E0DF91AC
:101BC000CF91089513821282898D9A8D0E949D0B68
:101BD000E98DFA8D22813381232B59F7F0CFCF93F2
:101BE000DF931F92CDB7DEB76983DC01ED91FC91E5
:101BF0000280F381E02D41E050E0BE016F5F7F4F36
:101C000009950F90DF91CF910895CF93DF931F92A5
:101C1000CDB7DEB741E050E0BE016F5F7F4F0E945D
:101C2000E309019731F4898190E00F90DF91CF9122
:101C300008958FEF9FEFF9CFFC01818D928D009772
:101C400011F00C94050E8FEF9FEF08950F931F93E3
:101C5000CF93DF93EC01898D9A8D10E000E000971F
:101C600099F00E94050E8C010F3F100769F0898DD5
:101C70009A8DFC01428553856485758541505109D3
:101C8000610971090E944F08C801DF91CF911F912E
:101C90000F91089508951F93CF93DF93C1E0C093F0
:101CA0004302882399F1D091B8001091BA00809135
:101CB000BC008A7B8093BC0060E082E10E9402024B
:101CC00060E083E10E9402021092AD02C093AC0278
:101CD0001092870261E082E10E94020261E083E1EA
:101CE0000E9402028091B9008E7F8093B90080919A
:101CF000B9008D7F8093B90088E48093B80085E4B3
:101D00008093BC001093BA00D093B800DF91CF91BC
:101D10001F91089520916402260F3327331F21322B
:101D20003105ECF42091AD02FC0190E080E024301C
:101D300069F082E00895A09164022191AC014C5BAE
:101D40005D4FA40FB52FB11D2C930196861798F304
:101D500080916402680F6093640280E0089581E0DE
:101D6000089508958FEF9FEF08958FEF9FEF0895E7
:101D70008091420290E09195819591090895CF92CA
:101D8000DF92EF92FF920F931F93CF93DF937C012B
:101D9000CB018A012091B302222389F0EB016B0170
:101DA000C40ED51ECC15DD0569F06991D701ED9102
:101DB000FC910190F081E02DC7010995F3CF642FCC
:101DC0000E948A0EC801DF91CF911F910F91FF9061
:101DD000EF90DF90CF900895CF93DF931F92CDB710
:101DE000DEB769832091B3022223F9F02091D60255
:101DF000203258F021E030E0FC013383228390E070
:101E000080E00F90DF91CF9108958091B402E82F88
:101E1000F0E0EB54FD4F998190838F5F8093B40283
:101E20008093D60281E090E0ECCF61E0CE01019694
:101E30000E948A0EF7CFCF92DF92EF92FF920F931C
:101E40001F93CF93DF93FC01C48121E02093B30261
:101E5000C093D5021092B4021092D6028385682BEB
:101E600082EE95E00E94EC0ED091D602D13208F0BD
:101E700092C00E9473026B017C018091AD028111BE
:101E800065C082E08093AD0281E08093AC028FEF69
:101E90008093AB021092AA02D093A902A5EBB2E004
:101EA000E9E8F2E080E0D81385C0109288028091C2
:101EB0008802CC0FC82BC0938802809187028130A2
:101EC00009F07CC0109287020E9473026B017C01B2
:101ED000809188028093BB008091AF029091B00204
:101EE000A091B102B091B202892B8A2B8B2B99F071
:101EF0000E9473020091AF021091B0022091B102D2
:101F00003091B2026C197D098E099F0906171707D7
:101F100028073907E0F18091BC0083FDD9CF85EC1B
:101F20008093BC000E9473026B017C018091AD0222
:101F3000823009F445C08091AB028F3F61F18091FE
:101F4000AB02803241F18091AB0225C08091AF029B
:101F50009091B002A091B102B091B202892B8A2B6C
:101F60008B2B09F48ACF0E9473020091AF0210916B
:101F7000B0022091B1023091B2026C197D098E0934
:101F80009F09061717072807390708F076CF8091B1
:101F9000AE020E944B0E1092B4021092D602109222
:101FA000B302DF91CF911F910F91FF90EF90DF90DF
:101FB000CF9008959D9191938F5F75CF85EEB0CFAF
:101FC0008091AF029091B002A091B102B091B202A3
:101FD000892B8A2B8B2B09F4A9CF0E9473020091C5
:101FE000AF021091B0022091B1023091B2026C198F
:101FF0007D098E099F09061717072807390708F07A
:1020000095CFC5CF90E080E00895CF93DF93FB019B
:1020100022813381DC0113963C932E9312974481E5
:1020200055816681778114964D935D936D937C9372
:102030001797408551856285738518964D935D93FA
:102040006D937C931B971C96EF012C969C01275E49
:102050003F4F49914D93A217B307D9F7218D328D88
:10206000FC01328F218FDF91CF9108958F929F9243
:10207000AF92BF92CF92DF92EF92FF920F931F9396
:10208000CF93DF9300D000D0CDB7DEB7FC018581C0
:10209000813091F080E00F900F900F900F90DF91C2
:1020A000CF911F910F91FF90EF90DF90CF90BF9055
:1020B000AF909F908F900895848181FFEBCF8389AB
:1020C0009489A589B689892B8A2B8B2B09F45FC04B
:1020D0007F0140E050E0BA01CF010E944F08882301
:1020E000C9F2F701C38CD48C8788908CA18CB28CF8
:1020F00082E090E0A0E0B0E0F60180839183A283CB
:10210000B3839E012F5F3F4FB501A401C6010E941A
:102110000F07882309F4BECF00E010E09801B50155
:10212000A401C6010E946D06882309F4B3CF8980FB
:102130009A80AB80BC80F6018789803119F188EFE5
:102140009FEFAFEFBFE088169906AA06BB06C8F25C
:10215000F701178A108E118E128E138A148A158A2F
:10216000168A84818068848361E0C7010E94F80A2E
:10217000882309F48FCF40E050E0BA01C7010E94E4
:102180004F0889CF88EF9FEFA0E0B0E0DCCF81E07F
:1021900082CFCF92DF92EF92FF921F93CF93DF9384
:1021A000EC0180E2689FF0011124E650FD4F938519
:1021B000917161F0842F827449F080E0DF91CF91BA
:1021C0001F91FF90EF90DF90CF900895142F6A8BAE
:1021D0008091000190910101A0910201B091030151
:1021E0008E879F87A88BB98BC488D588F12CE12C6A
:1021F0007601DD24CC24CF8AD88EE98EFA8E828DAA
:10220000938DB0E0A0E0AC01BD014C295D296E29A1
:102210007F294F8B588F698F7A8F83858871B1F4AE
:10222000848D958DA68DB78D8B8B9C8BAD8BBE8B46
:1022300081E08D831F701C831E821F821886198681
:102240001A861B861C861D8681E0B8CF803109F076
:10225000B4CF9E012D5E3F4F8B8D9C8D0E949007C9
:10226000882309F4AACF84E0E4CF0F931F93CF9380
:102270008C01C62F0E941B0F6C2F6460C8010E9446
:102280001B0F6C2F6B7FC8010E941B0F83EC90E02B
:102290000197F1F7CF911F910F9108950F931F931D
:1022A000CF938C01C62F607F61600E94351180E161
:1022B000C89FB00111246160C8010E94351181E0FE
:1022C00090E0CF911F910F910895CF93C82F682F61
:1022D000607F8EEE95E00E94351180E1C89FB001CD
:1022E00011248EEE95E0CF910C943511CF93DF93AE
:1022F000CDB7DEB728970FB6F894DEBF0FBECDBFBF
:1023000098E0EEE0F1E0DE01119601900D929A95D1
:10231000E1F79091F605961708F46FEF70E0660FFD
:10232000771F21E030E02C0F3D1F620F731FFB0170
:102330009081890F806828960FB6F894DEBF0FBE93
:10234000CDBFDF91CF910C94651181E00E946511A2
:102350008BE39FE10197F1F70895EEEEF5E08681BA
:102360008E7F868388600C946511FB0101900020AC
:10237000E9F73197AF01461B570BDC01ED91FC915A
:102380000280F381E02D0994CF92DF92EF92FF92C9
:102390000F931F93CF93DF93CDB7DEB7A1970FB6FF
:1023A000F894DEBF0FBECDBF9B01AC0119A28E0118
:1023B0000F5D1F4F8AE0C82ED12CE12CF12CCA01F1
:1023C000B901A70196010E94D224605DF8016293D1
:1023D0008F01211531054105510589F790E080E015
:1023E000309729F0BF018EEE95E00E94B511A196BD
:1023F0000FB6F894DEBF0FBECDBFDF91CF911F9116
:102400000F91FF90EF90DF90CF9008950C94B5114D
:102410000E94A5110E94AD1160E081E00E9476113A
:1024200064E671E08EEE95E00E94061261E081E0C4
:102430000E94761163E771E08EEE95E00E9406122D
:1024400081E090E090930501809304011092E902ED
:102450001092E80208950F931F93CF93DF93EC013E
:1024600088819981009759F02A813B812617370787
:1024700030F081E0DF91CF911F910F9108958B0192
:102480006F5F7F4F0E941F26009759F099838883C2
:102490001B830A832C813D81232B59F7FC01108279
:1024A000E8CF80E0E7CFEF92FF920F931F93CF9397
:1024B000DF936115710541F480E0DF91CF911F91A9
:1024C0000F91FF90EF90089541155105B1F07B01F8
:1024D000EC010C811D81040F151FB8010E942B1205
:1024E000882351F3288139818C819D81B701820F26
:1024F000931F0E94FD261D830C8381E0DECFEF92A7
:10250000FF920F931F93CF93DF93CDB7DEB728973A
:102510000FB6F894DEBF0FBECDBF7C01CB014AE001
:102520008E010F5F1F4FB8010E94AE22F80101908B
:102530000020E9F73197AF01401B510BB801C701EB
:102540000E94531228960FB6F894DEBF0FBECDBF7F
:10255000DF91CF911F910F91FF90EF900895CF934E
:10256000DF93EC0188819981009711F00E949625F4
:10257000198218821D821C821B821A82DF91CF91E0
:102580000895CF93DF93EC01FB0144815581608175
:1025900071810E945312811103C0CE010E94AF12BB
:1025A000CE01DF91CF910895EF92FF920F931F9389
:1025B000CF93DF93EC017B018A01BA010E942B12B9
:1025C00081110BC0CE010E94AF12CE01DF91CF91DD
:1025D0001F910F91FF90EF9008951D830C83B70119
:1025E000888199810E94FD26F0CFFB010190002097
:1025F000E9F73197AF01461B570B0C94D412CF93D8
:10260000DF93EC01FB018617970749F06081718128
:102610006115710541F0448155810E94D412CE01AB
:10262000DF91CF9108950E94AF12F9CFFC01118282
:10263000108213821282158214820C94FF12FC0104
:10264000118210821382128215821482FB01019082
:102650000020E9F73197AF01461B570B0C94D412B9
:10266000FC0180819181009711F00C9496250895CA
:10267000CF93DF93EC01898D9A8D009741F00E94F2
:10268000900B898D9A8D0E9496251A8E198EDF9156
:10269000CF9108953F924F925F926F927F928F9267
:1026A0009F92AF92BF92CF92DF92EF92FF920F93E1
:1026B0001F93CF93DF93CDB7DEB72B970FB6F89468
:1026C000DEBF0FBECDBF7C01FE013196CE010C9660
:1026D0006F0130E231938E179F07E1F7DA0130E0A6
:1026E00087E09D91B92E992309F43CC09E32F1F404
:1026F0008A30C9F480E02B960FB6F894DEBF0FBE87
:10270000CDBFDF91CF911F910F91FF90EF90DF90A0
:10271000CF90BF90AF909F908F907F906F905F9081
:102720004F903F90089538E08AE0DBCFE8E6F0E094
:102730004491442321F031969413FACFDBCF8317D1
:10274000C8F24FED490F4E35A8F64FE9490F4A310F
:1027500018F440EEB42EB90EF601E30FF11DB0826D
:102760003F5FBFCF8981803229F2322E8B01DB019E
:102770005B968D919C915C97F701948F838F169651
:102780001D921D921D921C921997FB0112861386B1
:1027900014861586F80182859385A485B5854389BD
:1027A00054896589768984179507A607B70708F0C5
:1027B0004DC025E0B695A795979587952A95D1F7B1
:1027C000F82FFF70AF2ED80115968C91823008F447
:1027D00091CFC8010E94050E97FD8CCFF80182852C
:1027E0009385A485B5854F96A11DB11D82879387DA
:1027F000A487B587F0E2AF9EB001112466507D4FEB
:102800006115710509F476CFDB018C91882341F0C5
:10281000853E09F058C0BB2029F0BB24B394BACF41
:10282000B1100EC0F701A28A8091000190910101C0
:10283000A0910201B091030186879787A08BB18B8D
:10284000DB018C918111E9CFBB24B394832D82717C
:10285000823109F04FCFBB2009F443C0C7010E9469
:102860002B05009709F446CF20E2FC0111922A952E
:10287000E9F72BE0F601DC0101900D922A95E1F7D2
:1028800021E238E2DC0151963C932E93509740E0D0
:1028900058E01F965C934E931E9753963C932E934D
:1028A000529759963C932E93589757965C934E9314
:1028B000569781E00E94B604882309F41BCF432D6C
:1028C000F70162890AC04BE050E0C6010E94DC2695
:1028D000892B09F05FCF432D6A2DC7010E94C910D3
:1028E0000ACFF8018581823009F404CFC8010E9423
:1028F000E308882309F4FECED8015B96ED91FC91A4
:102900005C9716968D909D90AD90BC901997B2E013
:102910008B1A9108A108B108858504C0880C991C00
:10292000AA1CBB1C8A95D2F786859785A089B18998
:10293000880E991EAA1EBB1E848124013501480EF3
:10294000511C611C711C481459046A047B0409F170
:10295000E1E04E1A51086108710881E00E94B60456
:10296000882309F4C7CEEAEFF2E011928AEF94E0EF
:102970008E179F07D1F7409200015092010160929B
:102980000201709203018091D90281608093D90283
:10299000DACFD8015B96ED91FC91258580E092E03D
:1029A000A0E0B0E004C0880F991FAA1FBB1F2A95A2
:1029B000D2F7F8014389548965897689840F951F78
:1029C000A61FB71F838B948BA58BB68BD70152960E
:1029D0001C928AEF92E048CFEF92FF920F931F93E1
:1029E000CF93DF93EC017B018A011B821A8288EE70
:1029F00093E0A0E0B0E08C839D83AE83BF8386E547
:102A000091E0998388838DE190E00E94FA249A8F67
:102A1000898F009779F02DE1F701DC0101900D928B
:102A20002A95E1F74CE050E0B801CE010C960E94E7
:102A30000427188EDF91CF911F910F91FF90EF9097
:102A400008952F923F924F925F926F927F928F9252
:102A50009F92AF92BF92CF92DF92EF92FF920F932D
:102A60001F93CF93DF93CDB7DEB7C756D1090FB60B
:102A7000F894DEBF0FBECDBF6C015B01A6964FAFD1
:102A8000A69719A218A28CE291E09F8F8E8F1BA2AD
:102A90001C821B829A8389831E824E018EE1880EDE
:102AA000911CC4010E94FB0775018E010F5F1F4F2F
:102AB000240118016FE270E0C7010E94F22600971E
:102AC00009F45DC0F70120812F3271F4FFEFEF1A96
:102AD000FF0A902F812F8201492E582E942D852D8B
:102AE0002801092F182FE6CF8E198D3008F08CE0C1
:102AF000682E712CA301B701CE01885A9F4F0E9406
:102B00000427E8E5F0E0EC0FFD1FE60DF71D10824D
:102B1000C8010E94900BF8018581882301F11EAE47
:102B20001DAE8CE291E09CAF8BAF21961FAE21973A
:102B3000A896EEADFFADA897AE0EBF1EF501808141
:102B400081112AC0BE01655C7F4FC1010E94490D01
:102B500040E851E0B101C6010E94EC143BC021E005
:102B6000AE01485A5F4FB201C8010E944A13882340
:102B7000B1F2E60CF71CC2010E94900BAFCFC70167
:102B80008A199B09A8969FAF8EAFA897B201CE0174
:102B9000CB960E94490DCCCF19A218A28CE291E0ED
:102BA0009F8F8E8F1BA221968FAD219781112DC0F3
:102BB000F6011382128288EE93E0A0E0B0E08483F5
:102BC0009583A683B78386E591E091838083128EF7
:102BD000118E1486C601C959DF4F0FB6F894DEBFB7
:102BE0000FBECDBFDF91CF911F910F91FF90EF905E
:102BF000DF90CF90BF90AF909F908F907F906F901D
:102C00005F904F903F902F900895A6962FADA69776
:102C1000A501BE01655C7F4FC4010E944A13882351
:102C200039F2CE01CB960E94900BA6968FADA69757
:102C30008670863039F449A95AA96BA97CA9C401C8
:102C40000E944F08B401C1010E94490DA50182CF25
:102C500085ED8093BC008091AF029091B002A0916D
:102C6000B102B091B2020796A11DB11D23E0B69545
:102C7000A795979587952A95D1F72091BC0024FDBB
:102C800003C01092AD0208954091AF025091B0027E
:102C90006091B1027091B202452B462B472B69F32C
:102CA0000097A105B10541F025E32A95F1F7000051
:102CB0000197A109B109E1CF8091AE020C944B0EAE
:102CC000CF92DF92EF92FF920F931F93CF93DF93F8
:102CD000CDB7DEB7A1970FB6F894DEBF0FBECDBF5C
:102CE000609100067091010641E0CE0101960E94BC
:102CF0002115BE016F5F7F4F82E496E00E940510B0
:102D000062E871E0CE014C960E941F1360E076E00D
:102D1000CE0101960E941613BE01645E7F4FCE0164
:102D200001960E94C112BC018AEF95E00E94FF1239
:102D3000CE0101960E943013CE014C960E943013B2
:102D40006091FA057091FB0547E1CE0101960E9462
:102D50002115BE016F5F7F4F87E296E00E9405104C
:102D6000E0915B06F0915C06309709F483C08581A1
:102D7000882309F47FC00E94CA0214E60AE082E4B4
:102D800096E00E94A20D892B09F468C082E496E0C7
:102D90000E94EA0A1092F8028091F4026091F50212
:102DA0006002B00111248102600D711D1124809117
:102DB000F602680F711D87FD7A95072E000C880BAF
:102DC000990B0E94E52222EF32ED4DE55FE30E9470
:102DD00020236B017C016091400270914102072E1B
:102DE000000C880B990B0E94E52225E531EC48ED9B
:102DF0005EE30E9420239B01AC01C701B6010E9443
:102E000030240E949C246B011D8E1C8E1F8E1E8EF2
:102E100019A218A24AE0BE016F5F7F4FC6010E944F
:102E2000AE22BE016F5F7F4FCE014C960E94F5121D
:102E3000BE01645E7F4F87E296E00E9495006FE8D6
:102E400071E087E296E00E94B511CE014C960E9497
:102E50003013D0924102C092400291CF87E296E0B7
:102E60000E94381382E496E00E94381310924102C7
:102E700010924002A1960FB6F894DEBF0FBECDBFF0
:102E8000DF91CF911F910F91FF90EF90DF90CF9046
:102E900008951F920F920FB60F9211242F933F9314
:102EA0004F935F936F937F938F939F93AF93BF9352
:102EB000EF93FF938AEF94E00E942101FF91EF913D
:102EC000BF91AF919F918F917F916F915F914F9142
:102ED0003F912F910F900FBE0F901F9018951F924A
:102EE0000F920FB60F9211242F938F939F93EF930E
:102EF000FF93E0910A05F0910B058081E0911005A8
:102F0000F091110582FD1BC09081809113058F5FA8
:102F10008F7320911405821741F0E0911305F0E0C2
:102F2000E650FB4F958F80931305FF91EF919F9192
:102F30008F912F910F900FBE0F901F901895808149
:102F4000F4CF1F920F920FB60F9211242F933F933D
:102F50008F939F93AF93BF938091DF029091E00294
:102F6000A091E102B091E2023091DE0223E0230F52
:102F70002D3758F50196A11DB11D2093DE028093D7
:102F8000DF029093E002A093E102B093E20280910D
:102F9000E3029091E402A091E502B091E60201966D
:102FA000A11DB11D8093E3029093E402A093E5027A
:102FB000B093E602BF91AF919F918F913F912F9176
:102FC0000F900FBE0F901F90189526E8230F0296C2
:102FD000A11DB11DD2CF1F920F920FB60F921124D7
:102FE0002F933F934F935F936F937F938F939F9311
:102FF000AF93BF93EF93FF938091B900887F8036A2
:1030000009F44AC0F0F5883209F4A5C018F58031FA
:1030100009F499C0B8F4882309F4F5C0883009F49C
:1030200092C0FF91EF91BF91AF919F918F917F914E
:103030006F915F914F913F912F910F900FBE0F9025
:103040001F901895883109F486C0803251F780931B
:10305000AB0214C0803409F49BC040F48033B9F350
:103060008833F9F68093AB0285ECAEC0803509F465
:1030700083C0883509F494C0883499F60E942816D4
:10308000D0CF883909F48AC038F5883729F050F450
:10309000883611F0803729F683E08093AD021092D4
:1030A000860255C0883809F479C0803919F0803813
:1030B00009F0B7CF80918602803208F06FC0E091AE
:1030C000860281E08E0F809386028091BB00F0E043
:1030D000EA59FD4F80833BC0803B39F0D0F4803A01
:1030E00009F477C0883A09F09CCF84E08093AD0260
:1030F0001092650210926402F0E0E0E00995809180
:10310000640281110FC081E0809364021092440236
:1031100009C0803C09F4A8CF883C09F4A5CF883BBE
:1031200009F07FCFE091650281E08E0F8093650208
:10313000F0E0EC5BFD4F80818093BB0090916502D5
:103140008091640229C0809188028093BB0085EC45
:103150008093BC0066CF9091AA028091A902981733
:1031600058F5E091AA0281E08E0F8093AA02F0E068
:10317000E757FD4F8081E9CFE091AA0281E08E0FF1
:103180008093AA028091BB00F0E0E757FD4F808357
:103190009091AA028091A9029817C8F285E8D8CF29
:1031A000E091AA0281E08E0F8093AA028091BB0079
:1031B000F0E0E757FD4F80838091AC0281115ECF34
:1031C00081E08093870284EA8093BC001092AD0274
:1031D00028CF85EC8093BC001092AD0280918602CE
:1031E000803230F4E0918602F0E0EA59FD4F10821F
:1031F0006091860270E086E692E0F0E0E0E00995FA
:10320000109286020ECF1092AB0238CFCF92DF928F
:10321000EF92FF92EAEFF4E01382128288EEC82E5A
:1032200083E0D82EE12CF12CC482D582E682F7828D
:103230008AE191E09183808385EC90E09587848793
:1032400084EC90E09787868780EC90E0918B808B70
:1032500081EC90E0938B828B82EC90E0958B848B59
:1032600086EC90E0978B868B118E128E138E148EC7
:10327000E7E9F5E080E580831182E9E9F5E0158270
:1032800016821186138682E090E0A0E0B0E0848789
:103290009587A687B78713A215A614A68CE291E09E
:1032A00093A782A717A6E2EEF5E013821282C482EA
:1032B000D582E682F78288E391E09183808361E999
:1032C00071E083E996E00E941F13E8E7F6E01382BD
:1032D0001282C482D582E682F78286E591E09183EC
:1032E0008083128E118E1486EDE5F6E01382128231
:1032F000C482D582E682F78291838083128E118EFA
:103300001486E2E4F6E013821282C482D582E68259
:10331000F78291838083128E118E1486E7E2F6E0A5
:1033200013821282C482D582E682F78291838083DF
:10333000128E118E1486ECE0F6E013821282C482A3
:10334000D582E682F78291838083128E118E148655
:1033500061E971E086E096E00E941F1361E971E087
:1033600080E096E00E941F1361E971E08AEF95E02A
:103370000E941F13EEEEF5E0138212828AE491E0C0
:103380009183808380E2848384E1818784E08287E3
:103390001386FF90EF90DF90CF900895CF93DF9347
:1033A000CDB7DEB7C556D1090FB6F894DEBF0FBE54
:1033B000CDBF789484B5826084BD84B5816084BDBE
:1033C00085B5826085BD85B5816085BD80916E00C3
:1033D000816080936E0010928100809181008260F4
:1033E0008093810080918100816080938100809131
:1033F00080008160809380008091B1008460809320
:10340000B1008091B00081608093B00080917A001B
:10341000846080937A0080917A00826080937A0041
:1034200080917A00816080937A0080917A00806830
:1034300080937A001092C1008FEF8AB980917A0050
:10344000846080937A0080917A008D7F80937A00E7
:1034500080917A008E7F80937A008091C8058823BE
:1034600021F083EC95E00E94900B1092A40510923D
:10347000A20510929F0510929E058AE080939D05FB
:103480000E94CA028B0161E080919D050E9430027A
:1034900061E080919D050E940202FFB6F894809140
:1034A000E702811127C0E8ECF0E08491E4EBF0E062
:1034B0009491E82FF0E0EE0FFF1FE056FF4FA5912B
:1034C000B491EC91E92321F461E08AE00E940202C8
:1034D00061E08AE00E9430028CB580618CBD8CB5C1
:1034E00080648CBD61E08DE00E94300261E08BE081
:1034F0000E9430028091E7028F5F8093E702FFBE57
:1035000082E5809397051092980580919705909198
:1035100098050E940C03EAE0FE2E8FEF0E94E7025E
:10352000FA94F110FACF89E995E00E940F0320E0A8
:1035300030E0A90160E089E995E00E942503F82EBA
:103540008093A30521E0821779F00E94CA02601BD4
:10355000710B613D774058F381E080939E0589E9C6
:1035600095E00E94DC02FFCF2AEA31E040E050E023
:1035700068E089E995E00E94250382FF2AC0F09265
:10358000A4058091A405C12CD12CE12C60E4F62E79
:10359000823019F0C12CD12C760120E030E0A90155
:1035A00067E389E995E00E942503A701960169E296
:1035B00089E995E00E9425038093A3058823D1F033
:1035C0000E94CA02601B710B613D774030F388E0B6
:1035D000C4CF74E0F72E0E94EE028093A305FA9404
:1035E000F110F9CF8A3A11F082E0B7CF82E08093F0
:1035F000A405C7CF8091A4058230D1F420E030E04B
:10360000A9016AE389E995E00E942503882311F066
:1036100086E0A3CF0E94EE02807C803C19F483E018
:103620008093A4050E94EE020E94EE020E94EE0228
:1036300089E995E00E94DC0280E58093970510926D
:10364000980581E00E944405882339F083EC95E0D9
:103650000E94FB07811107C086CF80E00E944405CD
:103660008111F4CF80CF8091F30588608093F305BA
:1036700022E0F22EF092F60562E370E080E090E046
:103680000E9498026091F9058EEE95E00E941B0F52
:1036900068EE73E080E090E00E94980260E38EEEB6
:1036A00095E00E9435110BE416E4C8010197F1F78B
:1036B00060E38EEE95E00E943511C8010197F1F7A5
:1036C00060E38EEE95E00E94351183E592E001976C
:1036D000F1F760E28EEE95E00E9435118091F305DE
:1036E00080620E94651184E08093F4058CE00E9462
:1036F00065110E94A511F092F50586E00E94651102
:1037000082E00E9465118BE39FE10197F1F788E069
:103710008093F90560E08EEE95E00E941B0F60E05B
:1037200081E00E94761160E089E00E94300260E052
:1037300088E00E94300262E971E08EEE95E00E941E
:10374000061268EE73E080E090E00E9498020E940A
:1037500008123FE6A32EBB24B39442E0642E712CE2
:1037600088248394912C96E0492E512C89E00E9464
:10377000D9019093F3028093F20280E10E946102EA
:103780009093F1028093F00288E00E94D901909317
:10379000EF028093EE0281E10E9461029093ED02BC
:1037A0008093EC028FE00E9461029093EB02809381
:1037B000EA0200910601109107016AE771E0CE016B
:1037C0004E960E941F13BE01625E7F4FCE0101968E
:1037D0000E941613B801CE0101960E947F1281113A
:1037E00004C0CE0101960E94AF12BE016F5F7F4FF1
:1037F00080E096E00E94FF12CE0101960E943013F5
:10380000CE014E960E94301360E076E0CE014E96D7
:103810000E941613BE01625E7F4FCE0101960E9488
:10382000161344E050E062E272E0CE0101960E947D
:103830005312811104C0CE0101960E94AF12BE0145
:103840006F5F7F4F80E096E00E94FF12CE010196ED
:103850000E943013CE014E960E9430138091F202E6
:103860009091F302019709F07BC00E94AD11609125
:1038700000067091010647E1CE0101960E942115D4
:10388000BE016F5F7F4F88E796E00E9405100E949F
:10389000A51161EA71E08EEE95E00E94061261E9E1
:1038A00071E088E796E00E9406128EE00E946102B5
:1038B0008091F2029091F302019769F589E00E94EC
:1038C000D9019093F3028093F2028EE00E9461028C
:1038D00097FD03968C0115950795159507956EEA4A
:1038E00071E00A3011053CF06FEA71E00436110511
:1038F00014F061E971E083E996E00E94F512B801E5
:1039000083E996E00E947F1263E976E088E796E01B
:103910000E949500CDCF88E796E00E9438130E9460
:10392000A51161EB71E08EEE95E00E940612809188
:10393000060190910701019690930701809306017B
:1039400068EE73E080E090E00E9498020E94081206
:103950001092E9021092E80290920501809204010F
:103960008091F0029091F102853893408CF060E0F4
:1039700080E00E9476118091F405982F91609093D9
:10398000F40589600E9465119092E9028092E80234
:103990008091EE029091EF02019789F461E080E05E
:1039A0000E9476118091F405982F91609093F40510
:1039B00089600E9465117092E9026092E80280912C
:1039C000EC029091ED02853893403CF18091040126
:1039D00090910501019709F50091E8021091E90223
:1039E00001301105D1F40E94A5110E94AD1160E0D3
:1039F00081E00E9476116CEB71E08EEE95E00E9402
:103A0000061270920501609204011092E902109270
:103A1000E80210930701009306018091EC02909157
:103A2000ED02853893404CF100910401109105019D
:103A30000130110511F58091E8029091E902029799
:103A4000E1F40E94A5110E94AD1160E081E00E94A6
:103A500076116CEB71E08EEE95E00E94061224E682
:103A600030E030930501209304011092E902109296
:103A7000E80210930701009306018091EC029091F7
:103A8000ED02853893401CF180910401909105016D
:103A900002970497E0F48091E8029091E90201977F
:103AA000B1F40E94A5110E94AD1160E081E00E9476
:103AB000761164EC71E08EEE95E00E940612509251
:103AC0000501409204011092E9021092E8028091EF
:103AD000EC029091ED02853893404CF18091040105
:103AE00090910501029719F50091E8021091E90201
:103AF00002301105E1F40E94A5110E94AD1160E0B1
:103B000081E00E9476116EEC71E08EEE95E00E94ED
:103B1000061283E090E090930501809304011092D7
:103B2000E9021092E80210930701009306018091C8
:103B3000EC029091ED02853893404CF10091040124
:103B4000109105010330110511F58091E802909163
:103B5000E9020297E1F40E94A5110E94AD1160E014
:103B600081E00E94761166ED71E08EEE95E00E9494
:103B7000061284E090E09093050180930401109276
:103B8000E9021092E8021093070100930601809168
:103B9000EC029091ED02853893404CF100910401C4
:103BA000109105010430110511F58091E802909102
:103BB000E9020297E1F40E94A5110E94AD1160E0B4
:103BC00081E00E9476116EED71E08EEE95E00E942C
:103BD000061285E090E09093050180930401109215
:103BE000E9021092E8021093070100930601809108
:103BF000EC029091ED028538934054F180910401DC
:103C0000909105018436910519F50091E802109113
:103C1000E90202301105E1F40E94A5110E94AD11E4
:103C200060E081E00E9476116EEC71E08EEE95E02E
:103C30000E94061285E690E09093050180930401AE
:103C40001092E9021092E802109307010093060116
:103C50008091EC029091ED02853893405CF1809167
:103C60000401909105018536910521F58091E802C6
:103C70009091E9020297F1F40E94A5110E94AD1102
:103C800060E081E00E94761166ED71E08EEE95E0D5
:103C90000E94061286E690E090930501809304014D
:103CA0001092E9021092E80283E090E090930701FD
:103CB000809306018091EC029091ED02853893404B
:103CC0005CF180910401909105018636910521F502
:103CD0008091E8029091E9020297F1F40E94A51107
:103CE0000E94AD1160E081E00E9476116EED71E0FE
:103CF0008EEE95E00E94061287E690E09093050113
:103D0000809304011092E9021092E80284E090E0AE
:103D100090930701809306018091EC029091ED024F
:103D20008538934024F18091040190910501069714
:103D3000F1F48091E8029091E9020297C1F40E94A7
:103D4000A5110E94AD1160E081E00E94761166EE3F
:103D500071E08EEE95E00E94061287E090E090936D
:103D60000501809304011092E9021092E80280910B
:103D7000EC029091ED028538934024F1809104018A
:103D8000909105010797F1F48091E8029091E90282
:103D90000297C1F40E94A5110E94AD1160E081E07C
:103DA0000E9476116BEE71E08EEE95E00E94061295
:103DB00088E090E090930501809304011092E9025D
:103DC0001092E8028091EC029091ED0285389340C8
:103DD0000CF4ABC08091E8029091E902019709F0E0
:103DE000ACC08091040190910501069709F0A5C02F
:103DF0000E94A5110E94AD1160E081E00E94761141
:103E00006AEA71E0CE0101960E941F1360E076E03D
:103E1000CE014E960E941613BE016F5F7F4FCE01FA
:103E20004E960E94C112BC018EEE95E00E94950054
:103E3000CE014E960E943013CE0101960E9430139F
:103E4000609100067091010641E0CE0101960E944A
:103E50002115BE016F5F7F4F8DE596E00E94051032
:103E6000E0917606F0917706309709F45EC085817F
:103E7000882309F45AC00E94CA026B017C0114E62F
:103E80000AE08DE596E00E94A20D892BE1F08DE518
:103E900096E00E94EA0A1092F8022091F4028091C2
:103EA000F5028002C00111242102800D911D112410
:103EB0002091F602820F911D27FD9A958BB9C501BD
:103EC0000197F1F7DECF0E94CA029B01AC012C19C9
:103ED0003D094E095F0969017A018DE596E00E946E
:103EE00038130E94A51160E081E00E94761162EF14
:103EF00071E08EEE95E00E94061260ED77E080E0C2
:103F000090E00E9498020E94A51160E081E00E946A
:103F10007611C701B6010E94C41160ED77E080E020
:103F200090E00E9498020E9408128091EC02909109
:103F3000ED02853893400CF4B6C18091E80290916F
:103F4000E902019709F0D8C0809104019091050120
:103F5000079709F0D1C00E94A5110E94AD1160E041
:103F600081E00E9476116AEA71E0CE0101960E941A
:103F70001F1360E076E0CE014E960E941613BE013C
:103F80006F5F7F4FCE014E960E94C112BC018EEE34
:103F900095E00E949500CE014E960E943013CE010E
:103FA00001960E94301361E081E00E94761166EF75
:103FB00071E08EEE95E00E9406120E94601663E8A2
:103FC00071E0CE0101960E941F1360E076E0CE0101
:103FD0004E960E941613BE016F5F7F4FCE014E9624
:103FE0000E94C112BC018AEF95E00E94FF12CE012F
:103FF0004E960E943013CE0101960E9430136091BC
:10400000FA057091FB0541E0CE0101960E94211551
:10401000BE016F5F7F4F8DE596E00E940510E09135
:104020007606F0917706309709F45EC08581882383
:1040300009F45AC00E94CA026B017C0114E60AE02E
:104040008DE596E00E94A20D892BE1F08DE596E0CA
:104050000E94EA0A1092F8022091F4028091F5027F
:104060008002C00111242102800D911D1124209194
:10407000F602820F911D27FD9A958BB9C501019714
:10408000F1F7DECF0E94CA029B01AC012C193D0959
:104090004E095F0969017A018DE596E00E943813A7
:1040A0000E94A51160E081E00E94761162EF71E04C
:1040B0008EEE95E00E94061260ED77E080E090E0E1
:1040C0000E9498020E94A51160E081E00E94761192
:1040D000C701B6010E94C41160ED77E080E090E076
:1040E0000E9498020E9408128091EC029091ED02C9
:1040F000853893400CF4D7C08091E8029091E90292
:10410000019709F0D7C080910401909105010897AB
:1041100009F0D0C00E94A5110E94AD1160E081E0BD
:104120000E9476116AEA71E0CE0101960E941F1387
:1041300060E076E0CE014E960E941613BE016F5FDE
:104140007F4FCE014E960E94C112BC018EEE95E0CB
:104150000E949500CE014E960E943013CE0101962A
:104160000E94301361E081E00E94761167E072E006
:104170008EEE95E00E9406120E9460166AE172E0DF
:10418000CE0101960E941F1360E076E0CE014E96AC
:104190000E941613BE016F5F7F4FCE014E960E94A4
:1041A000C112BC018AEF95E00E94FF12CE014E962B
:1041B0000E943013CE0101960E9430136091FA05DF
:1041C0007091FB0541E0CE0101960E942115BE01D0
:1041D0006F5F7F4F8DE596E00E940510E0917606B7
:1041E000F0917706309709F45EC08581882309F441
:1041F0005AC00E94CA026B017C0114E60AE08DE5F8
:1042000096E00E94A20D892BE1F08DE596E00E94D8
:10421000EA0A1092F8022091F4028091F5028002DD
:10422000C00111242102800D911D11242091F6025C
:10423000820F911D27FD9A958BB9C5010197F1F762
:10424000DECF0E94CA029B01AC012C193D094E0928
:104250005F0969017A018DE596E00E9438130E949A
:10426000A51160E081E00E94761162EF71E08EEEB0
:1042700095E00E94061260ED77E080E090E00E94F9
:1042800098020E94A51160E081E00E947611C701AA
:10429000B6010E94C41160ED77E080E090E00E94DA
:1042A00098020E9408128091EC029091ED028538EC
:1042B000934084F18091E8029091E902019751F5D1
:1042C000809104019091050184569109049710F59D
:1042D0000E94A5110E94AD1160E081E00E9476115C
:1042E00067E272E08EEE95E00E94061261E081E0E6
:1042F0000E9476116FE272E08EEE95E00E94061247
:1043000088E690E090930501809304011092E90201
:104310001092E8028091EC029091ED028538934072
:104320000CF4D4C080910401909105018836910568
:1043300009F0CCC08091E8029091E902019709F060
:10434000C5C0C0900006D09001061EAE1DAE8CE226
:1043500091E09CAF8BAF21961FAE219719A218A2B6
:104360009F8F8E8F1BA2A6961FAEA697212CCE01E3
:10437000CB967C0103EC15E0A6968FADA697922D07
:10438000F601E80FF91F20812F3209F40196D601BA
:10439000A80FB91FFE01E85AFF4F30E020E0AF013F
:1043A0006D916F3249F0662339F001962F5F3F4FD0
:1043B00061932C303105A1F7240F351FF9011082CC
:1043C000F601E80FF91F20812F3209F40196A69615
:1043D0008FAFA697292E8C0D9D1DFC018081811128
:1043E00031C01C821B828CE291E09A8389831E82F9
:1043F00022E0B801CE0101960E944A138823A9F059
:10440000CE0101960E943610882379F0CE010196E4
:104410000E942B05009749F025EEFC0120831E82A7
:1044200081E00E94B604811105C0F5E0033C1F073E
:10443000E9F004C055E0033C1507C1F0C8010E9433
:10444000900B14C0F70185818111EFCF21E0B801F5
:10445000C7010E944A13382E25E0033C120709F4D5
:1044600061C0C8010E94900B311062C00E94A5116A
:104470000E94AD1160E081E00E94761166E372E077
:10448000CE014E960E941F13BE01625E7F4FCE0189
:1044900001960E94161360E076E0CE0101960E941C
:1044A000C112BC018EEE95E00E949500CE010196EE
:1044B0000E943013CE014E960E94301368EE73E0D6
:1044C00080E090E00E9498020E9408128091EC0225
:1044D0009091ED02853893407CF080910401909199
:1044E00005018836910541F48091E8029091E90236
:1044F000029711F40E9408128091EA029091EB0257
:104500008538934014F00E94081280E090E0892BD7
:1045100009F42CC90E940D01882309F424C90E94C2
:10452000000021C9882309F4A1CF8E01025E1F4F2C
:10453000902F812F8701E92EF82E1ECF8AEF95E06C
:104540000E94301380E096E00E94301386E096E0EF
:104550000E94301383E996E00C943013BB274A3055
:1045600031F4992322F4BDE2909581959F4F0C94EC
:10457000BA22BB27FB015527AA27880F991FAA1F1C
:10458000A41710F0A41B83955051B9F7A05DAA336E
:1045900008F0A95DA193009779F7B111B193119239
:1045A000CB010C94D322DC01FC01672F719177239E
:1045B000E1F7329704C07C916D9370836291AE17DE
:1045C000BF07C8F30895E89409C097FB3EF490959F
:1045D0008095709561957F4F8F4F9F4F9923A9F0DC
:1045E000F92F96E9BB279395F6958795779567956B
:1045F000B795F111F8CFFAF4BB0F11F460FF1BC0AF
:104600006F5F7F4F8F4F9F4F16C0882311F096E941
:1046100011C0772321F09EE8872F762F05C06623EF
:1046200071F096E8862F70E060E02AF09A95660FA8
:10463000771F881FDAF7880F9695879597F9089561
:104640000E9433230C94A4230E94962338F00E94E6
:104650009D2320F0952311F00C948D230C9493232B
:1046600011240C94D8230E94B52370F3959FC1F3B5
:10467000950F50E0551F629FF001729FBB27F00D10
:10468000B11D639FAA27F00DB11DAA1F649F662765
:10469000B00DA11D661F829F2227B00DA11D621FB4
:1046A000739FB00DA11D621F839FA00D611D221F6E
:1046B000749F3327A00D611D231F849F600D211D52
:1046C000822F762F6A2F11249F5750409AF0F1F0D5
:1046D00088234AF0EE0FFF1FBB1F661F771F881F3E
:1046E00091505040A9F79E3F510580F00C948D23C6
:1046F0000C94D8235F3FE4F3983ED4F386957795E6
:104700006795B795F795E7959F5FC1F7FE2B880FE3
:10471000911D9695879597F9089597F99F6780E879
:1047200070E060E008959FEF80EC089500240A9403
:104730001616170618060906089500240A9412167C
:104740001306140605060895092E0394000C11F4AF
:10475000882352F0BB0F40F4BF2B11F460FF04C05C
:104760006F5F7F4F8F4F9F4F089557FD9058440FB5
:10477000551F59F05F3F71F04795880F97FB991FC0
:1047800061F09F3F79F0879508951216130614067D
:10479000551FF2CF4695F1DF08C01616170618060A
:1047A000991FF1CF86957105610508940895E894E5
:1047B000BB2766277727CB0197F908950E9420240D
:1047C000A59F900DB49F900DA49F800D911D112465
:1047D00008952F923F924F925F926F927F928F92A5
:1047E0009F92AF92BF92CF92DF92EF92FF920F9380
:1047F0001F93CF93DF93CDB7DEB7CA1BDB0B0FB68A
:10480000F894DEBF0FBECDBF09942A883988488846
:104810005F846E847D848C849B84AA84B984C884DC
:10482000DF80EE80FD800C811B81AA81B981CE0FD3
:10483000D11D0FB6F894DEBF0FBECDBFED010895B8
:10484000A29FB001B39FC001A39F700D811D1124D1
:10485000911DB29F700D811D1124911D0895505816
:10486000BB27AA270E9447240C94A4230E949623C6
:1048700038F00E949D2320F039F49F3F19F426F46C
:104880000C9493230EF4E095E7FB0C948D23E92F11
:104890000E94B52358F3BA17620773078407950778
:1048A00020F079F4A6F50C94D7230EF4E0950B2EA6
:1048B000BA2FA02D0B01B90190010C01CA01A00172
:1048C0001124FF27591B99F0593F50F4503E68F1CD
:1048D0001A16F040A22F232F342F4427585FF3CF0E
:1048E000469537952795A795F0405395C9F77EF4DF
:1048F0001F16BA0B620B730B840BBAF09150A1F028
:10490000FF0FBB1F661F771F881FC2F70EC0BA0FAD
:10491000621F731F841F48F4879577956795B79535
:10492000F7959E3F08F0B0CF9395880F08F0992730
:10493000EE0F9795879508950E94A3246894B1116E
:104940000C94D82308950E94BD2388F09F5798F0B7
:10495000B92F9927B751B0F0E1F0660F771F881F84
:10496000991F1AF0BA95C9F714C0B13091F00E949E
:10497000D723B1E008950C94D723672F782F882789
:10498000B85F39F0B93FCCF3869577956795B395C5
:10499000D9F73EF490958095709561957F4F8F4F34
:1049A0009F4F0895A1E21A2EAA1BBB1BFD010DC04B
:1049B000AA1FBB1FEE1FFF1FA217B307E407F507CF
:1049C00020F0A21BB30BE40BF50B661F771F881FAB
:1049D000991F1A9469F760957095809590959B0141
:1049E000AC01BD01CF010895EE0FFF1F0590F491BA
:1049F000E02D09940F931F93CF93DF93823091059D
:104A000010F482E090E0E0919B06F0919C0630E08B
:104A100020E0B0E0A0E0309799F42115310509F4C9
:104A20004AC0281B390B24303105D8F58A819B8177
:104A30006115710589F1FB0193838283FE0111C029
:104A4000408151810281138148175907E0F04817CE
:104A5000590799F4109761F012960C9312971396D8
:104A60001C933296CF01DF91CF911F910F91089542
:104A700000939B0610939C06F4CF2115310551F04D
:104A80004217530738F0A901DB019A01BD01DF018C
:104A9000F801C1CFEF01F9CF90939C0680939B065C
:104AA000CDCFFE01E20FF31F819391932250310984
:104AB00039832883D7CF2091990630919A06232BEA
:104AC00041F420910A0130910B0130939A06209312
:104AD000990620910801309109012115310541F411
:104AE0002DB73EB740910C0150910D01241B350BA1
:104AF000E0919906F0919A06E217F307A0F42E1BB5
:104B00003F0B2817390778F0AC014E5F5F4F241731
:104B1000350748F04E0F5F1F50939A064093990651
:104B2000819391939FCFF0E0E0E09CCFCF93DF9310
:104B30000097E9F0FC01329713821282A0919B0644
:104B4000B0919C06ED0130E020E01097A1F42081A7
:104B50003181820F931F2091990630919A06281770
:104B6000390709F061C0F0939A06E0939906DF9146
:104B7000CF910895EA01CE17DF07E8F54A815B81FE
:104B80009E0141155105B1F7E901FB83EA83499183
:104B90005991C40FD51FEC17FD0761F480819181F5
:104BA0000296840F951FE9019983888382819381FE
:104BB0009B838A83F0E0E0E012968D919C9113979D
:104BC0000097B9F52D913C911197CD010296820F76
:104BD000931F2091990630919A062817390739F6C4
:104BE000309751F510929C0610929B06B0939A064E
:104BF000A0939906BCCFD383C28340815181840F97
:104C0000951FC817D90761F44E5F5F4F888199815E
:104C1000480F591F518340838A819B8193838283EC
:104C20002115310509F0B0CFF0939C06E0939B0667
:104C30009ECFFD01DC01C0CF13821282D7CFB0E03E
:104C4000A0E0E5E2F6E20C94EB238C01009751F42E
:104C5000CB010E94FA248C01C801CDB7DEB7E0E198
:104C60000C940724FC01E60FF71F9C012250310928
:104C7000E217F30708F49DC0D901CD91DC9111979B
:104C8000C617D70798F0C530D10530F3CE01049789
:104C90008617970708F3C61BD70B2297C193D193AA
:104CA0006D937C93CF010E949625D6CF5B01AC1A01
:104CB000BD0A4C018C0E9D1EA0919B06B0919C06D6
:104CC000512C412CF12CE12C109731F58091990653
:104CD00090919A068815990509F05CC0461657060A
:104CE00008F058C08091080190910901009741F4A3
:104CF0008DB79EB740910C0150910D01841B950B0F
:104D0000E817F90708F055C0F0939A06E093990662
:104D1000F90171836083A0CF8D919C9111971296B8
:104D20006C90129713967C901397A815B90559F5B6
:104D30006C0142E0C40ED11CCA14DB0420F1AC01AA
:104D40004A195B09DA011296159780F06282738224
:104D500051834083D9016D937C93E114F10471F088
:104D6000D7011396FC93EE93129776CF22968C0F71
:104D70009D1FF90191838083F301EFCFF0939C068F
:104D8000E0939B0669CF4816590608F42C017D0173
:104D9000D3019ACFCB010E94FA247C01009749F0FD
:104DA000AE01B8010E94E926C8010E94962587013C
:104DB00053CF10E000E050CFFB01DC0104C08D9127
:104DC0000190801921F441505040C8F7881B990B7D
:104DD0000895FB01DC0102C001900D92415050404A
:104DE000D8F70895FC018191861721F08823D9F71F
:104DF000992708953197CF010895FB01DC010190B7
:104E00000D920020E1F70895FB01DC014150504074
:104E100048F001900D920020C9F701C01D92415049
:104E20005040E0F7089510E0CAE6D0E004C0FE016B
:104E30000E94F4242196CB36D107C9F7F894FFCF0E
:104E4000FFFFFFFF0100010000009D068000000041
:104E5000400014005400000000004301A300D000F3
:104E600090010101DF00F30000000000380DA300F5
:104E7000320B4A0E00000000EC0EBF0E0210B10E05
:104E8000B80EB50EB20E000000004E11A3000210C5
:104E90004A0E00000000EF0DD20DC20D990DA20DBB
:104EA0001C0E260E506C61794261636B2041756463
:104EB000696F0044656C65746520417564696F00B5
:104EC0002F00206C6F77706173732E747874000DEF
:104ED0000A00566F696365205265636F726465727C
:104EE000005245434F5244494E472E2E2E0030303B
:104EF0000046696C6520536176656400417564699C
:104F00006F2031004E6F2045666665637400417501
:104F100064696F203200417564696F203300417508
:104F200064696F2034004261737300547265626C6F
:104F30006500656E64007769746820426173732050
:104F400045666665637400776974682054726562AB
:104F50006C652045666665637400686967687061A2
:104F600073732E74787400436F6E6669726D0043BC
:104F7000616E63656C0044656C6574656420000057
:107E0000112484B714BE81FFF0D085E080938100F7
:107E100082E08093C00088E18093C10086E0809377
:107E2000C20080E18093C4008EE0C9D0259A86E02C
:107E300020E33CEF91E0309385002093840096BBD3
:107E4000B09BFECF1D9AA8958150A9F7CC24DD24C4
:107E500088248394B5E0AB2EA1E19A2EF3E0BF2EE7
:107E6000A2D0813461F49FD0082FAFD0023811F036
:107E7000013811F484E001C083E08DD089C08234E0
:107E800011F484E103C0853419F485E0A6D080C0E4
:107E9000853579F488D0E82EFF2485D0082F10E0AE
:107EA000102F00270E291F29000F111F8ED06801E7
:107EB0006FC0863521F484E090D080E0DECF843638
:107EC00009F040C070D06FD0082F6DD080E0C81688
:107ED00080E7D80618F4F601B7BEE895C0E0D1E017
:107EE00062D089930C17E1F7F0E0CF16F0E7DF06D8
:107EF00018F0F601B7BEE89568D007B600FCFDCFD4
:107F0000A601A0E0B1E02C9130E011968C91119780
:107F100090E0982F8827822B932B1296FA010C0160
:107F200087BEE89511244E5F5F4FF1E0A038BF0790
:107F300051F7F601A7BEE89507B600FCFDCF97BE46
:107F4000E89526C08437B1F42ED02DD0F82E2BD052
:107F50003CD0F601EF2C8F010F5F1F4F84911BD097
:107F6000EA94F801C1F70894C11CD11CFA94CF0C13
:107F7000D11C0EC0853739F428D08EE10CD085E9AC
:107F80000AD08FE07ACF813511F488E018D01DD067
:107F900080E101D065CF982F8091C00085FFFCCF94
:107FA0009093C60008958091C00087FFFCCF809118
:107FB000C00084FD01C0A8958091C6000895E0E648
:107FC000F0E098E1908380830895EDDF803219F02E
:107FD00088E0F5DFFFCF84E1DECF1F93182FE3DFCA
:107FE0001150E9F7F2DF1F91089580E0E8DFEE27F6
:047FF000FF270994CA
:027FFE00040479
:00000001FF
