:100000000C946B000C9493000C9493000C9493004C
:100010000C9493000C9493000C9493000C94930014
:100020000C9493000C9493000C9493000C94930004
:100030000C9493000C9493000C9493000C949300F4
:100040000C94FE170C9493000C94CC170C94A617E8
:100050000C9493000C9493000C9493000C949300D4
:100060000C9448180C9493007C3C3E5E2B3D3F2F33
:100070005B5D3B2C2A225C0000000000250028006C
:100080002B000000000023002600290000000008CB
:10009000000201000003040700000000000000004F
:1000A00000000000240027002A000102040810209C
:1000B00040800102040810200102040810200404FA
:1000C0000404040404040202020202020303030300
:1000D000030363191A2111241FBECFEFD8E0DEBF3E
:1000E000CDBF12E0A0E0B1E0ECEEFBE402C0059071
:1000F0000D92A031B107D9F726E0A0E1B2E001C02E
:100100001D92A034B207E1F710E0CAE6D0E004C0C7
:100110002197FE010E94CA23C936D107C9F70E9460
:10012000081A0C94E9250C9400000895DB0114963C
:100130004D915C9115976D917C91DC01ED91FC9155
:100140000280F381E02D0994AF92BF92CF92DF92AB
:10015000EF92FF920F931F93CF93DF936C017B017C
:100160008B01040F151FEB015E01AE18BF08C0170D
:10017000D10759F06991D601ED91FC910190F08180
:10018000E02DC6010995892B79F7C501DF91CF9143
:100190001F910F91FF90EF90DF90CF90BF90AF90A5
:1001A0000895FC01538D448D252F30E0842F90E07D
:1001B000821B930B541710F0CF9608950197089562
:1001C000FC01918D828D981761F0A28DAE0FBF2F2B
:1001D000B11D5D968C91928D9F5F9F73928F90E081
:1001E00008958FEF9FEF0895FC01918D828D9817F0
:1001F00031F0828DE80FF11D858D90E008958FEF2D
:100200009FEF0895FC01918D228D892F90E0805CF5
:100210009F4F821B91098F739927089584EC94E076
:100220000E94020121E0892B09F420E0822F089529
:1002300080E090E0892B29F00E940E0181110C943E
:1002400000000895FC01A48DA80FB92FB11DA35A79
:10025000BF4F2C91848D90E001968F739927848FE6
:10026000A689B7892C93A089B1898C918370806409
:100270008C93938D848D981306C00288F389E02DAA
:1002800080818F7D80830895EF92FF920F931F935B
:10029000CF93DF93EC0181E0888F9B8D8C8D981339
:1002A0001AC0E889F989808185FF15C09FB7F89445
:1002B000EE89FF896083E889F98980818370806491
:1002C00080839FBF81E090E0DF91CF911F910F91DC
:1002D000FF90EF900895F62E0B8D10E00F5F1F4FEB
:1002E0000F731127E02E8C8D8E110CC00FB607FCFA
:1002F000FACFE889F989808185FFF5CFCE010E9488
:100300002201F1CFEB8DEC0FFD2FF11DE35AFF4FD2
:10031000F0829FB7F8940B8FEA89FB898081806215
:10032000CFCFCF93DF93EC01888D8823B9F0AA89D2
:10033000BB89E889F9898C9185FD03C0808186FDA0
:100340000DC00FB607FCF7CF8C9185FFF2CF8081EF
:1003500085FFEDCFCE010E942201E9CFDF91CF9141
:100360000895833081F028F4813099F08230A9F02B
:1003700008958730A9F08830C9F08430B1F48091B5
:1003800080008F7D03C0809180008F7780938000F4
:10039000089584B58F7784BD089584B58F7DFBCF94
:1003A0008091B0008F778093B00008958091B00065
:1003B0008F7DF9CFCF93DF93282F30E0F901E457F9
:1003C000FF4F8491F901E655FF4FD491F901E254B2
:1003D000FF4FC491CC23A1F081110E94B101EC2FF9
:1003E000F0E0EE0FFF1FEE57FF4FA591B491EC9197
:1003F000ED2381E090E009F480E0DF91CF91089552
:1004000080E090E0FACF1F93CF93DF93282F30E066
:10041000F901E457FF4F8491F901E655FF4FD4915C
:10042000F901E254FF4FC491CC23A9F0162F81119A
:100430000E94B101EC2FF0E0EE0FFF1FE858FF4FD4
:10044000A591B4918FB7F894EC91111108C0D09593
:10045000DE23DC938FBFDF91CF911F910895DE2BB8
:10046000F8CFCF93DF9390E0FC01E655FF4F249146
:1004700082549F4FFC0184918823D1F090E0880F33
:10048000991FFC01E056FF4FA591B491FC01E8587B
:10049000FF4FC591D49161110EC09FB7F8948C9114
:1004A000E22FE0958E238C932881E223E8839FBF7F
:1004B000DF91CF9108958FB7F894EC91E22BEC93F4
:1004C0008FBFF6CF8E50806480937C0080917A003D
:1004D000806480937A0080917A0086FDFCCF8091C1
:1004E00078009091790008953FB7F8948091B10217
:1004F0009091B202A091B302B091B40226B5A89B2C
:1005000005C02F3F19F00196A11DB11D3FBFBA2FA5
:10051000A92F982F8827BC01CD01620F711D811D65
:10052000911D42E0660F771F881F991F4A95D1F7EA
:1005300008958F929F92AF92BF92CF92DF92EF92E7
:10054000FF924B015C010E9474026B017C010E94CE
:1005500074026C197D098E099F09683E73408105FC
:100560009105A8F321E0821A9108A108B10888EE4C
:10057000C80E83E0D81EE11CF11C81149104A10473
:10058000B10429F7FF90EF90DF90CF90BF90AF902C
:100590009F908F9008952FB7F8946091AD0270915D
:1005A000AE028091AF029091B0022FBF08958FB735
:1005B000F8948091A6028FBF089561E0FC018481C8
:1005C0000E9403028091A50281111092A502089554
:1005D0008EBD00000DB407FEFDCF8EB508958FEFE0
:1005E0000C94E8020F931F93CF93DF93EC010E94CA
:1005F000CB028B010E94EF028F3F69F00E94CB0279
:10060000601B710B6C177D07A8F380E0DF91CF9121
:100610001F910F91089581E0F9CF8CBD9DBD089584
:10062000CF93DF93EC018091A502811109C081E095
:100630008093A50280916105909162050E940D034F
:1006400060E08C81DF91CF910C9403028F929F9296
:10065000AF92BF92FF920F931F93CF93DF93EC0162
:10066000F62E49015A018E81882389F08F81988561
:100670009C012F5F3F4F38872F838230924018F4C0
:100680000E94EF02F3CFCE010E94DD021E82CE0156
:100690000E9410038CE291E00E94F2028F2D806490
:1006A0000E94E80208E110E0D501C401002E04C058
:1006B000B695A795979587950A94D2F70E94E80278
:1006C00008501109083F8FEF180771F785E9FF20DF
:1006D00021F028E087E8F2128FEF0E94E80210E094
:1006E0000E94EF028A8787FF04C01F3F11F01F5F3F
:1006F000F7CFDF91CF911F910F91FF90BF90AF90F7
:100700009F908F900895AF92BF92CF92DF92EF9219
:10071000FF920F931F93CF93DF93EC016901C80100
:10072000820F931F8130924050F58E81882379F09B
:1007300088819981AA81BB8184179507A607B7078D
:1007400031F48F819885C816D90608F042C04883D5
:1007500059836A837B838B85833039F089E0440F2A
:10076000551F661F771F8A95D1F79A01AB0161E18A
:10077000CE010E942603882389F083E08D83CE0179
:100780000E94DD0280E0DF91CF911F910F91FF90D9
:10079000EF90DF90CF90BF90AF9008950E94CB0272
:1007A0005B010E94EF028A878F3F69F40E94CB02AF
:1007B0006A197B096D327140A0F38FE08D83CE0101
:1007C0000E94DD02DCCF8E3F89F418861F8281E013
:1007D0008E838F8198858C159D0550F40E94EF02C1
:1007E0008F819885019698878F83F3CF8DE0E6CF30
:1007F0006701E00EF11E0E94EF02F60181936F0186
:10080000EE15FF05C1F78F819885080F191F18870E
:100810000F838985882319F001151240A0F08E817D
:10082000882389F08F8198859C012F5F3F4F3887FF
:100830002F838230924018F40E94EF02F3CFCE0152
:100840000E94DD021E8281E09ECFCF92DF92EF9266
:10085000FF920F93CF93DF93EC01690182E1411581
:1008600051056105710599F08B85833039F089E078
:10087000440F551F661F771F8A95D1F79A01AB0168
:1008800068E1CE010E942603882319F084E08D835D
:100890002DC08EEF0E94E80276018EEFD81AF70184
:1008A00081917F010E94E802EC14FD04C1F78FEFF3
:1008B0000E94E8028FEF0E94E8020E94EF028A87FE
:1008C0008F71853071F4011116C0CE010E94DD02D6
:1008D00081E0DF91CF910F91FF90EF90DF90CF906B
:1008E000089581E18D83CE010E94DD02CE010E9438
:1008F000DD0280E0EECF88E592E00E94F2028111F5
:1009000002C085E1C4CF20E030E0A9016DE0CE0156
:100910000E942603882311F084E1B9CF0E94EF02E0
:100920008111FACFD2CF0F934091A8025091A90222
:100930006091AA027091AB024115510561057105E4
:1009400099F0082F24EC32E08091C2029091C3020A
:100950000E942504882349F01092A8021092A9024F
:100960001092AA021092AB0281E00F9108950F93AA
:10097000CF93C82F8091A702811105C0C1E08C2FB1
:10098000CF910F9108954091000150910101609124
:100990000201709103010C2F24EC32E08091C2021D
:1009A0009091C3020E942504811102C0C0E0E7CFEC
:1009B000CC2321F381E00E9493048823B9F31092A1
:1009C000A702DDCF8F929F92AF92BF92EF92FF92DC
:1009D0000F931F93CF934B015C01C42F80910001B3
:1009E00090910101A0910201B09103018815990530
:1009F000AA05BB0551F181E00E94B70481110BC02B
:100A000080E0CF911F910F91FF90EF90BF90AF903A
:100A10009F908F90089584ECE82E82E0F82E00E0FD
:100A200012E030E020E0B501A4018091C202909173
:100A3000C3020E948303882319F3809200019092DD
:100A40000101A0920201B09203014091A7024C2B38
:100A50004093A70281E0D5CFCF93DF93EC016E8561
:100A60007F858889998941E00E94E204882351F0BA
:100A70008A8920E2829FC00111248C539D4FDF910F
:100A8000CF91089590E080E0FACF8F929F92AF923D
:100A9000BF92CF92DF92EF92FF92CF9323E635E0A1
:100AA0003093C3022093C202882309F46DC040E052
:100AB00060E070E0CB010E94E20481110BC080E095
:100AC000CF91FF90EF90DF90CF90BF90AF909F902D
:100AD0008F900895809182048F7789F780918E049A
:100AE00090918F04A0919004B09191048436910567
:100AF000A105B10520F3C0908A04D0908B04E0904A
:100B00008C04F0908D04C114D104E104F104B9F215
:100B100040E0C701B6010E94E204882381F280917F
:100B2000CF029091D0028115924049F6A091D40253
:100B3000AA2329F26091D2027091D3026115710546
:100B400009F4BDCF2091D102222309F4B8CFA0939C
:100B500081052093730590E080E030E0E1E0F0E073
:100B6000C82FAF01082E02C0440F551F0A94E2F7A8
:100B70002417350769F041E0480F01968930910547
:100B800079F740937C059BCFC12CD12C7601C0CF47
:100B900080937C052091DA023091DB0250E040E046
:100BA0002115310541F42091E8023091E90240918C
:100BB000EA025091EB02209374053093750540933F
:100BC00076055093770546015701860E971EA11CA6
:100BD000B11C8092820590928305A0928405B09208
:100BE0008505E091D502F091D602F0938805E09357
:100BF0008705B0E00E94AD22DC01CB01880D991D74
:100C0000AA1DBB1D8093890590938A05A0938B052F
:100C1000B0938C0525E0EE0FFF1F2A95E1F7E15018
:100C2000FE4FEF2FFF27E6958E0F9F1FA11DB11DD1
:100C300080937D0590937E05A0937F05B0938005FA
:100C40008090D7029090D802B12CA12C81149104ED
:100C500041F48090E4029090E502A090E602B0900A
:100C6000E702C81AD90AEA0AFB0AC80CD91CEA1C0E
:100C7000FB1C04C0F694E794D794C794CA95D2F7A6
:100C8000C0927805D0927905E0927A05F0927B05C2
:100C900085EFC8168FE0D806E104F10428F48CE053
:100CA0008093860581E00CCF80E125EFC2162FEFFF
:100CB000D206E104F104A0F38091F0029091F102D8
:100CC000A091F202B091F3028093890590938A0576
:100CD000A0938B05B0938C0580E2E2CF4F925F9298
:100CE0006F927F928F929F92AF92BF92CF92DF923C
:100CF000EF92FF920F931F93CF93DF93EC0142305B
:100D000051056105710590F480E0DF91CF911F914D
:100D10000F91FF90EF90DF90CF90BF90AF909F909A
:100D20008F907F906F905F904F90089589859A85FE
:100D3000AB85BC850196A11DB11D84179507A6073B
:100D4000B70710F3CB88DC88ED88FE888F89803167
:100D500009F042C0BB27A72F962F852F48015901C4
:100D60002A013B01C80ED91EEA1EFB1E809100011C
:100D700090910101A0910201B0910301C816D9061A
:100D8000EA06FB0699F58F898031C1F5B301A2010E
:100D9000552766277727440F551F4C535D4FFA019F
:100DA000918280828091A70281608093A7028A89C4
:100DB000823080F08D819E81AF81B8858C0D9D1D24
:100DC000AE1DBF1D8093A8029093A902A093AA0212
:100DD000B093AB0281E099CFDB01CA01E7E0B695A1
:100DE000A79597958795EA95D1F7B8CF40E0C701C9
:100DF000B6010E94E2048111C6CF86CFB301A201E1
:100E00004F77552766277727440F551F440F551FE7
:100E10004C535D4FFA0180829182A282B382C2CF8D
:100E20008F929F92AF92BF92CF92DF92EF92FF92FA
:100E30000F931F93CF93DF93FC0181859285A38548
:100E4000B4850196A11DB11D84179507A607B707A4
:100E500070F480E0DF91CF911F910F91FF90EF90A0
:100E6000DF90CF90BF90AF909F908F900895838830
:100E70009488A588B6888789803189F5BB27A72FF4
:100E8000962F852FE9016A017B018F01BC01CD01FD
:100E9000680D791D8A1D9B1D8090000190900101B5
:100EA000A0900201B090030186169706A806B90625
:100EB00001F5F8018789803111F5DD24EE24FF2446
:100EC000F601EE0FFF1FEC53FD4F80819181B0E0E2
:100ED000A0E088839983AA83BB8381E0BBCFDB0139
:100EE000CA01C7E0B695A79597958795CA95D1F79A
:100EF000C9CF40E00E94E2048111DBCFAACFE89481
:100F0000C7F8DD24EE24FF24F601EE0FFF1FEE0FDD
:100F1000FF1FEC53FD4F80819181A281B381BF708F
:100F2000D8CF4F925F926F927F92AF92BF92CF9243
:100F3000DF92EF92FF920F931F93CF93DF9300D036
:100F400000D0CDB7DEB78C0149835A836B837C8395
:100F50005901C12CD12C7601412C82E0582E612CF4
:100F6000712C49815A816B817C819E012F5F3F4F9B
:100F7000C8010E941007882339F1F8018585A30173
:100F8000920104C0220F331F441F551F8A95D2F7C8
:100F9000DA01C901C80ED91EEA1EFB1E49815A8119
:100FA0006B817C818789803111F188EF9FEFAFEFF2
:100FB000BFE0481759076A077B0798F2F501C0821E
:100FC000D182E282F38281E00F900F900F900F9018
:100FD000DF91CF911F910F91FF90EF90DF90CF9015
:100FE000BF90AF907F906F905F904F90089588EF83
:100FF0009FEFA0E0B0E0DDCFCF93DF93FC01258130
:10100000222321F080E0DF91CF910895EC018091BF
:101010008605803159F582E08583178A108E118EFE
:10102000128E8091870590918805B0E0A0E025E0C0
:10103000880F991FAA1FBB1F2A95D1F7838B948B0A
:10104000A58BB68B8FE695E09C8F8B8F81E08C8390
:101050001E821F82188619861A861B861C861D868C
:101060001E861F86188A198A1A8ACDCF803251F6B9
:1010700083E085834091890550918A0560918B05B5
:1010800070918C05478B508F618F728F9F012D5E01
:101090003F4F8FE695E00E9491078111D3CFB2CFE9
:1010A0008F929F92AF92BF92CF92DF92EF92FF9278
:1010B0000F931F93CF93DF93EC018D8181110EC0AD
:1010C00080E0DF91CF911F910F91FF90EF90DF9023
:1010D000CF90BF90AF909F908F9008950B891C89FF
:1010E0002D893E89041715072607370748F34A015B
:1010F0005B01823031F48A869B86AC86BD8681E0B6
:10110000E0CF81149104A104B10449F41E821F822E
:10111000188619861A861B861C861D86F0CF0A85BE
:101120001B852C853D85EB8DFC8D858590E0099692
:10113000B901A8014150510961097109082E04C083
:1011400076956795579547950A94D2F7750164018E
:10115000E1E0CE1AD108E108F10804C0F694E79462
:10116000D794C7948A95D2F7C416D506E606F70633
:1011700020F0012B022B032B11F58F89988DA98D5F
:10118000BA8D8E839F83A887B9878E010A5F1F4F10
:10119000C114D104E104F10409F4ADCF4E815F81A3
:1011A0006885798598018B8D9C8D0E94100791E050
:1011B000C91AD108E108F1088111EACF81CFC41A18
:1011C000D50AE60AF70AE1CF3F924F925F926F92FB
:1011D0007F928F929F92AF92BF92CF92DF92EF92C7
:1011E000FF920F931F93CF93DF93CDB7DEB72C976A
:1011F0000FB6F894DEBF0FBECDBF5C01DC015B967D
:101200008D909C905C9716964D905D906D907C9023
:101210001997411451046104710409F468C0BFEFC7
:101220004B1A5B0A6B0A7B0A312CF401818592858B
:10123000A385B4859C01AD012F5F3F4F4F4F5F4F9A
:1012400029873A874B875C87730162011D821E8262
:101250001F821886F40181859285A385B4852D812E
:101260003E814F815885281739074A075B0708F0E8
:1012700056C089859A85AB85BC858C159D05AE05C4
:10128000BF0550F482E0C82ED12CE12CF12C92E065
:10129000492E512C612C712C9E012F5F3F4FB701BD
:1012A000A601C4010E9410078823C9F189819A818F
:1012B000AB81BC81892B8A2B8B2B09F1260137014D
:1012C0009FEF491A590A690A790A2D813E814F8197
:1012D00058852F5F3F4F4F4F5F4F2D833E834F8386
:1012E00058873FEFC31AD30AE30AF30AB3CFF401D6
:1012F00040805180628073803324339496CFC4142D
:10130000D504E604F70409F70FEF1FEF2FEF3FE0D6
:10131000B701A601C4010E946E06811119C080E0C8
:101320002C960FB6F894DEBF0FBECDBFDF91CF91E4
:101330001F910F91FF90EF90DF90CF90BF90AF90F3
:101340009F908F907F906F905F904F903F90089507
:10135000D50116964D915D916D917C91199741152E
:1013600051056105710539F097018601C4010E949C
:101370006E068823A1F2D5011696CD92DD92ED92EC
:10138000FC921997332051F0D701C6010196A11D97
:10139000B11DF40180839183A283B383F501878912
:1013A000908DA18DB28D892B8A2B8B2B39F4848162
:1013B000C78AD08EE18EF28E80688483F5018481A5
:1013C0008062848381E0ACCF1F93CF93DF93FC01D5
:1013D0002581222371F1162FEC01848187FF1EC025
:1013E000CF010E942C05FC01892B19F18D818230DF
:1013F00040F48B899C89AD89BE89848F958FA68F97
:10140000B78F8F89988D938F828F8F89988DA98DB3
:10141000BA8DB58BA48B8C818F778C83111103C00F
:101420008C818F7E8C83812FDF91CF911F910C94C3
:10143000B70480E0DF91CF911F910895FF920F9341
:101440001F93CF93DF93EC018D81813041F090E0C9
:1014500080E0DF91CF911F910F91FF9008958C81D3
:1014600081FFF5CF82FD1BC00091C2021091C30223
:10147000C8010E9410030E94EF02F82EC8010E94CA
:10148000DD028FEFF812E3CF8C8185FF1BC060E097
:10149000CE010E94E4098C818F7D8C83D8CF4B894B
:1014A0005C896D897E898A859B85AC85BD8584171D
:1014B0009507A607B707C1F2CE010E945008811117
:1014C000D3CFC5CF4091A8025091A9026091AA0242
:1014D0007091AB02452B462B472B21F080E00E94F8
:1014E0009304B5CF80618C832A853B85317080E081
:1014F00092E0821B930BADCFCF93DF93EC0161E0C1
:101500000E94E409882311F01D8281E0DF91CF91D0
:1015100008952F923F924F925F926F927F928F9297
:101520009F92AF92BF92CF92DF92EF92FF920F9372
:101530001F93CF93DF9300D000D01F92CDB7DEB7BB
:101540007C015B01342E5D83DC0115968C9115972F
:10155000813009F0CEC014962C9021FECAC022FC26
:10156000B4C0C32CDD8022947FE027222094B22DCA
:10157000B1702B2ED7011A964D915D916D917C9192
:101580001D97C114D10409F428C15B968D919C91DB
:101590005C97FC0174807A948A019B0169E036951E
:1015A0002795179507956A95D1F770228A011170D2
:1015B000711020C001151105E9F416964D915D9149
:1015C0006D917C911997411551056105710509F0DF
:1015D00099C057968D919D910D90BC91A02D00972B
:1015E000A105B10509F0B0C0C7010E94E408882335
:1015F00009F47FC080E092E0801B910B46018C15BE
:101600009D0508F44C01D7015B964D915C915C9768
:1016100016968D919D910D90BC91A02D0297A109D8
:10162000B109FA01258504C0880F991FAA1FBB1FA5
:101630002A95D2F74685578560897189840F951F51
:10164000A61FB71F9C01AD01270D311D411D511D66
:1016500029013A01811432E0930609F07BC08091A0
:10166000000190910101A0910201B0910301841544
:101670009505A605B70559F48FEF9FEFDC01809320
:10168000000190930101A0930201B0930301022D88
:101690009501B301A2018091C2029091C3020E9400
:1016A0002504882331F19EEFB91AC818D908F7012B
:1016B00082859385A485B585880D991DA11DB11DD1
:1016C00082879387A487B58755CFF70143895489CB
:1016D0006589768982859385A485B58548175907DC
:1016E0006A077B0709F43DCFC7010E9450088111AA
:1016F00038CF81E090E0D70113969C938E93129798
:1017000080E007C09E012F5F3F4F0E9410078111AC
:1017100002C090E079C089819A81AB81BC81F701D8
:10172000238D348DF901278948EF5FEF60E070E089
:10173000203121F048EF5FEF6FEF7FE084179507CE
:10174000A607B70708F050CFF70186839783A087D5
:10175000B18750CF0115110599F5D7011A964D9112
:101760005D916D917C911D9753968D919D910D90FA
:10177000BC91A02D481759076A077B0708F181E043
:101780000E94B704882309F4B4CF4092000150921C
:10179000010160920201709203018091A7028160B1
:1017A0008093A702C8018C539D4FD5019C01280D41
:1017B000391DFC012E173F0759F04D914193FACF87
:1017C00041E0C301B2010E94E2048111EBCF91CF4D
:1017D000281B390BA20EB31E68CFF70183899489A9
:1017E000A589B68984179507A607B70738F48481B9
:1017F000438B548B658B768B80688483F70184815F
:1018000083FD1AC0832D9D810F900F900F900F9034
:101810000F90DF91CF911F910F91FF90EF90DF908C
:10182000CF90BF90AF909F908F907F906F905F9080
:101830004F903F902F90089561E0C7010E94E40906
:10184000882309F456CFDECFCF93DF931F92CDB715
:10185000DEB7698341E050E0BE016F5F7F4F0E94B9
:10186000890A0F90DF91CF910895FC01DB01129658
:101870008D919C911397938382838CE291E0918365
:10188000808314968C911497848315968C91159768
:10189000858316964D915D916D917C911997468344
:1018A0005783608771871A964D915D916D917C91F8
:1018B0001D9742875387648775871E964D915D916A
:1018C0006D917C91519746875787608B718B5296AB
:1018D0008C915297828B53964D915D916D917C9135
:1018E0005697438B548B658B768B57964D915D91B4
:1018F0006D917C915A97478B508F618F728F5B9659
:101900008D919C91948F838F0895FC01818D928D90
:10191000009719F061E00C94E4090895DC015996F0
:10192000ED91FC913097B9F083899489A589B689A6
:101930004285538564857585841B950BA60BB70B73
:10194000811520E89207A105B10538F08FEF9FE7D8
:10195000A0E0B0E0089590E080E00895DC015996A1
:101960008D919C91009739F0DC01ED91FC91048000
:10197000F581E02D099490E080E00895CF93DF9306
:10198000EC01E98DFA8D309749F481E090E09B837A
:101990008A8390E080E0DF91CF91089513821282D4
:1019A000898D9A8D0E94890AE98DFA8D2281338171
:1019B000232B59F7F0CFCF93DF931F92CDB7DEB72C
:1019C0006983DC01ED91FC910280F381E02D41E01F
:1019D00050E0BE016F5F7F4F09950F90DF91CF916F
:1019E00008952F923F924F925F926F927F928F92C3
:1019F0009F92AF92BF92CF92DF92EF92FF920F939E
:101A00001F93CF93DF9300D01F92CDB7DEB7FC01B9
:101A10008581811118C08FEF9FEF0F900F900F906D
:101A2000DF91CF911F910F91FF90EF90DF90CF90BA
:101A3000BF90AF909F908F907F906F905F904F90EE
:101A40003F902F900895848180FFE5CF438954898A
:101A50006589768982859385A485B585312C212C6D
:101A6000481759076A077B0719F022242394312C61
:101A70006F012101CE0101963C01DF011696BB8367
:101A8000AA834114510409F4C5C0F6014285538567
:101A9000648575854A01F1E09F22D6015B968D91A0
:101AA0009C915C978A019B01E9E0369527951795F3
:101AB0000795EA95D1F71596EC91E230E9F5FC012E
:101AC000628D738D848D958D600F711F821F931FA2
:101AD000A12C22E0B22EA818B9084A145B0408F41D
:101AE0005201F601248126FD04C0A114F2E0BF06D4
:101AF00071F40091000110910101209102013091D7
:101B00000301061717072807390709F05EC040E0F0
:101B10000E94E204882309F47ECFC4018C539D4FB8
:101B2000D3019C012A0D3B1DFC012E173F0709F430
:101B30006CC041914D93F9CFDC011496BC90BA94DE
:101B4000B0228114910479F4B1100DC0452B462BBD
:101B5000472B69F5F6018789908DA18DB28D86831B
:101B60009783A087B187D6015B96ED91FC915C9736
:101B700016966D917D918D919C9119976250710986
:101B800081099109258504C0660F771F881F991F59
:101B90002A95D2F70685178520893189600F711F34
:101BA000821F931F6B0D711D811D911D91CFD60159
:101BB00016964D915D916D917C9119972A813B818B
:101BC0000E9410078111CFCF26CF730185019401A8
:101BD000AB01BC018091C2029091C3020E948303B9
:101BE000882309F418CF6A0C7B1CF6018285938543
:101BF000A485B5858A0D9B1DA11DB11D8287938784
:101C0000A487B5874A185B083CCF281B390B620EA6
:101C1000731EEBCF2A94232809F0FDCE898190E032
:101C2000FCCEFC01818D928D009711F00C94F10C8B
:101C30008FEF9FEF08950F931F93CF93DF93EC01E6
:101C40000E94CB02688779878A879B87CE010E9492
:101C5000110E97FF15C00E94CB02088519852A85B1
:101C60003B85601B710B820B930B0C811D812E81B8
:101C70003F81601771078207930740F38FEF9FEF53
:101C8000DF91CF911F910F9108950F931F93CF93E1
:101C9000DF93EC01898D9A8D10E000E0009799F0B8
:101CA0000E94F10C8C010F3F100769F0898D9A8D0D
:101CB000FC01428553856485758541505109610950
:101CC00071090E945008C801DF91CF911F910F91B7
:101CD00008951F93CF93DF93C1E0C093110288232F
:101CE00099F1D091B8001091BA008091BC008A7B24
:101CF0008093BC0060E082E10E94030260E083E127
:101D00000E94030210927B02C0937A021092550245
:101D100061E082E10E94030261E083E10E9403022C
:101D20008091B9008E7F8093B9008091B9008D7F3A
:101D30008093B90088E48093B80085E48093BC0068
:101D40001093BA00D093B800DF91CF911F910895FE
:101D500020913202260F3327331F21323105ECF454
:101D600020917B02FC0190E080E0243069F082E069
:101D70000895A09132022191AC014E5E5D4FA40FF7
:101D8000B52FB11D2C930196861798F380913202DE
:101D9000680F6093320280E0089581E0089508950D
:101DA0008FEF9FEF08958FEF9FEF089580911002BE
:101DB00090E09195819591090895CF92DF92EF92ED
:101DC000FF920F931F93CF93DF937C01CB018A0186
:101DD00020918102222389F0EB016B01C40ED51EF4
:101DE000CC15DD0569F06991D701ED91FC91019069
:101DF000F081E02DC7010995F3CF642F0E94A80E52
:101E0000C801DF91CF911F910F91FF90EF90DF906C
:101E1000CF900895CF93DF931F92CDB7DEB769833C
:101E2000209181022223F9F02091A402203258F05F
:101E300021E030E0FC013383228390E080E00F90CA
:101E4000DF91CF91089580918202E82FF0E0ED5765
:101E5000FD4F998190838F5F809382028093A402CB
:101E600081E090E0ECCF61E0CE0101960E94A80EE7
:101E7000F7CFCF92DF92EF92FF920F931F93CF9302
:101E8000DF93FC01C48121E020938102C093A3026F
:101E9000109282021092A4028385682B8CEA95E04E
:101EA0000E940A0FD091A402D13208F092C00E9481
:101EB00074026B017C0180917B02811165C082E01C
:101EC00080937B0281E080937A028FEF8093790286
:101ED00010927802D0937702A3E8B2E0E7E5F2E04F
:101EE00080E0D81385C01092560280915602CC0F24
:101EF000C82BC093560280915502813009F07CC0F6
:101F0000109255020E9474026B017C01809156026E
:101F10008093BB0080917D0290917E02A0917F0210
:101F2000B0918002892B8A2B8B2B99F00E9474022E
:101F300000917D0210917E0220917F0230918002FB
:101F40006C197D098E099F0906171707280739079D
:101F5000E0F18091BC0083FDD9CF85EC8093BC007B
:101F60000E9474026B017C0180917B02823009F433
:101F700045C0809179028F3F61F180917902803272
:101F800041F18091790225C080917D0290917E027D
:101F9000A0917F02B0918002892B8A2B8B2B09F4B0
:101FA0008ACF0E94740200917D0210917E022091DE
:101FB0007F02309180026C197D098E099F090617F6
:101FC00017072807390708F076CF80917C020E9416
:101FD000690E109282021092A40210928102DF9187
:101FE000CF911F910F91FF90EF90DF90CF900895C8
:101FF0009D9191938F5F75CF85EEB0CF80917D02DB
:1020000090917E02A0917F02B0918002892B8A2B51
:102010008B2B09F4A9CF0E94740200917D021091CC
:102020007E0220917F02309180026C197D098E0919
:102030009F09061717072807390708F095CFC5CF5E
:1020400090E080E00895CF93DF93FB0122813381FC
:10205000DC0113963C932E9312974481558166813F
:10206000778114964D935D936D937C93179740857C
:1020700051856285738518964D935D936D937C931E
:102080001B971C96EF012C969C01275E3F4F4991B0
:102090004D93A217B307D9F7218D328DFC01328FF2
:1020A000218FDF91CF9108958F929F92AF92BF922F
:1020B000CF92DF92EF92FF920F931F93CF93DF9314
:1020C00000D000D0CDB7DEB7FC018581813091F022
:1020D00080E00F900F900F900F90DF91CF911F91A4
:1020E0000F91FF90EF90DF90CF90BF90AF909F90B7
:1020F0008F900895848181FFEBCF83899489A5898E
:10210000B689892B8A2B8B2B09F45FC07F0140E0B5
:1021100050E0BA01CF010E9450088823C9F2F701AC
:10212000C38CD48C8788908CA18CB28C82E090E098
:10213000A0E0B0E0F60180839183A283B3839E0187
:102140002F5F3F4FB501A401C6010E9410078823ED
:1021500009F4BECF00E010E09801B501A401C6016A
:102160000E946E06882309F4B3CF89809A80AB80E1
:10217000BC80F6018789803119F188EF9FEFAFEFBE
:10218000BFE088169906AA06BB06C8F2F701178AAF
:10219000108E118E128E138A148A158A168A8481E3
:1021A0008068848361E0C7010E94E409882309F400
:1021B0008FCF40E050E0BA01C7010E94500889CF9C
:1021C00088EF9FEFA0E0B0E0DCCF81E082CFCF923C
:1021D000DF92EF92FF921F93CF93DF93EC0180E2A7
:1021E000689FF0011124EC53FD4F9385917161F0CC
:1021F000842F827449F080E0DF91CF911F91FF908E
:10220000EF90DF90CF900895142F6A8B809100019A
:1022100090910101A0910201B09103018E879F87E7
:10222000A88BB98BC488D588F12CE12C7601DD24EC
:10223000CC24CF8AD88EE98EFA8E828D938DB0E031
:10224000A0E0AC01BD014C295D296E297F294F8B8F
:10225000588F698F7A8F83858871B1F4848D958DBD
:10226000A68DB78D8B8B9C8BAD8BBE8B81E08D83C8
:102270001F701C831E821F82188619861A861B8671
:102280001C861D8681E0B8CF803109F0B4CF9E0155
:102290002D5E3F4F8B8D9C8D0E949107882309F402
:1022A000AACF84E0E4CF0F931F93CF938C01C62F66
:1022B0000E94390F6C2F6460C8010E94390F6C2F87
:1022C0006B7FC8010E94390F83EC90E00197F1F712
:1022D000CF911F910F910895CF93C82F682F607FE2
:1022E00088EB95E00E94531180E1C89FB001112452
:1022F00088EB95E0CF910C945311CF93DF93CDB73A
:10230000DEB728970FB6F894DEBF0FBECDBF98E0BA
:10231000EEE0F1E0DE01119601900D929A95E1F761
:102320009091C005961708F46FEF70E0660F771F65
:1023300021E030E02C0F3D1F620F731FFB019081E5
:10234000890F806828960FB6F894DEBF0FBECDBF08
:10235000DF91CF910C946C1181E00E946C118BE3A2
:102360009FE10197F1F70895E8EBF5E086818E7F14
:10237000868388600C946C110F931F93CF938C010C
:10238000C62F607F61600E94531180E1C89FB00139
:1023900011246160C8010E94531181E090E0CF9147
:1023A0001F910F910895CF93DF93EC018091CA059F
:1023B0009091CB050097E9F06881798161157105ED
:1023C000B1F04091CC055091CD052C813D81421753
:1023D000530768F00E94D3258C819D819093CF058F
:1023E0008093CE051D821C82DF91CF9108950E94BB
:1023F0006C24888199819093CB058093CA058A814A
:102400009B819093CD058093CC058C819D81909389
:10241000CF058093CE05198218821B821A82E2CFE3
:10242000CF93DF93EC0188819981009711F00E948E
:102430006C24198218821D821C821B821A82DF91F1
:10244000CF910895FC0180819181009711F00C9447
:102450006C240895CF93DF93EC01898D9A8D0097BA
:1024600041F00E947C0A898D9A8D0E946C241A8EFC
:10247000198EDF91CF910895FB0101900020E9F7BB
:102480003197AF01461B570BDC01ED91FC910280A7
:10249000F381E02D0994BC0188EB95E00C943C128B
:1024A0000E94AC110E94B41160E081E00E947D1195
:1024B00084E691E00E944B1282E090E09093050147
:1024C000809304011092B7021092B60208950E9400
:1024D000AC110E94B41160E081E00E947D118CE695
:1024E00091E00E944B1261E081E00E947D118BE738
:1024F00091E00E944B1281E090E09093050180935F
:1025000004011092B7021092B60208950F931F9320
:10251000CF93DF93EC0188819981009759F02A814C
:102520003B812617370730F081E0DF91CF911F9173
:102530000F9108958B016F5F7F4F0E94F5240097E4
:1025400059F0998388831B830A832C813D81232B37
:1025500059F7FC011082E8CF80E0E7CFEF92FF92BD
:102560000F931F93CF93DF936115710541F480E0C2
:10257000DF91CF911F910F91FF90EF90089541153A
:102580005105B1F07B01EC010C811D81040F151F79
:10259000B8010E948612882351F3288139818C81E9
:1025A0009D81B701820F931F0E94D3251D830C8349
:1025B00081E0DECFEF92FF920F931F93CF93DF93D3
:1025C000EC017B018A01BA010E94861281110BC0C5
:1025D000CE010E941012CE01DF91CF911F910F9179
:1025E000FF90EF9008951D830C83B7018881998136
:1025F0000E94D325F0CFEF92FF920F931F93CF93BA
:10260000DF9300D0CDB7DEB78C017B01FC011182D6
:102610001082138212821582148250E040E068E931
:1026200071E00E94DA12C7010E941B0E97FD0EC0D6
:102630008A30910559F089831A8241E050E0BE0149
:102640006F5F7F4FC8010E94AE12EDCFC8010F909F
:102650000F90DF91CF911F910F91FF90EF90089510
:10266000CF93DF93EC01FB018617970749F0608158
:1026700071816115710541F0448155810E94DA1222
:10268000CE01DF91CF9108950E941012F9CFFC0185
:10269000118210821382128215821482FB01019032
:1026A0000020E9F73197AF01461B570B0C94DA1263
:1026B0003F924F925F926F927F928F929F92AF92D2
:1026C000BF92CF92DF92EF92FF920F931F93CF931F
:1026D000DF93CDB7DEB72B970FB6F894DEBF0FBEF2
:1026E000CDBF7C01FE013196CE010C966F0130E228
:1026F00031938E179F07E1F7DA0130E087E09D9173
:10270000B92E992309F43CC09E32F1F48A30C9F401
:1027100080E02B960FB6F894DEBF0FBECDBFDF91E1
:10272000CF911F910F91FF90EF90DF90CF90BF90CE
:10273000AF909F908F907F906F905F904F903F9061
:10274000089538E08AE0DBCFE8E6F0E044914423E6
:1027500021F031969413FACFDBCF8317C8F24FEDF7
:10276000490F4E35A8F64FE9490F4A3118F440EEAB
:10277000B42EB90EF601E30FF11DB0823F5FBFCF5B
:102780008981803229F2322E8B01DB015B968D919B
:102790009C915C97F701948F838F16961D921D92E2
:1027A0001D921C921997FB011286138614861586BA
:1027B000F80182859385A485B58543895489658907
:1027C000768984179507A607B70708F04DC025E05E
:1027D000B695A795979587952A95D1F7F82FFF700D
:1027E000AF2ED80115968C91823008F491CFC80194
:1027F0000E94F10C97FD8CCFF80182859385A4850A
:10280000B5854F96A11DB11D82879387A487B58793
:10281000F0E2AF9EB00111246C537D4F611571053C
:1028200009F476CFDB018C91882341F0853E09F0D5
:1028300058C0BB2029F0BB24B394BACFB1100EC04E
:10284000F701A28A8091000190910101A0910201FB
:10285000B091030186879787A08BB18BDB018C91A8
:102860008111E9CFBB24B394832D8271823109F0A9
:102870004FCFBB2009F443C0C7010E942C0500972D
:1028800009F446CF20E2FC0111922A95E9F72BE0EA
:10289000F601DC0101900D922A95E1F721E238E280
:1028A000DC0151963C932E93509740E058E01F96E0
:1028B0005C934E931E9753963C932E935297599642
:1028C0003C932E93589757965C934E93569781E07E
:1028D0000E94B704882309F41BCF432DF7016289B6
:1028E0000AC04BE050E0C6010E94B225892B09F0D6
:1028F0005FCF432D6A2DC7010E94E7100ACFF80170
:102900008581823009F404CFC8010E94E40888233D
:1029100009F4FECED8015B96ED91FC915C9716967A
:102920008D909D90AD90BC901997B2E08B1A910854
:10293000A108B108858504C0880C991CAA1CBB1C81
:102940008A95D2F786859785A089B189880E991EC8
:10295000AA1EBB1E848124013501480E511C611C36
:10296000711C481459046A047B0409F1E1E04E1A11
:1029700051086108710881E00E94B704882309F4B6
:10298000C7CEE4ECF2E0119284EC94E08E179F073E
:10299000D1F74092000150920101609202017092C1
:1029A00003018091A70281608093A702DACFD8014A
:1029B0005B96ED91FC91258580E092E0A0E0B0E08F
:1029C00004C0880F991FAA1FBB1F2A95D2F7F801D0
:1029D0004389548965897689840F951FA61FB71F7F
:1029E000838B948BA58BB68BD70152961C9284EC6B
:1029F00092E048CFEF92FF920F931F93CF93DF9314
:102A0000EC017B018A011B821A8288EE93E0A0E030
:102A1000B0E08C839D83AE83BF8386E591E099838C
:102A200088838DE190E00E94D0239A8F898F009750
:102A300079F02DE1F701DC0101900D922A95E1F783
:102A40004CE050E0B801CE010C960E94DA25188EB9
:102A5000DF91CF911F910F91FF90EF9008952F92EA
:102A60003F924F925F926F927F928F929F92AF921E
:102A7000BF92CF92DF92EF92FF920F931F93CF936B
:102A8000DF93CDB7DEB7C756D1090FB6F894DEBFD6
:102A90000FBECDBF6C015B01A6964FAFA69719A2E2
:102AA00018A28CE291E09F8F8E8F1BA21C821B824A
:102AB0009A8389831E824E018EE1880E911CC40187
:102AC0000E94FC0775018E010F5F1F4F2401180142
:102AD0006FE270E0C7010E94C825009709F45DC04D
:102AE000F70120812F3271F4FFEFEF1AFF0A902FC8
:102AF000812F8201492E582E942D852D2801092FD2
:102B0000182FE6CF8E198D3008F08CE0682E712CCE
:102B1000A301B701CE01885A9F4F0E94DA25E8E54C
:102B2000F0E0EC0FFD1FE60DF71D1082C8010E94BA
:102B30007C0AF8018581882301F11EAE1DAE8CE26E
:102B400091E09CAF8BAF21961FAE2197A896EEAD7A
:102B5000FFADA897AE0EBF1EF501808181112AC07E
:102B6000BE01655C7F4FC1010E94350C48E851E011
:102B7000B101C6010E94FA143BC021E0AE01485ADF
:102B80005F4FB201C8010E9458138823B1F2E60CCE
:102B9000F71CC2010E947C0AAFCFC7018A199B09AA
:102BA000A8969FAF8EAFA897B201CE01CB960E9498
:102BB000350CCCCF19A218A28CE291E09F8F8E8F9A
:102BC0001BA221968FAD219781112DC0F601138292
:102BD000128288EE93E0A0E0B0E084839583A68320
:102BE000B78386E591E091838083128E118E1486DF
:102BF000C601C959DF4F0FB6F894DEBF0FBECDBF77
:102C0000DF91CF911F910F91FF90EF90DF90CF90C8
:102C1000BF90AF909F908F907F906F905F904F90FC
:102C20003F902F900895A6962FADA697A501BE01BF
:102C3000655C7F4FC4010E945813882339F2CE018E
:102C4000CB960E947C0AA6968FADA697867086309A
:102C500039F449A95AA96BA97CA9C4010E9450085A
:102C6000B401C1010E94350CA50182CF85ED80938E
:102C7000BC0080917D0290917E02A0917F02B09174
:102C800080020796A11DB11D23E0B695A7959795E3
:102C900087952A95D1F72091BC0024FD03C010929E
:102CA0007B02089540917D0250917E0260917F02E7
:102CB00070918002452B462B472B69F30097A105A5
:102CC000B10541F025E32A95F1F700000197A1092C
:102CD000B109E1CF80917C020C94690E4F925F9212
:102CE0006F927F928F929F92AF92BF92CF92DF921C
:102CF000EF92FF920F931F93CF93DF93CDB7DEB781
:102D0000C85ED7400FB6F894DEBF0FBECDBF60914E
:102D1000C4057091C50541E0CE0101960E942F15B2
:102D2000BE016F5F7F4F8BEE95E00E94231047E15D
:102D30006AE871E0CE0101960E942F15BE016F5F17
:102D40007F4F80ED95E00E942310C090CA05D0907F
:102D5000CB058E010F52184FCE0101967C0160E029
:102D600070E0CB01C114D10419F0C6010E942221E8
:102D7000F701619371937F010E171F0781F7CC2430
:102D8000C394D12CCC0EDD1EF8E3CF1AF8EFDF0A86
:102D90008BEE95E00E948E0C892B09F4B7C06BEE88
:102DA00075E0C8010E94FB12C8010E94D311C8013E
:102DB0000E942212CE0101967C01F701A190B190F0
:102DC0007F0160817181072E000C880B990B0E9496
:102DD000952128E432EB42E75EE30E94D0212B01EB
:102DE0003C01B501BB0C880B990B0E9495212FEA81
:102DF00034EB48EE5CE30E94D0219B01AC01C3019F
:102E0000B2010E9421234B015C01F70162817381B1
:102E1000072E000C880B990B0E94952122E237E3C4
:102E200040EF5EE30E94D0219B01AC01C501B401DB
:102E30000E9421234B015C01F70164817581072EFB
:102E4000000C880B990B0E94952128E432EB42E795
:102E50005EE30E94D0219B01AC01C501B4010E9438
:102E600021234B015C01F70166817781072E000C5D
:102E7000880B990B0E9495212FEA34EB48EE5CE316
:102E80000E94D0219B01AC01C501B4010E94212305
:102E90000E948D23CB01CD51D84F19821882C35E79
:102EA000D740CB51D84F19821882C55ED740C9513F
:102EB000D84F19821882C75ED7404AE0B8010E94F5
:102EC0004921F80101900020E9F73197AF01401B3B
:102ED000510BB801CE018D51984F0E94DA12BE01FC
:102EE0006D51784F80ED95E00E94960066E971E0A3
:102EF00080ED95E00E943C12CE018D51984F0E94CA
:102F00002212CE14DF0409F058CF42CF80ED95E0B5
:102F10000E942A128BEE95E00E942A12C851D84FC7
:102F20000FB6F894DEBF0FBECDBFDF91CF911F91DA
:102F30000F91FF90EF90DF90CF90BF90AF909F9058
:102F40008F907F906F905F904F9008951F920F9297
:102F50000FB60F9211242F933F934F935F936F936C
:102F60007F938F939F93AF93BF93EF93FF9384ECE3
:102F700094E00E942201FF91EF91BF91AF919F9148
:102F80008F917F916F915F914F913F912F910F9012
:102F90000FBE0F901F9018951F920F920FB60F92B1
:102FA00011242F938F939F93EF93FF93E091D40479
:102FB000F091D5048081E091DA04F091DB0482FD88
:102FC0001BC090818091DD048F5F8F732091DE04A0
:102FD000821741F0E091DD04F0E0EC53FB4F958F58
:102FE0008093DD04FF91EF919F918F912F910F902E
:102FF0000FBE0F901F9018958081F4CF1F920F92F3
:103000000FB60F9211242F933F938F939F93AF93FB
:10301000BF938091AD029091AE02A091AF02B091AA
:10302000B0023091AC0223E0230F2D3758F5019602
:10303000A11DB11D2093AC028093AD029093AE020E
:10304000A093AF02B093B0028091B1029091B2020E
:10305000A091B302B091B4020196A11DB11D80935D
:10306000B1029093B202A093B302B093B402BF91A5
:10307000AF919F918F913F912F910F900FBE0F9025
:103080001F90189526E8230F0296A11DB11DD2CFDF
:103090001F920F920FB60F9211242F933F934F93CD
:1030A0005F936F937F938F939F93AF93BF93EF93B0
:1030B000FF938091B900887F803609F44AC0F0F50B
:1030C000883209F4A5C018F5803109F499C0B8F424
:1030D000882309F4F5C0883009F492C0FF91EF917C
:1030E000BF91AF919F918F917F916F915F914F9120
:1030F0003F912F910F900FBE0F901F901895883120
:1031000009F486C0803251F78093790214C080346C
:1031100009F49BC040F48033B9F38833F9F6809307
:10312000790285ECAEC0803509F483C0883509F496
:1031300094C0883499F60E943616D0CF883909F4A5
:103140008AC038F5883729F050F4883611F0803776
:1031500029F683E080937B021092540255C0883890
:1031600009F479C0803919F0803809F0B7CF80911F
:103170005402803208F06FC0E091540281E08E0F5B
:10318000809354028091BB00F0E0EC5CFD4F8083A3
:103190003BC0803B39F0D0F4803A09F477C0883ADC
:1031A00009F09CCF84E080937B021092330210924E
:1031B0003202F0E0E0E009958091320281110FC007
:1031C00081E0809332021092120209C0803C09F41F
:1031D000A8CF883C09F4A5CF883B09F07FCFE091C8
:1031E000330281E08E0F80933302F0E0EE5EFD4FFC
:1031F00080818093BB00909133028091320229C07C
:10320000809156028093BB0085EC8093BC0066CF12
:103210009091780280917702981758F5E0917802A2
:1032200081E08E0F80937802F0E0E95AFD4F8081B3
:10323000E9CFE091780281E08E0F8093780280914F
:10324000BB00F0E0E95AFD4F8083909178028091B5
:1032500077029817C8F285E8D8CFE091780281E02C
:103260008E0F809378028091BB00F0E0E95AFD4F09
:10327000808380917A0281115ECF81E08093550234
:1032800084EA8093BC0010927B0228CF85EC809367
:10329000BC0010927B0280915402803230F4E091A5
:1032A0005402F0E0EC5CFD4F10826091540270E03B
:1032B00084E392E0F0E0E0E00995109254020ECF32
:1032C0001092790238CFE4ECF4E01382128288EE97
:1032D00093E0A0E0B0E084839583A683B7832AE1DE
:1032E00031E03183208325EC30E03587248724ECDE
:1032F00030E03787268720EC30E0318B208B21ECC3
:1033000030E0338B228B22EC30E0358B248B26ECA3
:1033100030E0378B268B118E128E138E148EE1E6E1
:10332000F5E020E520831182E3E6F5E015821682C0
:103330001186138642E050E060E070E044875587D4
:103340006687778713A215A614A62CE231E033A76F
:1033500022A717A6ECEAF5E01382128284839583F4
:10336000A683B78328E331E031832083E1E2F6E0EE
:103370001382128284839583A683B78326E531E086
:1033800031832083128E118E1486E6E0F6E01382DC
:10339000128284839583A683B78331832083128E20
:1033A000118E1486EBEEF5E01382128284839583EE
:1033B000A683B78331832083128E118E1486E0EDAD
:1033C000F5E01382128284839583A683B7833183C9
:1033D0002083128E118E148668E971E08AEC95E0E4
:1033E0000E94471368E971E084EC95E00E9447135E
:1033F000E8EBF5E0138212828AE491E09183808306
:1034000080E2848384E1818784E082871386089543
:10341000CF93DF93CDB7DEB7C856D1090FB6F89476
:10342000DEBF0FBECDBF789484B5826084BD84B505
:10343000816084BD85B5826085BD85B5816085BDAF
:1034400080916E00816080936E0010928100809167
:1034500081008260809381008091810081608093EF
:103460008100809180008160809380008091B10014
:1034700084608093B1008091B00081608093B0003F
:1034800080917A00846080937A0080917A008260D3
:1034900080937A0080917A00816080937A00809195
:1034A0007A00806880937A001092C10081EE8AB918
:1034B00080919205882321F08DE895E00E947C0A96
:1034C00010926E0510926C051092690510926805B5
:1034D0008AE0809367050E94CB028B0161E08091B6
:1034E00067050E94310261E0809167050E94030236
:1034F000FFB6F8948091B502811127C0E8ECF0E0A6
:103500008491E4EBF0E09491E82FF0E0EE0FFF1FE0
:10351000E056FF4FA591B491EC91E92321F461E0CD
:103520008AE00E94030261E08AE00E9431028CB5C9
:1035300080618CBD8CB580648CBD61E08DE00E94A3
:10354000310261E08BE00E9431028091B5028F5F11
:103550008093B502FFBE82E58093610510926205FB
:1035600080916105909162050E940D03EAE0FE2EB4
:103570008FEF0E94E802FA94F110FACF83E695E00B
:103580000E94100320E030E0A90160E083E695E0AE
:103590000E942603F82E80936D0521E0821779F0B2
:1035A0000E94CB02601B710B613D774058F381E0B4
:1035B0008093680583E695E00E94DD02FFCF2AEA4A
:1035C00031E040E050E068E083E695E00E942603A9
:1035D00082FF2AC0F0926E0580916E05C12CD12C1D
:1035E000E12C60E4F62E823019F0C12CD12C76014A
:1035F00020E030E0A90167E383E695E00E9426031E
:10360000A701960169E283E695E00E942603809374
:103610006D058823D1F00E94CB02601B710B613DC8
:10362000774030F388E0C4CF74E0F72E0E94EF02B9
:1036300080936D05FA94F110F9CF8A3A11F082E087
:10364000B7CF82E080936E05C7CF80916E05823040
:10365000D1F420E030E0A9016AE383E695E00E941E
:103660002603882311F086E0A3CF0E94EF02807C1E
:10367000803C19F483E080936E050E94EF020E9463
:10368000EF020E94EF0283E695E00E94DD0280E5F2
:10369000809361051092620581E00E9445058823B0
:1036A00039F08DE895E00E94FC07811107C086CFB4
:1036B00080E00E9445058111F4CF80CF8091BD0547
:1036C00088608093BD0542E0F42EF092C00562E36D
:1036D00070E080E090E00E9499026091C30588EB61
:1036E00095E00E94390F68EE73E080E090E00E9460
:1036F000990260E388EB95E00E9453110BE416E415
:10370000C8010197F1F760E388EB95E00E9453113F
:10371000C8010197F1F760E388EB95E00E9453112F
:1037200083E592E00197F1F760E288EB95E00E9473
:1037300053118091BD0580620E946C1184E08093DA
:10374000BE058CE00E946C110E94AC11F092BF0586
:1037500086E00E946C1182E00E946C118BE39FE175
:103760000197F1F760E088E00E94310260E089E0B3
:103770000E94310289E991E00E944B1268EE73E0E9
:1037800080E090E00E9499020E9467125AE0852E24
:10379000912CA12CB12C8FE00E9462029093C10267
:1037A0008093C00280E10E9462029093BF028093E6
:1037B000BE0288E00E94DA019093BD028093BC02B1
:1037C00081E10E9462029093BB028093BA0289E079
:1037D0000E94DA019093B9028093B802E09006014A
:1037E000F090070168EA71E0CE01CF960E9447137E
:1037F0001BA21AA21DA21CA21FA21EA2BE01615CD6
:103800007F4FCE0182960E9430134AE08E010F5FF7
:103810001F4FB801C7010E944921F8010190002003
:10382000E9F73197AF01401B510BB801CE018296E9
:103830000E94AE12811104C0CE0182960E94101225
:10384000BE016E5D7F4F84EC95E00E943013CE0187
:1038500082960E942212CE01CF960E9422121BA2B3
:103860001AA21DA21CA21FA21EA264EC75E0CE012A
:1038700082960E9430131A8219821C821B821E8239
:103880001D82BE016E5D7F4FC8010E94301344E06F
:1038900050E061E971E0C8010E94AE12811103C0DD
:1038A000C8010E941012B80184EC95E00E94301308
:1038B000C8010E942212CE0182960E94221280919B
:1038C000C0029091C102853893400CF4AEC00E94B2
:1038D000B4116091C4057091C50547E1C8010E940B
:1038E0002F15B80181E296E00E9423108091C0025A
:1038F0009091C102853893400CF474C00E94AC11C1
:1039000080EB91E00E944B1234E0E32EF12C8AEB25
:1039100091E00E944B1262E370E080E090E00E9430
:10392000990221E0E21AF10891F78FE00E94620209
:103930009093C1028093C0020E94AC118EE00E945D
:1039400062022FEF30E0DC010E94C3232FEF33E04F
:1039500040E050E00E948E2269017A01F7FE2EC0FD
:103960006DE281E296E00E94DB0C22273327A90159
:103970002C193D094E095F0919A2CE0181967C01DF
:10398000CA01B901A50194010E94EF22605DF7010F
:1039900062937F01211531054105510589F7E11435
:1039A000F10429F0B70181E296E00E943C1266E939
:1039B00071E081E296E00E943C1298CF19A2CE01FC
:1039C00081967C01CA01B901A50194010E94EF22F0
:1039D000605DF70162937F012115310541055105B5
:1039E00089F7DDCF81E296E00E942A128CEB91E00C
:1039F0000E944B12809106019091070101969093CD
:103A000007018093060168EE73E080E090E00E9479
:103A100099020E9467121092B7021092B60281E0DA
:103A200090E090930501809304018091BE029091F3
:103A3000BF02853893409CF060E080E00E947D11D9
:103A40008091BE05982F91609093BE0589600E9479
:103A50006C1181E090E09093B7028093B602809160
:103A6000BC029091BD02019799F461E080E00E9450
:103A70007D118091BE05982F91609093BE0589605D
:103A80000E946C1182E090E09093B7028093B6029E
:103A90008091BA029091BB0285389340A4F0809146
:103AA000040190910501019771F4E090B602F09045
:103AB000B70281E0E816F10431F40E945012F0924E
:103AC0000701E09206018091BA029091BB0285380D
:103AD000934044F1E0900401F0900501F1E0EF160D
:103AE000F10401F58091B6029091B7020297D1F4EA
:103AF0000E94AC110E94B41160E081E00E947D112F
:103B000084E691E00E944B1284E690E090930501D8
:103B1000809304011092B7021092B602F09207014E
:103B2000E09206018091BA029091BB0285389340E1
:103B300044F18091040190910501029711F5E09004
:103B4000B602F090B70282E0E816F104D1F40E94C8
:103B5000AC110E94B41160E081E00E947D1187ECFD
:103B600091E00E944B1283E090E0909305018093D6
:103B700004011092B7021092B602F0920701E0928F
:103B800006018091BA029091BB028538934044F1BE
:103B9000E0900401F0900501F3E0EF16F10401F567
:103BA0008091B6029091B7020297D1F40E94AC11B5
:103BB0000E94B41160E081E00E947D118FEC91E0E1
:103BC0000E944B1284E090E09093050180930401E1
:103BD0001092B7021092B602F0920701E09206012D
:103BE0008091BA029091BB028538934044F1E090F5
:103BF0000401F090050184E0E816F10401F58091DC
:103C0000B6029091B7020297D1F40E94AC110E94C3
:103C1000B41160E081E00E947D1187ED91E00E9487
:103C20004B1285E090E0909305018093040110927F
:103C3000B7021092B602F0920701E092060180915D
:103C4000BA029091BB02853893404CF180910401F7
:103C5000909105018436910511F5E090B602F0903F
:103C6000B702F2E0EF16F104D1F40E94AC110E9409
:103C7000B41160E081E00E947D1187EC91E00E9428
:103C80004B1285E690E09093050180930401109219
:103C9000B7021092B602F0920701E09206018091FD
:103CA000BA029091BB02853893404CF18091040197
:103CB000909105018536910511F58091B60290919C
:103CC000B7020297E1F40E94AC110E94B41160E0C7
:103CD00081E00E947D118FEC91E00E944B1286E6FC
:103CE00090E090930501809304011092B702109226
:103CF000B60283E090E090930701809306018091E3
:103D0000BA029091BB02853893404CF18091040136
:103D1000909105018636910511F58091B60290913A
:103D2000B7020297E1F40E94AC110E94B41160E066
:103D300081E00E947D1187ED91E00E944B1287E6A1
:103D400090E090930501809304011092B7021092C5
:103D5000B60284E090E09093070180930601809181
:103D6000BA029091BB02853893405CF18091B60213
:103D70009091B702019729F5809104019091050176
:103D800002970497F0F40E94AC110E94B41160E015
:103D900081E00E947D118FED91E00E944B1261E065
:103DA00081E00E947D118EEE91E00E944B1286E030
:103DB00090E090930501809304011092B702109255
:103DC000B6028091BA029091BB02853893400CF400
:103DD000D6C08091B6029091B702019709F064C0F5
:103DE0008091040190910501069709F05DC00E9441
:103DF000AC110E94B41160E081E00E947D1164EC7E
:103E000075E088EB95E00E94960024E0E22EF12C0C
:103E10008AEB91E00E944B1262E370E080E090E058
:103E20000E94990281E0E81AF10891F76091C405B7
:103E30007091C50541E0C8010E942F15B80186E0C8
:103E400096E00E942310E0911F06F0912006309723
:103E500019F18581882301F186E096E00E948E0C9D
:103E6000892BB1F066E076E0C8010E94FB12C80120
:103E70000E94D311C8010E9422128091CA0590911C
:103E8000CB0560E0009711F00E9422216BB9E4CFCE
:103E900086E096E00E942A128091BA029091BB02BD
:103EA000853893400CF46BC08091B6029091B702B4
:103EB000029709F06BC0809104019091050106976B
:103EC00009F064C00E94AC110E94B41160E081E06E
:103ED0000E947D1164EC75E088EB95E00E949600ED
:103EE00094E0E92EF12C8AEB91E00E944B1262E300
:103EF00070E080E090E00E949902F1E0EF1AF10892
:103F000091F761E081E00E947D1189EE91E00E94CD
:103F10004B120E946E1641E06AE871E0C8010E94EF
:103F20002F15B80186E096E00E942310E0911F064D
:103F3000F0912006309719F18581882301F186E000
:103F400096E00E948E0C892BB1F066E076E0C80105
:103F50000E94FB12C8010E94D311C8010E942212C4
:103F60008091CA059091CB0560E0009711F00E9406
:103F700022216BB9E4CF86E096E00E942A1280915C
:103F8000BA029091BB028538934064F18091B602E9
:103F90009091B702019731F580910401909105014C
:103FA000845691090497F0F40E94AC110E94B41158
:103FB00060E081E00E947D1187EF91E00E944B124A
:103FC00061E081E00E947D118FEF91E00E944B1231
:103FD00088E690E090930501809304011092B70267
:103FE0001092B6028091BA029091BB02853893403C
:103FF0000CF4DCC080910401909105018836910594
:1040000009F0D4C08091B6029091B702019709F0EF
:10401000CDC0C090C405D090C50523961FAE1EAE7E
:1040200023978CE291E021969FAF8EAF2197259642
:104030001FAE25971DA21CA29BA38AA31FA2312CF1
:10404000412CCE01CF963C018DE8E82E85E0F82E7C
:10405000832D942DF601E80FF91F20812F3209F4EA
:104060000196D601A80FB91FFE01E45AFF4F30E0B8
:1040700020E0AF016D916F3249F0662339F001966F
:104080002F5F3F4F61932C303105A1F7240F351F6F
:10409000F9011082F601E80FF91F20812F3209F48F
:1040A0000196382E492E8C0D9D1DFC0180818111B9
:1040B00028C01C821B828CE291E09A8389831E8235
:1040C00022E0B701C8010E945813882389F0C80173
:1040D0000E945410882361F0C8010E942C050097AB
:1040E00039F025EEFC0120831E8281E00E94B70496
:1040F000FDE8EF16F5E0FF06C9F0C7010E947C0A53
:1041000015C0F301858181118EC021E0B701C30183
:104110000E945813582E2DE8E21625E0F20609F405
:1041200076C0C7010E947C0A511077C00E94AC1172
:104130000E94B41160E081E00E947D1166E072E0AF
:10414000C8010E9447131BA21AA21DA21CA21FA2F3
:104150001EA2B801CE0182960E9430134091C8057C
:104160005091C9056091C4057091C505CE01829634
:104170000E94AE12811104C0CE0182960E941012DC
:10418000BE016E5D7F4F88EB95E00E949600CE01E8
:1041900082960E942212C8010E94221268EE73E0E9
:1041A00080E090E00E9499020E9467128091B8021C
:1041B0009091B902019781F48091040190910501D9
:1041C0009C01225031092430310520F08456910998
:1041D000049710F40E9467128091B8029091B9027E
:1041E000019741F48091040190910501069711F423
:1041F0000E94501280E090E0892B09F4CCCA0E9402
:104200000E01882309F4C7CA0E940000C4CA88238B
:1042100009F48CCFFE01B2967F019E2D8F2D730184
:10422000692E782E15CF2DE8E21625E0F20609F466
:104230007DCF63CF84EC95E00E9422128AEC95E05A
:104240000C9422121F93FC0199278827BC01E89443
:1042500011911032E9F3193010F01E30C8F31B32FF
:1042600051F01D3249F4689406C00E945421610F38
:10427000711D811D911D119110531A30B0F33EF440
:1042800090958095709561957F4F8F4F9F4F1F91AF
:104290000895BB274A3031F4992322F4BDE290956A
:1042A00081959F4F0C946A21592F482F372F262F25
:1042B000660F771F881F991F660F771F881F991F2A
:1042C000620F731F841F951F660F771F881F991F2A
:1042D0000895BB27FB015527AA27880F991FAA1FFE
:1042E000A41710F0A41B83955051B9F7A05DAA3311
:1042F00008F0A95DA193009779F7B111B1931192DC
:10430000CB010C948321DC01FC01672F7191772391
:10431000E1F7329704C07C916D9370836291AE1780
:10432000BF07C8F30895E89409C097FB3EF4909541
:104330008095709561957F4F8F4F9F4F9923A9F07E
:10434000F92F96E9BB279395F6958795779567950D
:10435000B795F111F8CFFAF4BB0F11F460FF1BC051
:104360006F5F7F4F8F4F9F4F16C0882311F096E9E4
:1043700011C0772321F09EE8872F762F05C0662392
:1043800071F096E8862F70E060E02AF09A95660F4B
:10439000771F881FDAF7880F9695879597F9089504
:1043A0000E94E3210C9454220E94462238F00E947D
:1043B0004D2220F0952311F00C943D220C944322C1
:1043C00011240C9488220E94652270F3959FC1F3FA
:1043D000950F50E0551F629FF001729FBB27F00DB3
:1043E000B11D639FAA27F00DB11DAA1F649F662708
:1043F000B00DA11D661F829F2227B00DA11D621F57
:10440000739FB00DA11D621F839FA00D611D221F10
:10441000749F3327A00D611D231F849F600D211DF4
:10442000822F762F6A2F11249F5750409AF0F1F077
:1044300088234AF0EE0FFF1FBB1F661F771F881FE0
:1044400091505040A9F79E3F510580F00C943D22B9
:104450000C9488225F3FE4F3983ED4F386957795D9
:104460006795B795F795E7959F5FC1F7FE2B880F86
:10447000911D9695879597F9089597F99F6780E81C
:1044800070E060E008959FEF80EC089500240A94A6
:104490001616170618060906089500240A9412161F
:1044A0001306140605060895092E0394000C11F452
:1044B000882352F0BB0F40F4BF2B11F460FF04C0FF
:1044C0006F5F7F4F8F4F9F4F089557FD9058440F58
:1044D000551F59F05F3F71F04795880F97FB991F63
:1044E00061F09F3F79F08795089512161306140620
:1044F000551FF2CF4695F1DF08C0161617061806AD
:10450000991FF1CF86957105610508940895E89487
:10451000BB2766277727CB0197F90895052E97FBD0
:104520001EF400940E94A52257FD07D00E94EF229E
:1045300007FC03D04EF40C94A5225095409530957D
:1045400021953F4F4F4F5F4F0895909580957095FF
:1045500061957F4F8F4F9F4F08950E941123A59F14
:10456000900DB49F900DA49F800D911D112408956E
:104570002F923F924F925F926F927F928F929F9273
:10458000AF92BF92CF92DF92EF92FF920F931F9361
:10459000CF93DF93CDB7DEB7CA1BDB0B0FB6F89412
:1045A000DEBF0FBECDBF09942A88398848885F8452
:1045B0006E847D848C849B84AA84B984C884DF80C3
:1045C000EE80FD800C811B81AA81B981CE0FD11DA7
:1045D0000FB6F894DEBF0FBECDBFED010895A1E286
:1045E0001A2EAA1BBB1BFD010DC0AA1FBB1FEE1F6D
:1045F000FF1FA217B307E407F50720F0A21BB30BB8
:10460000E40BF50B661F771F881F991F1A9469F733
:1046100060957095809590959B01AC01BD01CF018F
:104620000895A29FB001B39FC001A39F700D811D8B
:104630001124911DB29F700D811D1124911D0895AB
:104640005058BB27AA270E9438230C9454220E945A
:10465000462238F00E944D2220F039F49F3F19F491
:1046600026F40C9443220EF4E095E7FB0C943D22D3
:10467000E92F0E94652258F3BA176207730784076F
:10468000950720F079F4A6F50C9487220EF4E095B6
:104690000B2EBA2FA02D0B01B90190010C01CA01FC
:1046A000A0011124FF27591B99F0593F50F4503EA7
:1046B00068F11A16F040A22F232F342F4427585F99
:1046C000F3CF469537952795A795F0405395C9F7B1
:1046D0007EF41F16BA0B620B730B840BBAF0915069
:1046E000A1F0FF0FBB1F661F771F881FC2F70EC008
:1046F000BA0F621F731F841F48F4879577956795DB
:10470000B795F7959E3F08F0B0CF9395880F08F0C6
:104710009927EE0F9795879508950E9494236894A2
:10472000B1110C94882208950E946D2288F09F5741
:1047300098F0B92F9927B751B0F0E1F0660F771FC5
:10474000881F991F1AF0BA95C9F714C0B13091F0BB
:104750000E948722B1E008950C948722672F782F5A
:104760008827B85F39F0B93FCCF386957795679580
:10477000B395D9F73EF490958095709561957F4FEC
:104780008F4F9F4F08950E941123B7FF0895821BFA
:10479000930B0895EE0FFF1F0590F491E02D0994FF
:1047A0000F931F93CF93DF938230910510F482E033
:1047B00090E0E0913E06F0913F0630E020E0B0E06E
:1047C000A0E0309799F42115310509F44AC0281B5F
:1047D000390B24303105D8F58A819B81611571052B
:1047E00089F1FB0193838283FE0111C040815181D5
:1047F0000281138148175907E0F04817590799F4C7
:10480000109761F012960C93129713961C933296A0
:10481000CF01DF91CF911F910F91089500933E0634
:1048200010933F06F4CF2115310551F0421753077D
:1048300038F0A901DB019A01BD01DF01F801C1CF08
:10484000EF01F9CF90933F0680933E06CDCFFE0156
:10485000E20FF31F8193919322503109398328830A
:10486000D7CF20913C0630913D06232B41F4209177
:104870000A0130910B0130933D0620933C062091B4
:104880000801309109012115310541F42DB73EB7DA
:1048900040910C0150910D01241B350BE0913C0619
:1048A000F0913D06E217F307A0F42E1B3F0B2817EB
:1048B000390778F0AC014E5F5F4F2417350748F099
:1048C0004E0F5F1F50933D0640933C06819391939A
:1048D0009FCFF0E0E0E09CCFCF93DF930097E9F02B
:1048E000FC01329713821282A0913E06B0913F06DE
:1048F000ED0130E020E01097A1F420813181820F9A
:10490000931F20913C0630913D062817390709F086
:1049100061C0F0933D06E0933C06DF91CF9108958E
:10492000EA01CE17DF07E8F54A815B819E01411558
:104930005105B1F7E901FB83EA8349915991C40F0D
:10494000D51FEC17FD0761F4808191810296840FD9
:10495000951FE90199838883828193819B838A8350
:10496000F0E0E0E012968D919C9113970097B9F5D5
:104970002D913C911197CD010296820F931F2091AA
:104980003C0630913D062817390739F6309751F526
:1049900010923F0610923E06B0933D06A0933C064F
:1049A000BCCFD383C28340815181840F951FC81728
:1049B000D90761F44E5F5F4F88819981480F591F75
:1049C000518340838A819B819383828321153105A2
:1049D00009F0B0CFF0933F06E0933E069ECFFD0175
:1049E000DC01C0CF13821282D7CFB0E0A0E0EBEFA2
:1049F000F4E20C94BA228C01009751F4CB010E948E
:104A0000D0238C01C801CDB7DEB7E0E10C94D622EB
:104A1000FC01E60FF71F9C0122503109E217F30752
:104A200008F49DC0D901CD91DC911197C617D70725
:104A300098F0C530D10530F3CE010497861797075B
:104A400008F3C61BD70B2297C193D1936D937C9328
:104A5000CF010E946C24D6CF5B01AC1ABD0A4C0179
:104A60008C0E9D1EA0913E06B0913F06512C412C0C
:104A7000F12CE12C109731F580913C0690913D0688
:104A80008815990509F05CC04616570608F058C00D
:104A90008091080190910901009741F48DB79EB76C
:104AA00040910C0150910D01841B950BE817F907FB
:104AB00008F055C0F0933D06E0933C06F901718380
:104AC0006083A0CF8D919C91119712966C90129754
:104AD00013967C901397A815B90559F56C0142E01F
:104AE000C40ED11CCA14DB0420F1AC014A195B09C5
:104AF000DA011296159780F06282738251834083A7
:104B0000D9016D937C93E114F10471F0D7011396F0
:104B1000FC93EE93129776CF22968C0F9D1FF9018E
:104B200091838083F301EFCFF0933F06E0933E063D
:104B300069CF4816590608F42C017D01D3019ACF9C
:104B4000CB010E94D0237C01009749F0AE01B8014F
:104B50000E94BF25C8010E946C24870153CF10E03A
:104B600000E050CFFB01DC0104C08D910190801961
:104B700021F441505040C8F7881B990B0895FB0160
:104B8000DC0102C001900D9241505040D8F70895C9
:104B9000FC018191861721F08823D9F79927089580
:104BA0003197CF010895FB01DC0101900D920020A7
:104BB000E1F70895FB01DC014150504048F00190BD
:104BC0000D920020C9F701C01D9241505040E0F7FE
:104BD000089510E0CAE6D0E004C0FE010E94CA2396
:0C4BE0002196CB36D107C9F7F894FFCF1F
:104BEC00FFFFFFFF010001000000400680000000F5
:104BFC00400014005400000000004401A400D10047
:104C0C0091010201E000F40000000000240CA4005B
:104C1C001E0A9500000000000A0FDD0E2010CF0EBA
:104C2C00D60ED30ED00E00000000BC11A400201034
:104C3C00950000000000DB0CBE0CAE0C850C8E0C3D
:104C4C00110E450E417564696F203100506C61790D
:104C5C004261636B20417564696F0044656C6574D7
:104C6C006520417564696F002F006C6F77706173FC
:104C7C00732E747874000D0A00566F6963652052A8
:104C8C0065636F7264657200446576696E64690071
:104C9C005265636F7264696E67002E0046696C65BD
:104CAC0020536176656400417564696F2032004160
:104CBC007564696F203300417564696F2034004E50
:104CCC006F20456666656374007769746820456675
:104CDC0066656374203100436F6E6669726D0043C4
:104CEC00616E63656C0044656C65746564200000DE
:00000001FF
