:100000000C9462000C948A000C948A000C948A0070
:100010000C948A000C948A000C948A000C948A0038
:100020000C948A000C948A000C948A000C948A0028
:100030000C948A000C948A000C948A000C948A0018
:100040000C9406050C948A000C94D4040C94AE0411
:100050000C948A000C948A000C948A000C948A00F8
:100060000C948A000C948A000000000024002700F1
:100070002A0000000000250028002B0000000000DE
:1000800023002600290004040404040404040202DA
:100090000202020203030303030301020408102007
:1000A0004080010204081020010204081020000012
:1000B0000008000201000003040700000000000027
:1000C0000000500511241FBECFEFD8E0DEBFCDBF2A
:1000D00011E0A0E0B1E0E4ECF0E102C005900D9287
:1000E000AC39B107D9F722E0ACE9B1E001C01D920B
:1000F000A636B207E1F710E0C2E6D0E004C02197CF
:10010000FE010E945A08C136D107C9F70E949A051C
:100110000C9460080C940000AF92BF92CF92DF92D3
:10012000EF92FF920F931F93CF93DF936C017B01AC
:100130008B01040F151FEB015E01AE18BF08C0173D
:10014000D10759F06991D601ED91FC910190F081B0
:10015000E02DC6010995892B79F7C501DF91CF9173
:100160001F910F91FF90EF90DF90CF90BF90AF90D5
:100170000895FC01538D448D252F30E0842F90E0AD
:10018000821B930B541710F0CF9608950197089592
:10019000FC01918D828D981761F0A28DAE0FBF2F5B
:1001A000B11D5D968C91928D9F5F9F73928F90E0B1
:1001B00008958FEF9FEF0895FC01918D828D981720
:1001C00031F0828DE80FF11D858D90E008958FEF5D
:1001D0009FEF0895FC01918D228D892F90E0805C26
:1001E0009F4F821B91098F739927089581EB91E0AE
:1001F0000E94EA0021E0892B09F420E0822F089573
:1002000080E090E0892B29F00E94F60081110C9487
:1002100000000895FC01A48DA80FB92FB11DA35AA9
:10022000BF4F2C91848D90E001968F739927848F16
:10023000A689B7892C93A089B1898C918370806439
:100240008C93938D848D981306C00288F389E02DDA
:1002500080818F7D80830895EF92FF920F931F938B
:10026000CF93DF93EC0181E0888F9B8D8C8D981369
:100270001AC0E889F989808185FF15C09FB7F89475
:10028000EE89FF896083E889F989808183708064C1
:1002900080839FBF81E090E0DF91CF911F910F910C
:1002A000FF90EF900895F62E0B8D10E00F5F1F4F1B
:1002B0000F731127E02E8C8D8E110CC00FB607FC2A
:1002C000FACFE889F989808185FFF5CFCE010E94B8
:1002D0000A01F1CFEB8DEC0FFD2FF11DE35AFF4F1B
:1002E000F0829FB7F8940B8FEA89FB898081806246
:1002F000CFCFCF93DF93EC01888D8823B9F0AA8903
:10030000BB89E889F9898C9185FD03C0808186FDD0
:100310000DC00FB607FCF7CF8C9185FFF2CF80811F
:1003200085FFEDCFCE010E940A01E9CFDF91CF9189
:100330000895833081F028F4813099F08230A9F05B
:1003400008958730A9F08830C9F08430B1F48091E5
:1003500080008F7D03C0809180008F778093800024
:10036000089584B58F7784BD089584B58F7DFBCFC4
:100370008091B0008F778093B00008958091B00095
:100380008F7DF9CFCF93DF93282F30E0F901E2552D
:10039000FF4F8491F901E656FF4FD491F901EA57D6
:1003A000FF4FC491CC23A1F081110E949901EC2F41
:1003B000F0E0EE0FFF1FE458FF4FA591B491EC91D0
:1003C000ED2381E090E009F480E0DF91CF91089582
:1003D00080E090E0FACF1F93CF93DF93282F30E097
:1003E000F901E255FF4F8491F901E656FF4FD49190
:1003F000F901EA57FF4FC491CC23A9F0162F8111C0
:100400000E949901EC2FF0E0EE0FFF1FEE58FF4F16
:10041000A591B4918FB7F894EC91111108C0D095C3
:10042000DE23DC938FBFDF91CF911F910895DE2BE8
:10043000F8CFCF93DF9390E0FC01E656FF4F249175
:100440008A579F4FFC0184918823D1F090E0880F58
:10045000991FFC01E859FF4FA591B491FC01EE589A
:10046000FF4FC591D49161110EC09FB7F8948C9144
:10047000E22FE0958E238C932881E223E8839FBFAF
:10048000DF91CF9108958FB7F894EC91E22BEC9324
:100490008FBFF6CF3FB7F8948091A1019091A20150
:1004A000A091A301B091A40126B5A89B05C02F3F40
:1004B00019F00196A11DB11D3FBFBA2FA92F982F8A
:1004C0008827BC01CD01620F711D811D911D42E085
:1004D000660F771F881F991F4A95D1F708958F924D
:1004E0009F92AF92BF92CF92DF92EF92FF924B0119
:1004F0005C010E944A026B017C010E944A026C1955
:100500007D098E099F09683E734081059105A8F316
:1005100021E0821A9108A108B10888EEC80E83E094
:10052000D81EE11CF11C81149104A104B10429F727
:10053000FF90EF90DF90CF90BF90AF909F908F9003
:100540000895089590E080E00895CF93DF93EC0143
:1005500060E08E810E94EB0161E08E810E94EB01E0
:1005600060E08E810E94EB018BE891E00197F1F74A
:10057000DF91CF910895CF92DF92EF92FF920F9388
:100580001F93CF93DF936C017C0187E0E80EF11C91
:10059000D0E0C0E0062F10E0B8010C2E02C0759527
:1005A00067950A94E2F76170F70181917F010E94DB
:1005B000EB012196C430D10579F7C601DF91CF91C7
:1005C0001F910F91FF90EF90DF90CF900C94A502B8
:1005D000CF92DF92EF92FF920F931F93CF93DF930F
:1005E000EC01F62E642F8C810E94EB018D818F3FF0
:1005F00019F060E00E94EB010F2D10E08F8584FF61
:1006000025C06E0187E0C80ED11CF12CE12CB80189
:100610000E2C02C0759567950A94E2F76170F60199
:1006200081916F010E94EB01FFEFEF1AFF0A88E052
:10063000E816F10461F7CE01DF91CF911F910F9180
:10064000FF90EF90DF90CF900C94A502B80184E06A
:10065000759567958A95E1F7CE010E94BB026F2DD3
:10066000CE01DF91CF911F910F91FF90EF90DF901E
:10067000CF900C94BB0240E0682F8EE492E00C9483
:10068000E80281E00E943B038BE39FE10197F1F7D1
:100690000895CF93DF93823029F490915D029860A2
:1006A00090935D02809361021092620280E48093D5
:1006B000630280E18093640280E58093650261E0DB
:1006C000809152020E941902809153028F3F19F0CB
:1006D00061E00E94190261E0809154020E941902B7
:1006E000CEE4D2E09E012E54324080915D0284FD22
:1006F0000BC084E090E021962817390744F461E0AC
:100700008E810E941902EECF88E090E0F4CF8BE357
:100710009DE00197F1F760E0809152020E94EB01A9
:1007200060E0809154020E94EB01809153028F3F60
:1007300019F060E00E94EB0180915D0284FD34C0FD
:1007400063E08EE492E00E94BB02CBE4D6E4CE01EB
:100750000197F1F763E08EE492E00E94BB022197DB
:10076000F1F763E08EE492E00E94BB0283E592E041
:100770000197F1F762E08EE492E00E94BB02809163
:100780005D0280620E943B0384E080935E028CE005
:100790000E943B030E94410382E080935F0286E057
:1007A000DF91CF910C943B0380620E943B038BE46A
:1007B00096E40197F1F780915D0280620E943B030D
:1007C00083E592E00197F1F780915D0280620E94DB
:1007D0003B03D5CF90916102691710F06FEF690F5D
:1007E000E62FF0E0E25BFD4F9489890F80680C945E
:1007F0003B0341E00E94E80281E090E00895FB01A4
:1008000001900020E9F73197AF01461B570BDC013F
:10081000ED91FC910280F381E02D09948F929F92DB
:10082000AF92BF920F931F93CF93DF93CDB7DEB7F5
:10083000A1970FB6F894DEBF0FBECDBF19A242300C
:1008400008F44AE08E010F5D1F4F842E912CB12CCD
:10085000A12CA50194010E94FA07E62FB901CA0153
:10086000EA3004F5E05DD801EE938D01232B242BB3
:10087000252B79F790E080E0109729F0BD0181EBFE
:1008800091E00E94FF03A1960FB6F894DEBF0FBE61
:10089000CDBFDF91CF911F910F91BF90AF909F90EF
:1008A0008F900895E95CDFCFCF92DF92EF92FF92B5
:1008B000CF93DF936B017C016DE281EB91E00E94AD
:1008C0002C01EC0166277727CB016C197D098E0975
:1008D0009F094AE00E940E048C0F9D1FDF91CF916B
:1008E000FF90EF90DF90CF900895CF93DF93BC01FE
:1008F000990F880B990B97FF0EC00E945404EC01CE
:1009000060E271E081EB91E00E94FF038C0F9D1F7C
:10091000DF91CF9108954AE00E940E04F0CF0C942D
:10092000FF030E94410360E081E00E94EA0363E26A
:1009300071E08EE492E00E948F0461E081E00E9409
:10094000EA0362E371E08EE492E00E948F0481E0AA
:1009500090E0909301018093000108951F920F92FF
:100960000FB60F9211242F933F934F935F936F9382
:100970007F938F939F93AF93BF93EF93FF9381EBFD
:1009800091E00E940A01FF91EF91BF91AF919F9179
:100990008F917F916F915F914F913F912F910F9028
:1009A0000FBE0F901F9018951F920F920FB60F92C7
:1009B00011242F938F939F93EF93FF93E091C101A5
:1009C000F091C2018081E091C701F091C80182FDE0
:1009D0001BC090818091CA018F5F8F732091CB01E2
:1009E000821741F0E091CA01F0E0EF54FE4F958F7D
:1009F0008093CA01FF91EF919F918F912F910F905A
:100A00000FBE0F901F9018958081F4CF1F920F9208
:100A10000FB60F9211242F933F938F939F93AF9311
:100A2000BF9380919D0190919E01A0919F01B091F3
:100A3000A00130919C0123E0230F2D3758F501963A
:100A4000A11DB11D20939C0180939D0190939E0157
:100A5000A0939F01B093A0018091A1019091A20168
:100A6000A091A301B091A4010196A11DB11D809395
:100A7000A1019093A201A093A301B093A401BF91FF
:100A8000AF919F918F913F912F910F900FBE0F903B
:100A90001F90189526E8230F0296A11DB11DD2CFF5
:100AA000E1EBF1E01382128288EE93E0A0E0B0E087
:100AB00084839583A683B78386E091E091838083C6
:100AC00085EC90E09587848784EC90E09787868713
:100AD00080EC90E0918B808B81EC90E0938B828B0B
:100AE00082EC90E0958B848B86EC90E0978B868BE4
:100AF000118E128E138E148EEEE4F2E013821282A7
:100B000088E191E0918380838DE084838FEF8583FA
:100B10008CE086838BE087838AE0808789E0818709
:100B200088E082871386148615861686178681E0EC
:100B30000C944903CF93DF93CDB7DEB762970FB61E
:100B4000F894DEBF0FBECDBF789484B5826084BDBB
:100B500084B5816084BD85B5826085BD85B58160C1
:100B600085BD80916E00816080936E00109281003F
:100B700080918100826080938100809181008160FA
:100B800080938100809180008160809380008091BB
:100B9000B10084608093B1008091B0008160809347
:100BA000B00080917A00846080937A0080917A000E
:100BB000826080937A0080917A00816080937A00CD
:100BC00080917A00806880937A001092C100E09151
:100BD000C101F091C20182E08083E091BD01F091FA
:100BE000BE011082E091BF01F091C0018FEC8083C3
:100BF0001092C901E091C501F091C60186E08083A1
:100C0000E091C301F091C401808180618083E09113
:100C1000C301F091C401808188608083E091C301A9
:100C2000F091C401808180688083E091C301F091DC
:100C3000C40180818F7D808361E081E00E94190280
:100C400082E00E94490360E082E00E94190260E0B5
:100C500083E00E94190260E084E00E94190260E0D3
:100C600085E00E94190260E086E00E94190263E4B8
:100C700071E08EE492E00E948F0444244A9453E091
:100C8000552E612C712CCE0101969A8B898B60E0D8
:100C9000262E60E0362E88248394912CE2E0CE2E1E
:100CA000D12CF3E0AF2EB12C90E490937C00809196
:100CB0007A00806480937A0080917A0086FDFCCF70
:100CC0008091780000917900102F082FC8010E94B0
:100CD00075042FEF30E0D8010E943F08A301920174
:100CE0000E94DB078901C9010E94750468EE73E068
:100CF00080E090E00E946F0262E571E081EB91E09C
:100D00000E948F049E012F5E3F4FC80162E070E099
:100D10000E942B0817FF02C00F5F1F4F1595079504
:100D2000F901929382937F0189899A89E817F907DB
:100D300009F071C08901025F1F4FF7016191719144
:100D40007F01072E000C880B990B97FF66C00E944D
:100D50005404E016F10689F760E271E081EB91E05E
:100D60000E94FF0382E00E94C2018C019093B001B7
:100D70008093AF0183E00E94C2019093AE01809303
:100D8000AD0184E00E94C2019093AC018093AB015D
:100D900085E00E94C2019093AA018093A90186E098
:100DA0000E94C2019093A8018093A7010130110510
:100DB00009F045C080915E028E7F80935E0288605C
:100DC0000E943B038091AF019091B001019749F5DA
:100DD0000E9441036AE571E08EE492E00E948F0474
:100DE00005E010E064E671E08EE492E00E948F047A
:100DF00062E370E080E090E00E946F020150110910
:100E000089F782E00E94C2019093B0018093AF0104
:100E10000E944103D7CF970178CF4AE00E940E0489
:100E200098CF66E671E08EE492E00E948F04109203
:100E3000A6011092A50190920101809200010091FB
:100E4000AD011091AE010130110589F460E080E040
:100E50000E94EA0380915E02982F916090935E0257
:100E600089600E943B031093A6010093A501809125
:100E7000AB019091AC01019789F461E080E00E94A0
:100E8000EA0380915E02982F916090935E028960E0
:100E90000E943B03D092A601C092A5018091A901B6
:100EA0009091AA01019771F4809100019091010144
:100EB000019741F48091A5019091A601892B11F42D
:100EC0000E9491048091A9019091AA01019761F576
:100ED0008091A5019091A601019731F580910001C3
:100EE00090910101019701F50E94410360E081E0CA
:100EF0000E94EA036FE671E08EE492E00E948F04A4
:100F000061E081E00E94EA036CE771E08EE492E028
:100F10000E948F046AE070E080E090E00E946F021F
:100F2000D0920101C09200018091A9019091AA0183
:100F3000019731F58091A5019091A601029701F5E5
:100F400080910001909101010197D1F40E94410329
:100F500060E081E00E94EA0369E871E08EE492E0DB
:100F60000E948F0461E081E00E94EA0362E971E07F
:100F70008EE492E00E948F04B0920101A0920001E1
:100F80008091A7019091A801019749F480910001F7
:100F9000909101010297029710F40E94910421148C
:100FA000310409F481CE0E94F600882309F47CCE36
:100FB0000E94000079CE052E97FB1EF400940E943B
:100FC000F20757FD07D00E94FA0707FC03D04EF442
:100FD0000C94F20750954095309521953F4F4F4F17
:100FE0005F4F089590958095709561957F4F8F4FD5
:100FF0009F4F0895A1E21A2EAA1BBB1BFD010DC035
:10100000AA1FBB1FEE1FFF1FA217B307E407F507B8
:1010100020F0A21BB30BE40BF50B661F771F881F94
:10102000991F1A9469F760957095809590959B012A
:10103000AC01BD01CF010895A29FB001B39FC001D3
:10104000A39F700D811D1124911DB29F700D811DF4
:101050001124911D089597FB072E16F4009407D0D4
:1010600077FD09D00E94460807FC05D03EF4909514
:1010700081959F4F0895709561957F4F08950E94C7
:101080001C08B7FF0895821B930B0895AA1BBB1B76
:1010900051E107C0AA1FBB1FA617B70710F0A61B78
:1010A000B70B881F991F5A95A9F780959095BC0199
:1010B000CD010895EE0FFF1F0590F491E02D0994E6
:0410C000F894FFCFD2
:1010C4000100000000002C018C00B9007901EA0045
:1010D400C800DC0000000000F9038C00A202A10299
:1010E4000D0A00506C61794261636B20417564693B
:1010F4006F005370656369616C2046656174757235
:10110400657300566F696365205265636F72646529
:10111400720038206269743A20005265636F726409
:10112400696E67002E005265636F726465640056D1
:101134006F69636520436C6970203100566F696381
:101144006520436C697020320045666665637420CF
:0C115400310045666665637420320000BF
:00000001FF
