:020000040000FA
:100000000C946B000C9493000C9493000C9493004C
:100010000C9493000C9493000C9493000C94930014
:100020000C9493000C9493000C9493000C94930004
:100030000C9493000C9493000C9493000C949300F4
:100040000C94EE170C9493000C94BC170C94961718
:100050000C9493000C9493000C9493000C949300D4
:100060000C9438180C9493007C3C3E5E2B3D3F2F43
:100070005B5D3B2C2A225C0000000000250028006C
:100080002B000000000023002600290000000008CB
:10009000000201000003040700000000000000004F
:1000A00000000000240027002A000102040810209C
:1000B00040800102040810200102040810200404FA
:1000C0000404040404040202020202020303030300
:1000D0000303C8198B2211241FBECFEFD8E0DEBF67
:1000E000CDBF26E0ACE3B2E001C01D92AA3BB2074F
:1000F000E1F712E0A0E0B1E0EEE4FEE402C005901A
:100100000D92AC33B107D9F710E0CAE6D0E004C0D5
:100110002197FE010E94FB24C936D107C9F70E942E
:10012000901A0C941A270C940000089508950895CD
:10013000DB0114964D915C9115976D917C91DC01DA
:10014000ED91FC910280F381E02D0994AF92BF9272
:10015000CF92DF92EF92FF920F931F93CF93DF9393
:100160006C017B018B01040F151FEB015E01AE18C2
:10017000BF08C017D10759F06991D601ED91FC91E4
:100180000190F081E02DC6010995892B79F7C50111
:10019000DF91CF911F910F91FF90EF90DF90CF9063
:1001A000BF90AF900895FC01538D448D252F30E012
:1001B000842F90E0821B930B541710F0CF96089574
:1001C00001970895FC01918D828D981761F0A28DA1
:1001D000AE0FBF2FB11D5D968C91928D9F5F9F7367
:1001E000928F90E008958FEF9FEF0895FC01918D1D
:1001F000828D981731F0828DE80FF11D858D90E08A
:1002000008958FEF9FEF0895FC01918D228D892F26
:1002100090E0805C9F4F821B91098F73992708950E
:1002200087E195E00E94040121E0892B09F420E098
:10023000822F089580E090E0892B29F00E94100120
:1002400081110C9400000895FC01A48DA80FB92F12
:10025000B11DA35ABF4F2C91848D90E001968F73EE
:100260009927848FA689B7892C93A089B1898C910D
:10027000837080648C93938D848D981306C002885C
:10028000F389E02D80818F7D80830895EF92FF9226
:100290000F931F93CF93DF93EC0181E0888F9B8DA9
:1002A0008C8D98131AC0E889F989808185FF15C063
:1002B0009FB7F894EE89FF896083E889F989808186
:1002C0008370806480839FBF81E090E0DF91CF9155
:1002D0001F910F91FF90EF900895F62E0B8D10E077
:1002E0000F5F1F4F0F731127E02E8C8D8E110CC0E6
:1002F0000FB607FCFACFE889F989808185FFF5CF31
:10030000CE010E942401F1CFEB8DEC0FFD2FF11DEA
:10031000E35AFF4FF0829FB7F8940B8FEA89FB896D
:1003200080818062CFCFCF93DF93EC01888D8823CB
:10033000B9F0AA89BB89E889F9898C9185FD03C048
:10034000808186FD0DC00FB607FCF7CF8C9185FF2D
:10035000F2CF808185FFEDCFCE010E942401E9CF4D
:10036000DF91CF910895833081F028F4813099F0A6
:100370008230A9F008958730A9F08830C9F0843020
:10038000B1F4809180008F7D03C0809180008F77D1
:1003900080938000089584B58F7784BD089584B5D7
:1003A0008F7DFBCF8091B0008F778093B000089550
:1003B0008091B0008F7DF9CFCF93DF93282F30E06D
:1003C000F901E457FF4F8491F901E655FF4FD491AD
:1003D000F901E254FF4FC491CC23A1F081110E9496
:1003E000B301EC2FF0E0EE0FFF1FEE57FF4FA5918A
:1003F000B491EC91ED2381E090E009F480E0DF918D
:10040000CF91089580E090E0FACF1F93CF93DF93D0
:10041000282F30E0F901E457FF4F8491F901E655A8
:10042000FF4FD491F901E254FF4FC491CC23A9F0BE
:10043000162F81110E94B301EC2FF0E0EE0FFF1F89
:10044000E858FF4FA591B4918FB7F894EC91111132
:1004500008C0D095DE23DC938FBFDF91CF911F9131
:100460000895DE2BF8CFCF93DF9390E0FC01E655A3
:10047000FF4F249182549F4FFC0184918823D1F037
:1004800090E0880F991FFC01E056FF4FA591B491B1
:10049000FC01E858FF4FC591D49161110EC09FB780
:1004A000F8948C91E22FE0958E238C932881E2239F
:1004B000E8839FBFDF91CF9108958FB7F894EC91B7
:1004C000E22BEC938FBFF6CF8E50806480937C003C
:1004D00080917A00806480937A0080917A0086FD12
:1004E000FCCF809178009091790008953FB7F894FF
:1004F0008091FC029091FD02A091FE02B091FF025A
:1005000026B5A89B05C02F3F19F00196A11DB11D6E
:100510003FBFBA2FA92F982F8827BC01CD01620FAA
:10052000711D811D911D42E0660F771F881F991F65
:100530004A95D1F708958F929F92AF92BF92CF9232
:10054000DF92EF92FF924B015C010E9476026B01F9
:100550007C010E9476026C197D098E099F09683E14
:10056000734081059105A8F321E0821A9108A10842
:10057000B10888EEC80E83E0D81EE11CF11C81147E
:100580009104A104B10429F7FF90EF90DF90CF9080
:10059000BF90AF909F908F9008952FB7F89460917F
:1005A000F8027091F9028091FA029091FB022FBF3C
:1005B00008958FB7F8948091F1028FBF089561E09C
:1005C000FC0184810E9405028091F0028111109249
:1005D000F00208958EBD00000DB407FEFDCF8EB56C
:1005E00008958FEF0C94EA020F931F93CF93DF933C
:1005F000EC010E94CD028B010E94F1028F3F69F055
:100600000E94CD02601B710B6C177D07A8F380E080
:10061000DF91CF911F910F91089581E0F9CF8CBDAB
:100620009DBD0895CF93DF93EC018091F00281117D
:1006300009C081E08093F0028091B4059091B505E6
:100640000E940F0360E08C81DF91CF910C94050232
:100650008F929F92AF92BF92FF920F931F93CF936F
:10066000DF93EC01F62E49015A018E81882389F02F
:100670008F8198859C012F5F3F4F38872F83823071
:10068000924018F40E94F102F3CFCE010E94DF02E3
:100690001E82CE010E9412038CE291E00E94F402BD
:1006A0008F2D80640E94EA0208E110E0D501C401A8
:1006B000002E04C0B695A795979587950A94D2F712
:1006C0000E94EA0208501109083F8FEF180771F7DE
:1006D00085E9FF2021F028E087E8F2128FEF0E94E1
:1006E000EA0210E00E94F1028A8787FF04C01F3FE0
:1006F00011F01F5FF7CFDF91CF911F910F91FF9006
:10070000BF90AF909F908F900895AF92BF92CF927D
:10071000DF92EF92FF920F931F93CF93DF93EC0141
:100720006901C801820F931F8130924050F58E817C
:10073000882379F088819981AA81BB8184179507E4
:10074000A607B70731F48F819885C816D90608F037
:1007500042C0488359836A837B838B85833039F019
:1007600089E0440F551F661F771F8A95D1F79A01BC
:10077000AB0161E1CE010E942803882389F083E068
:100780008D83CE010E94DF0280E0DF91CF911F9127
:100790000F91FF90EF90DF90CF90BF90AF900895B2
:1007A0000E94CD025B010E94F1028A878F3F69F4AB
:1007B0000E94CD026A197B096D327140A0F38FE06F
:1007C0008D83CE010E94DF02DCCF8E3F89F4188634
:1007D0001F8281E08E838F8198858C159D0550F452
:1007E0000E94F1028F819885019698878F83F3CFBD
:1007F0008DE0E6CF6701E00EF11E0E94F102F601E6
:1008000081936F01EE15FF05C1F78F819885080F61
:10081000191F18870F838985882319F00115124045
:10082000A0F08E81882389F08F8198859C012F5FAD
:100830003F4F38872F838230924018F40E94F10294
:10084000F3CFCE010E94DF021E8281E09ECFCF92C5
:10085000DF92EF92FF920F93CF93DF93EC01690148
:1008600082E1411551056105710599F08B85833051
:1008700039F089E0440F551F661F771F8A95D1F71D
:100880009A01AB0168E1CE010E942803882319F088
:1008900084E08D832DC08EEF0E94EA0276018EEFF8
:1008A000D81AF70181917F010E94EA02EC14FD043D
:1008B000C1F78FEF0E94EA028FEF0E94EA020E94C6
:1008C000F1028A878F71853071F4011116C0CE0153
:1008D0000E94DF0281E0DF91CF910F91FF90EF90B6
:1008E000DF90CF90089581E18D83CE010E94DF02D9
:1008F000CE010E94DF0280E0EECF88E592E00E9408
:10090000F402811102C085E1C4CF20E030E0A901EA
:100910006DE0CE010E942803882311F084E1B9CF55
:100920000E94F1028111FACFD2CF0F934091F302CE
:100930005091F4026091F5027091F6024115510553
:100940006105710599F0082F27E133E080910D03CF
:1009500090910E030E942704882349F01092F3021D
:100960001092F4021092F5021092F60281E00F91BB
:1009700008950F93CF93C82F8091F202811105C083
:10098000C1E08C2FCF910F910895409100015091BB
:10099000010160910201709103010C2F27E133E006
:1009A00080910D0390910E030E942704811102C0D3
:1009B000C0E0E7CFCC2321F381E00E949504882397
:1009C000B9F31092F202DDCF8F929F92AF92BF9255
:1009D000EF92FF920F931F93CF934B015C01C42FB3
:1009E0008091000190910101A0910201B091030159
:1009F00088159905AA05BB0551F181E00E94B9044B
:100A000081110BC080E0CF911F910F91FF90EF906B
:100A1000BF90AF909F908F90089587E1E82E83E07C
:100A2000F82E00E012E030E020E0B501A401809152
:100A30000D0390910E030E948503882319F3809281
:100A4000000190920101A0920201B0920301409135
:100A5000F2024C2B4093F20281E0D5CFCF93DF938B
:100A6000EC016E857F858889998941E00E94E404C4
:100A7000882351F08A8920E2829FC0011124895E77
:100A80009C4FDF91CF91089590E080E0FACF8F9254
:100A90009F92AF92BF92CF92DF92EF92FF92CF934D
:100AA00026EB35E030930E0320930D03882309F4E1
:100AB0006DC040E060E070E0CB010E94E404811171
:100AC0000BC080E0CF91FF90EF90DF90CF90BF9070
:100AD000AF909F908F9008958091D5048F7789F77C
:100AE0008091E1049091E204A091E304B091E404C8
:100AF00084369105A105B10520F3C090DD04D090A6
:100B0000DE04E090DF04F090E004C114D104E104BD
:100B1000F104B9F240E0C701B6010E94E404882361
:100B200081F280912203909123038115924049F62E
:100B3000A0912703AA2329F260912503709126032F
:100B40006115710509F4BDCF20912403222309F416
:100B5000B8CFA093D4052093C60590E080E030E0A4
:100B6000E1E0F0E0C82FAF01082E02C0440F551F8E
:100B70000A94E2F72417350769F041E0480F01961F
:100B80008930910579F74093CF059BCFC12CD12CAB
:100B90007601C0CF8093CF0520912D0330912E0395
:100BA00050E040E02115310541F420913B033091A4
:100BB0003C0340913D0350913E032093C705309381
:100BC000C8054093C9055093CA0546015701860ED2
:100BD000971EA11CB11C8092D5059092D605A092BB
:100BE000D705B092D805E0912803F0912903F0933E
:100BF000DB05E093DA05B0E00E940724DC01CB01BD
:100C0000880D991DAA1DBB1D8093DC059093DD0501
:100C1000A093DE05B093DF0525E0EE0FFF1F2A95B8
:100C2000E1F7E150FE4FEF2FFF27E6958E0F9F1F54
:100C3000A11DB11D8093D0059093D105A093D2053D
:100C4000B093D30580902A0390902B03B12CA12C54
:100C50008114910441F48090370390903803A09060
:100C60003903B0903A03C81AD90AEA0AFB0AC80C39
:100C7000D91CEA1CFB1C04C0F694E794D794C794D3
:100C8000CA95D2F7C092CB05D092CC05E092CD05A3
:100C9000F092CE0585EFC8168FE0D806E104F10486
:100CA00028F48CE08093D90581E00CCF80E125EF1A
:100CB000C2162FEFD206E104F104A0F380914303A2
:100CC00090914403A0914503B09146038093DC05C5
:100CD0009093DD05A093DE05B093DF0580E2E2CFBF
:100CE0004F925F926F927F928F929F92AF92BF923C
:100CF000CF92DF92EF92FF920F931F93CF93DF93E8
:100D0000EC01423051056105710590F480E0DF91FE
:100D1000CF911F910F91FF90EF90DF90CF90BF90F8
:100D2000AF909F908F907F906F905F904F900895BD
:100D300089859A85AB85BC850196A11DB11D841757
:100D40009507A607B70710F3CB88DC88ED88FE88E7
:100D50008F89803109F042C0BB27A72F962F852F9E
:100D6000480159012A013B01C80ED91EEA1EFB1E8B
:100D70008091000190910101A0910201B0910301C5
:100D8000C816D906EA06FB0699F58F898031C1F5A8
:100D9000B301A201552766277727440F551F495EE7
:100DA0005C4FFA01918280828091F202816080938F
:100DB000F2028A89823080F08D819E81AF81B88570
:100DC0008C0D9D1DAE1DBF1D8093F3029093F40208
:100DD000A093F502B093F60281E099CFDB01CA013E
:100DE000E7E0B695A79597958795EA95D1F7B8CF9F
:100DF00040E0C701B6010E94E4048111C6CF86CF4E
:100E0000B301A2014F77552766277727440F551F57
:100E1000440F551F495E5C4FFA0180829182A28285
:100E2000B382C2CF8F929F92AF92BF92CF92DF9246
:100E3000EF92FF920F931F93CF93DF93FC01818575
:100E40009285A385B4850196A11DB11D84179507D0
:100E5000A607B70770F480E0DF91CF911F910F9143
:100E6000FF90EF90DF90CF90BF90AF909F908F90CA
:100E7000089583889488A588B6888789803189F504
:100E8000BB27A72F962F852FE9016A017B018F01D0
:100E9000BC01CD01680D791D8A1D9B1D809000014C
:100EA00090900101A0900201B09003018616970670
:100EB000A806B90601F5F8018789803111F5DD240E
:100EC000EE24FF24F601EE0FFF1FE95EFC4F808148
:100ED0009181B0E0A0E088839983AA83BB8381E0FD
:100EE000BBCFDB01CA01C7E0B695A795979587955B
:100EF000CA95D1F7C9CF40E00E94E4048111DBCF4D
:100F0000AACFE894C7F8DD24EE24FF24F601EE0F03
:100F1000FF1FEE0FFF1FE95EFC4F80819181A281D0
:100F2000B381BF70D8CF4F925F926F927F92AF9292
:100F3000BF92CF92DF92EF92FF920F931F93CF93C6
:100F4000DF9300D000D0CDB7DEB78C0149835A8340
:100F50006B837C835901C12CD12C7601412C82E01A
:100F6000582E612C712C49815A816B817C819E01A4
:100F70002F5F3F4FC8010E941207882339F1F80103
:100F80008585A301920104C0220F331F441F551F02
:100F90008A95D2F7DA01C901C80ED91EEA1EFB1ED6
:100FA00049815A816B817C818789803111F188EF79
:100FB0009FEFAFEFBFE0481759076A077B0798F22A
:100FC000F501C082D182E282F38281E00F900F901E
:100FD0000F900F90DF91CF911F910F91FF90EF90A5
:100FE000DF90CF90BF90AF907F906F905F904F90C9
:100FF000089588EF9FEFA0E0B0E0DDCFCF93DF93BF
:10100000FC012581222321F080E0DF91CF9108951A
:10101000EC018091D905803159F582E08583178AEA
:10102000108E118E128E8091DA059091DB05B0E062
:10103000A0E025E0880F991FAA1FBB1F2A95D1F7B2
:10104000838B948BA58BB68B82EC95E09C8F8B8FDA
:1010500081E08C831E821F82188619861A861B8661
:101060001C861D861E861F86188A198A1A8ACDCF6D
:10107000803251F683E085834091DC055091DD0597
:101080006091DE057091DF05478B508F618F728F05
:101090009F012D5E3F4F82EC95E00E9493078111E6
:1010A000D3CFB2CF8F929F92AF92BF92CF92DF9267
:1010B000EF92FF920F931F93CF93DF93EC018D81FB
:1010C00081110EC080E0DF91CF911F910F91FF90B1
:1010D000EF90DF90CF90BF90AF909F908F9008954A
:1010E0000B891C892D893E890417150726073707A8
:1010F00048F34A015B01823031F48A869B86AC86D4
:10110000BD8681E0E0CF81149104A104B10449F4CB
:101110001E821F82188619861A861B861C861D86CB
:10112000F0CF0A851B852C853D85EB8DFC8D858553
:1011300090E00996B901A80141505109610971096E
:10114000082E04C076956795579547950A94D2F76F
:1011500075016401E1E0CE1AD108E108F10804C08C
:10116000F694E794D794C7948A95D2F7C416D50617
:10117000E606F70620F0012B022B032B11F58F89D1
:10118000988DA98DBA8D8E839F83A887B9878E018C
:101190000A5F1F4FC114D104E104F10409F4ADCF7B
:1011A0004E815F816885798598018B8D9C8D0E9429
:1011B000120791E0C91AD108E108F1088111EACFBC
:1011C00081CFC41AD50AE60AF70AE1CF3F924F92BF
:1011D0005F926F927F928F929F92AF92BF92CF92C7
:1011E000DF92EF92FF920F931F93CF93DF93CDB7D0
:1011F000DEB72C970FB6F894DEBF0FBECDBF5C01F3
:10120000DC015B968D909C905C9716964D905D905E
:101210006D907C901997411451046104710409F494
:1012200068C0BFEF4B1A5B0A6B0A7B0A312CF401D2
:1012300081859285A385B4859C01AD012F5F3F4FC9
:101240004F4F5F4F29873A874B875C877301620155
:101250001D821E821F821886F40181859285A385D6
:10126000B4852D813E814F815885281739074A075B
:101270005B0708F056C089859A85AB85BC858C15BF
:101280009D05AE05BF0550F482E0C82ED12CE12C9F
:10129000F12C92E0492E512C612C712C9E012F5F74
:1012A0003F4FB701A601C4010E9412078823C9F16C
:1012B00089819A81AB81BC81892B8A2B8B2B09F187
:1012C000260137019FEF491A590A690A790A2D81C7
:1012D0003E814F8158852F5F3F4F4F4F5F4F2D838A
:1012E0003E834F8358873FEFC31AD30AE30AF30ABA
:1012F000B3CFF401408051806280738033243394F3
:1013000096CFC414D504E604F70409F70FEF1FEFD6
:101310002FEF3FE0B701A601C4010E9470068111C2
:1013200019C080E02C960FB6F894DEBF0FBECDBF7B
:10133000DF91CF911F910F91FF90EF90DF90CF90B1
:10134000BF90AF909F908F907F906F905F904F90E5
:101350003F900895D50116964D915D916D917C91C8
:101360001997411551056105710539F097018601FD
:10137000C4010E9470068823A1F2D5011696CD9271
:10138000DD92ED92FC921997332051F0D701C601FE
:101390000196A11DB11DF40180839183A283B383C3
:1013A000F5018789908DA18DB28D892B8A2B8B2B8E
:1013B00039F48481C78AD08EE18EF28E806884836E
:1013C000F50184818062848381E0ACCF1F93CF9349
:1013D000DF93FC012581222371F1162FEC0184811A
:1013E00087FF1EC0CF010E942E05FC01892B19F139
:1013F0008D81823040F48B899C89AD89BE89848F30
:10140000958FA68FB78F8F89988D938F828F8F89B5
:10141000988DA98DBA8DB58BA48B8C818F778C8399
:10142000111103C08C818F7E8C83812FDF91CF912E
:101430001F910C94B90480E0DF91CF911F91089522
:10144000FF920F931F93CF93DF93EC018D81813037
:1014500041F090E080E0DF91CF911F910F91FF90DC
:1014600008958C8181FFF5CF82FD1BC000910D0393
:1014700010910E03C8010E9412030E94F102F82E7F
:10148000C8010E94DF028FEFF812E3CF8C8185FF45
:101490001BC060E0CE010E94E6098C818F7D8C83A9
:1014A000D8CF4B895C896D897E898A859B85AC857F
:1014B000BD8584179507A607B707C1F2CE010E9424
:1014C00052088111D3CFC5CF4091F3025091F4025D
:1014D0006091F5027091F602452B462B472B21F0C7
:1014E00080E00E949504B5CF80618C832A853B857E
:1014F000317080E092E0821B930BADCFCF93DF93EE
:10150000EC0161E00E94E609882311F01D8281E070
:10151000DF91CF9108952F923F924F925F926F92F9
:101520007F928F929F92AF92BF92CF92DF92EF9273
:10153000FF920F931F93CF93DF9300D000D01F92A1
:10154000CDB7DEB77C015B01342E5D83DC011596DF
:101550008C911597813009F0CEC014962C9021FE05
:10156000CAC022FCB4C0C32CDD8022947FE02722B5
:101570002094B22DB1702B2ED7011A964D915D910A
:101580006D917C911D97C114D10409F428C15B961B
:101590008D919C915C97FC0174807A948A019B01E7
:1015A00069E036952795179507956A95D1F77022CA
:1015B0008A011170711020C001151105E9F4169609
:1015C0004D915D916D917C91199741155105610582
:1015D000710509F099C057968D919D910D90BC9120
:1015E000A02D0097A105B10509F0B0C0C7010E9468
:1015F000E608882309F47FC080E092E0801B910B0D
:1016000046018C159D0508F44C01D7015B964D9160
:101610005C915C9716968D919D910D90BC91A02D3B
:101620000297A109B109FA01258504C0880F991F05
:10163000AA1FBB1F2A95D2F74685578560897189F5
:10164000840F951FA61FB71F9C01AD01270D311DEB
:10165000411D511D29013A01811432E0930609F020
:101660007BC08091000190910101A0910201B09195
:10167000030184159505A605B70559F48FEF9FEF73
:10168000DC018093000190930101A0930201B093CB
:101690000301022D9501B301A20180910D039091E8
:1016A0000E030E942704882331F19EEFB91AC8184F
:1016B000D908F70182859385A485B585880D991D84
:1016C000A11DB11D82879387A487B58755CFF701E8
:1016D000438954896589768982859385A485B585F2
:1016E000481759076A077B0709F43DCFC7010E94D5
:1016F0005208811138CF81E090E0D70113969C9376
:101700008E93129780E007C09E012F5F3F4F0E948B
:101710001207811102C090E079C089819A81AB8162
:10172000BC81F701238D348DF901278948EF5FEFE4
:1017300060E070E0203121F048EF5FEF6FEF7FE075
:1017400084179507A607B70708F050CFF7018683DF
:101750009783A087B18750CF0115110599F5D7015F
:101760001A964D915D916D917C911D9753968D9137
:101770009D910D90BC91A02D481759076A077B07D2
:1017800008F181E00E94B904882309F4B4CF4092A3
:101790000001509201016092020170920301809158
:1017A000F20281608093F202C801895E9C4FD501EC
:1017B0009C01280D391DFC012E173F0759F04D9152
:1017C0004193FACF41E0C301B2010E94E4048111C8
:1017D000EBCF91CF281B390BA20EB31E68CFF701B8
:1017E00083899489A589B68984179507A607B707C1
:1017F00038F48481438B548B658B768B806884832B
:10180000F701848183FD1AC0832D9D810F900F9075
:101810000F900F900F90DF91CF911F910F91FF903C
:10182000EF90DF90CF90BF90AF909F908F907F9080
:101830006F905F904F903F902F90089561E0C701A7
:101840000E94E609882309F456CFDECFCF93DF93B9
:101850001F92CDB7DEB7698341E050E0BE016F5FF4
:101860007F4F0E948B0A0F90DF91CF910895FC016A
:10187000DB0112968D919C911397938382838CE266
:1018800091E09183808314968C91149784831596AC
:101890008C911597858316964D915D916D917C91F4
:1018A000199746835783608771871A964D915D918A
:1018B0006D917C911D9742875387648775871E962B
:1018C0004D915D916D917C91519746875787608BC3
:1018D000718B52968C915297828B53964D915D915C
:1018E0006D917C915697438B548B658B768B579675
:1018F0004D915D916D917C915A97478B508F618F7F
:10190000728F5B968D919C91948F838F0895FC01CB
:10191000818D928D009719F061E00C94E60908958D
:10192000DC015996ED91FC913097B9F08389948947
:10193000A589B6894285538564857585841B950B79
:10194000A60BB70B811520E89207A105B10538F069
:101950008FEF9FE7A0E0B0E0089590E080E0089569
:10196000DC0159968D919C91009739F0DC01ED9145
:10197000FC910480F581E02D099490E080E00895C9
:10198000CF93DF93EC01E98DFA8D309749F481E034
:1019900090E09B838A8390E080E0DF91CF9108956F
:1019A00013821282898D9A8D0E948B0AE98DFA8D9D
:1019B00022813381232B59F7F0CFCF93DF931F92EE
:1019C000CDB7DEB76983DC01ED91FC910280F38134
:1019D000E02D41E050E0BE016F5F7F4F09950F9011
:1019E000DF91CF9108952F923F924F925F926F9225
:1019F0007F928F929F92AF92BF92CF92DF92EF929F
:101A0000FF920F931F93CF93DF9300D01F92CDB718
:101A1000DEB7FC018581811118C08FEF9FEF0F9019
:101A20000F900F90DF91CF911F910F91FF90EF904A
:101A3000DF90CF90BF90AF909F908F907F906F90EE
:101A40005F904F903F902F900895848180FFE5CF65
:101A5000438954896589768982859385A485B5856E
:101A6000312C212C481759076A077B0719F02224CB
:101A70002394312C6F012101CE0101963C01DF013D
:101A80001696BB83AA834114510409F4C5C0F6011C
:101A900042855385648575854A01F1E09F22D60110
:101AA0005B968D919C915C978A019B01E9E036954C
:101AB000279517950795EA95D1F71596EC91E230A1
:101AC000E9F5FC01628D738D848D958D600F711F1A
:101AD000821F931FA12C22E0B22EA818B9084A1425
:101AE0005B0408F45201F601248126FD04C0A11410
:101AF000F2E0BF0671F40091000110910101209104
:101B0000020130910301061717072807390709F06A
:101B10005EC040E00E94E404882309F47ECFC40143
:101B2000895E9C4FD3019C012A0D3B1DFC012E17A1
:101B30003F0709F46CC041914D93F9CFDC01149635
:101B4000BC90BA94B0228114910479F4B1100DC004
:101B5000452B462B472B69F5F6018789908DA18D82
:101B6000B28D86839783A087B187D6015B96ED916E
:101B7000FC915C9716966D917D918D919C91199732
:101B80006250710981099109258504C0660F771F8C
:101B9000881F991F2A95D2F70685178520893189D4
:101BA000600F711F821F931F6B0D711D811D911D91
:101BB00091CFD60116964D915D916D917C911997BB
:101BC0002A813B810E9412078111CFCF26CF73015A
:101BD00085019401AB01BC0180910D0390910E032E
:101BE0000E948503882309F418CF6A0C7B1CF60138
:101BF00082859385A485B5858A0D9B1DA11DB11D88
:101C000082879387A487B5874A185B083CCF281B37
:101C1000390B620E731EEBCF2A94232809F0FDCEF8
:101C2000898190E0FCCEFC01818D928D009711F0AE
:101C30000C94F30C8FEF9FEF08950F931F93CF93A6
:101C4000DF93EC010E94CD02688779878A879B87A2
:101C5000CE010E94130E97FF15C00E94CD02088589
:101C600019852A853B85601B710B820B930B0C81B8
:101C70001D812E813F81601771078207930740F312
:101C80008FEF9FEFDF91CF911F910F9108950F93E9
:101C90001F93CF93DF93EC01898D9A8D10E000E0C4
:101CA000009799F00E94F30C8C010F3F100769F028
:101CB000898D9A8DFC0142855385648575854150D7
:101CC0005109610971090E945208C801DF91CF9141
:101CD0001F910F91089520917F02260F3327331F04
:101CE00021323105ECF42091C802FC0190E080E043
:101CF000243069F082E00895A0917F022191AC0127
:101D0000415A5D4FA40FB52FB11D2C930196861734
:101D100098F380917F02680F60937F0280E00895BE
:101D200081E008951092C80281E08093C70210926A
:101D3000A20261E082E10E94050261E083E10E946B
:101D40000502E9EBF0E080818E7F808380818D7FCA
:101D5000808388E48093B80085E48093BC00089574
:101D6000CF93DF9391E090935E028823B9F0C09106
:101D7000B800D091BA008091BC008A7B8093BC00EF
:101D800060E082E10E94050260E083E10E940502BA
:101D90000E94920ED093BA00C093B800DF91CF9109
:101DA00008950895E091160380911503E81730F423
:101DB000F0E0E25CFD4F808190E008958FEF9FEFAF
:101DC000089590911603809115032FEF3FEF981718
:101DD00048F4E92FF0E0E25CFD4F208130E09F5FA6
:101DE00090931603C90108958091150390911603ED
:101DF000891B990B0895CF92DF92EF92FF920F9378
:101E00001F93CF93DF937C01CB018A012091CE02F7
:101E1000222389F0EB016B01C40ED51ECC15DD0524
:101E200069F06991D701ED91FC910190F081E02D6D
:101E3000C7010995F3CF642F0E946B0EC801DF9193
:101E4000CF911F910F91FF90EF90DF90CF90089569
:101E5000CF93DF931F92CDB7DEB769832091CE0277
:101E60002223F9F020911303203258F021E030E0D2
:101E7000FC013383228390E080E00F90DF91CF91CB
:101E8000089580911403E82FF0E0E153FD4F99810C
:101E900090838F5F809314038093130381E090E01D
:101EA000ECCF61E0CE0101960E946B0EF7CFCF928E
:101EB000DF92EF92FF920F931F93CF93DF93FC017A
:101EC000C48121E02093CE02C093EF02109214034C
:101ED000109213038385682B8FEF95E00E94280FE3
:101EE000D0911303D13208F092C00E9476026B01A8
:101EF0007C018091C802811165C082E08093C80294
:101F000081E08093C7028FEF8093C6021092C502D2
:101F1000D093C402AFECB2E0E4EAF2E080E0D81380
:101F200085C01092A3028091A302CC0FC82BC0934E
:101F3000A3028091A202813009F07CC01092A2021B
:101F40000E9476026B017C018091A3028093BB000A
:101F50008091CA029091CB02A091CC02B091CD02A7
:101F6000892B8A2B8B2B99F00E9476020091CA0252
:101F70001091CB022091CC023091CD026C197D09D9
:101F80008E099F090617170728073907E0F1809186
:101F9000BC0083FDD9CF85EC8093BC000E94760203
:101FA0006B017C018091C802823009F445C08091A8
:101FB000C6028F3F61F18091C602803241F180916B
:101FC000C60225C08091CA029091CB02A091CC029A
:101FD000B091CD02892B8A2B8B2B09F48ACF0E94DA
:101FE00076020091CA021091CB022091CC0230916E
:101FF000CD026C197D098E099F090617170728075E
:10200000390708F076CF8091C9020E94B00E109275
:102010001403109213031092CE02DF91CF911F91FF
:102020000F91FF90EF90DF90CF9008959D91919345
:102030008F5F75CF85EEB0CF8091CA029091CB02B1
:10204000A091CC02B091CD02892B8A2B8B2B09F465
:10205000A9CF0E9476020091CA021091CB02209172
:10206000CC023091CD026C197D098E099F090617AB
:1020700017072807390708F095CFC5CF90E080E013
:102080000895CF93DF93FB0122813381DC01139606
:102090003C932E93129744815581668177811496E3
:1020A0004D935D936D937C93179740855185628521
:1020B000738518964D935D936D937C931B971C9637
:1020C000EF012C969C01275E3F4F49914D93A2173B
:1020D000B307D9F7218D328DFC01328F218FDF912B
:1020E000CF9108958F929F92AF92BF92CF92DF923D
:1020F000EF92FF920F931F93CF93DF9300D000D006
:10210000CDB7DEB7FC018581813091F080E00F9082
:102110000F900F900F90DF91CF911F910F91FF9033
:10212000EF90DF90CF90BF90AF909F908F900895E9
:10213000848181FFEBCF83899489A589B689892B16
:102140008A2B8B2B09F45FC07F0140E050E0BA017D
:10215000CF010E9452088823C9F2F701C38CD48CA6
:102160008788908CA18CB28C82E090E0A0E0B0E0F7
:10217000F60180839183A283B3839E012F5F3F4F3B
:10218000B501A401C6010E941207882309F4BECF3D
:1021900000E010E09801B501A401C6010E9470069C
:1021A000882309F4B3CF89809A80AB80BC80F60184
:1021B0008789803119F188EF9FEFAFEFBFE0881674
:1021C0009906AA06BB06C8F2F701178A108E118E6F
:1021D000128E138A148A158A168A848180688483F1
:1021E00061E0C7010E94E609882309F48FCF40E02F
:1021F00050E0BA01C7010E94520889CF88EF9FEFD3
:10220000A0E0B0E0DCCF81E082CFCF92DF92EF920E
:10221000FF921F93CF93DF93EC0180E2689FF00160
:102220001124E95EFC4F9385917161F0842F8274D3
:1022300049F080E0DF91CF911F91FF90EF90DF9008
:10224000CF900895142F6A8B809100019091010125
:10225000A0910201B09103018E879F87A88BB98B53
:10226000C488D588F12CE12C7601DD24CC24CF8ADA
:10227000D88EE98EFA8E828D938DB0E0A0E0AC010D
:10228000BD014C295D296E297F294F8B588F698F9D
:102290007A8F83858871B1F4848D958DA68DB78DE5
:1022A0008B8B9C8BAD8BBE8B81E08D831F701C83D1
:1022B0001E821F82188619861A861B861C861D861A
:1022C00081E0B8CF803109F0B4CF9E012D5E3F4F41
:1022D0008B8D9C8D0E949307882309F4AACF84E0FC
:1022E000E4CF0F931F93CF938C01C62F0E94570FFB
:1022F0006C2F6460C8010E94570F6C2F6B7FC80160
:102300000E94570F83EC90E00197F1F7CF911F9156
:102310000F910895CF93C82F682F607F8BE096E0D0
:102320000E94711180E1C89FB00111248BE096E0FA
:10233000CF910C947111CF93DF93CDB7DEB728976F
:102340000FB6F894DEBF0FBECDBF98E0EEE0F1E02F
:10235000DE01119601900D929A95E1F79091130686
:10236000961708F46FEF70E0660F771F21E030E0FA
:102370002C0F3D1F620F731FFB019081890F806836
:1023800028960FB6F894DEBF0FBECDBFDF91CF9178
:102390000C948A1181E00E948A118BE39FE10197DE
:1023A000F1F70895EBE0F6E086818E7F8683886002
:1023B0000C948A110F931F93CF938C01C62F607FCB
:1023C00061600E94711180E1C89FB00111246160B9
:1023D000C8010E94711181E090E0CF911F910F918F
:1023E00008958091230690912406009711F00C9493
:1023F0009B2260E070E0CB010895CF93DF93EC0166
:1024000080912306909124060097E9F068817981F4
:1024100061157105B1F040912506509126062C8179
:102420003D814217530768F00E9404278C819D81EB
:1024300090932806809327061D821C82DF91CF91FE
:1024400008950E949D258881998190932406809308
:1024500023068A819B8190932606809325068C8192
:102460009D819093280680932706198218821B82EB
:102470001A82E2CFCF93DF93EC0188819981009794
:1024800011F00E949D25198218821D821C821B82D8
:102490001A82DF91CF910895FC018081918100978C
:1024A00011F00C949D250895CF93DF93EC01898D55
:1024B0009A8D009741F00E947E0A898D9A8D0E9424
:1024C0009D251A8E198EDF91CF910895FB01019001
:1024D0000020E9F73197AF01461B570BDC01ED9166
:1024E000FC910280F381E02D09940E94CA110E94A0
:1024F000D21160E081E00E949B1164E671E08BE004
:1025000096E00E94661282E090E09093050180932D
:102510000401109202031092010308950E94CA114F
:102520000E94D21160E081E00E949B116CE671E094
:102530008BE096E00E94661261E081E00E949B11B0
:102540006BE771E08BE096E00E94661281E090E01C
:1025500090930501809304011092020310920103ED
:1025600008950F931F93CF93DF93EC018881998196
:10257000009759F02A813B812617370730F081E018
:10258000DF91CF911F910F9108958B016F5F7F4F66
:102590000E942626009759F0998388831B830A831B
:1025A0002C813D81232B59F7FC011082E8CF80E07C
:1025B000E7CFEF92FF920F931F93CF93DF936115B5
:1025C000710541F480E0DF91CF911F910F91FF9051
:1025D000EF90089541155105B1F07B01EC010C819C
:1025E0001D81040F151FB8010E94B112882351F3F9
:1025F000288139818C819D81B701820F931F0E94B0
:1026000004271D830C8381E0DECFCF93DF93EC01A1
:10261000FB0144815581608171810E94D912811131
:1026200003C0CE010E943A12CE01DF91CF910895EE
:10263000EF92FF920F931F93CF93DF93CDB7DEB747
:1026400028970FB6F894DEBF0FBECDBF7C01CB013B
:102650004AE08E010F5F1F4FB8010E94C222F801AD
:1026600001900020E9F73197AF01401B510BB801F1
:10267000C7010E94D91228960FB6F894DEBF0FBE8C
:10268000CDBFDF91CF911F910F91FF90EF900895F3
:10269000EF92FF920F931F93CF93DF93EC017B0197
:1026A0008A01BA010E94B11281110BC0CE010E94B1
:1026B0003A12CE01DF91CF911F910F91FF90EF90D1
:1026C00008951D830C83B701888199810E94042796
:1026D000F0CFCF93DF93EC01FB018617970749F00A
:1026E000608171816115710541F0448155810E94BD
:1026F0004813CE01DF91CF9108950E943A12F9CF8D
:10270000FC011182108213821282158214820C94B1
:102710006913FC01118210821382128215821482C5
:10272000FB0101900020E9F73197AF01461B570BE1
:102730000C944813EF92FF920F931F93CF93DF9364
:1027400000D0CDB7DEB78C017B0168E971E00E9453
:102750008913C7010E941D0E97FD0EC0803291059E
:1027600059F089831A8241E050E0BE016F5F7F4FCC
:10277000C8010E94D912EDCFC8010F900F90DF91D0
:10278000CF911F910F91FF90EF9008953F924F923C
:102790005F926F927F928F929F92AF92BF92CF92F1
:1027A000DF92EF92FF920F931F93CF93DF93CDB7FA
:1027B000DEB72B970FB6F894DEBF0FBECDBF7C01FE
:1027C000FE013196CE010C966F0130E231938E17E7
:1027D0009F07E1F7DA0130E087E09D91B92E992358
:1027E00009F43CC09E32F1F48A30C9F480E02B96A3
:1027F0000FB6F894DEBF0FBECDBFDF91CF911F9112
:102800000F91FF90EF90DF90CF90BF90AF909F908F
:102810008F907F906F905F904F903F90089538E039
:102820008AE0DBCFE8E6F0E04491442321F03196E2
:102830009413FACFDBCF8317C8F24FED490F4E3513
:10284000A8F64FE9490F4A3118F440EEB42EB90EFC
:10285000F601E30FF11DB0823F5FBFCF8981803267
:1028600029F2322E8B01DB015B968D919C915C9756
:10287000F701948F838F16961D921D921D921C92C4
:102880001997FB011286138614861586F801828536
:102890009385A485B585438954896589768984178C
:1028A0009507A607B70708F04DC025E0B695A79590
:1028B000979587952A95D1F7F82FFF70AF2ED801FD
:1028C00015968C91823008F491CFC8010E94F30CC8
:1028D00097FD8CCFF80182859385A485B5854F96A9
:1028E000A11DB11D82879387A487B587F0E2AF9EB3
:1028F000B0011124695E7C4F6115710509F476CF32
:10290000DB018C91882341F0853E09F058C0BB2043
:1029100029F0BB24B394BACFB1100EC0F701A28A3C
:102920008091000190910101A0910201B0910301F9
:1029300086879787A08BB18BDB018C918111E9CFC2
:10294000BB24B394832D8271823109F04FCFBB2019
:1029500009F443C0C7010E942E05009709F446CF31
:1029600020E2FC0111922A95E9F72BE0F601DC0147
:1029700001900D922A95E1F721E238E2DC015196AF
:102980003C932E93509740E058E01F965C934E93F3
:102990001E9753963C932E93529759963C932E93A1
:1029A000589757965C934E93569781E00E94B904CE
:1029B000882309F41BCF432DF70162890AC04BE03D
:1029C00050E0C6010E94E326892B09F05FCF432D1A
:1029D0006A2DC7010E9405110ACFF8018581823056
:1029E00009F404CFC8010E94E608882309F4FECE4A
:1029F000D8015B96ED91FC915C9716968D909D9019
:102A0000AD90BC901997B2E08B1A9108A108B1085B
:102A1000858504C0880C991CAA1CBB1C8A95D2F71A
:102A200086859785A089B189880E991EAA1EBB1E2E
:102A3000848124013501480E511C611C711C48140D
:102A400059046A047B0409F1E1E04E1A5108610857
:102A5000710881E00E94B904882309F4C7CEE7E138
:102A6000F3E0119287E195E08E179F07D1F740922E
:102A70000001509201016092020170920301809165
:102A8000F20281608093F202DACFD8015B96ED9179
:102A9000FC91258580E092E0A0E0B0E004C0880FC2
:102AA000991FAA1FBB1F2A95D2F7F80143895489A1
:102AB00065897689840F951FA61FB71F838B948B1A
:102AC000A58BB68BD70152961C9287E193E048CF35
:102AD000EF92FF920F931F93CF93DF93EC017B0153
:102AE0008A011B821A8288EE93E0A0E0B0E08C831A
:102AF0009D83AE83BF8386E591E0998388838DE1D2
:102B000090E00E9401259A8F898F009779F02DE13E
:102B1000F701DC0101900D922A95E1F74CE050E0BD
:102B2000B801CE010C960E940B27188EDF91CF9131
:102B30001F910F91FF90EF9008952F923F924F9227
:102B40005F926F927F928F929F92AF92BF92CF923D
:102B5000DF92EF92FF920F931F93CF93DF93CDB746
:102B6000DEB7C756D1090FB6F894DEBF0FBECDBF92
:102B70006C015B01A6964FAFA69719A218A28CE232
:102B800091E09F8F8E8F1BA21C821B829A83898368
:102B90001E824E018EE1880E911CC4010E94FE0728
:102BA00075018E010F5F1F4F240118016FE270E065
:102BB000C7010E94F926009709F45DC0F701208142
:102BC0002F3271F4FFEFEF1AFF0A902F812F82014D
:102BD000492E582E942D852D2801092F182FE6CF28
:102BE0008E198D3008F08CE0682E712CA301B7018E
:102BF000CE01885A9F4F0E940B27E8E5F0E0EC0FCA
:102C0000FD1FE60DF71D1082C8010E947E0AF80123
:102C10008581882301F11EAE1DAE8CE291E09CAF50
:102C20008BAF21961FAE2197A896EEADFFADA8976A
:102C3000AE0EBF1EF501808181112AC0BE01655C08
:102C40007F4FC1010E94370C48E851E0B101C60135
:102C50000E9468153BC021E0AE01485A5F4FB201A7
:102C6000C8010E94C6138823B1F2E60CF71CC2010A
:102C70000E947E0AAFCFC7018A199B09A8969FAF11
:102C80008EAFA897B201CE01CB960E94370CCCCF65
:102C900019A218A28CE291E09F8F8E8F1BA2219621
:102CA0008FAD219781112DC0F6011382128288EE1B
:102CB00093E0A0E0B0E084839583A683B78386E5A4
:102CC00091E091838083128E118E1486C601C959BA
:102CD000DF4F0FB6F894DEBF0FBECDBFDF91CF91AF
:102CE0001F910F91FF90EF90DF90CF90BF90AF902A
:102CF0009F908F907F906F905F904F903F902F901C
:102D00000895A6962FADA697A501BE01655C7F4FDD
:102D1000C4010E94C613882339F2CE01CB960E94CB
:102D20007E0AA6968FADA6978670863039F449A99B
:102D30005AA96BA97CA9C4010E945208B401C1011F
:102D40000E94370CA50182CF85ED8093BC00809155
:102D5000CA029091CB02A091CC02B091CD0207960D
:102D6000A11DB11D23E0B695A795979587952A9546
:102D7000D1F72091BC0024FD03C01092C802089531
:102D80004091CA025091CB026091CC027091CD0269
:102D9000452B462B472B69F30097A105B10541F060
:102DA00025E32A95F1F700000197A109B109E1CFC8
:102DB0008091C9020C94B00E8F929F92AF92BF92F5
:102DC000CF92DF92EF92FF920F931F93CF93DF93F7
:102DD000CDB7DEB7A1970FB6F894DEBF0FBECDBF5B
:102DE00060911D0670911E0641E08E010F5F1F4F1E
:102DF000C8010E949D15B8018FE596E00E94411020
:102E000047E16AE871E0C8010E949D15B80184E4B9
:102E100096E00E9441108FE596E00E94900C892B6D
:102E200009F465C06FE576E0C8010E949A13C801F5
:102E30000E94FD11C8010E944C120E94F1116B0109
:102E400060913C0270913D02072E000C880B990B9B
:102E50000E940E2325E531EC48ED5EE30E944923F4
:102E60004B015C01B601DD0C880B990B0E940E230F
:102E700022EF32ED4DE55FE30E9449239B01AC0157
:102E8000C501B4010E9459240E94C5246B011D8E06
:102E90001C8E1F8E1E8E19A218A24AE0B801C60110
:102EA0000E94C222F80101900020E9F73197AF019A
:102EB000401B510BB801CE014C960E944813BE0135
:102EC000645E7F4F84E496E00E94980042E050E008
:102ED00066E971E084E496E00E94C00CCE014C9655
:102EE0000E944C12D0923D02C0923C0294CF84E4E6
:102EF00096E00E9454128FE596E00E9454121092C0
:102F00003D0210923C02A1960FB6F894DEBF0FBEB0
:102F1000CDBFDF91CF911F910F91FF90EF90DF9088
:102F2000CF90BF90AF909F908F9008951F920F9277
:102F30000FB60F9211242F933F934F935F936F938C
:102F40007F938F939F93AF93BF93EF93FF9387E10B
:102F500095E00E942401FF91EF91BF91AF919F9165
:102F60008F917F916F915F914F913F912F910F9032
:102F70000FBE0F901F9018951F920F920FB60F92D1
:102F800011242F938F939F93EF93FF93E091270545
:102F9000F09128058081E0912D05F0912E0582FDAC
:102FA0001BC09081809130058F5F8F732091310518
:102FB000821741F0E0913005F0E0E95EFA4F958F1D
:102FC00080933005FF91EF919F918F912F910F90FA
:102FD0000FBE0F901F9018958081F4CF1F920F9213
:102FE0000FB60F9211242F933F938F939F93AF931C
:102FF000BF938091F8029091F902A091FA02B091EA
:10300000FB023091F70223E0230F2D3758F501968C
:10301000A11DB11D2093F7028093F8029093F9024D
:10302000A093FA02B093FB028091FC029091FD0202
:10303000A091FE02B091FF020196A11DB11D8093E7
:10304000FC029093FD02A093FE02B093FF02BF9199
:10305000AF919F918F913F912F910F900FBE0F9045
:103060001F90189526E8230F0296A11DB11DD2CFFF
:103070001F920F920FB60F9211242F933F934F93ED
:103080005F936F937F938F939F93AF93BF93EF93D0
:10309000FF938091B900887F803609F44AC0F0F52B
:1030A000883209F4A7C018F5803109F49BC0B8F440
:1030B000882309F4F9C0883009F494C0FF91EF9196
:1030C000BF91AF919F918F917F916F915F914F9140
:1030D0003F912F910F900FBE0F901F901895883140
:1030E00009F488C0803251F78093C60214C080343E
:1030F00009F49DC040F48033B9F38833F9F6809326
:10310000C60285ECB0C0803509F485C0883509F465
:1031100096C0883499F60E94A416D0CF883909F455
:103120008CC038F5883729F050F4883611F0803794
:1031300029F683E08093C8021092A10257C0883814
:1031400009F47BC0803919F0803809F0B7CF80913D
:10315000A102803208F071C0E091A10281E08E0FDF
:103160008093A1028091BB00F0E0EF57FD4F808378
:103170003DC0803B39F0E0F4803A09F479C0883AE8
:1031800009F09CCF84E08093C802109280021092D4
:103190007F02E0911103F0911203099580917F0263
:1031A00081110FC081E080937F0210925F0209C0FD
:1031B000803C09F4A6CF883C09F4A3CF883B09F0F2
:1031C0007DCFE091800281E08E0F80938002F0E05D
:1031D000E15AFD4F80818093BB00909180028091E5
:1031E0007F0229C08091A3028093BB0085EC80936D
:1031F000BC0064CF9091C5028091C402981758F525
:10320000E091C50281E08E0F8093C502F0E0EC559D
:10321000FD4F8081E9CFE091C50281E08E0F809360
:10322000C5028091BB00F0E0EC55FD4F808390918A
:10323000C5028091C4029817C8F285E8D8CFE09102
:10324000C50281E08E0F8093C5028091BB00F0E043
:10325000EC55FD4F80838091C70281115CCF81E0E6
:103260008093A20284EA8093BC001092C80226CF09
:1032700085EC8093BC001092C8028091A10280323C
:1032800030F4E091A102F0E0EF57FD4F1082609121
:10329000A10270E0E0910F03F091100381E892E049
:1032A00009951092A1020ACF1092C60234CFCF9393
:1032B000DF931092160310921503109214031092CC
:1032C00013030E94920E85E990E09093120380937D
:1032D000110386E990E09093100380930F031092FE
:1032E000100680911506823018F098E09093100631
:1032F0008093130662E370E080E090E00E949B02FE
:10330000609116068BE096E00E94570F68EE73E01E
:1033100080E090E00E949B0260E38BE096E00E94D8
:103320007111CBE4D6E4CE010197F1F760E38BE0B5
:1033300096E00E9471112197F1F760E38BE096E02F
:103340000E94711183E592E00197F1F760E28BE052
:1033500096E00E9471118091100680620E948A118D
:1033600084E0809311068CE00E948A110E94CA11A9
:1033700082E08093120686E00E948A1182E00E9419
:103380008A118BE39FE10197F1F7DF91CF910895C7
:10339000CF92DF92EF92FF92E7E1F5E01382128283
:1033A00088EEC82E83E0D82EE12CF12CC482D58281
:1033B000E682F7828AE191E09183808385EC90E058
:1033C0009587848784EC90E09787868780EC90E0EF
:1033D000918B808B81EC90E0938B828B82EC90E0E0
:1033E000958B848B86EC90E0978B868B118E128E5A
:1033F000138E148EE4EBF5E080E580831182E6EB1A
:10340000F5E0158216821186138682E090E0A0E036
:10341000B0E084879587A687B78713A215A614A660
:103420008CE291E093A782A717A6EFEFF5E0138255
:103430001282C482D582E682F78288E391E091838A
:10344000808368E971E080EB96E00E948913E5E9EA
:10345000F6E013821282C482D582E682F78286E584
:1034600091E091838083128E118E1486EAE7F6E054
:1034700013821282C482D582E682F782918380838E
:10348000128E118E1486EFE5F6E013821282C4824A
:10349000D582E682F78291838083128E118E148604
:1034A000E4E4F6E013821282C482D582E682F782D7
:1034B00091838083128E118E1486E9E2F6E01382E6
:1034C0001282C482D582E682F78291838083128E33
:1034D000118E148668E971E083E296E00E948913F8
:1034E00068E971E08DE196E00E94891368E971E076
:1034F00087E196E00E948913EBE0F6E013821282E6
:103500008AE491E09183808387E2848380E18187EC
:1035100082E082871386FF90EF90DF90CF9008952E
:10352000CF93DF93CDB7DEB7C556D1090FB6F89468
:10353000DEBF0FBECDBF789484B5826084BD84B5F4
:10354000816084BD85B5826085BD85B5816085BD9E
:1035500080916E00816080936E0010928100809156
:1035600081008260809381008091810081608093DE
:103570008100809180008160809380008091B10003
:1035800084608093B1008091B00081608093B0002E
:1035900080917A00846080937A0080917A008260C2
:1035A00080937A0080917A00816080937A00809184
:1035B0007A00806880937A001092C10080917A002E
:1035C000846080937A0080917A008D7F80937A0066
:1035D00080917A008E7F80937A008FEF8AB9E09194
:1035E0002705F091280582E08083E0912305F09182
:1035F00024051082E0912505F09126058FEC80834B
:1036000010922F05E0912B05F0912C0586E0808328
:10361000E0912905F0912A05808180618083E09105
:103620002905F0912A05808188608083E091290531
:10363000F0912A05808180688083E0912905F091CE
:103640002A0580818F7D80838091E505882321F084
:1036500080EE95E00E947E0A1092C1051092BF058F
:103660001092BC051092BB058AE08093BA050E94B7
:10367000CD028B0161E08091BA050E94330261E0C6
:103680008091BA050E940502FFB6F894809100036C
:10369000811127C0E8ECF0E08491E4EBF0E0949134
:1036A000E82FF0E0EE0FFF1FE056FF4FA591B49119
:1036B000EC91E92321F461E08AE00E94050261E0D7
:1036C0008AE00E9433028CB580618CBD8CB5806429
:1036D0008CBD61E08DE00E94330261E08BE00E94CE
:1036E0003302809100038F5F80930003FFBE82E569
:1036F0008093B4051092B5058091B4059091B505FD
:103700000E940F037AE0F72E8FEF0E94EA02FA94EC
:10371000F110FACF86EB95E00E94120320E030E032
:10372000A90160E086EB95E00E942803F82E8093C3
:10373000C00521E0821779F00E94CD02601B710B59
:10374000613D774058F381E08093BB0586EB95E0BF
:103750000E94DF02FFCF2AEA31E040E050E068E05B
:1037600086EB95E00E94280382FF2AC0F092C105F3
:103770008091C105C12CD12CE12C50E4F52E823072
:1037800019F0C12CD12C760120E030E0A90167E3CB
:1037900086EB95E00E942803A701960169E286EB7B
:1037A00095E00E9428038093C0058823D1F00E94F1
:1037B000CD02601B710B613D774030F388E0C4CFD0
:1037C00064E0F62E0E94F1028093C005FA94F11095
:1037D000F9CF8A3A11F082E0B7CF82E08093C10539
:1037E000C7CF8091C1058230D1F420E030E0A9013B
:1037F0006AE386EB95E00E942803882311F086E0B7
:10380000A3CF0E94F102807C803C19F483E0809376
:10381000C1050E94F1020E94F1020E94F10286EBB2
:1038200095E00E94DF0280E58093B4051092B50513
:1038300081E00E944705882339F080EE95E00E94E0
:10384000FE07811107C086CF80E00E9447058111E5
:10385000F4CF80CF0E9457190E94571988E08093B7
:10386000160660E08BE096E00E94570F60E080E073
:103870000E949B1160E089E00E94330260E088E0D2
:103880000E94330269E971E08BE096E00E946612C3
:1038900068EE73E080E090E00E949B020E948E122E
:1038A000AA24A394B12C32E0432E512C44E6642E7A
:1038B000712C93E0892E912C89E00E94DC01909379
:1038C0000C0380930B0380E10E94640290930A032F
:1038D0008093090388E00E94DC01909308038093A1
:1038E000070381E10E94640290930603809305031D
:1038F0008FE00E946402909304038093030300917D
:1039000006011091070162E871E0CE014E960E9417
:103910008913BE01625E7F4FCE0101960E94801323
:10392000B801CE0101960E941813811104C0CE0186
:1039300001960E943A12BE016F5F7F4F8DE196E0C3
:103940000E946913CE0101960E944C12CE014E9640
:103950000E944C126DE176E0CE014E960E948013DB
:10396000BE01625E7F4FCE0101960E94801344E04B
:1039700050E06EE172E0CE0101960E94D9128111F1
:1039800004C0CE0101960E943A12BE016F5F7F4FC4
:103990008DE196E00E946913CE0101960E944C12BF
:1039A000CE014E960E944C1280910B0390910C0315
:1039B000019709F072C00E94D21160911D067091AA
:1039C0001E0647E1CE0101960E949D15BE016F5F64
:1039D0007F4F85E996E00E9441100E94CA1168EA73
:1039E00071E08BE096E00E94661268E971E085E97B
:1039F00096E00E9466128EE00E94640280910B03A2
:103A000090910C03019721F589E00E94DC019093CD
:103A10000C0380930B038EE00E94640297FD0396D3
:103A2000BC01759567957595679580EB96E00E944A
:103A3000181360EB76E085E996E00E94980041E07B
:103A400050E069E372E080EB96E00E944813D6CF25
:103A500085E996E00E9454120E94CA1165EB71E05C
:103A60008BE096E00E94661280910601909107011A
:103A70000196909307018093060168EE73E080E061
:103A800090E00E949B020E948E12109202031092FC
:103A90000103B0920501A092040180910903909165
:103AA0000A03853893408CF060E080E00E949B110F
:103AB00080911106982F91609093110689600E9461
:103AC0008A11B0920203A0920103809107039091A2
:103AD0000803019789F461E080E00E949B118091C6
:103AE0001106982F91609093110689600E948A11A7
:103AF00050920203409201038091050390910603C6
:103B0000853893409CF080910401909105010197C4
:103B100069F400910103109102030130110531F4A1
:103B20000E9475121093070100930601809105030E
:103B300090910603853893403CF100910401109167
:103B400005010130110501F58091010390910203F7
:103B50000297D1F40E94CA110E94D21160E081E064
:103B60000E949B1164E671E08BE096E00E94661271
:103B700070920501609204011092020310920103F9
:103B800010930701009306018091050390910603AD
:103B9000853893402CF180910401909105010297A2
:103BA0000497F0F480910103909102030197C1F40E
:103BB0000E94CA110E94D21160E081E00E949B1114
:103BC00060EC71E08BE096E00E94661286E090E087
:103BD0009093050180930401109202031092010357
:103BE0008091050390910603853893403CF18091C4
:103BF000040190910501029709F5009101031091CC
:103C0000020302301105D1F40E94CA110E94D211A0
:103C100060E081E00E949B116AEC71E08BE096E02D
:103C20000E94661290920501809204011092020394
:103C30001092010310930701009306018091050380
:103C400090910603853893404CF100910401109146
:103C500005010330110511F58091010390910203D4
:103C60000297E1F40E94CA110E94D21160E081E043
:103C70000E949B1162ED71E08BE096E00E9466125B
:103C800084E090E090930501809304011092020378
:103C90001092010310930701009306018091050320
:103CA00090910603853893404CF1009104011091E6
:103CB00005010430110511F5809101039091020373
:103CC0000297E1F40E94CA110E94D21160E081E0E3
:103CD0000E949B116AED71E08BE096E00E946612F3
:103CE00085E090E090930501809304011092020317
:103CF00010920103109307010093060180910503C0
:103D0000909106038538934054F18091040190917D
:103D100005018436910519F5009101031091020304
:103D200002301105E1F40E94CA110E94D21160E034
:103D300081E00E949B116AEC71E08BE096E00E94AA
:103D4000661285E690E0909305018093040110923D
:103D50000203109201031093070100930601809162
:103D6000050390910603853893404CF1809104013E
:103D7000909105018536910511F58091010390918F
:103D800002030297E1F40E94CA110E94D21160E07E
:103D900081E00E949B1162ED71E08BE096E00E9451
:103DA000661286E690E090930501809304011092DC
:103DB0000203109201039092070180920601809104
:103DC000050390910603853893405CF180910401CE
:103DD000909105018636910521F58091010390911E
:103DE00002030297F1F40E94CA110E94D21160E00E
:103DF00081E00E949B116AED71E08BE096E00E94E9
:103E0000661287E690E0909305018093040110927A
:103E100002031092010384E090E0909307018093E5
:103E2000060180910503909106038538934024F1A3
:103E300080910401909105010697F1F480910103AE
:103E4000909102030297C1F40E94CA110E94D211FC
:103E500060E081E00E949B1162EE71E08BE096E0F1
:103E60000E94661287E090E0909305018093040120
:103E700010920203109201038091050390910603B2
:103E80008538934024F180910401909105010797B2
:103E9000F1F480910103909102030297C1F40E9412
:103EA000CA110E94D21160E081E00E949B1167EE6E
:103EB00071E08BE096E00E94661288E090E09093BB
:103EC0000501809304011092020310920103809176
:103ED000050390910603853893400CF477C08091D8
:103EE000010390910203019709F078C080910401C9
:103EF00090910501069709F071C00E94CA110E94B5
:103F0000D21160E081E00E949B1161EB71E0CE0173
:103F100001960E9489136DE176E0CE014E960E94D3
:103F20008013BE016F5F7F4FCE014E960E94051336
:103F3000BC018BE096E00E949800CE014E960E9454
:103F40004C12CE0101960E944C1260911D06709198
:103F50001E0641E0CE0101960E949D15BE016F5FD5
:103F60007F4F8AE796E00E944110E0919306F0911E
:103F70009406309759F18581882341F18AE796E0CC
:103F80000E94900C892B91F06AE776E0CE010196B1
:103F90000E949A13CE0101960E94FD11CE01019656
:103FA0000E944C120E94F1116BB9E8CF8AE796E0AB
:103FB0000E9454120E94CA1160E081E00E949B118D
:103FC0006EEE71E08BE096E00E9466128091050330
:103FD00090910603853893400CF44EC18091010303
:103FE00090910203019709F0A4C08091040190917F
:103FF0000501079709F09DC00E94CA110E94D211C5
:1040000060E081E00E949B1161EB71E0CE010196BE
:104010000E9489136DE176E0CE014E960E948013D6
:10402000BE016F5F7F4FCE014E960E940513BC010B
:104030008BE096E00E949800CE014E960E944C12B2
:10404000CE0101960E944C1261E081E00E949B111A
:1040500062EF71E08BE096E00E9466120E94DC162F
:104060006AE871E0CE0101960E9489136DE176E065
:10407000CE014E960E948013BE016F5F7F4FCE012E
:104080004E960E940513BC0187E196E00E946913D9
:10409000CE014E960E944C12CE0101960E944C1207
:1040A000609117067091180641E0CE0101960E94BA
:1040B0009D15BE016F5F7F4F8AE796E00E94411019
:1040C000E0919306F0919406309759F18581882309
:1040D00041F18AE796E00E94900C892B91F06AE703
:1040E00076E0CE0101960E949A13CE0101960E94BD
:1040F000FD11CE0101960E944C120E94F1116BB984
:10410000E8CF8AE796E00E9454120E94CA1160E04C
:1041100081E00E949B116EEE71E08BE096E00E94C0
:1041200066128091050390910603853893400CF444
:10413000A3C08091010390910203019709F0A3C0ED
:104140008091040190910501089709F09CC00E949C
:10415000CA110E94D21160E081E00E949B1161EBC4
:1041600071E0CE0101960E9489136DE176E0CE01E7
:104170004E960E948013BE016F5F7F4FCE014E9618
:104180000E940513BC018BE096E00E949800CE01CE
:104190004E960E944C12CE0101960E944C1261E094
:1041A00081E00E949B1163E072E08BE096E00E9448
:1041B00066120E94DC1666E172E0CE0101960E9452
:1041C00089136DE176E0CE014E960E948013BE0108
:1041D0006F5F7F4FCE014E960E940513BC0187E1B1
:1041E00096E00E946913CE014E960E944C12CE01B9
:1041F00001960E944C12609117067091180641E0DA
:10420000CE0101960E949D15BE016F5F7F4F8AE728
:1042100096E00E944110E0919306F0919406309749
:1042200059F18581882341F18AE796E00E94900C3C
:10423000892B91F06AE776E0CE0101960E949A13ED
:10424000CE0101960E94FD11CE0101960E944C12F2
:104250000E94F1116BB9E8CF8AE796E00E945412F0
:104260000E94CA1160E081E00E949B116EEE71E035
:104270008BE096E00E946612809105039091060300
:104280008538934084F18091010390910203019756
:1042900051F580910401909105018456910904978C
:1042A00010F50E94CA110E94D21160E081E00E94C4
:1042B0009B1163E272E08BE096E00E94661261E07F
:1042C00081E00E949B116BE272E08BE096E00E941D
:1042D000661288E690E090930501809304011092A5
:1042E0000203109201038091050390910603853823
:1042F00093400CF4CDC08091040190910501883663
:10430000910509F0C5C080910103909102030197C6
:1043100009F0BEC0C0901D06D0901E061EAE1DAE98
:104320008CE291E09CAF8BAF21961FAE219719A232
:1043300018A29F8F8E8F1BA2A6961FAEA697212C28
:10434000CE01CB967C0100EE15E0A6968FADA69728
:10435000922DF601E80FF91F20812F3209F4019602
:10436000D601A80FB91FFE01E85AFF4F30E020E048
:10437000AF016D916F3249F0662339F001962F5FDE
:104380003F4F61932C303105A1F7240F351FF90100
:104390001082F601E80FF91F20812F3209F40196EF
:1043A000A6968FAFA697292E8C0D9D1DFC018081AE
:1043B00081112AC01C821B828CE291E09A8389833E
:1043C0001E8222E0B801CE0101960E94C613882306
:1043D00099F0CE0101960E947210882369F0CE01F7
:1043E00001960E942E05009739F025EEFC012083EE
:1043F0001E8281E00E94B904F5E0003E1F07C1F073
:10440000C8010E947E0A14C0F701858181117DC018
:1044100021E0B801C7010E94C613382E25E0003EF6
:10442000120709F466C0C8010E947E0A311067C0F5
:104430000E94CA110E94D21160E081E00E949B118B
:1044400062E372E0CE0101960E948913BE016F5FA4
:104450007F4FCE014E960E9480136DE176E0CE0133
:104460004E960E940513BC018BE096E00E949800D6
:10447000CE014E960E944C12CE0101960E944C1223
:1044800068EE73E080E090E00E949B020E948E1232
:104490008091030390910403019781F480910401BA
:1044A000909105019C01225031092430310520F002
:1044B00084569109049710F40E948E128091030390
:1044C00090910403019741F48091040190910501BA
:1044D000069711F40E94751280E090E0892B09F490
:1044E000EBC90E941001882309F4E3C90E9400006F
:1044F000E0C9882309F49CCF8E01025E1F4F902FE4
:10450000812F8701E92EF82E20CF25E0003E1207EB
:1045100009F48ECF75CF87E196E00E944C128DE1B1
:1045200096E00E944C1283E296E00E944C1280EBCF
:1045300096E00C944C121F93FC0199278827BC012C
:10454000E89411911032E9F3193010F01E30C8F3DD
:104550001B3251F01D3249F4689406C00E94CD22EE
:10456000610F711D811D911D119110531A30B0F30F
:104570003EF490958095709561957F4F8F4F9F4F3A
:104580001F910895BB274A3031F4992322F4BDE2EC
:10459000909581959F4F0C94E322592F482F372FE8
:1045A000262F660F771F881F991F660F771F881F9A
:1045B000991F620F731F841F951F660F771F881F37
:1045C000991F0895BB27FB015527AA27880F991F1C
:1045D000AA1FA41710F0A41B83955051B9F7A05D32
:1045E000AA3308F0A95DA193009779F7B111B193AF
:1045F0001192CB010C94FC22DC01FC01672F71911C
:104600007723E1F7329704C07C916D9370836291B8
:10461000AE17BF07C8F30895E89409C097FB3EF4AE
:1046200090958095709561957F4F8F4F9F4F9923FF
:10463000A9F0F92F96E9BB279395F695879577957D
:104640006795B795F111F8CFFAF4BB0F11F460FF3D
:104650001BC06F5F7F4F8F4F9F4F16C0882311F095
:1046600096E911C0772321F09EE8872F762F05C0A9
:10467000662371F096E8862F70E060E02AF09A9544
:10468000660F771F881FDAF7880F9695879597F939
:1046900008950E945C230C94CD230E94BF2338F020
:1046A0000E94C62320F0952311F00C94B6230C949D
:1046B000BC2311240C9401240E94DE2370F3959FE7
:1046C000C1F3950F50E0551F629FF001729FBB2709
:1046D000F00DB11D639FAA27F00DB11DAA1F649FA5
:1046E0006627B00DA11D661F829F2227B00DA11D58
:1046F000621F739FB00DA11D621F839FA00D611DDE
:10470000221F749F3327A00D611D231F849F600DFE
:10471000211D822F762F6A2F11249F5750409AF027
:10472000F1F088234AF0EE0FFF1FBB1F661F771FB3
:10473000881F91505040A9F79E3F510580F00C947E
:10474000B6230C9401245F3FE4F3983ED4F386959E
:1047500077956795B795F795E7959F5FC1F7FE2B1E
:10476000880F911D9695879597F9089597F99F67FA
:1047700080E870E060E008959FEF80EC08950024E9
:104780000A941616170618060906089500240A94B6
:1047900012161306140605060895092E0394000C3C
:1047A00011F4882352F0BB0F40F4BF2B11F460FFCB
:1047B00004C06F5F7F4F8F4F9F4F089557FD9058F4
:1047C000440F551F59F05F3F71F04795880F97FBD5
:1047D000991F61F09F3F79F087950895121613068F
:1047E0001406551FF2CF4695F1DF08C016161706BE
:1047F0001806991FF1CF86957105610508940895F3
:10480000E894BB2766277727CB0197F908950E9484
:104810004924A59F900DB49F900DA49F800D911DDC
:10482000112408952F923F924F925F926F927F9240
:104830008F929F92AF92BF92CF92DF92EF92FF92B0
:104840000F931F93CF93DF93CDB7DEB7CA1BDB0B5C
:104850000FB6F894DEBF0FBECDBF09942A88398801
:1048600048885F846E847D848C849B84AA84B98408
:10487000C884DF80EE80FD800C811B81AA81B98114
:10488000CE0FD11D0FB6F894DEBF0FBECDBFED0128
:104890000895A29FB001B39FC001A39F700D811D19
:1048A0001124911DB29F700D811D1124911D089539
:1048B0005058BB27AA270E9470240C94CD230E9435
:1048C000BF2338F00E94C62320F039F49F3F19F42B
:1048D00026F40C94BC230EF4E095E7FB0C94B6236D
:1048E000E92F0E94DE2358F3BA1762077307840783
:1048F000950720F079F4A6F50C9400240EF4E095C9
:104900000B2EBA2FA02D0B01B90190010C01CA0189
:10491000A0011124FF27591B99F0593F50F4503E34
:1049200068F11A16F040A22F232F342F4427585F26
:10493000F3CF469537952795A795F0405395C9F73E
:104940007EF41F16BA0B620B730B840BBAF09150F6
:10495000A1F0FF0FBB1F661F771F881FC2F70EC095
:10496000BA0F621F731F841F48F487957795679568
:10497000B795F7959E3F08F0B0CF9395880F08F054
:104980009927EE0F9795879508950E94CC246894F7
:10499000B1110C94012408950E94E62388F09F57DA
:1049A00098F0B92F9927B751B0F0E1F0660F771F53
:1049B000881F991F1AF0BA95C9F714C0B13091F049
:1049C0000E940024B1E008950C940024672F782FF2
:1049D0008827B85F39F0B93FCCF38695779567950E
:1049E000B395D9F73EF490958095709561957F4F7A
:1049F0008F4F9F4F0895EE0FFF1F0590F491E02D0C
:104A000009940F931F93CF93DF938230910510F495
:104A100082E090E0E091B806F091B90630E020E045
:104A2000B0E0A0E0309799F42115310509F44AC0AF
:104A3000281B390B24303105D8F58A819B816115FB
:104A4000710589F1FB0193838283FE0111C04081CE
:104A500051810281138148175907E0F0481759071F
:104A600099F4109761F012960C93129713961C9379
:104A70003296CF01DF91CF911F910F91089500934E
:104A8000B8061093B906F4CF2115310551F042173D
:104A9000530738F0A901DB019A01BD01DF01F801DC
:104AA000C1CFEF01F9CF9093B9068093B806CDCF6F
:104AB000FE01E20FF31F8193919322503109398354
:104AC0002883D7CF2091B6063091B706232B41F427
:104AD00020910A0130910B013093B7062093B6065E
:104AE00020910801309109012115310541F42DB7BC
:104AF0003EB740910C0150910D01241B350BE09104
:104B0000B606F091B706E217F307A0F42E1B3F0B91
:104B10002817390778F0AC014E5F5F4F241735072F
:104B200048F04E0F5F1F5093B7064093B60681932F
:104B300091939FCFF0E0E0E09CCFCF93DF9300977D
:104B4000E9F0FC01329713821282A091B806B0916D
:104B5000B906ED0130E020E01097A1F42081318109
:104B6000820F931F2091B6063091B7062817390798
:104B700009F061C0F093B706E093B606DF91CF91DC
:104B80000895EA01CE17DF07E8F54A815B819E01AF
:104B900041155105B1F7E901FB83EA834991599128
:104BA000C40FD51FEC17FD0761F480819181029637
:104BB000840F951FE90199838883828193819B8368
:104BC0008A83F0E0E0E012968D919C911397009714
:104BD000B9F52D913C911197CD010296820F931F4B
:104BE0002091B6063091B7062817390739F6309765
:104BF00051F51092B9061092B806B093B706A0937B
:104C0000B606BCCFD383C28340815181840F951FE8
:104C1000C817D90761F44E5F5F4F88819981480FAB
:104C2000591F518340838A819B81938382832115FD
:104C3000310509F0B0CFF093B906E093B8069ECFE6
:104C4000FD01DC01C0CF13821282D7CFB0E0A0E01B
:104C5000ECE2F6E20C9414248C01009751F4CB01A1
:104C60000E9401258C01C801CDB7DEB7E0E10C94AC
:104C70003024FC01E60FF71F9C0122503109E21796
:104C8000F30708F49DC0D901CD91DC911197C617A7
:104C9000D70798F0C530D10530F3CE0104978617B9
:104CA000970708F3C61BD70B2297C193D1936D9337
:104CB0007C93CF010E949D25D6CF5B01AC1ABD0A23
:104CC0004C018C0E9D1EA091B806B091B906512CD6
:104CD000412CF12CE12C109731F58091B606909182
:104CE000B7068815990509F05CC04616570608F006
:104CF00058C08091080190910901009741F48DB747
:104D00009EB740910C0150910D01841B950BE81743
:104D1000F90708F055C0F093B706E093B606F9011D
:104D200071836083A0CF8D919C91119712966C90A6
:104D3000129713967C901397A815B90559F56C0135
:104D400042E0C40ED11CCA14DB0420F1AC014A19A4
:104D50005B09DA011296159780F0628273825183A3
:104D60004083D9016D937C93E114F10471F0D70174
:104D70001396FC93EE93129776CF22968C0F9D1F7D
:104D8000F90191838083F301EFCFF093B906E093AB
:104D9000B80669CF4816590608F42C017D01D301E5
:104DA0009ACFCB010E9401257C01009749F0AE010A
:104DB000B8010E94F026C8010E949D25870153CFAB
:104DC00010E000E050CFFB01DC0104C08D910190A8
:104DD000801921F441505040C8F7881B990B089561
:104DE000FB01DC0102C001900D9241505040D8F708
:104DF0000895FC018191861721F08823D9F799271E
:104E000008953197CF010895FB01DC0101900D92C7
:104E10000020E1F70895FB01DC014150504048F0CB
:104E200001900D920020C9F701C01D9241505040E1
:104E3000E0F7089510E0CAE6D0E004C0FE010E9449
:104E4000FB242196CB36D107C9F7F894FFCFFFFF9B
:104E5000FFFF010001000000BA06800000004000D2
:104E600014005400000000004601A600D300930186
:104E70000401E200F60000000000260CA600200A53
:104E8000970000000000280FFB0E3E10D10EF40E1C
:104E9000E10ED20E00000000DA11A6003E109700CD
:104EA00000000000DD0CC00CB00C870C900C130E41
:104EB000470E417564696F203100506C6179426121
:104EC000636B20417564696F0044656C657465208F
:104ED000417564696F002F006C6F77706173732E7A
:104EE000747874000D0A00566F696365205265631B
:104EF0006F72646572005245434F5244494E472ECB
:104F00002E2E0046696C65205361766564004E6FF5
:104F10002045666665637400417564696F203200E0
:104F2000417564696F203300417564696F203400F6
:104F30004261737300547265626C6500656E640053
:104F4000776974682042617373204566666563748F
:104F5000007769746820547265626C6520456666E6
:104F60006563740068696768706173732E74787420
:104F700000436F6E6669726D0043616E63656C001D
:0A4F800044656C6574656420000050
:107E0000112484B714BE81FFF0D085E080938100F7
:107E100082E08093C00088E18093C10086E0809377
:107E2000C20080E18093C4008EE0C9D0259A86E02C
:107E300020E33CEF91E0309385002093840096BBD3
:107E4000B09BFECF1D9AA8958150A9F7CC24DD24C4
:107E500088248394B5E0AB2EA1E19A2EF3E0BF2EE7
:107E6000A2D0813461F49FD0082FAFD0023811F036
:107E7000013811F484E001C083E08DD089C08234E0
:107E800011F484E103C0853419F485E0A6D080C0E4
:107E9000853579F488D0E82EFF2485D0082F10E0AE
:107EA000102F00270E291F29000F111F8ED06801E7
:107EB0006FC0863521F484E090D080E0DECF843638
:107EC00009F040C070D06FD0082F6DD080E0C81688
:107ED00080E7D80618F4F601B7BEE895C0E0D1E017
:107EE00062D089930C17E1F7F0E0CF16F0E7DF06D8
:107EF00018F0F601B7BEE89568D007B600FCFDCFD4
:107F0000A601A0E0B1E02C9130E011968C91119780
:107F100090E0982F8827822B932B1296FA010C0160
:107F200087BEE89511244E5F5F4FF1E0A038BF0790
:107F300051F7F601A7BEE89507B600FCFDCF97BE46
:107F4000E89526C08437B1F42ED02DD0F82E2BD052
:107F50003CD0F601EF2C8F010F5F1F4F84911BD097
:107F6000EA94F801C1F70894C11CD11CFA94CF0C13
:107F7000D11C0EC0853739F428D08EE10CD085E9AC
:107F80000AD08FE07ACF813511F488E018D01DD067
:107F900080E101D065CF982F8091C00085FFFCCF94
:107FA0009093C60008958091C00087FFFCCF809118
:107FB000C00084FD01C0A8958091C6000895E0E648
:107FC000F0E098E1908380830895EDDF803219F02E
:107FD00088E0F5DFFFCF84E1DECF1F93182FE3DFCA
:107FE0001150E9F7F2DF1F91089580E0E8DFEE27F6
:047FF000FF270994CA
:027FFE00040479
:00000001FF
