S01100004144435F696E7075742E73726563BC
S11300000C9469000C9491000C9491000C94910050
S11300100C9491000C9491000C9491000C94910018
S11300200C9491000C9491000C9491000C94910008
S11300300C9491000C9491000C9491000C949100F8
S11300400C94C2050C9491000C946D1C0C949F1C90
S11300500C9491000C9491000C9491000C949100D8
S11300600C9491000C94910000000008000201001F
S1130070000304070000000000000000010204085F
S113008010204080010204081020010204081020FE
S1130090040404040404040402020202020203032A
S11300A00303030300000000250028002B000000C8
S11300B00000240027002A007C3C3E5E2B3D3F2F9D
S11300C05B5D3B2C2A225C000203800B220FC51CC3
S11300D01C0311241FBECFEFD8E0DEBFCDBF11E05B
S11300E0A0E0B1E0E0ECF0E402C005900D92A23E85
S11300F0B107D9F725E0A2EEB1E001C01D92A53306
S1130100B207E1F710E0C8E6D0E004C02197FE0191
S11301100E94781DC436D107C9F70E94F1040C94DB
S113012053200C94000082E68093B80084E080930E
S1130130BC001092B900089584EA8093BC008091B9
S1130140BC0087FFFCCF08958093BB0084E88093B4
S1130150BC008091BC0087FFFCCF08958091BB0058
S113016082608093BB0084E88093BC008091BC00D3
S113017087FFFCCF8091BB008D7F8093BB0084E818
S11301808093BC008091BC0087FFFCCF08959091C0
S1130190BB009E7F9093BB0094E89093BC00909129
S11301A0BC0097FFFCCF9091BB009F709093BB0065
S11301B094E89093BC009091BC0097FFFCCF909181
S11301C0BB00807F892B8093BB0084E88093BC00B4
S11301D08091BC0087FFFCCF0C94AE00CF93C82F56
S11301E08091BB008E7F8093BB0084E88093BC0029
S11301F08091BC0087FFFCCF8091BB008F708093FF
S1130200BB0084E88093BC008091BC0087FFFCCFD6
S11302108091BB009C2F907F892B8093BB0084E846
S11302208093BC008091BC0087FFFCCF0E94AE008D
S11302308091BB008F708093BB0084E88093BC00E6
S11302408091BC0087FFFCCF2091BB0030E1C39FAD
S1130250C0011124822B8093BB0084E88093BC00EE
S11302608091BC0087FFFCCFCF910C94AE00CF935C
S1130270C82F8091BB0081608093BB0084E8809389
S1130280BC008091BC0087FFFCCF8091BB008F70C5
S11302908093BB0084E88093BC008091BC0087FFFE
S11302A0FCCF8091BB009C2F907F892B8093BB0057
S11302B084E88093BC008091BC0087FFFCCF0E943F
S11302C0AE008091BB008F708093BB0084E8809364
S11302D0BC008091BC0087FFFCCF2091BB0030E1C3
S11302E0C39FC0011124822B8093BB0084E88093B8
S11302F0BC008091BC0087FFFCCFCF910C94AE0072
S113030080E30E94C70080E30E94C70080E20E944D
S1130310C70088E20E94EE0081E00E94EE0086E0C1
S11303200E94EE0080E80E94EE008FE00C94EE0044
S1130330CF93DF93EC018991882319F00E94370150
S1130340FACFDF91CF910895CF93DF93FB01228100
S11303503381DC0113963C932E931297448155818B
S11303606681778114964D935D936D937C93179773
S1130370408551856285738518964D935D936D9381
S11303807C931B971C96EF012C969C01275E3F4F94
S113039049914D93A217B307D9F7218D328DFC01F2
S11303A0328F218FDF91CF9108958091E7018230C0
S11303B049F480E80E94EE0081E090E09093E3012C
S11303C08093E2018091E601843049F480EC0E943C
S11303D0EE0082E090E09093E3018093E2010895BF
S11303E081E00E94EE0080E80E94EE008DE091E042
S11303F00E94980180EC0E94EE008CE191E00E9442
S1130400980181E090E09093070180930601109297
S1130410E3011092E201089581E00E94EE0080E879
S11304200E94EE0083E691E00E94980180EC0E9415
S1130430EE0081E891E00E94980182E090E09093C0
S11304400701809306011092E3011092E2010895DE
S113045081E00E94EE0080E80E94EE0083E691E0D5
S11304600E94980180EC0E94EE0081E891E00E94D5
S1130470980183E090E09093070180930601109225
S1130480E3011092E20108958091E501883039F585
S11304908091E2019091E301019709F580910601B1
S11304A0909107010297D9F481E00E94EE0080E860
S11304B00E94EE0089E291E00E94980180EC0E9483
S11304C0EE0080E791E00E94980184E090E0909330
S11304D00701809306011092E3011092E2018091DA
S11304E0E501883039F58091E2019091E3010297AA
S11304F009F580910601909107010297D9F481E0F2
S11305000E94EE0080E80E94EE0089E291E00E94E1
S1130510980180EC0E94EE0080E791E00E9498012F
S113052085E090E090930701809306011092E30127
S11305301092E20108958091E501883039F58091A7
S1130540E2019091E301892B09F1809106019091D8
S113055007010397D9F481E00E94EE0080E80E942D
S1130560EE0083E391E00E94980180EC0E94EE008B
S113057080E491E00E94980186E090E09093070166
S1130580809306011092E3011092E2010895809194
S1130590E5018830D9F4809106019091070106970E
S11305A0A9F481E00E94EE0080E80E94EE008AE453
S11305B091E00E9498012FEF83ED90E32150804059
S11305C09040E1F700C000000C94F0010895809180
S11305D0E401803149F4809106019091070102976A
S11305E0029710F40E94F0018091E401803149F4F3
S11305F080910601909107010497029710F40C94DE
S11306000C02089564E971E08BE292E00E947C0799
S113061080E192E00E944C0985EF91E00E944C0930
S113062064E971E08FEE91E00E947C0762E571E07D
S113063089EE91E00C947C0789EE91E00E940B070F
S11306408FEE91E00E940B078BE292E00C940B0773
S1130650CF93DF93CDB7DEB76B970FB6F894DEBFB9
S11306600FBECDBF8091E501883009F052C0809162
S1130670E2019091E301019709F04FC080910601D6
S113068090910701049709F048C081E00E94EE00B0
S113069080E80E94EE008BE591E00E949801409171
S11306A0E9015091EA0121E06BE372E0CE01019689
S11306B00E94090BBE016F5F7F4F85EF91E00E949E
S11306C0A40185EF91E00E94C009882311F185EF10
S11306D091E00E947F09892BC1F040E265EF71E04F
S11306E0CE0101960E949C05BE016F5F7F4F8FEE85
S11306F091E00E94CE07CE0101960E940B078FEE77
S113070091E00E9474086BB9E2CF85EF91E00E94FA
S1130710AE098091E5018830E9F48091E20190917D
S1130720E3010297B9F480910601909107010497BF
S113073089F481E00E94EE0080E80E94EE008BE5DF
S113074091E00E94980180EC0E94EE008BE691E01B
S11307500E9498018091E5018830B1F48091E20112
S11307609091E301019781F4809106019091070132
S1130770059751F481E00E94EE0080E80E94EE00AB
S113078089E791E00E9498018091E5018830E9F4BD
S11307908091E2019091E3010297B9F480910601FE
S11307A090910701059789F481E00E94EE0080E8AA
S11307B00E94EE0089E791E00E94980180EC0E947B
S11307C0EE008BE691E00E9498016B960FB6F894C8
S11307D0DEBF0FBECDBFDF91CF9108958F929F9260
S11307E0AF92BF92CF92DF92EF92FF920F931F933B
S11307F0CF93DF93CDB7DEB76B970FB6F894DEBF18
S11308000FBECDBF8091E801813009F0D7C040917F
S1130810E9015091EA0127E16BE372E0CE01019610
S11308200E94090BBE016F5F7F4F80E192E00E943E
S1130830A40188248A9430E2932E8091E8018130C7
S113084009F09FC00E94EE0089E891E00E9498019F
S113085005E010E083E991E00E9498012FEF80E722
S113086092E0215080409040E1F700C00000015028
S1130870110981F789B181708093E80181E00E94B8
S1130880EE008EE00E941806BC01990F880B990BAC
S11308901F921F921F928F92A12CB12C6501EE24FE
S11308A0EA9413E0F12E00E010E020E030E0A9012A
S11308B00E94C9068B018BE292E00E9432080F90DD
S11308C00F900F900F900A3011057CF41A82198250
S11308D09A8260E070E08BE292E00E946208FC0180
S11308E08081898342E050E03EC004361105CCF497
S11308F019821A821B829B8260E070E08BE292E094
S11309000E946208FC018081898361E070E08BE2CF
S113091092E00E946208FC0180818A8343E050E0F7
S113092022C019821A821B821C829C8260E070E0C1
S11309308BE292E00E946208FC018081898361E07D
S113094070E08BE292E00E946208FC0180818A835D
S113095062E070E08BE292E00E946208FC01808118
S11309608B8344E050E0BE016F5F7F4F80E192E0F3
S11309700E94A70864E971E08BE292E00E94DA0722
S11309805CCF80E192E00E94AE0985E991E00E948B
S11309909801FFEF23ED80E3F15020408040E1F720
S11309A000C000000E94F0011092E3011092E201E5
S11309B081E090E090930701809306016B960FB657
S11309C0F894DEBF0FBECDBFDF91CF911F910F9181
S11309D0FF90EF90DF90CF90BF90AF909F908F905B
S11309E0089581EE8AB98AB1807E8AB980917A00AD
S11309F0846080937A0080917A008D7F80937A005E
S1130A0080917A008E7F80937A006AE08BE392E093
S1130A100E94E709811101C0FFCF0E9493000E9448
S1130A209C0080E70E94A4000E94800180EA91E07B
S1130A300E9498012FEF80E792E02150804090407F
S1130A40E1F700C000000E94F00189B18170809339
S1130A50E80189B182708093E70189B18470809341
S1130A60E60189B188708093E50189B18071809332
S1130A70E4010E94EE030E94D5018091E5018830D3
S1130A8071F48091060190910701019741F48091DE
S1130A90E2019091E301019711F40E940C0280910C
S1130AA0E501883071F48091060190910701019766
S1130AB041F48091E2019091E301029711F40E94C4
S1130AC028020E9444020E9428030E949B020E9462
S1130AD0C7020E94E702B9CF0F931F93CF93DF930E
S1130AE0EC010E940C06688779878A879B87E881D6
S1130AF0F9810284F385E02DCE01099597FF17C093
S1130B000E940C06088519852A853B85DC01CB01EA
S1130B10801B910BA20BB30B0C811D812E813F8195
S1130B2080179107A207B30710F38FEF9FEFDF91B0
S1130B30CF911F910F910895EF92FF920F931F93FE
S1130B40CF93DF93EC017B01042F64E971E00E94F1
S1130B507C07C7010E946C0510E097FD0BC080174D
S1130B60910741F0682FCE010E941F08C7010E941F
S1130B706C05F3CFCE01DF91CF911F910F91FF90C0
S1130B80EF9008951F920F920FB60F9211242F9396
S1130B903F938F939F93AF93BF9380913202909131
S1130BA03302A0913402B09135023091310223E036
S1130BB0230F2D3720F40196A11DB11D05C026E891
S1130BC0230F0296A11DB11D20933102809332029E
S1130BD090933302A0933402B0933502809136028D
S1130BE090913702A0913802B09139020196A11D6B
S1130BF0B11D8093360290933702A0933802B093CC
S1130C003902BF91AF919F918F913F912F910F9096
S1130C100FBE0F901F9018952FB7F8946091320271
S1130C207091330280913402909135022FBF089560
S1130C308E3008F08E502091080190E4299F900195
S1130C4011248770822B80937C0080917A008064C9
S1130C5080937A0080917A0086FDFCCF80917800A1
S1130C602091790090E0922B0895833081F028F44C
S1130C70813099F08230A1F008958730A9F088304E
S1130C80B9F08430D1F4809180008F7D03C08091CD
S1130C9080008F7780938000089584B58F7702C099
S1130CA084B58F7D84BD08958091B0008F7703C093
S1130CB08091B0008F7D8093B0000895CF93DF932F
S1130CC090E0FC01E458FF4F2491FC01E057FF4FF2
S1130CD08491882361F190E0880F991FFC01E2550B
S1130CE0FF4FC591D491FC01EC55FF4FA591B491F0
S1130CF0611109C09FB7F894888120958223888365
S1130D00EC912E230BC0623061F49FB7F894888174
S1130D10322F309583238883EC912E2B2C939FBF05
S1130D2006C08FB7F894E8812E2B28838FBFDF91FC
S1130D30CF9108951F93CF93DF93282F30E0F901CB
S1130D40E859FF4F8491F901E458FF4FD491F90118
S1130D50E057FF4FC491CC23C1F0162F81110E949C
S1130D603506EC2FF0E0EE0FFF1FEC55FF4FA59179
S1130D70B4919FB7F894111104C08C91D095D823E5
S1130D8002C0EC91DE2BDC939FBFDF91CF911F91CA
S1130D9008954F925F926F927F92AF92BF92CF92DB
S1130DA0DF92EF92FF920F931F93CF93DF93CDB710
S1130DB0DEB729013A019B01AC0124193509460922
S1130DC0570989899A89AB89BC89BC01CD016A1903
S1130DD07B098C099D090E941C1DA80197012419F7
S1130DE03509460957090E944E1DCA01B9016A0D09
S1130DF07B1D8C1D9D1DDF91CF911F910F91FF9045
S1130E00EF90DF90CF90BF90AF907F906F905F9006
S1130E104F9008950895FC0180819181009711F00D
S1130E200C94251E0895CF93DF93EC01888199815A
S1130E30009711F00E94251E198218821D821C82BF
S1130E401B821A82DF91CF9108950F931F93CF9342
S1130E50DF93EC018B016F5F7F4F888199810E9442
S1130E60AE1E009731F0998388831B830A8381E047
S1130E7001C080E0DF91CF911F910F910895CF932E
S1130E80DF93EC0188819981892B29F08A819B81E8
S1130E908617970760F4CE010E942507882341F046
S1130EA08C819D81892B19F4E881F981108281E07C
S1130EB0DF91CF910895EF92FF920F931F93CF93F9
S1130EC0DF93EC017B018A01BA010E943F07811183
S1130ED004C0CE010E94130707C01D830C83B70111
S1130EE0888199810E94BC1FCE01DF91CF911F910F
S1130EF00F91FF90EF900895FC01118210821382EC
S1130F001282158214826115710551F0FB01019062
S1130F100020E9F73197AF01461B570B0C945B0790
S1130F2008950F931F93CF93DF938C01EB01FC0182
S1130F30808191810097D1F0688179816115710573
S1130F4099F02AE037E0232B79F0428153812C81F8
S1130F503D814217530740F00E94BC1F8C819D8144
S1130F60F8019583848313C00E94251E888199818A
S1130F70F801918380838A819B81938382838C810E
S1130F809D8195838483198218821B821A821D8213
S1130F901C82DF91CF911F910F910895CF93DF931E
S1130FA0EC018617970711F00E949107CE01DF919B
S1130FB0CF910895CF93DF93EC016115710559F03A
S1130FC0FB0101900020E9F73197AF01461B570B55
S1130FD00E945B0702C00E941307CE01DF91CF91EC
S1130FE00895EF92FF920F931F93CF93DF936115B0
S1130FF0710511F480E01CC041155105C1F07B015D
S1131000EC018C819D818A01080F191FB801CE0162
S11310100E943F07882371F3288139818C819D8147
S1131020B701820F931F0E94BC1F1D830C8381E0B4
S1131030DF91CF911F910F91FF90EF900895CF937F
S1131040DF9300D0CDB7DEB769831A8241E050E068
S1131050BE016F5F7F4F0E94F1070F900F90DF91E9
S1131060CF910895EF92FF920F931F93CF93DF9345
S1131070CDB7DEB728970FB6F894DEBF0FBECDBF4D
S11310807C01CB014AE08E010F5F1F4FB8010E9423
S1131090D21FF80101900020E9F73197AF01401BFE
S11310A0510BB801C7010E94F10728960FB6F894B6
S11310B0DEBF0FBECDBFDF91CF911F910F91FF9087
S11310C0EF900895FC01248135816217730720F4A1
S11310D080819181009729F410923A028AE392E088
S11310E00895860F971F0895FC01808191810097D0
S11310F011F00C94741F60E070E0CB010895089522
S1131100CF93DF931F92CDB7DEB76983DC01ED91F6
S1131110FC910280F381E02D41E050E0BE016F5F5D
S11311207F4F09950F90DF91CF910895DC01599677
S11311308D919C915A97009739F0DC01ED91FC91C7
S11311400480F581E02D099480E090E00895CF9328
S1131150DF93EC01898D9A8D009739F481E090E05A
S11311609B838A8380E090E00BC0FC01138212828F
S11311700E94F414E98DFA8D22813381232B71F7B7
S1131180DF91CF910895FC01818D928D009719F024
S113119061E00C943A120895CF93DF931F92CDB778
S11311A0DEB741E050E0BE016F5F7F4F0E945510F3
S11311B0019719F4898190E002C08FEF9FEF0F909F
S11311C0DF91CF910895FC01818D928D009711F0EC
S11311D00C94CC088FEF9FEF08950F931F93CF9338
S11311E0DF93FC01818D928D0097B9F0EF010E948D
S11311F0CC088C010F3F8FEF180791F0898D9A8DE1
S1131200FC01428553856485758541505109610906
S113121071090E94A311C80105C080E090E002C0DA
S11312208FEF9FEFDF91CF911F910F910895EF9270
S1131230FF920F931F93CF93DF93EC017B018A01FD
S11312401B821A8288EE93E0A0E0B0E08C839D8339
S1131250AE83BF8383EB91E0998388838DE190E033
S11312600E948D1D9A8F898F009779F02DE1F701E7
S1131270DC0101900D922A95E1F74CE050E0B801B1
S1131280CE010C960E94C31F188EDF91CF911F913F
S11312900F91FF90EF900895FC011382128288EE63
S11312A093E0A0E0B0E084839583A683B78383EBC7
S11312B091E091838083128E118E14860895DC014F
S11312C05996ED91FC915A97309729F06285738570
S11312D08485958508956FEF7FEFCB010895DC0138
S11312E05996ED91FC915A97309729F06389748946
S11312F085899689089560E070E0CB010895CF92C6
S1131300DF92EF92FF92CF93DF93FC01218D328D18
S1131310232BD9F0EC010E946F096B017C01CE01F3
S11313200E945F09A7019601261B370B480B590B36
S1131330DA01C901811530E89307A105B10538F038
S11313408FEF9FE7A0E0B0E002C080E090E0DF9183
S1131350CF91FF90EF90DF90CF900895CF93DF93DC
S1131360EC01898D9A8D009741F00E948D12898D30
S11313709A8D0E94251E1A8E198EDF91CF910895A1
S1131380DC015996ED91FC915A97309721F081E058
S11313909581911101C080E008950F931F93CF931D
S11313A0DF93EC018B0141E00E94521A811109C0C4
S11313B040E0B801CE01DF91CF911F910F910C94C1
S11313C0521A81E0DF91CF911F910F9108950F93ED
S11313D01F93CF93DF93EC01162F8FA5882321F061
S11313E0CE018A960E948D12412F61E0CE010E94A7
S11313F0F20C882389F08E01045F1F4FBE01C801DF
S11314000E94CD09882341F0B801CE018A960E943A
S1131410041091E0811101C090E0892FDF91CF91F8
S11314201F910F910895FC01DB0112968D919C91FF
S113143013979383828387EC91E09183808314963E
S11314408C911497848315968C91159785831696A1
S11314504D915D916D917C91199746835783608777
S113146071871A964D915D916D917C911D9742877C
S11314705387648775871E964D915D916D917C911C
S1131480519746875787608B718B52968C915297F0
S1131490828B53964D915D916D917C915697438BC0
S11314A0548B658B768B57964D915D916D917C91A4
S11314B05A97478B508F618F728F5B968D919C9159
S11314C05C97948F838F08954F925F926F927F926F
S11314D08F929F92AF92BF92CF92DF92EF92FF9240
S11314E00F931F93CF93DF93CDB7DEB7C754D109C2
S11314F00FB6F894DEBF0FBECDBF5C014A013901BF
S113150019A218A287EC91E09F8F8E8F1BA21C82D8
S11315101B829A8389831E82645F7F4F6E018EE1F2
S1131520C80ED11CC6010E94041074018E010F5F05
S11315301F4F5C2C4D2C6FE270E0C7010E94B11F5D
S1131540009709F443C0F70120812F3271F4FFEFB3
S1131550EF1AFF0A902F812F052D142D2C01C201A3
S1131560502E412E092F182FE6CF8E198D3008F0FA
S11315708CE0C82ED12CA601B701CE01CB960E94D7
S1131580C31FEBE3F0E0EC0FFD1FEC0DFD1D10821B
S1131590C8010E948D1221E0AE01455C5F4F652DAC
S11315A0742DC8010E940714811109C0F50113822A
S11315B0128287EC91E091838083158211C0EC0C38
S11315C0FD1C852D942D0E948D12C9CFE818F908B1
S11315D0F301F182E082652D742DC5010E94130A86
S11315E0C501C95BDF4F0FB6F894DEBF0FBECDBF98
S11315F0DF91CF911F910F91FF90EF90DF90CF90EB
S1131600BF90AF909F908F907F906F905F904F901E
S11316100895DF92EF92FF920F931F93CF93DF937E
S1131620CDB7DEB7C955D1090FB6F894DEBF0FBEEA
S1131630CDBF7C018A01D22E9E01285A3F4FCE0194
S1131640CB960E94640A6A968EAD9FAD6A97080F86
S1131650191FF801808181110AC0BE01655C7F4FAA
S1131660CE0101960E94130A41EC51E033C019A245
S113167018A287EC91E09F8F8E8F1BA221968FADCD
S11316802197811104C0C7010E944C0929C02D2D46
S1131690A801BE01655C7F4FCE014E960E940714DF
S11316A0882389F3CE01CB960E948D128D2D8670EE
S11316B0863041F449A95AA96BA97CA9CE014E965A
S11316C00E94A311BE01625E7F4FCE0101960E946B
S11316D0130AA801BE016F5F7F4FC7010E9417095B
S11316E0C701C75ADF4F0FB6F894DEBF0FBECDBF98
S11316F0DF91CF911F910F91FF90EF90DF900895AC
S1131700EBE3F2E0158216821186138682E090E004
S1131710A0E0B0E084879587A687B78713A215A6B3
S113172014A687EC91E093A782A717A608959FB704
S1131730F8942091920480919004213019F48DBB87
S11317409FBF08958FBF08950F93FC0180E092E13D
S1131750AAE7B0E030E0481759076A077B0740F46E
S1131760B695A795979587953F5F3630A1F737E0F3
S113177091E09327222311F020E501C020E70C70AB
S1131780892F8695082B022B0083917091830F91EA
S1131790089520919204222399F04FB7F894209150
S11317A09204213059F42DB3209390043DB3209139
S11317B09104209523232DBB4FBF02C04093900476
S11317C08CBD9DBD08958EBD00000DB407FEFDCFF8
S11317D08EB508958FEF0C94E30B61E0FC018481D6
S11317E00E949A0680918402882339F01092840220
S11317F08091920481110C94970B0895CF93DF93F9
S1131800EC0180918402811109C081E080938402FB
S113181080918502909186020E94C90B60E08C81C0
S1131820DF91CF910C949A06CF93DF93EC018E81D4
S1131830882389F08F8198859C012F5F3F4F3887DB
S11318402F838230924018F40E94EA0BF3CFCE012A
S11318500E94ED0B1E82DF91CF9108950F93CF93D9
S1131860DF9300D0CDB7DEB7673028F026E1FC0166
S1131870258380E047C06230F9F058F46623A9F06C
S1131880613079F500E021E040E059E06DE370E07B
S11318902EC06430F9F0B8F0653019F500E021E0AD
S11318A040E950ED63E070E022C000E021E040E454
S11318B058E76DE771E01BC000E021E040E854E820
S11318C06EE170E014C000E021E040E452E46FE017
S11318D070E00DC000E021E040E251EA67E070E012
S11318E006C000E021E048E458EE61E070E0CE017B
S11318F001960E94A40B89819A8190938602809319
S1131900850281E00F900F90DF91CF910F910895A0
S11319100F931F93CF93DF93EB010E940C068B016F
S11319200E94EA0B8F3F49F00E940C06601B710B6A
S11319306C177D07A8F380E001C081E0DF91CF91AF
S11319401F910F9108958F929F92AF92BF92FF9231
S11319500F931F93CF93DF93EC01F62E49015A01A5
S11319600E94140CCE010E94FE0B6CE271E0CE01C9
S11319700E94880C8F2D80640E94E30B08E110E024
S1131980D501C401002E04C0B695A79597958795F7
S11319900A94D2F70E94E30B08501109083F8FEF15
S11319A0180771F7FF2029F088E0F81204C087E8CF
S11319B003C085E901C08FEF0E94E30B10E00E9491
S11319C0EA0B8A8787FF04C01F3F11F01F5FF7CF20
S11319D0DF91CF911F910F91FF90BF90AF909F9097
S11319E08F9008957F928F929F92AF92BF92CF92E1
S11319F0DF92EF92FF920F931F93CF93DF9300D068
S1131A00CDB7DEB77C01762EFC01138611861682D3
S1131A10158244830E940C066B0161E0F701848106
S1131A200E945E0661E0F70184810E949A060E948A
S1131A30691B00E021E040E950ED63E070E0CE0175
S1131A4001960E94A40B89819A81909386028093C7
S1131A5085020E94C90B1AE08FEF0E94E30B11501C
S1131A60D9F78091920481110E94970BC7010E94BB
S1131A70FE0B20E030E0A90160E0C7010E94A30C46
S1131A80082FF7018287813049F00E940C066C19F7
S1131A907D09613D774068F381E050C02AEA31E076
S1131AA040E050E068E0C7010E94A30C82FF03C03D
S1131AB0F70103870EC004E00E94EA0BF701828756
S1131AC00150D1F78A3A11F082E039C082E0F7017F
S1131AD08387F7018385823021F0812C912C540176
S1131AE005C0812C912CA12C80E4B82E20E030E09C
S1131AF0A90167E3C7010E94A30CA501940169E24F
S1131B00C7010E94A30CF7018287882349F00E9431
S1131B100C066C197D09613D774040F388E00EC0E6
S1131B20F70183858230F1F420E030E0A9016AE313
S1131B30C7010E94A30C882339F086E0F70185834E
S1131B40C7010E94ED0B16C00E94EA0B807C803C0A
S1131B5019F483E0F70183870E94EA0B0E94EA0BE1
S1131B600E94EA0BC7010E94ED0B672DC7010E947A
S1131B702E0C182F812F0F900F90DF91CF911F9172
S1131B800F91FF90EF90DF90CF90BF90AF909F9018
S1131B908F907F9008950F931F93CF93DF93EC0161
S1131BA00E940C068B010E94EA0B8A878F3F49F43E
S1131BB00E940C06601B710B6D327140A0F38FE024
S1131BC003C08E3F39F08DE08D83CE010E94ED0B72
S1131BD080E001C081E0DF91CF911F910F910895C2
S1131BE0CF92DF92EF92FF920F931F93CF93DF93E5
S1131BF0EC016901C801820F931F8130924008F003
S1131C005CC08E81882371F088819981AA81BB810F
S1131C1084179507A607B70729F48F819885C816F6
S1131C20D90610F5488359836A837B838B85833077
S1131C3039F089E0440F551F661F771F8A95D1F745
S1131C409A01AB0161E1CE010E94A30C882319F033
S1131C5083E08D8332C0CE010E94CB0D882369F1CD
S1131C6018861F8281E08E838F8198858C159D054F
S1131C7040F40E94EA0B8F819885019698878F83A0
S1131C80F3CF6701E00EF11ECE14DF0431F00E94A1
S1131C90EA0BF60181936F01F7CF8F819885080FC6
S1131CA0191F18870F838985882319F0011512409D
S1131CB048F0CE010E94140C05C0CE010E94ED0B29
S1131CC080E001C081E0DF91CF911F910F91FF90DF
S1131CD0EF90DF90CF900895EF92FF920F931F93B0
S1131CE00115110519F00E94F00D01C081E01F914A
S1131CF00F91FF90EF900895EF92FF920F931F932F
S1131D00790100E012E020E030E00E94F00D1F9124
S1131D100F91FF90EF900895EF92FF920F931F930E
S1131D20CF93DF938C01862F7A010E94E30BE701A6
S1131D308EEFF81A89910E94E30BCE15DF05D1F7D7
S1131D408FEF0E94E30B8FEF0E94E30B0E94EA0BDC
S1131D50F80182878F71853039F081E18583C8016C
S1131D600E94ED0B80E001C081E0DF91CF911F91D3
S1131D700F91FF90EF900895EF92FF920F93CF93FE
S1131D80DF93EC017901411551056105710511F4E9
S1131D9082E139C08B85833039F089E0440F551FC7
S1131DA0661F771F8A95D1F79A01AB0168E1CE01CE
S1131DB00E94A30C882311F084E025C0A7016EEFD4
S1131DC0CE010E948C0E8823F9F0011105C0CE01CA
S1131DD00E94ED0B81E01CC068E572E0CE010E9418
S1131DE0880C811102C085E10EC020E030E0A90119
S1131DF06DE0CE010E94A30C811104C00E94EA0B85
S1131E00882329F384E18D83CE010E94ED0B80E0C9
S1131E10DF91CF910F91FF90EF9008951F93CF938F
S1131E20DF93EC010E94FE0B0E94EA0B182FCE01F7
S1131E300E94ED0B81E01F3F09F480E0DF91CF9118
S1131E401F910895E5E8F2E080E58083118208950A
S1131E50CF93DF93EC019C012A5F3F4F41E050E0B8
S1131E6060E070E08B8D9C8D0E94E7188823B9F0A8
S1131E708F89988DA98DBA8D892B8A2B8B2B59F438
S1131E808E819F81A885B9858F8B988FA98FBA8FF2
S1131E908C8180688C838C8180628C8381E0DF916B
S1131EA0CF910895CF92DF92EF92FF921F93CF9339
S1131EB0DF93EC010E94280F811102C080E04AC028
S1131EC0EB8DFC8DCE80DF80E884F98482E0C81A33
S1131ED0D108E108F108058404C0CC0CDD1CEE1C1B
S1131EE0FF1C0A94D2F786859785A089B189C80E0C
S1131EF0D91EEA1EFB1E148181E0C81AD108E1082C
S1131F00F108112361F0C701B601610F711D811D34
S1131F10911D0E943517882389F21150F2CFEB8D61
S1131F20FC8D80E092E0A0E0B0E0058404C0880F5E
S1131F30991FAA1FBB1F0A94D2F74B895C896D892C
S1131F407E89840F951FA61FB71F8B8B9C8BAD8B2F
S1131F50BE8B81E0DF91CF911F91FF90EF90DF90D6
S1131F60CF900895CF93DF93EC01462F6E857F8544
S1131F70888999890E94F916882341F08A8920E288
S1131F80829FC001112480579D4F02C080E090E0E1
S1131F90DF91CF910895FB019B01255F3F4F40E204
S1131FA04193E217F307E1F7DC0190E027E08D911C
S1131FB0882319F18E3229F42A3021F198E02AE09D
S1131FC0F6CFE8EBF0E03491332321F0319683131C
S1131FD0FACF18C02917B0F03FED380F3E3590F412
S1131FE031E0390FFB01E90FF11D9FE9980F9A3198
S1131FF008F480528083932FDACF81E0FB01908133
S1132000903209F480E008950F931F93CF93DF93E8
S1132010FC012581222311F080E042C08B01EC01F8
S1132020FB0187898031B1F482E08D831F8A188E89
S1132030198E1A8E808D918DA0E0B0E025E0880F76
S1132040991FAA1FBB1F2A95D1F78B8B9C8BAD8B35
S1132050BE8B15C0803201F783E08D83FB01428D76
S1132060538D648D758D4F8B588F698F7A8F9E0138
S11320702D5E3F4FC8010E94DD17882369F21C8F33
S11320800B8F81E08C831E821F82188619861A8624
S11320901B861C861D861E861F86188A198A1A8A24
S11320A0DF91CF911F910F9108952F923F924F92FC
S11320B05F926F927F928F929F92AF92BF92CF92D4
S11320C0DF92EF92FF920F931F93CF93DF93EC0174
S11320D05B014A018D81811103C08FEF9FEFD7C04F
S11320E08C8180FFFACF4B885C886D887E884A8516
S11320F05B856C857D85C401A0E0B0E0930182011D
S1132100041B150B260B370B081719072A073B0767
S113211018F44201841A950A24011E0126E0220EB5
S1132120311C4114510409F47EC04A855B856C85D9
S11321307D856A0181E0D822ED818B8D9C8D8A0199
S11321409B01F9E03695279517950795FA95D1F7F0
S1132150E23061F4FC01828D938DA48DB58DBC01B8
S1132160CD01600F711F821F931F3FC0FC0174805B
S11321707A947022C114D104C9F4711017C0452B8C
S1132180462B472B49F48F89988DA98DBA8D8E8360
S11321909F83A887B9870AC04E815F816885798546
S11321A091010E945A17882309F497CFEB8DFC8D77
S11321B08E819F81A885B9850297A109B1090584FB
S11321C004C0880F991FAA1FBB1F0A94D2F7468523
S11321D0578560897189840F951FA61FB71FBC019D
S11321E0CD01670D711D811D911D20E032E02C1978
S11321F03D0932012415350508F439012C8126FDE9
S113220004C06114F2E07F0679F500910901109190
S11322100A0120910B0130910C01601771078207AC
S1132220930719F421C0C40132C0750183019601DA
S1132230AB01BC0180918E0290918F020E946C0EC2
S1132240882309F44ACFA60CB71C8A859B85AC85E4
S1132250BD85860D971DA11DB11D8A879B87AC87FF
S1132260BD87461857085DCF40E00E94F9168823C1
S113227009F433CFF601E057FD4FD501CF01860DA8
S1132280971D8E179F07F9F221912D93FACFDF91B5
S1132290CF911F910F91FF90EF90DF90CF90BF905F
S11322A0AF909F908F907F906F905F904F903F90F2
S11322B02F900895FF920F931F93CF93DF931F9254
S11322C0CDB7DEB7FC012581223018F480E090E020
S11322D033C08C01FC01428553856485758585E096
S11322E076956795579547958A95D1F7F42FFF70A2
S11322F0FF2E41E050E0BE016F5F7F4FC8010E9496
S11323005510019719F4898190E002C08FEF9FEF77
S11323100196E1F2F80182859385A485B5854F96EF
S1132320A11DB11D82879387A487B587F0E2FF9E24
S1132330C001112480579D4F0F90DF91CF911F91C1
S11323400F91FF9008958F929F92AF92BF92CF9278
S1132350DF92EF92FF920F931F93CF93DF93EC01E1
S11323608D81811102C080E078C00B891C892D8980
S11323703E890417150726073707A8F36A017B016E
S1132380823029F4CA86DB86EC86FD860DC0C11432
S1132390D104E104F10451F41E821F8218861986C7
S11323A01A861B861C861D8681E057C08A849B84FE
S11323B0AC84BD84EB8DFC8D258530E0275F3F4FD9
S11323C0B501A4014150510961097109022E04C0EB
S11323D076956795579547950A94D2F7D701C60124
S11323E00197A109B10904C0B695A795979587955A
S11323F02A95D2F784179507A607B70720F08928EE
S11324008A288B2871F44F89588D698D7A8D4E8373
S11324105F83688779874C015D018E010A5F1F4FD6
S113242016C0841B950BA60BB70BF5CF4E815F81AD
S11324306885798598018B8D9C8D0E945A1791E04F
S1132440891A9108A108B108882309F48CCF811452
S11324509104A104B10451F795CFDF91CF911F915D
S11324600F91FF90EF90DF90CF90BF90AF909F902F
S11324708F900895FF920F931F93CF93DF93FC01E6
S11324802581222309F442C0F62EEC01848187FFC2
S113249030C061E0CF010E94B20F8C01892BB1F1F1
S11324A08D81823048F48B899C89AD89BE89F8017D
S11324B0848F958FA68FB78F8F89988DA98DBA8DAC
S11324C0F801938F828FB58BA48BE0918702F091F2
S11324D08802309759F0B8016A5E7F4FC801489668
S11324E00995F801808D918D938B828B8C818F77E8
S11324F08C83F11003C08C818F7E8C838F2DDF91B0
S1132500CF911F910F91FF900C94D01680E0DF9132
S1132510CF911F910F91FF900895CF93DF93EC011A
S113252061E00E943A12882311F01D8281E0DF915C
S1132530CF910895CF93DF93EC018D818130D1F455
S11325408C8181FF17C082FF0DC04B895C896D8926
S11325507E898A859B85AC85BD8584179507A607EA
S1132560B70759F480918E0290918F020E940E0F4A
S1132570882349F080E090E02AC0CE010E94A31194
S11325808111F0CFF7CF8C8185FF08C060E0CE01C8
S11325900E943A128C818F7D8C83ECCF409189020A
S11325A050918A0260918B0270918C02452B462BCC
S11325B0472B21F080E00E94AC16DCCF80618C8335
S11325C02A853B85317080E092E0821B930BDF917A
S11325D0CF9108954F925F926F927F928F929F92C4
S11325E0AF92BF92EF92FF920F931F93CF93DF931B
S11325F000D000D0CDB7DEB7FC0185818130E9F48D
S1132600848181FF1AC083899489A589B689841736
S11326109507A607B70788F0892B8A2B8B2B09F41B
S11326207AC04A015B017F014284538464847584C7
S1132630CF010E94A311811102C080E06DC0F70197
S1132640838D948D81149104A104B10471F447899C
S1132650508D618D728D0E94FC19882371F3F701EE
S1132660178A108E118E128E3AC0F7014681578157
S1132670608571859E012F5F3F4F0E945A17882302
S1132680E1F249815A816B817C81F701838D948DBC
S1132690FC012789203129F008EF1FEF2FEF3FE0DD
S11326A004C008EF1FEF20E030E040175107620735
S11326B07307A8F40E94FC19882309F4BECFF7011C
S11326C046815781608571850FEF1FEF2FEF3FE043
S11326D0838D948D0E944618882309F4AECFF701A8
S11326E0838A948AA58AB68A84818068848361E017
S11326F0C7010E943A12882309F49FCFB501A401AF
S1132700481459046A047B0410F4B301A201C701FC
S11327100E94A31101C081E00F900F900F900F90C1
S1132720DF91CF911F910F91FF90EF90BF90AF90E9
S11327309F908F907F906F905F904F9008951F931C
S1132740CF93DF93EC0180E2689FF0011124E057FE
S1132750FD4F9385917129F0842F827411F080E0EC
S113276052C0142F6A8B8091090190910A01A091A3
S11327700B01B0910C018E879F87A88BB98B44897C
S1132780558960E070E0BA0155274427828D938D06
S1132790A0E0B0E0482B592B6A2B7B2B4F8B588F32
S11327A0698F7A8F8385887151F4848D958DA68D78
S11327B0B78D8B8B9C8BAD8BBE8B81E00CC0803135
S11327C071F69E012D5E3F4F8B8D9C8D0E94DD170F
S11327D0882329F284E08D83812F8F708C831E825D
S11327E01F82188619861A861B861C861D8616FF6C
S11327F009C040E050E0BA01CE01DF91CF911F91B2
S11328000C94EA1281E0DF91CF911F910895BF9259
S1132810CF92DF92EF92FF920F931F93CF93DF93A8
S1132820CDB7DEB72B970FB6F894DEBF0FBECDBF82
S1132830FC0135813111C0C0C22E8B017C01BE0167
S11328406F5F7F4FCA010E94CB0F882309F4B4C085
S1132850F801838D948DF701948F838FF80116828C
S11328601782108611861286138614861586D12C3B
S1132870F80182859385A485B58543895489658942
S1132880768984179507A607B70708F03EC025E0A8
S1132890B695A795979587952A95D1F7F82FFF7048
S11328A0BF2EC8010E945A11009709F485C0FC018B
S11328B020812223A1F0253E09F480C04BE050E0A2
S11328C0BC01CE0101960E949B1F892B89F68C2D99
S11328D08073803309F470C04C2D6B2D69C0D11006
S11328E012C0F701B28A4091090150910A01609126
S11328F00B0170910C0146875787608B718BFC012B
S1132900808181115EC0DD24D3948C2D827182314B
S113291009F052C0DD2041F061E0C7010E94B20F0E
S11329208C01892B79F448C0F8018581823009F43F
S113293043C0C8010E94520F8823F1F1F701128AA3
S113294000E912E080E2F80111928A95E9F78BE040
S1132950FE013196D80101900D928A95E1F7E0913C
S11329608702F0918802309739F0B801625F7F4F97
S1132970C8014096099509C081E298E2F801918B5B
S1132980808B80E098E097878687F8018089918919
S1132990938B828B918F808F86859785978B868B7F
S11329A081E00E94D016882339F04C2DF70162890A
S11329B0C7010E949F1308C080E006C0DD2009F40F
S11329C090CFDD24D39454CF2B960FB6F894DEBF6A
S11329D00FBECDBFDF91CF911F910F91FF90EF906C
S11329E0DF90CF90BF9008952F923F924F925F92C5
S11329F06F927F928F929F92AF92BF92CF92DF920B
S1132A00EF92FF920F931F93CF93DF9300D000D0E8
S1132A101F92CDB7DEB77C016B011A01DC0115965C
S1132A208C9115978130C9F414961C9111FF15C02F
S1132A3012FF1DC0F701438954896589768982850F
S1132A409385A485B58584179507A607B70779F0FC
S1132A50C7010E94A31181110AC081E090E0D7014F
S1132A6013969C938E93129780E090E04CC14101A1
S1132A7012951F70109511701D8380C05B968D9107
S1132A809C915C97FC0174807A94B901A80129E0B7
S1132A9076956795579547952A95D1F774221170C5
S1132AA0772009F477C080E092E0801B910B5401F9
S1132AB08815990508F45C01D7015B962D913C912A
S1132AC05C9716968D919D910D90BC91A02D0297C7
S1132AD0A109B109F901058404C0880F991FAA1F2F
S1132AE0BB1F0A94D2F74685578560897189840F84
S1132AF0951FA61FB71F9C01AD01270D311D411D58
S1132B00511D29013A01A11432E0B30609F089C02C
S1132B108091090190910A01A0910B01B0910C01DF
S1132B20481659066A067B0659F48FEF9FEFDC01BD
S1132B308093090190930A01A0930B01B0930C01B7
S1132B400D819601B301A20180918E0290918F02B2
S1132B500E94BC0E882309F480CF9EEFD91A8A18EC
S1132B609B08F70182859385A485B5858A0D9B1DF5
S1132B70A11DB11D82879387A487B587D7011A96B3
S1132B800D911D912D913C911D978114910409F093
S1132B9075CF88C00115110509F085CF16964D91A2
S1132BA05D916D917C9119974115510561057105F0
S1132BB059F457968D919D910D90BC91A02D00973D
S1132BC0A105B10541F521C09E012F5F3F4F0E9431
S1132BD05A17882309F449CF89819A81AB81BC8132
S1132BE0F701238D348DF9012789203129F048EF2D
S1132BF05FEF6FEF7FE004C048EF5FEF60E070E0ED
S1132C0084179507A607B70730F0C7010E94280F5D
S1132C10811149CF22CFF70186839783A087B1879B
S1132C2042CF0115110531F5D7011A964D915D91E9
S1132C306D917C911D9753968D919D910D90BC91B2
S1132C40A02D481759076A077B07A0F081E00E946E
S1132C50D016882309F401CF4092090150920A0149
S1132C6060920B0170920C0180918D0281608093BF
S1132C708D0208C041E0C301B2010E94F916882305
S1132C8009F4EBCED601F801E057FD4F9F012A0D60
S1132C903B1D2E173F0719F08D918193FACFCA0C73
S1132CA0DB1C5DCFD70153964D915D916D917C9165
S1132CB0569714968C91401751076207730740F496
S1132CC0F701038B148B258B368B806884830DC0AE
S1132CD02091870230918802232B39F0211431048A
S1132CE021F08068D70114968C93F701848183FDC9
S1132CF002C0C10108C061E0C7010E943A128823E2
S1132D0009F4ABCEF6CF0F900F900F900F900F9069
S1132D10DF91CF911F910F91FF90EF90DF90CF90B3
S1132D20BF90AF909F908F907F906F905F904F90E7
S1132D303F902F900895CF93DF931F92CDB7DEB7C6
S1132D40698341E050E0BE016F5F7F4F0E94F4143D
S1132D500F90DF91CF9108950F9340918902509184
S1132D608A0260918B0270918C02411551056105B4
S1132D70710599F0082F20E932E080918E0290913C
S1132D808F020E94BC0E882349F01092890210928F
S1132D908A0210928B0210928C0281E00F910895A6
S1132DA00F93CF9390918D029923F9F0C82F4091FE
S1132DB0090150910A0160910B0170910C01082FD7
S1132DC020E932E080918E0290918F020E94BC0E25
S1132DD0811102C080E00AC0CC2339F08C2F0E94FC
S1132DE0AC168823B9F310928D0281E0CF910F9134
S1132DF00895CF92DF92EF92FF92CF936B017C0103
S1132E00C42F8091090190910A01A0910B01B09106
S1132E100C018C159D05AE05BF05D9F081E00E941B
S1132E20D016811102C080E01AC020E932E0B70157
S1132E30A60180918E0290918F020E947C0E8823BD
S1132E4091F3C0920901D0920A01E0920B01F09231
S1132E500C0180918D02C82BC0938D0281E0CF912B
S1132E60FF90EF90DF90CF900895CF92DF92EF9292
S1132E70FF926B017C0181E00E94D0168823A9F0A7
S1132E80E0E9F2E0119284E0E039F807D9F7C09262
S1132E900901D0920A01E0920B01F0920C01809199
S1132EA08D02816080938D0281E0FF90EF90DF902E
S1132EB0CF9008958F929F92AF92BF92CF92DF925C
S1132EC0EF92FF920F931F93CF93DF93FC018185C1
S1132ED09285A385B4850196A11DB11D841795071C
S1132EE0A607B70710F480E05BC083889488A588A0
S1132EF0B6888789803129F4BB27A72F962F852F81
S1132F0009C0DB01CA01C7E0B695A79597958795D7
S1132F10CA95D1F7E9016A017B018F01BC01CD019A
S1132F20680D791D8A1D9B1D8090090190900A01EE
S1132F30A0900B01B0900C01681579058A059B05DA
S1132F4091F4F80187898031A1F4DD24EE24FF2473
S1132F50C601880F991FFC01E057FD4F80819181C4
S1132F60A0E0B0E018C040E00E94F9168111E9CF5A
S1132F70BACFE894C7F8DD24EE24FF24C601880FF5
S1132F80991F880F991FFC01E057FD4F80819181A3
S1132F90A281B381BF7088839983AA83BB8381E0B4
S1132FA0DF91CF911F910F91FF90EF90DF90CF9021
S1132FB0BF90AF909F908F9008954F925F926F92C1
S1132FC07F92AF92BF92CF92DF92EF92FF920F93D4
S1132FD01F93CF93DF9300D000D0CDB7DEB78C0121
S1132FE049835A836B837C835901C12CD12C76018C
S1132FF0412C82E0582E612C712C49815A816B81BD
S11330007C819E012F5F3F4FC8010E945A1788237D
S113301051F1D301C201F801058404C0880F991F3E
S1133020AA1FBB1F0A94D2F7C80ED91EEA1EFB1EA4
S113303049815A816B817C818789803129F088EFAD
S11330409FEFAFEFBFE004C088EF9FEFA0E0B0E0D8
S1133050481759076A077B0780F2F501C082D182BD
S1133060E282F38281E00F900F900F900F90DF9136
S1133070CF911F910F91FF90EF90DF90CF90BF9071
S1133080AF907F906F905F904F9008954F925F92B2
S11330906F927F928F929F92AF92BF92CF92DF9264
S11330A0EF92FF920F931F93CF93DF93EC01423083
S11330B051056105710510F480E078C089859A8511
S11330C0AB85BC850196A11DB11D84179507A60784
S11330D0B70790F3CB88DC88ED88FE888F89803130
S11330E029F4BB27A72F962F852F09C0DB01CA011E
S11330F0E7E0B695A79597958795EA95D1F74801A6
S113310059012A013B01C80ED91EEA1EFB1E8091FB
S1133110090190910A01A0910B01B0910C01C8160C
S1133120D906EA06FB0681F48F898031A9F4B3013C
S1133130A201552766277727440F551FFA01E05748
S1133140FD4F9182808219C040E0C701B6010E9400
S1133150F9168111E9CFB0CFB301A2014F775527FA
S113316066277727440F551F440F551FFA01E05770
S1133170FD4F80829182A282B38280918D02816010
S113318080938D028A89823080F08D819E81AF8107
S1133190B885C80ED91EEA1EFB1EC0928902D092C1
S11331A08A02E0928B02F0928C0281E0DF91CF914F
S11331B01F910F91FF90EF90DF90CF90BF90AF9051
S11331C09F908F907F906F905F904F9008952F9273
S11331D03F924F925F926F927F929F92AF92BF9273
S11331E0CF92DF92EF92FF920F931F93CF93DF93CF
S11331F0CDB7DEB760970FB6F894DEBF0FBECDBF74
S11332005C0149875A876B877C871901D901CD9066
S1133210DD90ED90FC90C114D104E104F10431F08F
S1133220BFEFCB1ADB0AEB0AFB0A10C0FC01C0801B
S1133230D180E280F3809924939409851A852B85A3
S11332403C85013011052105310509F0912CF5016A
S113325081859285A385B4858C019D010F5F1F4FE5
S11332602F4F3F4F0D871E872F87388B260137013D
S11332701D821E821F821886F50181859285A38591
S1133280B4850D811E812F813885081719072A07F7
S11332903B0708F056C02D853E854F855889241577
S11332A035054605570550F482E0482E512C612C13
S11332B0712C92E0C92ED12CE12CF12C9E012F5FB0
S11332C03F4FB301A201C5010E945A178823C9F1D7
S11332D049815A816B817C81D301C2010196A11D70
S11332E0B11D452B462B472B19F06C017D010FC0F6
S11332F0AC01BD014C195D096E097F0909851A8568
S11333002B853C85041715072607370779F02D818F
S11333103E814F8158852F5F3F4F4F4F5F4F2D8325
S11333203E834F8358872C013D01A6CF0FEF1FEF3B
S11333302FEF3FE0B301A201C5010E94461881119D
S113334018C080E041C0D301C2010197A109B109AD
S11333508D839E83AF83B88793018201AC01BD0145
S1133360C5010E944618882361F34D805E806F80FA
S11333707884C414D504E604F70428F3D1014D91EC
S11333805D916D917C91411551056105710599F42B
S1133390F101C082D182E282F3829920A1F0FFEF91
S11333A0CF1ADF0AEF0AFF0AD501CD92DD92ED9222
S11333B0FC92139708C097018601C5010E94461824
S11333C08111E6CFBECF81E060960FB6F894DEBFE0
S11333D00FBECDBFDF91CF911F910F91FF90EF9062
S11333E0DF90CF90BF90AF909F907F906F905F9051
S11333F04F903F902F900895AF92BF92CF92DF925B
S1133400EF92FF920F931F93CF93DF9300D000D0DE
S1133410CDB7DEB75C016A017B0182E090E0A0E0F9
S1133420B0E0F50180839183A283B3839E012F5F73
S11334303F4FB701A601C5010E945A17882311F115
S113344000E010E09801B701A601C5010E944618EA
S11334508823C1F0C980DA80EB80FC80F50187897C
S1133460803129F088EF9FEFAFEFBFE004C088EF11
S11334709FEFA0E0B0E0C816D906EA06FB06B0F25A
S113348081E001C080E00F900F900F900F90DF91CA
S1133490CF911F910F91FF90EF90DF90CF90BF904D
S11334A0AF9008958F929F92AF92BF92CF92DF9286
S11334B0EF92FF920F931F93CF93DF93EC01142F9E
S11334C070938F0260938E02442369F1453010F0AB
S11334D080E0F2C040E060E070E0CB010E94F916A9
S11334E08823B1F320E1129FA001112440585D4FBD
S11334F0FA01E254FE4F80818F7751F73C96808128
S11335009181A281B38184369105A105B10500F3AF
S11335103497C080D180E280F380C114D104E104E7
S1133520F10421F4D5CFC12CD12C760140E0C701A0
S1133530B6010E94F916882359F280919B0290915A
S11335409C028115924021F69091A002992309F4DE
S1133550BFCF20919E0230919F02232B09F4B8CF54
S113356080919D02882309F4B3CF9A8B8C831D86A6
S113357090E041E050E02D85E22FBA01022E02C016
S1133580660F771F0A94E2F78617970731F031E048
S1133590320F3D87283078F39BCF2091A6023091DB
S11335A0A7022115310519F040E050E008C0209130
S11335B0B4023091B5024091B6025091B7022D8306
S11335C03E834F83588780919E0290919F024601CB
S11335D05701880E991EA11CB11C8B8A9C8AAD8A46
S11335E0BE8A0091A1021091A202198F088FA091A6
S11335F0A002B0E00E946D1D860E971EA81EB91E83
S11336008A8E9B8EAC8EBD8E85E0000F111F8A952D
S1133610E1F701501E4F012F11270695800E911ED0
S1133620A11CB11C8E869F86A88AB98A2091A30208
S11336303091A4022115310521F0A90160E070E068
S113364008C04091B0025091B1026091B2027091F1
S1133650B302D701C60188199909AA09BB09840FC5
S1133660951FA61FB71F04C0B695A7959795879574
S1133670EA95D2F789879A87AB87BC87853F2FE085
S11336809207A105B10510F48CE014C0853F9F4F4B
S1133690A105B10510F480E10DC08091BC029091A8
S11336A0BD02A091BE02B091BF028A8F9B8FAC8FE6
S11336B0BD8F80E28F8B81E0DF91CF911F910F91BD
S11336C0FF90EF90DF90CF90BF90AF909F908F903E
S11336D00895CF93CFB7F89480919304811127C0B4
S11336E0EAE9F0E08491E6E8F0E09491E82FF0E074
S11336F0EE0FFF1FE255FF4FA591B491EC91E92322
S113370021F461E08AE00E949A0661E08AE00E9466
S11337105E068CB580618CBD8CB580648CBD61E027
S11337208DE00E945E0661E08BE00E945E0680915F
S113373093048F5F80939304CFBFCF910895FC01CE
S1133740918D228D892F90E0805C9F4F821B91097F
S11337508F7399270895FC01918D828D981731F00C
S1133760828DE80FF11D858D90E008958FEF9FEF16
S11337700895FC01918D828D981761F0828DDF018F
S1133780A80FB11D5D968C91928D9F5F9F73928F50
S113379090E008958FEF9FEF0895FC01538D448DC1
S11337A0252F30E0842F90E0821B930B541710F0E8
S11337B0CF96089501970895FC01848DDF01A80F29
S11337C0B11DA35ABF4F2C91848D90E001968F7345
S11337D09927848FA689B7892C93A089B1898C9164
S11337E0837080648C93938D848D981306C00288B3
S11337F0F389E02D80818F7D80830895EF92FF927D
S11338000F931F93CF93DF93EC0181E0888F9B8DFF
S11338108C8D981305C0E889F989808185FD26C0BF
S1133820F62E0B8D10E00F5F1F4F0F731127E02E44
S11338308C8DE8120CC00FB607FCFACFE889F98921
S1133840808185FFF5CFCE010E94DC1BF1CF8B8DEB
S1133850FE01E80FF11DE35AFF4FF0829FB7F89481
S11338600B8FEA89FB89808180620AC09FB7F89434
S1133870EE89FF896083E889F98980818370806497
S113388080839FBF81E090E0DF91CF911F910F91E2
S1133890FF90EF900895CF93DF93EC01888D8823F8
S11338A0C9F0EA89FB89808185FD05C0A889B989A9
S11338B08C9186FD0FC00FB607FCF5CF808185FF84
S11338C0F2CFA889B9898C9185FFEDCFCE010E94F2
S11338D0DC1BE7CFDF91CF9108951F920F920FB6B3
S11338E00F9211242F938F939F93EF93FF93E09163
S11338F0A404F091A5048081E091AA04F091AB04A2
S113390082FD12C090818091AD048F5F8F732091EE
S1133910AE04821751F0E091AD04F0E0EC56FB4F99
S1133920958F8093AD0401C08081FF91EF919F91A9
S11339308F912F910F900FBE0F901F9018951F928B
S11339400F920FB60F9211242F933F934F935F93CF
S11339506F937F938F939F93AF93BF93EF93FF9353
S113396084E994E00E94DC1BFF91EF91BF91AF9139
S11339709F918F917F916F915F914F913F912F9183
S11339800F900FBE0F901F901895E4E9F4E0138296
S1133990128288EE93E0A0E0B0E084839583A6834E
S11339A0B78383ED91E09183808385EC90E09587E4
S11339B0848784EC90E09787868780EC90E0918BF5
S11339C0808B81EC90E0938B828B82EC90E0958BE2
S11339D0848B86EC90E0978B868B118E128E138EDF
S11339E0148E0895CF92DF92EF92FF920F931F935C
S11339F0CF93DF936C017A018B01C0E0D0E0CE1548
S1133A00DF0581F0D8016D918D01D601ED91FC9116
S1133A100190F081E02DC6010995892B11F02196C2
S1133A20EECF7E01C701DF91CF911F910F91FF90DF
S1133A30EF90DF90CF900895DB018F939F930E94C6
S1133A406D1DBF91AF91A29F800D911DA39F900DFD
S1133A50B29F900D11240895A1E21A2EAA1BBB1B3C
S1133A60FD010DC0AA1FBB1FEE1FFF1FA217B30746
S1133A70E407F50720F0A21BB30BE40BF50B661F5C
S1133A80771F881F991F1A9469F760957095809520
S1133A9090959B01AC01BD01CF010895052E97FBC4
S1133AA01EF400940E94651D57FD07D00E942C1D32
S1133AB007FC03D04EF40C94651D50954095309549
S1133AC021953F4F4F4F5F4F089590958095709586
S1133AD061957F4F8F4F9F4F08950E947E1DA59F34
S1133AE0900DB49F900DA49F800D911D11240895F5
S1133AF0EE0FFF1F0590F491E02D0994A29FB001F1
S1133B00B39FC001A39F700D811D1124911DB29F0D
S1133B10700D811D1124911D08950F931F93CF9350
S1133B20DF938230910510F482E090E0E091330558
S1133B30F091340520E030E0A0E0B0E0309719F1D6
S1133B40408151810281138148175907C8F08417B5
S1133B50950769F4109731F012960C931297139607
S1133B601C9327C0009333051093340522C02115FC
S1133B70310519F04217530718F49A01BD01EF01FA
S1133B80DF01F801DBCF21153105F9F0281B390BD2
S1133B902430310580F48A819B816115710521F0FF
S1133BA0FB019383828304C090933405809333058F
S1133BB0FE01329644C0FE01E20FF31F81939193FC
S1133BC022503109398328833AC02091310530913C
S1133BD03205232B41F420910201309103013093EB
S1133BE03205209331052091000130910101211506
S1133BF0310541F42DB73EB74091040150910501C0
S1133C00241B350BE0913105F0913205E217F307DF
S1133C10A0F42E1B3F0B2817390778F0AC014E5F38
S1133C205F4F2417350748F04E0F5F1F509332053E
S1133C30409331058193919302C0E0E0F0E0CF011D
S1133C40DF91CF911F910F910895CF93DF93009748
S1133C5009F481C0FC01329713821282A0913305CA
S1133C60B0913405109781F420813181820F931F24
S1133C7020913105309132052817390751F5F09319
S1133C803205E093310567C0ED0120E030E0CE1746
S1133C90DF0740F44A815B819E0141155105F1F033
S1133CA0EA01F5CFD383C28340815181840F951FEC
S1133CB0C817D90759F488819981840F951F0296F2
S1133CC0918380838A819B8193838283211531052B
S1133CD029F4F0933405E09333053DC0E901FB83F7
S1133CE0EA8349915991C40FD51FEC17FD0761F47C
S1133CF080819181840F951F0296E90199838883BD
S1133D00828193819B838A83E0E0F0E012968D9117
S1133D109C911397009719F0FD01DC01F7CF8D9169
S1133D209C9111979D012E5F3F4F820F931F20910D
S1133D303105309132052817390769F4309729F491
S1133D40109234051092330502C013821282B0938C
S1133D503205A0933105DF91CF910895A0E0B0E042
S1133D60E4EBFEE10C942020EC01009721F4CB015C
S1133D700E948D1DB4C0FC01E60FF71F9C01225068
S1133D803109E217F30708F4A8C0D9010D911C9179
S1133D90119706171707B0F00530110508F49BC0FA
S1133DA0C80104978617970708F495C002501109B3
S1133DB0061B170B019311936D937C93CF010E9403
S1133DC0251E89C05B01A01AB10A4C01800E911E08
S1133DD0A0913305B0913405612C712CE12CF12CA8
S1133DE0109709F446C08D919C911197A815B905B7
S1133DF0B1F56C0142E0C40ED11CCA14DB0478F1A5
S1133E004C018A189B08640142E0C40ED11C12962E
S1133E10BC9012971396AC91B5E0CB16D10440F048
S1133E20B282A38391828082D9016D937C9309C06D
S1133E300E5F1F4F800F911FF90191838083EB2D3B
S1133E40FA2FE114F10431F0D7011396FC93EE93A9
S1133E50129741C0F0933405E09333053CC06816D3
S1133E60790608F43C017D0112960D90BC91A02DB9
S1133E70B7CF809131059091320588169906E1F407
S1133E8066167706C8F480910001909101010097AD
S1133E9041F48DB79EB74091040150910501841BF4
S1133EA0950BE817F907C8F4F0933205E093310550
S1133EB0F901718360830FC0CB010E948D1D7C01C9
S1133EC0009759F0A801BE010E94A81FCE010E94CC
S1133ED0251EC70104C0CE0102C080E090E0CDB72A
S1133EE0DEB7EEE00C943C201F93FC019927882751
S1133EF0BC01E89411911032E9F3193010F01E302E
S1133F00C8F31B3251F01D3249F4689406C00E9474
S1133F10DD1F610F711D811D911D119110531A3008
S1133F20B0F33EF490958095709561957F4F8F4FD7
S1133F309F4F1F910895FB01DC0104C08D910190F6
S1133F40801921F441505040C8F7881B990B0895FB
S1133F50FB01DC0102C001900D9241505040D8F7A2
S1133F600895FC018191861721F08823D9F79927B8
S1133F7008953197CF010895FB01DC0101900D9262
S1133F800020E1F70895FB01DC014150504048F066
S1133F9001900D920020C9F701C01D92415050407C
S1133FA0E0F70895BB274A3031F4992322F4BDE2A7
S1133FB0909581959F4F0C94F31F592F482F372FBD
S1133FC0262F660F771F881F991F660F771F881F7C
S1133FD0991F620F731F841F951F660F771F881F19
S1133FE0991F0895BB27FB015527AA27880F991FFE
S1133FF0AA1FA41710F0A41B83955051B9F7A05D14
S1134000AA3308F0A95DA193009779F7B111B19390
S11340101192CB010C940C20DC01FC01672F7191EF
S11340207723E1F7329704C07C916D93708362919A
S1134030AE17BF07C8F308952F923F924F925F9235
S11340406F927F928F929F92AF92BF92CF92DF92A4
S1134050EF92FF920F931F93CF93DF93CDB7DEB709
S1134060CA1BDB0B0FB6F894DEBF0FBECDBF09949D
S11340702A88398848885F846E847D848C849B84F4
S1134080AA84B984C884DF80EE80FD800C811B8102
S1134090AA81B981CE0FD11D0FB6F894DEBF0FBE31
S11340A0CDBFED01089510E0C8E6D0E004C0FE01E4
S11340B00E94781D2196C936D107C9F7F894FFCF1D
S11340C0000035052000010001FFFFFFFF506C6177
S11340D0796261636B20617564696F0044656C6526
S11340E0746520417564696F004E6F20456666658E
S11340F063740050726573732053656C6563740058
S1134100746F2064656C6574650044656C657465E2
S11341106400617672332E74787400506C6179692E
S11341206E6720417564696F203100776974682077
S1134130456666656374203100506C6179696E6709
S113414020417564696F2032005265636F7264693F
S11341506E67002E0046696C6520536176656400C5
S1134160566F696365205265636F726465720000FF
S11341700000008008A7089608C3087F09E308ED3B
S1134180082F00000000009B16F21C9A127F080002
S1134190000000FE1BF21CCD1B4B1C9F1BB91BAB6C
S10541A01B00FE
S9030000FC
