S01100004144435F696E7075742E73726563BC
S11300000C9469000C9491000C9491000C94910050
S11300100C9491000C9491000C9491000C94910018
S11300200C9491000C9491000C9491000C94910008
S11300300C9491000C9491000C9491000C949100F8
S11300400C947C070C9491000C944C060C947E0642
S11300500C9491000C94CB040C9491000C9491009A
S11300600C9491000C9491007C3C3E5E2B3D3F2F00
S11300705B5D3B2C2A225C000000000800020100AA
S1130080000304070000000000000000010204084F
S113009010204080010204081020010204081020EE
S11300A0040404040404040402020202020203031A
S11300B00303030300000000250028002B000000B8
S11300C00000240027002A005F03A406EE0B900F13
S11300D06D0311241FBECFEFD8E0DEBFCDBF12E009
S11300E0A0E0B1E0ECE6FFE302C005900D92AA3275
S11300F0B107D9F725E0AAE2B2E001C01D92A0370A
S1130100B207E1F710E0C8E6D0E004C02197FE0191
S11301100E94CE1CC436D107C9F70E9435040C9442
S1130120A91F0C94000082E68093B80084E08093B9
S1130130BC001092B900089584EA8093BC008091B9
S1130140BC0087FFFCCF08958093BB0084E88093B4
S1130150BC008091BC0087FFFCCF08958091BB0058
S113016082608093BB0084E88093BC008091BC00D3
S113017087FFFCCF8091BB008D7F8093BB0084E818
S11301808093BC008091BC0087FFFCCF08959091C0
S1130190BB009E7F9093BB0094E89093BC00909129
S11301A0BC0097FFFCCF9091BB009F709093BB0065
S11301B094E89093BC009091BC0097FFFCCF909181
S11301C0BB00807F892B8093BB0084E88093BC00B4
S11301D08091BC0087FFFCCF0C94AE00CF93C82F56
S11301E08091BB008E7F8093BB0084E88093BC0029
S11301F08091BC0087FFFCCF8091BB008F708093FF
S1130200BB0084E88093BC008091BC0087FFFCCFD6
S11302108091BB009C2F907F892B8093BB0084E846
S11302208093BC008091BC0087FFFCCF0E94AE008D
S11302308091BB008F708093BB0084E88093BC00E6
S11302408091BC0087FFFCCF2091BB0030E1C39FAD
S1130250C0011124822B8093BB0084E88093BC00EE
S11302608091BC0087FFFCCFCF910C94AE00CF935C
S1130270C82F8091BB0081608093BB0084E8809389
S1130280BC008091BC0087FFFCCF8091BB008F70C5
S11302908093BB0084E88093BC008091BC0087FFFE
S11302A0FCCF8091BB009C2F907F892B8093BB0057
S11302B084E88093BC008091BC0087FFFCCF0E943F
S11302C0AE008091BB008F708093BB0084E8809364
S11302D0BC008091BC0087FFFCCF2091BB0030E1C3
S11302E0C39FC0011124822B8093BB0084E88093B8
S11302F0BC008091BC0087FFFCCFCF910C94AE0072
S113030080E30E94C70080E30E94C70080E20E944D
S1130310C70088E20E94EE0081E00E94EE0086E0C1
S11303200E94EE0080E80E94EE008FE00C94EE0044
S1130330CF93DF93EC018991882319F00E94370150
S1130340FACFDF91CF910895CF93DF93FB01228100
S11303503381DC0113963C932E931297448155818B
S11303606681778114964D935D936D937C93179773
S1130370408551856285738518964D935D936D9381
S11303807C931B971C96EF012C969C01275E3F4F94
S113039049914D93A217B307D9F7218D328DFC01F2
S11303A0328F218FDF91CF91089580912F02803475
S11303B049F480E80E94EE0081E090E090932B02E3
S11303C080932A0280912E02843049F480EC0E94AA
S11303D0EE0082E090E090932B0280932A0208952D
S11303E081E00E94EE0080E80E94EE008CE091E043
S11303F00E94980180EC0E94EE008BE191E00E9443
S1130400980181E090E09093070180930601109297
S11304102B0210922A020895CF93DF93CDB7DEB753
S11304206B970FB6F894DEBF0FBECDBF809130023C
S1130430803209F045C027E148E251E063E173E00E
S1130440CE0101960E94770BBE016F5F7F4F82E55C
S113045092E00E94A40181E00E94EE0085E391E015
S11304600E94980180913002803251F480917A0088
S1130470806480937A0089B1807280933002F2CFD5
S113048082E592E00E941C0A81E00E94EE008FE364
S113049091E00E9498012FEF83ED90E3215080407A
S11304A09040E1F700C000000E94F00110922B027E
S11304B010922A0281E090E0909307018093060154
S11304C06B960FB6F894DEBF0FBECDBFDF91CF9110
S11304D0089581E00E94EE0080E80E94EE008BE720
S11304E091E00E94980180EC0E94EE0084EA91E081
S11304F00E94980182E090E09093070180930601A6
S113050010922B0210922A02089581E00E94EE00BC
S113051080E80E94EE008BE791E00E94980180EC55
S11305200E94EE0084EA91E00E94980183E090E04A
S1130530909307018093060110922B0210922A02D5
S1130540089580912D02883039F580912A02909186
S11305502B02019709F580910601909107010297FA
S1130560D9F481E00E94EE0080E80E94EE008AE463
S113057091E00E94980180EC0E94EE0083E991E0F2
S11305800E94980184E090E0909307018093060113
S113059010922B0210922A0280912D02883039F594
S11305A080912A0290912B02029709F5809106010D
S11305B0909107010297D9F481E00E94EE0080E84F
S11305C00E94EE008AE491E00E94980180EC0E946F
S11305D0EE0083E991E00E94980185E090E0909319
S11305E007018093060110922B0210922A020895AB
S11305F080912D02883039F580912A0290912B0246
S1130600892B09F180910601909107010397D9F490
S113061081E00E94EE0080E80E94EE0084E591E013
S11306200E94980180EC0E94EE0081E691E00E9415
S1130630980186E090E09093070180930601109260
S11306402B0210922A02089580912D028830D9F449
S113065080910601909107010697A9F481E00E9418
S1130660EE0080E80E94EE008BE691E00E94980183
S11306702FEF83ED90E3215080409040E1F700C0DC
S113068000000C94F001089580912C02803149F40B
S113069080910601909107010297029710F40E943D
S11306A0F00180912C02803149F4809106019091EF
S11306B007010497029710F40C946902089582E5E7
S11306C092E00E94BA0987E392E00E94BA096DEFB2
S11306D071E081E392E00C94440881E392E00C948D
S11306E0D307CF93DF93CDB7DEB76B970FB6F894EC
S11306F0DEBF0FBECDBF80912D02883009F050C0FF
S113070080912A0290912B02019709F04DC08091AB
S1130710060190910701049709F046C081E00E9408
S1130720EE0080E80E94EE0083E791E00E949801C9
S113073021E043E851E063E173E0CE0101960E94B9
S1130740770BBE016F5F7F4F87E392E00E94A401A5
S113075087E392E00E942E0A882311F187E392E056
S11307600E94ED09892BC1F04AE067E372E0CE01F3
S113077001960E945607BE016F5F7F4F81E392E0AE
S11307800E949608CE0101960E94D30781E392E06D
S11307900E94E3086BB9E2CF87E392E00E941C0A4F
S11307A080912D028830E9F480912A0290912B02E5
S11307B00297B9F48091060190910701049789F496
S11307C081E00E94EE0080E80E94EE0083E791E061
S11307D00E94980180EC0E94EE008EE891E00E9455
S11307E0980180912D028830B1F480912A02909171
S11307F02B02019781F480910601909107010597DE
S113080051F481E00E94EE0080E80E94EE008CE941
S113081091E00E94980180912D028830E9F4809142
S11308202A0290912B020297B9F4809106019091CB
S11308300701059789F481E00E94EE0080E80E9498
S1130840EE008CE991E00E94980180EC0E94EE0099
S11308508EE891E00E9498016B960FB6F894DEBF83
S11308600FBECDBFDF91CF91089581EE8AB98AB1D1
S113087083788AB926E040E855E260E070E08DE6CE
S113088092E00E94E6056CEA71E08DE692E00E9437
S113089014076AE083E193E00E94550A811101C0C4
S11308A0FFCF68EC71E08DE692E00E9414070E948D
S11308B093000E949C0080E70E94A4000E94800193
S11308C08AED91E00E9498012FEF80E792E0215099
S11308D080409040E1F700C000000E94F001809148
S11308E07A00806880937A0080917A008460809393
S11308F07A0080917C00806280937C0080917A00F1
S1130900886080937A00789489B1807280933002F1
S113091089B1807480932F0289B1847080932E02F0
S113092089B1887080932D0289B1807180932C02E3
S11309300E940C020E94D50180912D02883071F42E
S11309408091060190910701019741F480912A0258
S113095090912B02019711F40E94690280912D025B
S1130960883071F48091060190910701019741F458
S113097080912A0290912B02029711F40E94850221
S11309800E94A1020E9471030E94F8020E942403A3
S11309900E944403B9CF1F920F920FB60F921124F5
S11309A00F931F932F933F934F935F936F937F9373
S11309B08F939F93AF93BF93EF93FF93CF93DF9363
S11309C000D000D0CDB7DEB709E710E0F801808190
S11309D04AE0BE016F5F7F4F90E00E94281FF8013C
S11309E0808144E050E0BE016F5F7F4F82E592E07A
S11309F00E9415096AE082E592E00E94EE080F90D9
S1130A000F900F900F90DF91CF91FF91EF91BF91D5
S1130A10AF919F918F917F916F915F914F913F9192
S1130A202F911F910F910F900FBE0F901F9018954B
S1130A30FC01918D228D892F90E0805C9F4F821B59
S1130A4091098F7399270895FC01918D828D9817D0
S1130A5031F0828DE80FF11D858D90E008958FEFC0
S1130A609FEF0895FC01918D828D981761F0828D1E
S1130A70DF01A80FB11D5D968C91928D9F5F9F73CE
S1130A80928F90E008958FEF9FEF0895FC01538DAE
S1130A90448D252F30E0842F90E0821B930B541754
S1130AA010F0CF96089501970895FC01848DDF011D
S1130AB0A80FB11DA35ABF4F2C91848D90E00196CD
S1130AC08F739927848FA689B7892C93A089B189BC
S1130AD08C91837080648C93938D848D981306C05D
S1130AE00288F389E02D80818F7D80830895EF92C1
S1130AF0FF920F931F93CF93DF93EC0181E0888FD4
S1130B009B8D8C8D981305C0E889F989808185FDBA
S1130B1026C0F62E0B8D10E00F5F1F4F0F731127A9
S1130B20E02E8C8DE8120CC00FB607FCFACFE889D2
S1130B30F989808185FFF5CFCE010E945505F1CF5B
S1130B408B8DFE01E80FF11DE35AFF4FF0829FB732
S1130B50F8940B8FEA89FB89808180620AC09FB771
S1130B60F894EE89FF896083E889F989808183702C
S1130B70806480839FBF81E090E0DF91CF911F91DB
S1130B800F91FF90EF900895CF93DF93EC01888D40
S1130B908823C9F0EA89FB89808185FD05C0A8897D
S1130BA0B9898C9186FD0FC00FB607FCF5CF808103
S1130BB085FFF2CFA889B9898C9185FFEDCFCE014D
S1130BC00E945505E7CFDF91CF910895CF92DF9230
S1130BD0EF92FF921F93CF93DF93EC016A017B01A5
S1130BE0122FE889F98982E080834115514E61050D
S1130BF07105B1F060E079E08DE390E0A701960122
S1130C000E94A11CDA01C9010197A109B109B69595
S1130C10A795979587959C01211580E13807A8F041
S1130C20E889F989108260E874E88EE190E0A70110
S1130C3096010E94A11CDA01C9010197A109B10919
S1130C40B695A795979587959C01EC85FD8530838E
S1130C50EE85FF852083188EEC89FD891083EA894F
S1130C60FB89808180618083EA89FB898081886037
S1130C708083EA89FB89808180688083EA89FB8993
S1130C8080818F7D8083DF91CF911F91FF90EF90C2
S1130C90DF90CF90089508951F920F920FB60F9290
S1130CA011242F938F939F93EF93FF93E0917D02F1
S1130CB0F0917E028081E0918302F091840282FDB2
S1130CC012C09081809186028F5F8F73209187027A
S1130CD0821751F0E0918602F0E0E359FD4F958FC1
S1130CE08093860201C08081FF91EF919F918F9143
S1130CF02F910F900FBE0F901F9018951F920F9277
S1130D000FB60F9211242F933F934F935F936F93DA
S1130D107F938F939F93AF93BF93EF93FF938DE64E
S1130D2092E00E945505FF91EF91BF91AF919F9181
S1130D308F917F916F915F914F913F912F910F9080
S1130D400FBE0F901F901895EDE6F2E01382128209
S1130D5088EE93E0A0E0B0E084839583A683B78314
S1130D608DEE91E09183808385EC90E09587848774
S1130D7084EC90E09787868780EC90E0918B808B61
S1130D8081EC90E0938B828B82EC90E0958B848B4A
S1130D9086EC90E0978B868B118E128E138E148EB8
S1130DA00895CF92DF92EF92FF920F931F93CF9308
S1130DB0DF936C017A018B01C0E0D0E0CE15DF0532
S1130DC081F0D8016D918D01D601ED91FC910190D6
S1130DD0F081E02DC6010995892B11F02196EECF03
S1130DE07E01C701DF91CF911F910F91FF90EF908A
S1130DF0DF90CF9008956115710579F0FB010190A2
S1130E000020E9F73197AF01461B570BDC01ED9148
S1130E10FC910280F381E02D099480E090E0089534
S1130E206BEF71E00C94FB060F931F93CF93DF934A
S1130E30EC010E94FB068C01CE010E941007800F7A
S1130E40911FDF91CF911F910F9108950F931F93DD
S1130E50CF93DF93EC010E94C607688779878A875E
S1130E609B87E881F9810284F385E02DCE01099501
S1130E7097FF17C00E94C607088519852A853B85F8
S1130E80DC01CB01801B910BA20BB30B0C811D81E8
S1130E902E813F8180179107A207B30710F38FEFCC
S1130EA09FEFDF91CF911F910F910895EF92FF92E1
S1130EB00F931F93CF93DF93EC017B01042F6DEF0E
S1130EC071E00E944408C7010E94260710E097FDC4
S1130ED00BC08017910741F0682FCE010E94D00803
S1130EE0C7010E942607F3CFCE01DF91CF911F9156
S1130EF00F91FF90EF9008951F920F920FB60F92EB
S1130F0011242F933F938F939F93AF93BF9380911B
S1130F100B0390910C03A0910D03B0910E0330913B
S1130F200A0323E0230F2D3720F40196A11DB11DE0
S1130F3005C026E8230F0296A11DB11D20930A03C4
S1130F4080930B0390930C03A0930D03B0930E03B3
S1130F5080910F0390911003A0911103B09112039B
S1130F600196A11DB11D80930F0390931003A093CC
S1130F701103B0931203BF91AF919F918F913F9151
S1130F802F910F900FBE0F901F9018952FB7F894C4
S1130F9060910B0370910C0380910D0390910E03EB
S1130FA02FBF08950895FC0180819181009711F06D
S1130FB00C947B1D0895CF93DF93EC018881998174
S1130FC0009711F00E947B1D198218821D821C82D9
S1130FD01B821A82DF91CF9108950F931F93CF93B1
S1130FE0DF93EC018B016F5F7F4F888199810E94B1
S1130FF0041E009731F0998388831B830A8381E060
S113100001C080E0DF91CF911F910F910895CF939C
S1131010DF93EC0188819981892B29F08A819B8156
S11310208617970760F4CE010E94ED07882341F0EC
S11310308C819D81892B19F4E881F981108281E0EA
S1131040DF91CF910895EF92FF920F931F93CF9367
S1131050DF93EC017B018A01BA010E940708811128
S113106004C0CE010E94DB0707C01D830C83B701B7
S1131070888199810E94121FCE01DF91CF911F9127
S11310800F91FF90EF900895FC011182108213825A
S11310901282158214826115710551F0FB010190D1
S11310A00020E9F73197AF01461B570B0C94230836
S11310B008950F931F93CF93DF938C01EB01FC01F1
S11310C0808191810097D1F06881798161157105E2
S11310D099F022ED37E0232B79F0428153812C8162
S11310E03D814217530740F00E94121F8C819D815D
S11310F0F8019583848313C00E947B1D88819981A4
S1131100F801918380838A819B81938382838C817C
S11311109D8195838483198218821B821A821D8281
S11311201C82DF91CF911F910F910895CF93DF938C
S1131130EC018617970711F00E945908CE01DF9140
S1131140CF910895EF92FF920F931F93CF93DF9364
S11311506115710511F480E01CC041155105C1F001
S11311607B01EC018C819D818A01080F191FB80154
S1131170CE010E940708882371F3288139818C816C
S11311809D81B701820F931F0E94121F1D830C8340
S113119081E0DF91CF911F910F91FF90EF9008951F
S11311A0CF93DF9300D0CDB7DEB769831A8241E0D5
S11311B050E0BE016F5F7F4F0E94A2080F900F9016
S11311C0DF91CF910895FC0180819181009711F006
S11311D00C94CA1E60E070E0CB010895CF93DF93B6
S11311E01F92CDB7DEB76983DC01ED91FC910280DB
S11311F0F381E02D41E050E0BE016F5F7F4F099520
S11312000F90DF91CF910895DC0159968D919C91B7
S11312105A97009739F0DC01ED91FC910480F58137
S1131220E02D099480E090E00895CF93DF93EC01E2
S1131230898D9A8D009739F481E090E09B838A83AD
S113124080E090E00BC0FC01138212820E946215C0
S1131250E98DFA8D22813381232B71F7DF91CF91B0
S11312600895FC01818D928D009719F061E00C9432
S1131270A8120895CF93DF931F92CDB7DEB741E054
S113128050E0BE016F5F7F4F0E94C310019719F4B5
S1131290898190E002C08FEF9FEF0F90DF91CF9193
S11312A00895FC01818D928D009711F00C943A09F8
S11312B08FEF9FEF08950F931F93CF93DF93FC015C
S11312C0818D928D0097B9F0EF010E943A098C014B
S11312D00F3F8FEF180791F0898D9A8DFC0142859D
S11312E053856485758541505109610971090E94CE
S11312F01112C80105C080E090E002C08FEF9FEF9B
S1131300DF91CF911F910F910895EF92FF920F9368
S11313101F93CF93DF93EC017B018A011B821A8216
S113132088EE93E0A0E0B0E08C839D83AE83BF831E
S11313308EE092E0998388838DE190E00E94E31C23
S11313409A8F898F009779F02DE1F701DC010190E4
S11313500D922A95E1F74CE050E0B801CE010C96CD
S11313600E94191F188EDF91CF911F910F91FF904A
S1131370EF900895FC011382128288EE93E0A0E0BE
S1131380B0E084839583A683B7838EE092E0918353
S11313908083128E118E14860895DC015996ED9186
S11313A0FC915A97309729F06285738584859585D9
S11313B008956FEF7FEFCB010895DC015996ED910D
S11313C0FC915A97309729F06389748985899689A5
S11313D0089560E070E0CB010895CF92DF92EF9220
S11313E0FF92CF93DF93FC01218D328D232BD9F013
S11313F0EC010E94DD096B017C01CE010E94CD0944
S1131400A7019601261B370B480B590BDA01C901BA
S1131410811530E89307A105B10538F08FEF9FE7F8
S1131420A0E0B0E002C080E090E0DF91CF91FF90B7
S1131430EF90DF90CF900895CF93DF93EC01898DE7
S11314409A8D009741F00E94FB12898D9A8D0E941B
S11314507B1D1A8E198EDF91CF910895DC01599668
S1131460ED91FC915A97309721F081E0958191118B
S113147001C080E008950F931F93CF93DF93EC0195
S11314808B0141E00E94C01A811109C040E0B801FB
S1131490CE01DF91CF911F910F910C94C01A81E07E
S11314A0DF91CF911F910F9108950F931F93CF93C5
S11314B0DF93EC01162F8FA5882321F0CE018A96A5
S11314C00E94FB12412F61E0CE010E94600D88232F
S11314D089F08E01045F1F4FBE01C8010E943B0AC0
S11314E0882341F0B801CE018A960E94721091E0DF
S11314F0811101C090E0892FDF91CF911F910F914D
S11315000895FC01DB0112968D919C9113979383AE
S1131510828382E292E09183808314968C91149763
S1131520848315968C911597858316964D915D91BC
S11315306D917C91199746835783608771871A96BA
S11315404D915D916D917C911D974287538764877E
S113155075871E964D915D916D917C91519746874B
S11315605787608B718B52968C915297828B5396CE
S11315704D915D916D917C915697438B548B658B06
S1131580768B57964D915D916D917C915A97478BCF
S1131590508F618F728F5B968D919C915C97948F25
S11315A0838F08954F925F926F927F928F929F9252
S11315B0AF92BF92CF92DF92EF92FF920F931F935D
S11315C0CF93DF93CDB7DEB7C754D1090FB6F894E4
S11315D0DEBF0FBECDBF5C014A01390119A218A2BA
S11315E082E292E09F8F8E8F1BA21C821B829A83C1
S11315F089831E82645F7F4F6E018EE1C80ED11C09
S1131600C6010E94721074018E010F5F1F4F5C2C83
S11316104D2C6FE270E0C7010E94071F009709F488
S113162043C0F70120812F3271F4FFEFEF1AFF0A54
S1131630902F812F052D142D2C01C201502E412EE7
S1131640092F182FE6CF8E198D3008F08CE0C82EA4
S1131650D12CA601B701CE01CB960E94191FEBE352
S1131660F0E0EC0FFD1FEC0DFD1D1082C8010E947F
S1131670FB1221E0AE01455C5F4F652D742DC8015E
S11316800E947514811109C0F5011382128282E24D
S113169092E091838083158211C0EC0CFD1C852D92
S11316A0942D0E94FB12C9CFE818F908F301F182C6
S11316B0E082652D742DC5010E94810AC501C95BB4
S11316C0DF4F0FB6F894DEBF0FBECDBFDF91CF91D1
S11316D01F910F91FF90EF90DF90CF90BF90AF904C
S11316E09F908F907F906F905F904F900895DF92BE
S11316F0EF92FF920F931F93CF93DF93CDB7DEB793
S1131700C955D1090FB6F894DEBF0FBECDBF7C0119
S11317108A01D22E9E01285A3F4FCE01CB960E94B9
S1131720D20A6A968EAD9FAD6A97080F191FF80109
S1131730808181110AC0BE01655C7F4FCE01019694
S11317400E94810A4CE152E033C019A218A282E23D
S113175092E09F8F8E8F1BA221968FAD21978111CE
S113176004C0C7010E94BA0929C02D2DA801BE01D9
S1131770655C7F4FCE014E960E947514882389F3D1
S1131780CE01CB960E94FB128D2D8670863041F4DB
S113179049A95AA96BA97CA9CE014E960E9411129F
S11317A0BE01625E7F4FCE0101960E94810AA801AC
S11317B0BE016F5F7F4FC7010E948509C701C75AE9
S11317C0DF4F0FB6F894DEBF0FBECDBFDF91CF91D0
S11317D01F910F91FF90EF90DF900895E3E1F3E004
S11317E0158216821186138682E090E0A0E0B0E0B4
S11317F084879587A687B78713A215A614A682E2C5
S113180092E093A782A717A608959FB7F894209112
S11318106A0580916805213019F48DBB9FBF089536
S11318208FBF08950F93FC0180E092E1AAE7B0E036
S113183030E0481759076A077B0740F4B695A79527
S1131840979587953F5F3630A1F737E091E093276E
S1131850222311F020E501C020E70C70892F869522
S1131860082B022B0083917091830F91089520918E
S11318706A05222399F04FB7F89420916A05213024
S113188059F42DB3209368053DB320916905209543
S113189023232DBB4FBF02C0409368058CBD9DBD63
S11318A008958EBD00000DB407FEFDCF8EB50895DA
S11318B08FEF0C94510C61E0FC0184810E94721C36
S11318C080915C03882339F010925C0380916A054F
S11318D081110C94050C0895CF93DF93EC01809152
S11318E05C03811109C081E080935C0380915D03F6
S11318F090915E030E94370C60E08C81DF91CF9160
S11319000C94721CCF93DF93EC018E81882389F0B1
S11319108F8198859C012F5F3F4F38872F838230BA
S1131920924018F40E94580CF3CFCE010E945B0C35
S11319301E82DF91CF9108950F93CF93DF9300D050
S1131940CDB7DEB7673028F026E1FC01258380E0BF
S113195047C06230F9F058F46623A9F0613079F594
S113196000E021E040E059E06DE370E02EC0643017
S1131970F9F0B8F0653019F500E021E040E950EDE8
S113198063E070E022C000E021E040E458E76DE746
S113199071E01BC000E021E040E854E86EE170E033
S11319A014C000E021E040E452E46FE070E00DC0B8
S11319B000E021E040E251EA67E070E006C000E0A8
S11319C021E048E458EE61E070E0CE0101960E9407
S11319D0120C89819A8190935E0380935D0381E068
S11319E00F900F90DF91CF910F9108950F931F9354
S11319F0CF93DF93EB010E94C6078B010E94580C22
S1131A008F3F49F00E94C607601B710B6C177D075E
S1131A10A8F380E001C081E0DF91CF911F910F9185
S1131A2008958F929F92AF92BF92FF920F931F934C
S1131A30CF93DF93EC01F62E49015A010E94820CE8
S1131A40CE010E946C0C6CE271E0CE010E94F60C97
S1131A508F2D80640E94510C08E110E0D501C4016F
S1131A60002E04C0B695A795979587950A94D2F74A
S1131A700E94510C08501109083F8FEF180771F7A5
S1131A80FF2029F088E0F81204C087E803C085E944
S1131A9001C08FEF0E94510C10E00E94580C8A87FD
S1131AA087FF04C01F3F11F01F5FF7CFDF91CF9175
S1131AB01F910F91FF90BF90AF909F908F900895CA
S1131AC07F928F929F92AF92BF92CF92DF92EF92CA
S1131AD0FF920F931F93CF93DF9300D0CDB7DEB760
S1131AE07C01762EFC0113861186168215824483AE
S1131AF00E94C6076B0161E0F70184810E94361CD5
S1131B0061E0F70184810E94721C0E94D71B00E0EF
S1131B1021E040E950ED63E070E0CE0101960E94BF
S1131B20120C89819A8190935E0380935D030E94D5
S1131B30370C1AE08FEF0E94510C1150D9F78091A5
S1131B406A0581110E94050CC7010E946C0C20E0FB
S1131B5030E0A90160E0C7010E94110D082FF701D0
S1131B608287813049F00E94C6076C197D09613D66
S1131B70774068F381E050C02AEA31E040E050E069
S1131B8068E0C7010E94110D82FF03C0F7010387BB
S1131B900EC004E00E94580CF70182870150D1F76F
S1131BA08A3A11F082E039C082E0F7018387F701B5
S1131BB08385823021F0812C912C540105C0812C25
S1131BC0912CA12C80E4B82E20E030E0A90167E339
S1131BD0C7010E94110DA501940169E2C7010E9489
S1131BE0110DF7018287882349F00E94C6076C19FA
S1131BF07D09613D774040F388E00EC0F70183859D
S1131C008230F1F420E030E0A9016AE3C7010E94C8
S1131C10110D882339F086E0F7018583C7010E94FE
S1131C205B0C16C00E94580C807C803C19F483E045
S1131C30F70183870E94580C0E94580C0E94580C8C
S1131C40C7010E945B0C672DC7010E949C0C182FD2
S1131C50812F0F900F90DF91CF911F910F91FF90E3
S1131C60EF90DF90CF90BF90AF909F908F907F9038
S1131C7008950F931F93CF93DF93EC010E94C6073F
S1131C808B010E94580C8A878F3F49F40E94C60733
S1131C90601B710B6D327140A0F38FE003C08E3F67
S1131CA039F08DE08D83CE010E945B0C80E001C091
S1131CB081E0DF91CF911F910F910895CF92DF9230
S1131CC0EF92FF920F931F93CF93DF93EC0169017F
S1131CD0C801820F931F8130924008F05CC08E814E
S1131CE0882371F088819981AA81BB818417950723
S1131CF0A607B70729F48F819885C816D90610F569
S1131D00488359836A837B838B85833039F089E0E8
S1131D10440F551F661F771F8A95D1F79A01AB01AF
S1131D2061E1CE010E94110D882319F083E08D83B7
S1131D3032C0CE010E94390E882369F118861F82B1
S1131D4081E08E838F8198858C159D0540F40E94D7
S1131D50580C8F819885019698878F83F3CF6701FC
S1131D60E00EF11ECE14DF0431F00E94580CF6018F
S1131D7081936F01F7CF8F819885080F191F1887FA
S1131D800F838985882319F00115124048F0CE018C
S1131D900E94820C05C0CE010E945B0C80E001C051
S1131DA081E0DF91CF911F910F91FF90EF90DF9031
S1131DB0CF900895EF92FF920F931F930115110591
S1131DC019F00E945E0E01C081E01F910F91FF90F7
S1131DD0EF900895EF92FF920F931F93790100E023
S1131DE012E020E030E00E945E0E1F910F91FF9000
S1131DF0EF900895EF92FF920F931F93CF93DF9389
S1131E008C01862F7A010E94510CE7018EEFF81A9B
S1131E1089910E94510CCE15DF05D1F78FEF0E94F6
S1131E20510C8FEF0E94510C0E94580CF8018287CC
S1131E308F71853039F081E18583C8010E945B0C84
S1131E4080E001C081E0DF91CF911F910F91FF905D
S1131E50EF900895EF92FF920F93CF93DF93EC01ED
S1131E607901411551056105710511F482E139C00B
S1131E708B85833039F089E0440F551F661F771F27
S1131E808A95D1F79A01AB0168E1CE010E94110D48
S1131E90882311F084E025C0A7016EEFCE010E94D3
S1131EA0FA0E8823F9F0011105C0CE010E945B0CE3
S1131EB081E01CC068E572E0CE010E94F60C81113D
S1131EC002C085E10EC020E030E0A9016DE0CE0142
S1131ED00E94110D811104C00E94580C882329F31B
S1131EE084E18D83CE010E945B0C80E0DF91CF9171
S1131EF00F91FF90EF9008951F93CF93DF93EC0120
S1131F000E946C0C0E94580C182FCE010E945B0C8E
S1131F1081E01F3F09F480E0DF91CF911F91089584
S1131F20EDE5F3E080E5808311820895CF93DF939C
S1131F30EC019C012A5F3F4F41E050E060E070E01B
S1131F408B8D9C8D0E9455198823B9F08F89988DAB
S1131F50A98DBA8D892B8A2B8B2B59F48E819F8165
S1131F60A885B9858F8B988FA98FBA8F8C8180684B
S1131F708C838C8180628C8381E0DF91CF91089582
S1131F80CF92DF92EF92FF921F93CF93DF93EC01F6
S1131F900E94960F811102C080E04AC0EB8DFC8D37
S1131FA0CE80DF80E884F98482E0C81AD108E10891
S1131FB0F108058404C0CC0CDD1CEE1CFF1C0A9443
S1131FC0D2F786859785A089B189C80ED91EEA1EE5
S1131FD0FB1E148181E0C81AD108E108F10811231D
S1131FE061F0C701B601610F711D811D911D0E9431
S1131FF0A317882389F21150F2CFEB8DFC8D80E07A
S113200092E0A0E0B0E0058404C0880F991FAA1FE5
S1132010BB1F0A94D2F74B895C896D897E89840F32
S1132020951FA61FB71F8B8B9C8BAD8BBE8B81E03E
S1132030DF91CF911F91FF90EF90DF90CF900895A3
S1132040CF93DF93EC01462F6E857F85888999892C
S11320500E946717882341F08A8920E2829FC00189
S1132060112488599C4F02C080E090E0DF91CF9109
S11320700895FB019B01255F3F4F40E24193E21726
S1132080F307E1F7DC0190E027E08D91882319F153
S11320908E3229F42A3021F198E02AE0F6CFE8E6DE
S11320A0F0E03491332321F031968313FACF18C032
S11320B02917B0F03FED380F3E3590F431E0390F79
S11320C0FB01E90FF11D9FE9980F9A3108F4805242
S11320D08083932FDACF81E0FB019081903209F461
S11320E080E008950F931F93CF93DF93FC01258124
S11320F0222311F080E042C08B01EC01FB018789AF
S11321008031B1F482E08D831F8A188E198E1A8E65
S1132110808D918DA0E0B0E025E0880F991FAA1F63
S1132120BB1F2A95D1F78B8B9C8BAD8BBE8B15C0B7
S1132130803201F783E08D83FB01428D538D648DE2
S1132140758D4F8B588F698F7A8F9E012D5E3F4F0F
S1132150C8010E944B18882369F21C8F0B8F81E001
S11321608C831E821F82188619861A861B861C86FB
S11321701D861E861F86188A198A1A8ADF91CF91B6
S11321801F910F9108952F923F924F925F926F92F9
S11321907F928F929F92AF92BF92CF92DF92EF92F3
S11321A0FF920F931F93CF93DF93EC015B014A01DE
S11321B08D81811103C08FEF9FEFD7C08C8180FF89
S11321C0FACF4B885C886D887E884A855B856C85F0
S11321D07D85C401A0E0B0E093018201041B150BCE
S11321E0260B370B081719072A073B0718F4420177
S11321F0841A950A24011E0126E0220E311C411482
S1132200510409F47EC04A855B856C857D856A012D
S113221081E0D822ED818B8D9C8D8A019B01F9E0B0
S11322203695279517950795FA95D1F7E23061F41D
S1132230FC01828D938DA48DB58DBC01CD01600F01
S1132240711F821F931F3FC0FC0174807A94702217
S1132250C114D104C9F4711017C0452B462B472B68
S113226049F48F89988DA98DBA8D8E839F83A88711
S1132270B9870AC04E815F816885798591010E9482
S1132280C817882309F497CFEB8DFC8D8E819F812D
S1132290A885B9850297A109B109058404C0880FEE
S11322A0991FAA1FBB1F0A94D2F7468557856089D8
S11322B07189840F951FA61FB71FBC01CD01670D3F
S11322C0711D811D911D20E032E02C193D09320160
S11322D02415350508F439012C8126FD04C0611448
S11322E0F2E07F0679F5009108011091090120912F
S11322F00A0130910B01601771078207930719F4E3
S113230021C0C40132C0750183019601AB01BC0137
S113231080916603909167030E94DA0E882309F482
S11323204ACFA60CB71C8A859B85AC85BD85860DD6
S1132330971DA11DB11D8A879B87AC87BD87461851
S113234057085DCF40E00E946717882309F433CF14
S1132350F601E859FC4FD501CF01860D971D8E1764
S11323609F07F9F221912D93FACFDF91CF911F911D
S11323700F91FF90EF90DF90CF90BF90AF909F9020
S11323808F907F906F905F904F903F902F90089523
S1132390FF920F931F93CF93DF931F92CDB7DEB7B6
S11323A0FC012581223018F480E090E033C08C01D8
S11323B0FC01428553856485758585E0769567952E
S11323C0579547958A95D1F7F42FFF70FF2E41E07A
S11323D050E0BE016F5F7F4FC8010E94C310019798
S11323E019F4898190E002C08FEF9FEF0196E1F22A
S11323F0F80182859385A485B5854F96A11DB11DED
S113240082879387A487B587F0E2FF9EC0011124D9
S113241088599C4F0F90DF91CF911F910F91FF909E
S113242008958F929F92AF92BF92CF92DF92EF92D4
S1132430FF920F931F93CF93DF93EC018D81811152
S113244002C080E078C00B891C892D893E8904175D
S1132450150726073707A8F36A017B01823029F4A0
S1132460CA86DB86EC86FD860DC0C114D104E10466
S1132470F10451F41E821F82188619861A861B865F
S11324801C861D8681E057C08A849B84AC84BD84ED
S1132490EB8DFC8D258530E0275F3F4FB501A4010E
S11324A04150510961097109022E04C0769567955E
S11324B0579547950A94D2F7D701C6010197A10908
S11324C0B10904C0B695A795979587952A95D2F733
S11324D084179507A607B70720F089288A288B2830
S11324E071F44F89588D698D7A8D4E835F83688727
S11324F079874C015D018E010A5F1F4F16C0841B52
S1132500950BA60BB70BF5CF4E815F816885798556
S113251098018B8D9C8D0E94C81791E0891A9108AF
S1132520A108B108882309F48CCF81149104A10473
S1132530B10451F795CFDF91CF911F910F91FF9087
S1132540EF90DF90CF90BF90AF909F908F900895C1
S1132550FF920F931F93CF93DF93FC0125812223D6
S113256009F442C0F62EEC01848187FF30C061E09B
S1132570CF010E9420108C01892BB1F18D81823012
S113258048F48B899C89AD89BE89F801848F958F25
S1132590A68FB78F8F89988DA98DBA8DF801938FE7
S11325A0828FB58BA48BE0915F03F0916003309729
S11325B059F0B8016A5E7F4FC80148960995F80141
S11325C0808D918D938B828B8C818F778C83F1108E
S11325D003C08C818F7E8C838F2DDF91CF911F91CF
S11325E00F91FF900C943E1780E0DF91CF911F91E3
S11325F00F91FF900895CF93DF93EC0161E00E9467
S1132600A812882311F01D8281E0DF91CF910895F3
S1132610CF93DF93EC018D818130D1F48C8181FFE4
S113262017C082FF0DC04B895C896D897E898A85BC
S11326309B85AC85BD8584179507A607B70759F414
S113264080916603909167030E947C0F882349F070
S113265080E090E02AC0CE010E9411128111F0CFD7
S1132660F7CF8C8185FF08C060E0CE010E94A812DC
S11326708C818F7D8C83ECCF4091610350916203F8
S11326806091630370916403452B462B472B21F023
S113269080E00E941A17DCCF80618C832A853B85F9
S11326A0317080E092E0821B930BDF91CF9108950B
S11326B04F925F926F927F928F929F92AF92BF924E
S11326C0EF92FF920F931F93CF93DF9300D000D02C
S11326D0CDB7DEB7FC0185818130E9F4848181FFC7
S11326E01AC083899489A589B68984179507A60792
S11326F0B70788F0892B8A2B8B2B09F47AC04A01FF
S11327005B017F014284538464847584CF010E94F9
S11327101112811102C080E06DC0F701838D948D88
S113272081149104A104B10471F44789508D618D21
S1132730728D0E946A1A882371F3F701178A108E2A
S1132740118E128E3AC0F7014681578160857185DA
S11327509E012F5F3F4F0E94C8178823E1F24981F1
S11327605A816B817C81F701838D948DFC012789CB
S1132770203129F008EF1FEF2FEF3FE004C008EFEE
S11327801FEF20E030E04017510762077307A8F4F9
S11327900E946A1A882309F4BECFF7014681578143
S11327A0608571850FEF1FEF2FEF3FE0838D948DD0
S11327B00E94B418882309F4AECFF701838A948A5F
S11327C0A58AB68A84818068848361E0C7010E94F7
S11327D0A812882309F49FCFB501A4014814590411
S11327E06A047B0410F4B301A201C7010E94111210
S11327F001C081E00F900F900F900F90DF91CF9167
S11328001F910F91FF90EF90BF90AF909F908F908A
S11328107F906F905F904F9008951F93CF93DF93B5
S1132820EC0180E2689FF0011124E859FC4F938584
S1132830917129F0842F827411F080E052C0142F1A
S11328406A8B8091080190910901A0910A01B091CD
S11328500B018E879F87A88BB98B4489558960E0CB
S113286070E0BA0155274427828D938DA0E0B0E033
S1132870482B592B6A2B7B2B4F8B588F698F7A8F60
S11328808385887151F4848D958DA68DB78D8B8B3E
S11328909C8BAD8BBE8B81E00CC0803171F69E01A8
S11328A02D5E3F4F8B8D9C8D0E944B18882329F2FF
S11328B084E08D83812F8F708C831E821F82188603
S11328C019861A861B861C861D8616FF09C040E0E1
S11328D050E0BA01CE01DF91CF911F910C945813AF
S11328E081E0DF91CF911F910895BF92CF92DF9243
S11328F0EF92FF920F931F93CF93DF93CDB7DEB781
S11329002B970FB6F894DEBF0FBECDBFFC01358107
S11329103111C0C0C22E8B017C01BE016F5F7F4F9D
S1132920CA010E943910882309F4B4C0F801838DC8
S1132930948DF701948F838FF80116821782108685
S113294011861286138614861586D12CF801828589
S11329509385A485B58543895489658976898417C7
S11329609507A607B70708F03EC025E0B695A795DA
S1132970979587952A95D1F7F82FFF70BF2EC80138
S11329800E94C811009709F485C0FC01208122230C
S1132990A1F0253E09F480C04BE050E0BC01CE011B
S11329A001960E94F11E892B89F68C2D8073803349
S11329B009F470C04C2D6B2D69C0D11012C0F70101
S11329C0B28A409108015091090160910A01709105
S11329D00B0146875787608B718BFC0180818111C5
S11329E05EC0DD24D3948C2D8271823109F052C0F3
S11329F0DD2041F061E0C7010E9420108C01892B89
S1132A0079F448C0F8018581823009F443C0C801D3
S1132A100E94C00F8823F1F1F701128A08E613E03F
S1132A2080E2F80111928A95E9F78BE0FE01319674
S1132A30D80101900D928A95E1F7E0915F03F0913E
S1132A406003309739F0B801625F7F4FC801409648
S1132A50099509C081E298E2F801918B808B80E0AE
S1132A6098E097878687F80180899189938B828B78
S1132A70918F808F86859785978B868B81E00E94C6
S1132A803E17882339F04C2DF7016289C7010E9453
S1132A900D1408C080E006C0DD2009F490CFDD24C9
S1132AA0D39454CF2B960FB6F894DEBF0FBECDBF90
S1132AB0DF91CF911F910F91FF90EF90DF90CF9016
S1132AC0BF9008952F923F924F925F926F927F92A0
S1132AD08F929F92AF92BF92CF92DF92EF92FF922A
S1132AE00F931F93CF93DF9300D000D01F92CDB7E5
S1132AF0DEB77C016B011A01DC0115968C911597E8
S1132B008130C9F414961C9111FF15C012FF1DC029
S1132B10F701438954896589768982859385A485DB
S1132B20B58584179507A607B70779F0C7010E94F2
S1132B30111281110AC081E090E0D70113969C9391
S1132B408E93129780E090E04CC1410112951F7062
S1132B50109511701D8380C05B968D919C915C973C
S1132B60FC0174807A94B901A80129E076956795EF
S1132B70579547952A95D1F774221170772009F457
S1132B8077C080E092E0801B910B54018815990571
S1132B9008F45C01D7015B962D913C915C971696E5
S1132BA08D919D910D90BC91A02D0297A109B10921
S1132BB0F901058404C0880F991FAA1FBB1F0A943A
S1132BC0D2F74685578560897189840F951FA61FA2
S1132BD0B71F9C01AD01270D311D411D511D290158
S1132BE03A01A11432E0B30609F089C080910801CA
S1132BF090910901A0910A01B0910B014816590660
S1132C006A067B0659F48FEF9FEFDC01809308017D
S1132C1090930901A0930A01B0930B010D819601D1
S1132C20B301A20180916603909167030E942A0F69
S1132C30882309F480CF9EEFD91A8A189B08F701DC
S1132C4082859385A485B5858A0D9B1DA11DB11D23
S1132C5082879387A487B587D7011A960D911D9112
S1132C602D913C911D978114910409F075CF88C072
S1132C700115110509F085CF16964D915D916D9161
S1132C807C911997411551056105710559F45796C1
S1132C908D919D910D90BC91A02D0097A105B1053A
S1132CA041F521C09E012F5F3F4F0E94C817882322
S1132CB009F449CF89819A81AB81BC81F701238DC5
S1132CC0348DF9012789203129F048EF5FEF6FEF48
S1132CD07FE004C048EF5FEF60E070E08417950781
S1132CE0A607B70730F0C7010E94960F811149CF9C
S1132CF022CFF70186839783A087B18742CF01153E
S1132D00110531F5D7011A964D915D916D917C9124
S1132D101D9753968D919D910D90BC91A02D4817B0
S1132D2059076A077B07A0F081E00E943E178823B9
S1132D3009F401CF409208015092090160920A01FE
S1132D4070920B018091650381608093650308C0D4
S1132D5041E0C301B2010E946717882309F4EBCE56
S1132D60D601F801E859FC4F9F012A0D3B1D2E178F
S1132D703F0719F08D918193FACFCA0CDB1C5DCF0C
S1132D80D70153964D915D916D917C915697149610
S1132D908C91401751076207730740F4F701038BC6
S1132DA0148B258B368B806884830DC020915F0340
S1132DB030916003232B39F02114310421F0806811
S1132DC0D70114968C93F701848183FD02C0C1015D
S1132DD008C061E0C7010E94A812882309F4ABCEA1
S1132DE0F6CF0F900F900F900F900F90DF91CF912F
S1132DF01F910F91FF90EF90DF90CF90BF90AF9015
S1132E009F908F907F906F905F904F903F902F9006
S1132E100895CF93DF931F92CDB7DEB7698341E066
S1132E2050E0BE016F5F7F4F0E9462150F90DF91EB
S1132E30CF9108950F934091610350916203609183
S1132E40630370916403411551056105710599F09F
S1132E50082F28E633E080916603909167030E946F
S1132E602A0F882349F01092610310926203109292
S1132E7063031092640381E00F9108950F93CF933D
S1132E80909165039923F9F0C82F4091080150915E
S1132E90090160910A0170910B01082F28E633E0C3
S1132EA080916603909167030E942A0F811102C0EA
S1132EB080E00AC0CC2339F08C2F0E941A17882393
S1132EC0B9F31092650381E0CF910F910895CF92E9
S1132ED0DF92EF92FF92CF936B017C01C42F80911C
S1132EE0080190910901A0910A01B0910B018C1580
S1132EF09D05AE05BF05D9F081E00E943E17811102
S1132F0002C080E01AC028E633E0B701A601809130
S1132F106603909167030E94EA0E882391F3C0929E
S1132F200801D0920901E0920A01F0920B0180910C
S1132F306503C82BC093650381E0CF91FF90EF90A8
S1132F40DF90CF900895CF92DF92EF92FF926B01C2
S1132F507C0181E00E943E178823A9F0E8E6F3E0B3
S1132F60119285E0E836F807D9F7C0920801D092AB
S1132F700901E0920A01F0920B01809165038160DE
S1132F808093650381E0FF90EF90DF90CF900895E8
S1132F908F929F92AF92BF92CF92DF92EF92FF9265
S1132FA00F931F93CF93DF93FC0181859285A385B3
S1132FB0B4850196A11DB11D84179507A607B7070F
S1132FC010F480E05BC083889488A588B6888789DC
S1132FD0803129F4BB27A72F962F852F09C0DB0149
S1132FE0CA01C7E0B695A79597958795CA95D1F775
S1132FF0E9016A017B018F01BC01CD01680D791DD6
S11330008A1D9B1D8090080190900901A0900A01DF
S1133010B0900B01681579058A059B0591F4F801B8
S113302087898031A1F4DD24EE24FF24C601880FB2
S1133030991FFC01E859FC4F80819181A0E0B0E028
S113304018C040E00E9467178111E9CFBACFE89415
S1133050C7F8DD24EE24FF24C601880F991F880FCA
S1133060991FFC01E859FC4F80819181A281B381B1
S1133070BF7088839983AA83BB8381E0DF91CF915A
S11330801F910F91FF90EF90DF90CF90BF90AF9082
S11330909F908F9008954F925F926F927F92AF921C
S11330A0BF92CF92DF92EF92FF920F931F93CF9331
S11330B0DF9300D000D0CDB7DEB78C0149835A83AB
S11330C06B837C835901C12CD12C7601412C82E085
S11330D0582E612C712C49815A816B817C819E010F
S11330E02F5F3F4FC8010E94C817882351F1D301B5
S11330F0C201F801058404C0880F991FAA1FBB1FD1
S11331000A94D2F7C80ED91EEA1EFB1E49815A81C1
S11331106B817C818789803129F088EF9FEFAFEF45
S1133120BFE004C088EF9FEFA0E0B0E04817590764
S11331306A077B0780F2F501C082D182E282F382C2
S113314081E00F900F900F900F90DF91CF911F911E
S11331500F91FF90EF90DF90CF90BF90AF907F9052
S11331606F905F904F9008954F925F926F927F920D
S11331708F929F92AF92BF92CF92DF92EF92FF9283
S11331800F931F93CF93DF93EC01423051056105F8
S1133190710510F480E078C089859A85AB85BC857B
S11331A00196A11DB11D84179507A607B70790F3D3
S11331B0CB88DC88ED88FE888F89803129F4BB2791
S11331C0A72F962F852F09C0DB01CA01E7E0B6952A
S11331D0A79597958795EA95D1F7480159012A0152
S11331E03B01C80ED91EEA1EFB1E80910801909176
S11331F00901A0910A01B0910B01C816D906EA068B
S1133200FB0681F48F898031A9F4B301A20155270B
S113321066277727440F551FFA01E859FC4F91821E
S1133220808219C040E0C701B6010E94671781116E
S1133230E9CFB0CFB301A2014F775527662777278F
S1133240440F551F440F551FFA01E859FC4F808263
S11332509182A282B3828091650381608093650329
S11332608A89823080F08D819E81AF81B885C80EB5
S1133270D91EEA1EFB1EC0926103D0926203E09243
S11332806303F092640381E0DF91CF911F910F916A
S1133290FF90EF90DF90CF90BF90AF909F908F9072
S11332A07F906F905F904F9008952F923F924F922E
S11332B05F926F927F929F92AF92BF92CF92DF9272
S11332C0EF92FF920F931F93CF93DF93CDB7DEB7A7
S11332D060970FB6F894DEBF0FBECDBF5C0149877F
S11332E05A876B877C871901D901CD90DD90ED90C9
S11332F0FC90C114D104E104F10431F0BFEFCB1A06
S1133300DB0AEB0AFB0A10C0FC01C080D180E2801A
S1133310F3809924939409851A852B853C85013083
S113332011052105310509F0912CF501818592855E
S1133330A385B4858C019D010F5F1F4F2F4F3F4F15
S11333400D871E872F87388B260137011D821E8229
S11333501F821886F50181859285A385B4850D8128
S11333601E812F813885081719072A073B0708F0A3
S113337056C02D853E854F8558892415350546054B
S1133380570550F482E0482E512C612C712C92E0A8
S1133390C92ED12CE12CF12C9E012F5F3F4FB3019C
S11333A0A201C5010E94C8178823C9F149815A8125
S11333B06B817C81D301C2010196A11DB11D452BF6
S11333C0462B472B19F06C017D010FC0AC01BD01E8
S11333D04C195D096E097F0909851A852B853C8581
S11333E0041715072607370779F02D813E814F8191
S11333F058852F5F3F4F4F4F5F4F2D833E834F8341
S113340058872C013D01A6CF0FEF1FEF2FEF3FE0B0
S1133410B301A201C5010E94B418811118C080E053
S113342041C0D301C2010197A109B1098D839E83D3
S1133430AF83B88793018201AC01BD01C5010E942D
S1133440B418882361F34D805E806F807884C4143F
S1133450D504E604F70428F3D1014D915D916D91F3
S11334607C91411551056105710599F4F101C08202
S1133470D182E282F3829920A1F0FFEFCF1ADF0A12
S1133480EF0AFF0AD501CD92DD92ED92FC921397DB
S113349008C097018601C5010E94B4188111E6CFC6
S11334A0BECF81E060960FB6F894DEBF0FBECDBFED
S11334B0DF91CF911F910F91FF90EF90DF90CF900C
S11334C0BF90AF909F907F906F905F904F903F9090
S11334D02F900895AF92BF92CF92DF92EF92FF9216
S11334E00F931F93CF93DF9300D000D0CDB7DEB7F7
S11334F05C016A017B0182E090E0A0E0B0E0F501AC
S113350080839183A283B3839E012F5F3F4FB701D2
S1133510A601C5010E94C817882311F100E010E03C
S11335209801B701A601C5010E94B4188823C1F00F
S1133530C980DA80EB80FC80F5018789803129F02D
S113354088EF9FEFAFEFBFE004C088EF9FEFA0E0EC
S1133550B0E0C816D906EA06FB06B0F281E001C065
S113356080E00F900F900F900F90DF91CF911F91FB
S11335700F91FF90EF90DF90CF90BF90AF900895A0
S11335808F929F92AF92BF92CF92DF92EF92FF926F
S11335900F931F93CF93DF93EC01142F7093670362
S11335A060936603442369F1453010F080E0F2C073
S11335B040E060E070E0CB010E9467178823B1F31C
S11335C020E1129FA0011124485A5C4FFA01E254F1
S11335D0FE4F80818F7751F73C9680819181A28143
S11335E0B38184369105A105B10500F33497C080F9
S11335F0D180E280F380C114D104E104F10421F408
S1133600D5CFC12CD12C760140E0C701B6010E9470
S11336106717882359F2809173039091740381157D
S1133620924021F690917803992309F4BFCF209119
S1133630760330917703232B09F4B8CF8091750377
S1133640882309F4B3CF9A8B8C831D8690E041E0E4
S113365050E02D85E22FBA01022E02C0660F771FBB
S11336600A94E2F78617970731F031E0320F3D876D
S1133670283078F39BCF20917E0330917F0321156E
S1133680310519F040E050E008C020918C033091DE
S11336908D0340918E0350918F032D833E834F837E
S11336A05887809176039091770346015701880EDD
S11336B0991EA11CB11C8B8A9C8AAD8ABE8A00917A
S11336C0790310917A03198F088FA0917803B0E0E1
S11336D00E94C31C860E971EA81EB91E8A8E9B8E3E
S11336E0AC8EBD8E85E0000F111F8A95E1F7015065
S11336F01E4F012F11270695800E911EA11CB11C8F
S11337008E869F86A88AB98A20917B0330917C0398
S11337102115310521F0A90160E070E008C0409155
S113372088035091890360918A0370918B03D701B8
S1133730C60188199909AA09BB09840F951FA61FF8
S1133740B71F04C0B695A79597958795EA95D2F7C4
S113375089879A87AB87BC87853F2FE09207A105AD
S1133760B10510F48CE014C0853F9F4FA105B1054D
S113377010F480E10DC08091940390919503A09181
S11337809603B09197038A8F9B8FAC8FBD8F80E295
S11337908F8B81E0DF91CF911F910F91FF90EF907C
S11337A0DF90CF90BF90AF909F908F900895CF936C
S11337B0CFB7F89480916B05811127C0EAEAF0E055
S11337C08491E6E9F0E09491E82FF0E0EE0FFF1F1A
S11337D0E254FF4FA591B491EC91E92321F461E007
S11337E08AE00E94721C61E08AE00E94361C8CB55B
S11337F080618CBD8CB580648CBD61E08DE00E94DD
S1133800361C61E08BE00E94361C80916B058F5F53
S113381080936B05CFBFCF910895833081F028F456
S1133820813099F08230A1F008958730A9F0883072
S1133830B9F08430D1F4809180008F7D03C08091F1
S113384080008F7780938000089584B58F7702C0BD
S113385084B58F7D84BD08958091B0008F7703C0B7
S11338608091B0008F7D8093B0000895CF93DF9353
S113387090E0FC01E457FF4F2491FC01E056FF4F18
S11338808491882361F190E0880F991FFC01E25430
S1133890FF4FC591D491FC01EC54FF4FA591B49115
S11338A0611109C09FB7F894888120958223888389
S11338B0EC912E230BC0623061F49FB7F894888199
S11338C0322F309583238883EC912E2B2C939FBF2A
S11338D006C08FB7F894E8812E2B28838FBFDF9121
S11338E0CF9108951F93CF93DF93282F30E0F901F0
S11338F0E858FF4F8491F901E457FF4FD491F9013F
S1133900E056FF4FC491CC23C1F0162F81110E94C1
S11339100D1CEC2FF0E0EE0FFF1FEC54FF4FA591B0
S1133920B4919FB7F894111104C08C91D095D82309
S113393002C0EC91DE2BDC939FBFDF91CF911F91EE
S11339400895A1E21A2EAA1BBB1BFD010DC0AA1FDC
S1133950BB1FEE1FFF1FA217B307E407F50720F0F4
S1133960A21BB30BE40BF50B661F771F881F991F6F
S11339701A9469F760957095809590959B01AC01B8
S1133980BD01CF0108950E94D41CA59F900DB49F42
S1133990900DA49F800D911D11240895EE0FFF1F1B
S11339A00590F491E02D0994A29FB001B39FC0014A
S11339B0A39F700D811D1124911DB29F700D811D57
S11339C01124911D08950F931F93CF93DF93823099
S11339D0910510F482E090E0E0916E05F0916F059E
S11339E020E030E0A0E0B0E0309719F1408151814F
S11339F00281138148175907C8F08417950769F4A1
S1133A00109731F012960C93129713961C9327C0BB
S1133A1000936E0510936F0522C02115310519F02E
S1133A204217530718F49A01BD01EF01DF01F801B1
S1133A30DBCF21153105F9F0281B390B2430310572
S1133A4080F48A819B816115710521F0FB019383C8
S1133A50828304C090936F0580936E05FE013296B5
S1133A6044C0FE01E20FF31F819391932250310968
S1133A70398328833AC020916C0530916D05232B3E
S1133A8041F4209102013091030130936D0520939C
S1133A906C0520910001309101012115310541F49B
S1133AA02DB73EB74091040150910501241B350BFD
S1133AB0E0916C05F0916D05E217F307A0F42E1B5D
S1133AC03F0B2817390778F0AC014E5F5F4F24177E
S1133AD0350748F04E0F5F1F50936D0540936C05FA
S1133AE08193919302C0E0E0F0E0CF01DF91CF91A8
S1133AF01F910F910895CF93DF93009709F481C02C
S1133B00FC01329713821282A0916E05B0916F0569
S1133B10109781F420813181820F931F20916C05CD
S1133B2030916D052817390751F5F0936D05E09331
S1133B306C0567C0ED0120E030E0CE17DF0740F4EC
S1133B404A815B819E0141155105F1F0EA01F5CFEF
S1133B50D383C28340815181840F951FC817D9072D
S1133B6059F488819981840F951F029691838083EB
S1133B708A819B81938382832115310529F4F093F3
S1133B806F05E0936E053DC0E901FB83EA8349912B
S1133B905991C40FD51FEC17FD0761F48081918101
S1133BA0840F951F0296E90199838883828193810A
S1133BB09B838A83E0E0F0E012968D919C911397A9
S1133BC0009719F0FD01DC01F7CF8D919C911197BD
S1133BD09D012E5F3F4F820F931F20916C05309102
S1133BE06D052817390769F4309729F410926F0589
S1133BF010926E0502C013821282B0936D05A093D9
S1133C006C05DF91CF910895A0E0B0E0EAE0FEE119
S1133C100C94761FEC01009721F4CB010E94E31C65
S1133C20B4C0FC01E60FF71F9C0122503109E217D2
S1133C30F30708F4A8C0D9010D911C911197061738
S1133C401707B0F00530110508F49BC0C8010497AC
S1133C508617970708F495C002501109061B170B25
S1133C60019311936D937C93CF010E947B1D89C0B6
S1133C705B01A01AB10A4C01800E911EA0916E0541
S1133C80B0916F05612C712CE12CF12C109709F483
S1133C9046C08D919C911197A815B905B1F56C0199
S1133CA042E0C40ED11CCA14DB0478F14C018A181A
S1133CB09B08640142E0C40ED11C1296BC9012977A
S1133CC01396AC91B5E0CB16D10440F0B282A38335
S1133CD091828082D9016D937C9309C00E5F1F4F3E
S1133CE0800F911FF90191838083EB2DFA2FE1144A
S1133CF0F10431F0D7011396FC93EE93129741C06F
S1133D00F0936F05E0936E053CC06816790608F4DD
S1133D103C017D0112960D90BC91A02DB7CF8091EE
S1133D206C0590916D0588169906E1F46616770680
S1133D30C8F48091000190910101009741F48DB77E
S1133D409EB74091040150910501841B950BE8171F
S1133D50F907C8F4F0936D05E0936C05F9017183DC
S1133D6060830FC0CB010E94E31C7C01009759F0D3
S1133D70A801BE010E94FE1ECE010E947B1DC70148
S1133D8004C0CE0102C080E090E0CDB7DEB7EEE023
S1133D900C94921F1F93FC0199278827BC01E89477
S1133DA011911032E9F3193010F01E30C8F31B32B0
S1133DB051F01D3249F4689406C00E94331F610F0C
S1133DC0711D811D911D119110531A30B0F33EF4F1
S1133DD090958095709561957F4F8F4F9F4F1F9160
S1133DE00895FB01DC0104C08D910190801921F438
S1133DF041505040C8F7881B990B0895FB01DC0122
S1133E0002C001900D9241505040D8F70895FC0132
S1133E108191861721F08823D9F79927089531973E
S1133E20CF010895FB01DC0101900D920020E1F720
S1133E300895FB01DC014150504048F001900D927F
S1133E400020C9F701C01D9241505040E0F7089589
S1133E50BB274A3031F4992322F4BDE29095819531
S1133E609F4F0C94491F592F482F372F262F660F29
S1133E70771F881F991F660F771F881F991F620F6E
S1133E80731F841F951F660F771F881F991F08953E
S1133E90BB27FB015527AA27880F991FAA1FA41720
S1133EA010F0A41B83955051B9F7A05DAA3308F014
S1133EB0A95DA193009779F7B111B1931192CB0148
S1133EC00C94621FDC01FC01672F71917723E1F7E9
S1133ED0329704C07C916D9370836291AE17BF07D3
S1133EE0C8F308952F923F924F925F926F927F9200
S1133EF08F929F92AF92BF92CF92DF92EF92FF92F6
S1133F000F931F93CF93DF93CDB7DEB7CA1BDB0BA1
S1133F100FB6F894DEBF0FBECDBF09942A88398846
S1133F2048885F846E847D848C849B84AA84B9844D
S1133F30C884DF80EE80FD800C811B81AA81B98159
S1133F40CE0FD11D0FB6F894DEBF0FBECDBFED016D
S1133F50089510E0C8E6D0E004C0FE010E94CE1C23
S10F3F602196C936D107C9F7F894FFCFA9
S1133F6C0000700520000100FFFFFFFF506C617919
S1133F7C6261636B20617564696F0044656C657480
S1133F8C6520417564696F004E6577415652303532
S1133F9C2E747874005245434F5244494E470046A0
S1133FAC696C65205361766564004E6F20456666C6
S1133FBC6563740050726573732053656C65637428
S1133FCC00746F2064656C6574650044656C65747D
S1133FDC656400506C6179696E6720417564696F22
S1133FEC2031007465737430342E747874007769DE
S1133FFC746820456666656374203100506C617981
S113400C696E6720417564696F203200496E69746A
S113401C69616C697A696E67207468652053442001
S113402C636172642E2E2E004361726420696E6982
S113403C7469616C697A65642E00566F69636520D6
S113404C5265636F7264657200000000007705D1DD
S113405C064605C4051805320524050D0A006E61D3
S113406C6E00696E66006F76660000000000EE0854
S113407C150904093109ED0951095B092F000000E8
S10D408C00000917D10608134B06C3
S9030000FC
