S01100004144435F696E7075742E73726563BC
S11300000C9469000C9491000C9491000C94910050
S11300100C9491000C9491000C9491000C94910018
S11300200C9491000C9491000C9491000C94910008
S11300300C9491000C9491000C9491000C949100F8
S11300400C94AC080C9491000C943C1F0C946E1FFF
S11300500C9491000C9409080C9491000C94910058
S11300600C9491000C9491007C3C3E5E2B3D3F2F00
S11300705B5D3B2C2A225C000000000800020100AA
S1130080000304070000000000000000010204084F
S113009010204080010204081020010204081020EE
S11300A0040404040404040402020202020203031A
S11300B00303030300000000250028002B000000B8
S11300C00000240027002A008D050B0EAD11941F9B
S11300D09B0511241FBECFEFD8E0DEBFCDBF12E0D9
S11300E0A0E0B1E0E4EEF6E402C005900D92A03386
S11300F0B107D9F725E0A0E3B2E001C01D92A6370D
S1130100B207E1F710E0C8E6D0E004C02197FE0191
S11301100E948A20C436D107C9F70E9469070C944B
S113012065230C94000082E68093B80084E08093F9
S1130130BC001092B900089584EA8093BC008091B9
S1130140BC0087FFFCCF08958093BB0084E88093B4
S1130150BC008091BC0087FFFCCF08958091BB0058
S113016082608093BB0084E88093BC008091BC00D3
S113017087FFFCCF8091BB008D7F8093BB0084E818
S11301808093BC008091BC0087FFFCCF08959091C0
S1130190BB009E7F9093BB0094E89093BC00909129
S11301A0BC0097FFFCCF9091BB009F709093BB0065
S11301B094E89093BC009091BC0097FFFCCF909181
S11301C0BB00807F892B8093BB0084E88093BC00B4
S11301D08091BC0087FFFCCF0C94AE00CF93C82F56
S11301E08091BB008E7F8093BB0084E88093BC0029
S11301F08091BC0087FFFCCF8091BB008F708093FF
S1130200BB0084E88093BC008091BC0087FFFCCFD6
S11302108091BB009C2F907F892B8093BB0084E846
S11302208093BC008091BC0087FFFCCF0E94AE008D
S11302308091BB008F708093BB0084E88093BC00E6
S11302408091BC0087FFFCCF2091BB0030E1C39FAD
S1130250C0011124822B8093BB0084E88093BC00EE
S11302608091BC0087FFFCCFCF910C94AE00CF935C
S1130270C82F8091BB0081608093BB0084E8809389
S1130280BC008091BC0087FFFCCF8091BB008F70C5
S11302908093BB0084E88093BC008091BC0087FFFE
S11302A0FCCF8091BB009C2F907F892B8093BB0057
S11302B084E88093BC008091BC0087FFFCCF0E943F
S11302C0AE008091BB008F708093BB0084E8809364
S11302D0BC008091BC0087FFFCCF2091BB0030E1C3
S11302E0C39FC0011124822B8093BB0084E88093B8
S11302F0BC008091BC0087FFFCCFCF910C94AE0072
S113030080E30E94C70080E30E94C70080E20E944D
S1130310C70088E20E94EE0081E00E94EE0086E0C1
S11303200E94EE0080E80E94EE008FE00C94EE0044
S1130330CF93DF93EC018991882319F00E94370150
S1130340FACFDF91CF91089590917C00907F8F70C8
S1130350892B80937C00F89480917A008064809348
S11303607A0080917A0086FDFCCF8091790090E03C
S11303700895CF93DF93FB0122813381DC0113962F
S11303803C932E931297448155816681778114960C
S11303904D935D936D937C9317974085518562854A
S11303A0738518964D935D936D937C931B971C9660
S11303B0EF012C969C01275E3F4F49914D93A21764
S11303C0B307D9F7218D328DFC01328F218FDF9154
S11303D0CF91089580913502813061F48FE00E94BD
S11303E0EE0080E80E94EE0081E090E090933102FC
S11303F08093300280913402823061F48FE00E9455
S1130400EE0080EC0E94EE0082E090E090933102D6
S113041080933002089581E00E94EE0080E80E94FB
S1130420EE0084E10E94EE008EE091E00E949801CB
S113043080EC0E94EE0084E10E94EE008DE191E0E8
S11304400E94980181E090E0909309018093080153
S113045010923102109230020895CF93DF93CDB7FA
S1130460DEB76B970FB6F894DEBF0FBECDBF809199
S11304703602823008F499C08091060190910701F8
S1130480019781F427E14AE251E06CE772E0CE0182
S113049001960E94890DBE016F5F7F4F88E592E04F
S11304A00E94B9018091060190910701029781F49D
S11304B027E14AE251E06CE772E0CE0101960E9426
S11304C0890DBE016F5F7F4F88E592E00E94B901FC
S11304D08091060190910701039781F427E14AE294
S11304E051E06CE772E0CE0101960E94890DBE01D5
S11304F06F5F7F4F88E592E00E94B9018091060109
S113050090910701049781F427E14AE251E06CE7F6
S113051072E0CE0101960E94890DBE016F5F7F4F8C
S113052088E592E00E94B90181E00E94EE0086E332
S113053091E00E949801809136028230A8F0809167
S11305407C00807F80937C00789480917A00806422
S113055080937A0080917A0086FDFCCF81E00E942E
S1130560A40180933602E7CF88E592E00E944D0B08
S113057081E00E94EE0083E491E00E949801F894E7
S11305802FEF80E792E0215080409040E1F700C0D7
S113059000000E940B02109231021092300281E09E
S11305A090E090930901809308016B960FB6F8943C
S11305B0DEBF0FBECDBFDF91CF91089581E00E94D1
S11305C0EE0080E80E94EE0084E10E94EE008EE4DA
S11305D091E00E9498018CE00E94EE0082E090E09D
S11305E09093090180930801109231021092300215
S11305F0089581E00E94EE0080E80E94EE0084E10C
S11306000E94EE0086E591E00E9498018CE00E9431
S1130610EE0083E090E0909309018093080110922A
S1130620310210923002089581E00E94EE0080E8C9
S11306300E94EE0084E10E94EE008EE591E00E94AB
S113064098018CE00E94EE0084E090E09093090110
S1130650809308011092310210923002089581E0D3
S11306600E94EE0080E80E94EE0084E10E94EE0009
S113067086E691E00E9498018CE00E94EE0085E0FD
S113068090E0909309018093080110923102109236
S11306903002089581E00E94EE0080E80E94EE009E
S11306A084E10E94EE008EE491E00E9498018CE0C7
S11306B00E94EE0084E690E0909309018093080183
S11306C01092310210923002089581E00E94EE00EF
S11306D080E80E94EE0084E10E94EE0086E591E04D
S11306E00E9498018CE00E94EE0085E690E09093D1
S11306F0090180930801109231021092300208958A
S113070081E00E94EE0080E80E94EE0084E10E94F5
S1130710EE008EE591E00E9498018CE00E94EE00CC
S113072086E690E0909309018093080110923102CB
S113073010923002089581E00E94EE0080E80E9449
S1130740EE0084E10E94EE0086E691E00E949801AA
S11307508CE00E94EE0087E690E09093090180937C
S113076008011092310210923002089581E00E9433
S1130770EE0080E80E94EE0084E10E94EE008EE626
S113078091E00E9498018CE00E94EE0086E090E0E7
S11307909093090180930801109231021092300263
S11307A0089581E00E94EE0080E80E94EE0084E15A
S11307B00E94EE0088E791E00E9498018CE00E947C
S11307C0EE0087E090E09093090180930801109275
S11307D0310210923002089581E00E94EE0080E818
S11307E00E94EE0084E10E94EE008DE791E00E94F9
S11307F098018CE00E94EE0088E090E0909309015B
S11308008093080110923102109230020895CF9320
S1130810DF9380913302823098F0809108019091A7
S11308200901029769F4C0913002D0913102C230BB
S1130830D10531F40E94F902D0930701C093060157
S113084080913302823098F0C0910801D09109015F
S1130850C330D10561F48091300290913102029746
S113086031F40E941403D0930701C09306018091D0
S11308703302823098F0C0910801D0910901C4304C
S1130880D10561F48091300290913102029731F4E4
S11308900E942F03D0930701C09306018091330275
S11308A08230A0F08091080190910901843691056D
S11308B069F4C0913002D0913102C230D10531F4D3
S11308C00E946503D0930701C0930601809133020F
S11308D08230A8F080910801909109018536910534
S11308E071F48091300290913102029741F40E9498
S11308F0800383E090E09093070180930601809148
S113090033028230A8F08091080190910901863663
S1130910910571F48091300290913102029741F473
S11309200E949B0384E090E090930701809306016A
S113093080913302823070F0809108019091090116
S1130940069741F48091300290913102029711F49C
S11309500E94D10380913302823080F0809108019B
S113096090910901079751F48091300290913102DE
S1130970029721F4DF91CF910C94EC03DF91CF9196
S1130980089580913302823090F1809130029091E9
S11309903102892B61F180910801909109018456FB
S11309A09109049720F581E00E94EE0080E80E94FE
S11309B0EE0084E10E94EE0084E891E00E94980138
S11309C080EC0E94EE0084E10E94EE008CE891E04D
S11309D00E9498018CE00E94EE0088E690E09093DB
S11309E00901809308011092310210923002089597
S11309F080913302823008F488C08091080190917C
S1130A0009018836910509F080C0809130029091E7
S1130A103102019709F079C081E00E94EE0080E87C
S1130A200E94EE0084E10E94EE0083E991E00E94BE
S1130A30980180EC0E94EE0084E10E94EE00809117
S1130A40060190910701019721F48EE491E00E9440
S1130A5098018091060190910701029721F486E59F
S1130A6091E00E94980180910601909107010397FB
S1130A7021F48EE591E00E94980180910601909105
S1130A800701049721F486E691E00E949801809181
S1130A90060190910701019731F46AE271E08CE755
S1130AA092E00E94000E8091060190910701029746
S1130AB031F46BE971E08CE792E00E94000E8091C2
S1130AC0060190910701039731F467EA71E08CE71E
S1130AD092E00E94000E8091060190910701049714
S1130AE031F463EB71E08CE792E00E94000E8CE03D
S1130AF00E94EE002FEF83ED90E321508040904060
S1130B00E1F700C000000C940B02089580913202BA
S1130B10823010F00C940B02089588E592E00E9454
S1130B20EB0A8DE392E00E94EB0A62E471E087E352
S1130B3092E00C94740987E392E00C940309CF9338
S1130B40DF93CDB7DEB76B970FB6F894DEBF0FBE59
S1130B50CDBF80913302823008F4E4C0809130022A
S1130B6090913102019709F0E2C0809108019091BF
S1130B700901069709F0DBC081E00E94EE0080E8DD
S1130B800E94EE0084E10E94EE008FEB91E00E944F
S1130B90980180EC0E94EE0084E10E94EE008091B6
S1130BA0060190910701019721F48EE491E00E94DF
S1130BB098018091060190910701029721F486E53E
S1130BC091E00E949801809106019091070103979A
S1130BD021F48EE591E00E949801809106019091A4
S1130BE00701049721F486E691E00E949801809120
S1130BF0060190910701019781F427E14AE251E04F
S1130C006CE772E0CE0101960E94890DBE016F5F10
S1130C107F4F8DE392E00E94B9018091060190918B
S1130C200701029781F427E14BE951E06CE772E098
S1130C30CE0101960E94890DBE016F5F7F4F8DE347
S1130C4092E00E94B90180910601909107010397F7
S1130C5081F427E147EA51E06CE772E0CE010196A6
S1130C600E94890DBE016F5F7F4F8DE392E00E9469
S1130C70B9018091060190910701049781F427E15D
S1130C8043EB51E06CE772E0CE0101960E94890DBE
S1130C90BE016F5F7F4F8DE392E00E94B9018DE347
S1130CA092E00E945F0B8823E9F18DE392E00E94B9
S1130CB01E0B892BC1F040E26DE372E0CE01019678
S1130CC00E948608BE016F5F7F4F87E392E00E9417
S1130CD0C609CE0101960E94030987E392E00E94AF
S1130CE0130A6BB9E2CF8DE392E00E944D0B81E0D1
S1130CF00E94EE0080E80E94EE0084E10E94EE0073
S1130D0087EC91E00E9498018CE00E94EE002FEFA6
S1130D1083ED90E3215080409040E1F700C0000053
S1130D200E940B0280913302823008F462C08091E9
S1130D30300290913102019709F05BC08091080163
S1130D4090910901079709F054C081E00E94EE00D8
S1130D5080E80E94EE0084E10E94EE00809106018A
S1130D6090910701019721F48EE491E00E9498018B
S1130D708091060190910701029721F486E591E0A4
S1130D800E9498018091060190910701039721F434
S1130D908EE591E00E9498018091060190910701EF
S1130DA0049721F486E691E00E94980180EC0E9469
S1130DB0EE008BEC91E00E9498018CE00E94EE0022
S1130DC02FEF87EA91E6215080409040E1F700C080
S1130DD0000081E00E94EE0080E80E94EE0084E1C1
S1130DE00E94EE0087EC91E00E9498018CE00E9442
S1130DF0EE0080913302823008F462C080913002A8
S1130E0090913102019709F05BC0809108019091A3
S1130E100901089709F054C081E00E94EE0080E8BF
S1130E200E94EE0084E10E94EE0080910601909100
S1130E300701019721F48EE491E00E9498018091CA
S1130E40060190910701029721F486E591E00E9442
S1130E5098018091060190910701039721F48EE592
S1130E6091E00E94980180910601909107010497F6
S1130E7021F486E691E00E94980180EC0E94EE0045
S1130E808CED91E00E9498018CE00E94EE002FEF1F
S1130E9087EA91E6215080409040E1F700C00000CD
S1130EA081E00E94EE0080E80E94EE0084E10E944E
S1130EB0EE0087EC91E00E9498018CE00E94EE0025
S1130EC06B960FB6F894DEBF0FBECDBFDF91CF9106
S1130ED008958FEF8AB984B18C7F84B96AE08CE776
S1130EE092E00E94670C811101C0FFCF0E94930021
S1130EF00E949C0080E70E94A4000E9480018FEE63
S1130F0091E00E9498012FEF80E792E02150804009
S1130F109040E1F700C000000E940B0280917A002B
S1130F20806880937A0080917A00846080937A004C
S1130F3080917C00806280937C0080917A0088603C
S1130F4080937A0081E00E94A4018093360282E0BB
S1130F500E94A4018093330285E00E94A40180933F
S1130F60320283B181708093350283B182708093A1
S1130F7034020E942D020E94EA01809133028230E1
S1130F8098F08091080190910901019769F4C0914A
S1130F903002D0913102C130D10531F40E94DE0219
S1130FA0D0930701C093060180913302823098F0F8
S1130FB0C0910801D0910901C130D10561F480913B
S1130FC0300290913102029731F40E944A03D09387
S1130FD00701C093060180913302823078F080913A
S1130FE00801909109010297049740F4809130021E
S1130FF090913102019711F40E94B6030E940704F4
S11310000E949F050E94C1040E94F8040E94860564
S113101099CF1F920F920FB60F9211240F931F9323
S11310202F933F934F935F936F937F938F939F93EC
S1131030AF93BF93EF93FF93CF93DF9300D000D090
S1131040CDB7DEB709E710E0F80180814AE0BE01C0
S11310506F5F7F4F90E00E94E422F801808144E0BA
S113106050E0BE016F5F7F4F88E592E00E94460A20
S11310706AE088E592E00E941F0A0F900F900F909B
S11310800F90DF91CF91FF91EF91BF91AF919F911D
S11310908F917F916F915F914F913F912F911F910C
S11310A00F910F900FBE0F901F9018950F931F93E1
S11310B0CF93DF93EC010E94F608688779878A87CB
S11310C09B87E881F9810284F385E02DCE0109959F
S11310D097FF17C00E94F608088519852A853B8565
S11310E0DC01CB01801B910BA20BB30B0C811D8186
S11310F02E813F8180179107A207B30710F38FEF6A
S11311009FEFDF91CF911F910F910895EF92FF927E
S11311100F931F93CF93DF93EC017B01042F62E4C1
S113112071E00E947409C7010E94560810E097FDFF
S11311300BC08017910741F0682FCE010E94000A6E
S1131140C7010E945608F3CFCE01DF91CF911F91C2
S11311500F91FF90EF9008951F920F920FB60F9288
S113116011242F933F938F939F93AF93BF938091B9
S1131170740290917502A0917602B0917702309139
S1131180730223E0230F2D3720F40196A11DB11D16
S113119005C026E8230F0296A11DB11D20937302FA
S11311A08093740290937502A0937602B0937702B1
S11311B08091780290917902A0917A02B0917B0299
S11311C00196A11DB11D8093780290937902A0939A
S11311D07A02B0937B02BF91AF919F918F913F911F
S11311E02F910F900FBE0F901F9018952FB7F89462
S11311F060917402709175028091760290917702E9
S11312002FBF08950895FC0180819181009711F00A
S11312100C9437210895CF93DF93EC018881998151
S1131220009711F00E943721198218821D821C82B6
S11312301B821A82DF91CF9108950F931F93CF934E
S1131240DF93EC018B016F5F7F4F888199810E944E
S1131250C021009731F0998388831B830A8381E03E
S113126001C080E0DF91CF911F910F910895CF933A
S1131270DF93EC0188819981892B29F08A819B81F4
S11312808617970760F4CE010E941D09882341F058
S11312908C819D81892B19F4E881F981108281E088
S11312A0DF91CF910895EF92FF920F931F93CF9305
S11312B0DF93EC017B018A01BA010E943709811195
S11312C004C0CE010E940B0907C01D830C83B70123
S11312D0888199810E94CE22CE01DF91CF911F9106
S11312E00F91FF90EF900895FC01118210821382F8
S11312F01282158214826115710551F0FB0101906F
S11313000020E9F73197AF01461B570B0C945309A2
S113131008950F931F93CF93DF938C01EB01FC018E
S1131320808191810097D1F068817981611571057F
S113133099F022E039E0232B79F0428153812C810A
S11313403D814217530740F00E94CE228C819D813B
S1131350F8019583848313C00E9437218881998181
S1131360F801918380838A819B81938382838C811A
S11313709D8195838483198218821B821A821D821F
S11313801C82DF91CF911F910F910895CF93DF932A
S1131390EC018617970711F00E948909CE01DF91AD
S11313A0CF910895EF92FF920F931F93CF93DF9302
S11313B06115710511F480E01CC041155105C1F09F
S11313C07B01EC018C819D818A01080F191FB801F2
S11313D0CE010E943709882371F3288139818C81D9
S11313E09D81B701820F931F0E94CE221D830C831F
S11313F081E0DF91CF911F910F91FF90EF900895BD
S1131400CF93DF9300D0CDB7DEB769831A8241E072
S113141050E0BE016F5F7F4F0E94D2090F900F9082
S1131420DF91CF910895FC0180819181009711F0A3
S11314300C94862260E070E0CB0108950895CF9368
S1131440DF931F92CDB7DEB76983DC01ED91FC9188
S11314500280F381E02D41E050E0BE016F5F7F4FD9
S113146009950F90DF91CF910895DC0159968D91E4
S11314709C915A97009739F0DC01ED91FC9104801E
S1131480F581E02D099480E090E00895CF93DF93F7
S1131490EC01898D9A8D009739F481E090E09B836B
S11314A08A8380E090E00BC0FC01138212820E94C8
S11314B0C317E98DFA8D22813381232B71F7DF91D4
S11314C0CF910895FC01818D928D009719F061E010
S11314D00C94C5140895CF93DF931F92CDB7DEB754
S11314E041E050E0BE016F5F7F4F0E94E012019720
S11314F019F4898190E002C08FEF9FEF0F90DF9184
S1131500CF910895FC01818D928D009711F00C9478
S11315106B0A8FEF9FEF08950F931F93CF93DF9381
S1131520FC01818D928D0097B9F0EF010E946B0A46
S11315308C010F3F8FEF180791F0898D9A8DFC0174
S11315404285538564857585415051096109710946
S11315500E942E14C80105C080E090E002C08FEF05
S11315609FEFDF91CF911F910F910895EF92FF921A
S11315700F931F93CF93DF93EC017B018A011B82AE
S11315801A8288EE93E0A0E0B0E08C839D83AE8362
S1131590BF8382E092E0998388838DE190E00E948A
S11315A09F209A8F898F009779F02DE1F701DC0154
S11315B001900D922A95E1F74CE050E0B801CE017C
S11315C00C960E94D522188EDF91CF911F910F9116
S11315D0FF90EF900895FC011382128288EE93E04D
S11315E0A0E0B0E084839583A683B78382E092E091
S11315F091838083128E118E14860895DC0159968E
S1131600ED91FC915A97309729F062857385848512
S1131610958508956FEF7FEFCB010895DC0159960E
S1131620ED91FC915A97309729F0638974898589E3
S11316309689089560E070E0CB010895CF92DF921F
S1131640EF92FF92CF93DF93FC01218D328D232BF8
S1131650D9F0EC010E940E0B6B017C01CE010E94BB
S1131660FE0AA7019601261B370B480B590BDA011A
S1131670C901811530E89307A105B10538F08FEF52
S11316809FE7A0E0B0E002C080E090E0DF91CF915E
S1131690FF90EF90DF90CF900895CF93DF93EC010C
S11316A0898D9A8D009741F00E941815898D9A8D25
S11316B00E9437211A8E198EDF91CF910895DC0193
S11316C05996ED91FC915A97309721F081E09581DC
S11316D0911101C080E00895442339F00E949C17C1
S11316E091E0811103C090E001C091E0892F089539
S11316F00F931F93CF93DF93EC018B0141E00E9482
S1131700211D811109C040E0B801CE01DF91CF91C4
S11317101F910F910C94211D81E0DF91CF911F91B6
S11317200F910895EF92FF920F931F93CF93DF933E
S1131730DA01EB0128813981FC01E20FF31F4081BA
S11317404F3211F42F5F3F4F8C01020F131F7D01A5
S1131750E0E0F0E0E80159918E015F3259F0552341
S113176049F031962F5F3F4FE70159937E01EC30EA
S1131770F10581F7EA0FFB1F1082FC01E20FF31F52
S113178040814F3211F42F5F3F4FFB01318320839F
S1131790FC01E20FF31F81E09081911101C080E010
S11317A0DF91CF911F910F91FF90EF9008954F9289
S11317B05F926F927F928F929F92AF92BF92CF92DD
S11317C0DF92EF92FF920F931F93CF93DF93CDB7E6
S11317D0DEB7C954D1090FB6F894DEBF0FBECDBF32
S11317E05C016B013A01490119A218A286E192E059
S11317F09F8F8E8F1BA21C821B829A8389831E82D9
S11318002A961FAE1EAE2A978B017E018EE1E80E4A
S1131810F11C44244394AE01455C5F4FBE01685BF8
S11318207F4FC5010E94920B582E482F44259401E6
S1131830BE01655C7F4FC801F3010995811108C0A1
S11318400C151D0519F0C8010E94181580E027C069
S11318505520B9F021E0AE01455C5F4FB801C701E6
S11318600E949216582E0C151D0599F0C8010E946D
S11318701815552059F3902F812F8701E92EF82E42
S1131880CACF0C151D0519F0C8010E94181581E076
S113189006C08823D9F28E010F5F1F4FECCFC75BC0
S11318A0DF4F0FB6F894DEBF0FBECDBFDF91CF91EF
S11318B01F910F91FF90EF90DF90CF90BF90AF906A
S11318C09F908F907F906F905F904F9008950F93AB
S11318D01F93CF93DF93EC01162F8FA5882321F05C
S11318E0CE018A960E941815412F61E0CE010E9414
S11318F07D0F882389F08E01045F1F4FBE01C8014C
S11319000E94780B882341F0B801CE018A960E9488
S11319108F1291E0811101C090E0892FDF91CF9166
S11319201F910F910895FC01DB0112968D919C91FA
S113193013979383828386E192E091838083149644
S11319408C911497848315968C911597858316969C
S11319504D915D916D917C91199746835783608772
S113196071871A964D915D916D917C911D97428777
S11319705387648775871E964D915D916D917C9117
S1131980519746875787608B718B52968C915297EB
S1131990828B53964D915D916D917C915697438BBB
S11319A0548B658B768B57964D915D916D917C919F
S11319B05A97478B508F618F728F5B968D919C9154
S11319C05C97948F838F08954F925F926F927F926A
S11319D08F929F92AF92BF92CF92DF92EF92FF923B
S11319E00F931F93CF93DF93CDB7DEB7C754D109BD
S11319F00FB6F894DEBF0FBECDBF5C014A013901BA
S1131A0019A218A286E192E09F8F8E8F1BA21C82DE
S1131A101B829A8389831E82645F7F4F6E018EE1ED
S1131A20C80ED11CC6010E948F1274018E010F5F73
S1131A301F4F5C2C4D2C6FE270E0C7010E94C32243
S1131A40009709F443C0F70120812F3271F4FFEFAE
S1131A50EF1AFF0A902F812F052D142D2C01C2019E
S1131A60502E412E092F182FE6CF8E198D3008F0F5
S1131A708CE0C82ED12CA601B701CE01CB960E94D2
S1131A80D522EBE3F0E0EC0FFD1FEC0DFD1D108201
S1131A90C8010E94181521E0AE01455C5F4F652D19
S1131AA0742DC8010E949216811109C0F501138298
S1131AB0128286E192E091838083158211C0EC0C3E
S1131AC0FD1C852D942D0E941815C9CFE818F9081E
S1131AD0F301F182E082652D742DC5010E94930CFF
S1131AE0C501C95BDF4F0FB6F894DEBF0FBECDBF93
S1131AF0DF91CF911F910F91FF90EF90DF90CF90E6
S1131B00BF90AF909F908F907F906F905F904F9019
S1131B100895DF92EF92FF920F931F93CF93DF9379
S1131B20CDB7DEB7C955D1090FB6F894DEBF0FBEE5
S1131B30CDBF7C018A01D22E9E01285A3F4FCE018F
S1131B40CB960E94E40C6A968EAD9FAD6A97080FFF
S1131B50191FF801808181110AC0BE01655C7F4FA5
S1131B60CE0101960E94930C40E152E033C019A2C9
S1131B7018A286E192E09F8F8E8F1BA221968FADD3
S1131B802197811104C0C7010E94EB0A29C02D2DA1
S1131B90A801BE01655C7F4FCE014E960E9492164D
S1131BA0882389F3CE01CB960E9418158D2D86705B
S1131BB0863041F449A95AA96BA97CA9CE014E9655
S1131BC00E942E14BE01625E7F4FCE0101960E94D8
S1131BD0930CA801BE016F5F7F4FC7010E94B60A34
S1131BE0C701C75ADF4F0FB6F894DEBF0FBECDBF93
S1131BF0DF91CF911F910F91FF90EF90DF900895A7
S1131C00FB01BC01665D7F4F20E030E04CE65BE009
S1131C10CF010C94D70BECE7F2E015821682118603
S1131C20138682E090E0A0E0B0E084879587A687E1
S1131C30B78713A215A614A686E192E093A782A7FC
S1131C4017A608959FB7F8942091D3048091D104E6
S1131C50213019F48DBB9FBF08958FBF08950F9352
S1131C60FC0180E092E1AAE7B0E030E048175907B0
S1131C706A077B0740F4B695A795979587953F5FCC
S1131C803630A1F737E091E09327222311F020E5C5
S1131C9001C020E70C70892F8695082B022B008346
S1131CA0917091830F9108952091D304222399F088
S1131CB04FB7F8942091D304213059F42DB32093D5
S1131CC0D1043DB32091D204209523232DBB4FBFD3
S1131CD002C04093D1048CBD9DBD08958EBD00000B
S1131CE00DB407FEFDCF8EB508958FEF0C946E0EE4
S1131CF061E0FC0184810E9450208091C502882308
S1131D0039F01092C5028091D30481110C94220EF3
S1131D100895CF93DF93EC018091C502811109C02E
S1131D2081E08093C5028091C6029091C7020E940F
S1131D30540E60E08C81DF91CF910C945020CF93AE
S1131D40DF93EC018E81882389F08F8198859C0133
S1131D502F5F3F4F38872F838230924018F40E94C0
S1131D60750EF3CFCE010E94780E1E82DF91CF91C3
S1131D7008950F93CF93DF9300D0CDB7DEB76730CC
S1131D8028F026E1FC01258380E047C06230F9F0A9
S1131D9058F46623A9F0613079F500E021E040E0D1
S1131DA059E06DE370E02EC06430F9F0B8F06530AE
S1131DB019F500E021E040E950ED63E070E022C055
S1131DC000E021E040E458E76DE771E01BC000E06B
S1131DD021E040E854E86EE170E014C000E021E046
S1131DE040E452E46FE070E00DC000E021E040E226
S1131DF051EA67E070E006C000E021E048E458EEF4
S1131E0061E070E0CE0101960E942F0E89819A81D3
S1131E109093C7028093C60281E00F900F90DF91E8
S1131E20CF910F9108950F931F93CF93DF93EB01FD
S1131E300E94F6088B010E94750E8F3F49F00E94A4
S1131E40F608601B710B6C177D07A8F380E001C0D6
S1131E5081E0DF91CF911F910F9108958F929F920E
S1131E60AF92BF92FF920F931F93CF93DF93EC0136
S1131E70F62E49015A010E949F0ECE010E94890E3E
S1131E806CE271E0CE010E94130F8F2D80640E94DA
S1131E906E0E08E110E0D501C401002E04C0B69511
S1131EA0A795979587950A94D2F70E946E0E0850CD
S1131EB01109083F8FEF180771F7FF2029F088E018
S1131EC0F81204C087E803C085E901C08FEF0E94BF
S1131ED06E0E10E00E94750E8A8787FF04C01F3FB4
S1131EE011F01F5FF7CFDF91CF911F910F91FF90FA
S1131EF0BF90AF909F908F9008957F928F929F9202
S1131F00AF92BF92CF92DF92EF92FF920F931F9303
S1131F10CF93DF9300D0CDB7DEB77C01762EFC01E2
S1131F20138611861682158244830E94F6086B017B
S1131F3061E0F70184810E94142061E0F70184814B
S1131F400E9450200E94381E00E021E040E950ED3C
S1131F5063E070E0CE0101960E942F0E89819A8180
S1131F609093C7028093C6020E94540E1AE08FEF2A
S1131F700E946E0E1150D9F78091D30481110E94F2
S1131F80220EC7010E94890E20E030E0A90160E022
S1131F90C7010E942E0F082FF7018287813049F074
S1131FA00E94F6086C197D09613D774068F381E071
S1131FB050C02AEA31E040E050E068E0C7010E94E6
S1131FC02E0F82FF03C0F70103870EC004E00E94B6
S1131FD0750EF70182870150D1F78A3A11F082E039
S1131FE039C082E0F7018387F7018385823021F0CD
S1131FF0812C912C540105C0812C912CA12C80E4BE
S1132000B82E20E030E0A90167E3C7010E942E0F3B
S1132010A501940169E2C7010E942E0FF70182878E
S1132020882349F00E94F6086C197D09613D7740C8
S113203040F388E00EC0F70183858230F1F420E09C
S113204030E0A9016AE3C7010E942E0F882339F00A
S113205086E0F7018583C7010E94780E16C00E94AE
S1132060750E807C803C19F483E0F70183870E941D
S1132070750E0E94750E0E94750EC7010E94780E9F
S1132080672DC7010E94B90E182F812F0F900F9052
S1132090DF91CF911F910F91FF90EF90DF90CF9040
S11320A0BF90AF909F908F907F9008950F931F9350
S11320B0CF93DF93EC010E94F6088B010E94750E0A
S11320C08A878F3F49F40E94F608601B710B6D32BA
S11320D07140A0F38FE003C08E3F39F08DE08D8313
S11320E0CE010E94780E80E001C081E0DF91CF91A3
S11320F01F910F910895CF92DF92EF92FF920F9369
S11321001F93CF93DF93EC016901C801820F931FE2
S11321108130924008F05CC08E81882371F0888100
S11321209981AA81BB8184179507A607B70729F46B
S11321308F819885C816D90610F5488359836A8318
S11321407B838B85833039F089E0440F551F661FEC
S1132150771F8A95D1F79A01AB0161E1CE010E9404
S11321602E0F882319F083E08D8332C0CE010E94A4
S11321705610882369F118861F8281E08E838F812F
S113218098858C159D0540F40E94750E8F81988565
S1132190019698878F83F3CF6701E00EF11ECE146A
S11321A0DF0431F00E94750EF60181936F01F7CFC1
S11321B08F819885080F191F18870F8389858823B5
S11321C019F00115124048F0CE010E949F0E05C07F
S11321D0CE010E94780E80E001C081E0DF91CF91B2
S11321E01F910F91FF90EF90DF90CF900895EF92A1
S11321F0FF920F931F930115110519F00E947B1094
S113220001C081E01F910F91FF90EF900895EF922C
S1132210FF920F931F93790100E012E020E030E079
S11322200E947B101F910F91FF90EF900895EF9201
S1132230FF920F931F93CF93DF938C01862F7A0124
S11322400E946E0EE7018EEFF81A89910E946E0EBD
S1132250CE15DF05D1F78FEF0E946E0E8FEF0E942F
S11322606E0E0E94750EF80182878F71853039F0E9
S113227081E18583C8010E94780E80E001C081E07D
S1132280DF91CF911F910F91FF90EF900895EF92FE
S1132290FF920F93CF93DF93EC0179014115510520
S11322A06105710511F482E139C08B85833039F001
S11322B089E0440F551F661F771F8A95D1F79A014D
S11322C0AB0168E1CE010E942E0F882311F084E057
S11322D025C0A7016EEFCE010E9417118823F9F0E3
S11322E0011105C0CE010E94780E81E01CC068E592
S11322F072E0CE010E94130F811102C085E10EC06D
S113230020E030E0A9016DE0CE010E942E0F811182
S113231004C00E94750E882329F384E18D83CE01C5
S11323200E94780E80E0DF91CF910F91FF90EF90A3
S113233008951F93CF93DF93EC010E94890E0E94AE
S1132340750E182FCE010E94780E81E01F3F09F40C
S113235080E0DF91CF911F910895E6ECF2E080E5F3
S1132360808311820895CF93DF93EC019C012A5F4F
S11323703F4F41E050E060E070E08B8D9C8D0E9407
S1132380B61B8823B9F08F89988DA98DBA8D892BB6
S11323908A2B8B2B59F48E819F81A885B9858F8BCD
S11323A0988FA98FBA8F8C8180688C838C8180628E
S11323B08C8381E0DF91CF910895CF92DF92EF92E9
S11323C0FF921F93CF93DF93EC010E94B31181110D
S11323D002C080E04AC0EB8DFC8DCE80DF80E884B3
S11323E0F98482E0C81AD108E108F108058404C020
S11323F0CC0CDD1CEE1CFF1C0A94D2F78685978555
S1132400A089B189C80ED91EEA1EFB1E148181E081
S1132410C81AD108E108F108112361F0C701B60117
S1132420610F711D811D911D0E94041A882389F278
S11324301150F2CFEB8DFC8D80E092E0A0E0B0E093
S1132440058404C0880F991FAA1FBB1F0A94D2F7E2
S11324504B895C896D897E89840F951FA61FB71FE0
S11324608B8B9C8BAD8BBE8B81E0DF91CF911F91C9
S1132470FF90EF90DF90CF900895CF93DF93EC011E
S1132480462F6E857F85888999890E94C81988237B
S113249041F08A8920E2829FC00111248F529D4F0E
S11324A002C080E090E0DF91CF910895FB019B0191
S11324B0255F3F4F40E24193E217F307E1F7DC0168
S11324C090E027E08D91882319F18E3229F42A3087
S11324D021F198E02AE0F6CFE8E6F0E034913323E6
S11324E021F031968313FACF18C02917B0F03FEDCD
S11324F0380F3E3590F431E0390FFB01E90FF11D3F
S11325009FE9980F9A3108F480528083932FDACF91
S113251081E0FB019081903209F480E008950F93EB
S11325201F93CF93DF93FC012581222311F080E0D8
S113253042C08B01EC01FB0187898031B1F482E058
S11325408D831F8A188E198E1A8E808D918DA0E02E
S1132550B0E025E0880F991FAA1FBB1F2A95D1F769
S11325608B8B9C8BAD8BBE8B15C0803201F783E0C7
S11325708D83FB01428D538D648D758D4F8B588FE8
S1132580698F7A8F9E012D5E3F4FC8010E94AC1A5D
S1132590882369F21C8F0B8F81E08C831E821F823B
S11325A0188619861A861B861C861D861E861F861B
S11325B0188A198A1A8ADF91CF911F910F91089571
S11325C02F923F924F925F926F927F928F929F923F
S11325D0AF92BF92CF92DF92EF92FF920F931F932D
S11325E0CF93DF93EC015B014A018D81811103C01C
S11325F08FEF9FEFD7C08C8180FFFACF4B885C8828
S11326006D887E884A855B856C857D85C401A0E0E4
S1132610B0E093018201041B150B260B370B08173E
S113262019072A073B0718F44201841A950A240162
S11326301E0126E0220E311C4114510409F47EC00F
S11326404A855B856C857D856A0181E0D822ED81B0
S11326508B8D9C8D8A019B01F9E036952795179502
S11326600795FA95D1F7E23061F4FC01828D938DE0
S1132670A48DB58DBC01CD01600F711F821F931F06
S11326803FC0FC0174807A947022C114D104C9F44F
S1132690711017C0452B462B472B49F48F89988D11
S11326A0A98DBA8D8E839F83A887B9870AC04E816E
S11326B05F816885798591010E94291A882309F42C
S11326C097CFEB8DFC8D8E819F81A885B98502976C
S11326D0A109B109058404C0880F991FAA1FBB1F53
S11326E00A94D2F74685578560897189840F951FAE
S11326F0A61FB71FBC01CD01670D711D811D911D62
S113270020E032E02C193D0932012415350508F486
S113271039012C8126FD04C06114F2E07F0679F5AD
S113272000910A0110910B0120910C0130910D01CF
S1132730601771078207930719F421C0C40132C0DE
S1132740750183019601AB01BC018091CF02909188
S1132750D0020E94F710882309F44ACFA60CB71CB4
S11327608A859B85AC85BD85860D971DA11DB11DF0
S11327708A879B87AC87BD87461857085DCF40E0A2
S11327800E94C819882309F433CFF601EF52FD4F94
S1132790D501CF01860D971D8E179F07F9F2219160
S11327A02D93FACFDF91CF911F910F91FF90EF906E
S11327B0DF90CF90BF90AF909F908F907F906F905D
S11327C05F904F903F902F900895FF920F931F9327
S11327D0CF93DF931F92CDB7DEB7FC012581223062
S11327E018F480E090E033C08C01FC0142855385ED
S11327F06485758585E076956795579547958A959F
S1132800D1F7F42FFF70FF2E41E050E0BE016F5F5F
S11328107F4FC8010E94E012019719F4898190E06A
S113282002C08FEF9FEF0196E1F2F8018285938554
S1132830A485B5854F96A11DB11D82879387A48772
S1132840B587F0E2FF9EC00111248F529D4F0F9077
S1132850DF91CF911F910F91FF9008958F929F92D6
S1132860AF92BF92CF92DF92EF92FF920F931F939A
S1132870CF93DF93EC018D81811102C080E078C099
S11328800B891C892D893E890417150726073707EC
S1132890A8F36A017B01823029F4CA86DB86EC86C0
S11328A0FD860DC0C114D104E104F10451F41E826B
S11328B01F82188619861A861B861C861D8681E04F
S11328C057C08A849B84AC84BD84EB8DFC8D2585A4
S11328D030E0275F3F4FB501A40141505109610920
S11328E07109022E04C076956795579547950A9409
S11328F0D2F7D701C6010197A109B10904C0B69561
S1132900A795979587952A95D2F784179507A607D3
S1132910B70720F089288A288B2871F44F89588DAD
S1132920698D7A8D4E835F83688779874C015D0159
S11329308E010A5F1F4F16C0841B950BA60BB70BA5
S1132940F5CF4E815F816885798598018B8D9C8D4B
S11329500E94291A91E0891A9108A108B1088823D4
S113296009F48CCF81149104A104B10451F795CFDB
S1132970DF91CF911F910F91FF90EF90DF90CF9057
S1132980BF90AF909F908F900895FF920F931F93E5
S1132990CF93DF93FC012581222309F442C0F62E54
S11329A0EC01848187FF30C061E0CF010E943D12B9
S11329B08C01892BB1F18D81823048F48B899C89FB
S11329C0AD89BE89F801848F958FA68FB78F8F89C3
S11329D0988DA98DBA8DF801938F828FB58BA48BB6
S11329E0E091C802F091C902309759F0B8016A5ECB
S11329F07F4FC80148960995F801808D918D938B7E
S1132A00828B8C818F778C83F11003C08C818F7EB5
S1132A108C838F2DDF91CF911F910F91FF900C9498
S1132A209F1980E0DF91CF911F910F91FF9008953E
S1132A30CF93DF93EC0161E00E94C514882311F069
S1132A401D8281E0DF91CF910895CF93DF93EC0154
S1132A508D818130D1F48C8181FF17C082FF0DC03C
S1132A604B895C896D897E898A859B85AC85BD850A
S1132A7084179507A607B70759F48091CF02909160
S1132A80D0020E949911882349F080E090E02AC086
S1132A90CE010E942E148111F0CFF7CF8C8185FFD7
S1132AA008C060E0CE010E94C5148C818F7D8C83A8
S1132AB0ECCF4091CA025091CB026091CC0270914C
S1132AC0CD02452B462B472B21F080E00E947B1939
S1132AD0DCCF80618C832A853B85317080E092E075
S1132AE0821B930BDF91CF9108954F925F926F9267
S1132AF07F928F929F92AF92BF92EF92FF920F9329
S1132B001F93CF93DF9300D000D0CDB7DEB7FC0185
S1132B1085818130E9F4848181FF1AC08389948995
S1132B20A589B68984179507A607B70788F0892B66
S1132B308A2B8B2B09F47AC04A015B017F01428402
S1132B40538464847584CF010E942E14811102C0C1
S1132B5080E06DC0F701838D948D81149104A104EC
S1132B60B10471F44789508D618D728D0E94CB1C24
S1132B70882371F3F701178A108E118E128E3AC0D2
S1132B80F70146815781608571859E012F5F3F4F14
S1132B900E94291A8823E1F249815A816B817C8140
S1132BA0F701838D948DFC012789203129F008EFEA
S1132BB01FEF2FEF3FE004C008EF1FEF20E030E0ED
S1132BC04017510762077307A8F40E94CB1C88239F
S1132BD009F4BECFF70146815781608571850FEFF7
S1132BE01FEF2FEF3FE0838D948D0E94151B8823E8
S1132BF009F4AECFF701838A948AA58AB68A8481C0
S1132C008068848361E0C7010E94C514882309F4A5
S1132C109FCFB501A401481459046A047B0410F43D
S1132C20B301A201C7010E942E1401C081E00F90DC
S1132C300F900F900F90DF91CF911F910F91FF9004
S1132C40EF90BF90AF909F908F907F906F905F9028
S1132C504F9008951F93CF93DF93EC0180E2689F18
S1132C60F0011124EF52FD4F9385917129F0842FC7
S1132C70827411F080E052C0142F6A8B80910A0193
S1132C8090910B01A0910C01B0910D018E879F874B
S1132C90A88BB98B4489558960E070E0BA01552747
S1132CA04427828D938DA0E0B0E0482B592B6A2BEA
S1132CB07B2B4F8B588F698F7A8F8385887151F462
S1132CC0848D958DA68DB78D8B8B9C8BAD8BBE8B98
S1132CD081E00CC0803171F69E012D5E3F4F8B8DDB
S1132CE09C8D0E94AC1A882329F284E08D83812F65
S1132CF08F708C831E821F82188619861A861B8603
S1132D001C861D8616FF09C040E050E0BA01CE01C2
S1132D10DF91CF911F910C94751581E0DF91CF91D4
S1132D201F910895BF92CF92DF92EF92FF920F937B
S1132D301F93CF93DF93CDB7DEB72B970FB6F894DD
S1132D40DEBF0FBECDBFFC0135813111C0C0C22E24
S1132D508B017C01BE016F5F7F4FCA010E94561236
S1132D60882309F4B4C0F801838D948DF701948FFE
S1132D70838FF801168217821086118612861386B5
S1132D8014861586D12CF80182859385A485B58592
S1132D90438954896589768984179507A607B707F7
S1132DA008F03EC025E0B695A795979587952A9596
S1132DB0D1F7F82FFF70BF2EC8010E94E5130097CA
S1132DC009F485C0FC0120812223A1F0253E09F4E9
S1132DD080C04BE050E0BC01CE0101960E94AD22C0
S1132DE0892B89F68C2D8073803309F470C04C2DA7
S1132DF06B2D69C0D11012C0F701B28A40910A014B
S1132E0050910B0160910C0170910D014687578719
S1132E10608B718BFC01808181115EC0DD24D394B1
S1132E208C2D8271823109F052C0DD2041F061E0C5
S1132E30C7010E943D128C01892B79F448C0F80126
S1132E408581823009F443C0C8010E94DD118823C2
S1132E50F1F1F701128A01ED12E080E2F80111921A
S1132E608A95E9F78BE0FE013196D80101900D9225
S1132E708A95E1F7E091C802F091C902309739F0E0
S1132E80B801625F7F4FC8014096099509C081E28D
S1132E9098E2F801918B808B80E098E09787868791
S1132EA0F80180899189938B828B918F808F86859D
S1132EB09785978B868B81E00E949F19882339F030
S1132EC04C2DF7016289C7010E942A1608C080E0D0
S1132ED006C0DD2009F490CFDD24D39454CF2B9683
S1132EE00FB6F894DEBF0FBECDBFDF91CF911F9117
S1132EF00F91FF90EF90DF90CF90BF900895CF9304
S1132F00DF93EC0140E050E0BA010E94751588237C
S1132F1079F061E0CE010E943D12009749F025EE60
S1132F20FC0120831D8281E0DF91CF910C949F19D5
S1132F3080E0DF91CF910895CF93DF93CDB7DEB7D3
S1132F406D970FB6F894DEBF0FBECDBFAB011C82E8
S1132F501B8226E132E03A8329831E8222E0BC01EF
S1132F60CE0101960E949216882321F0CE0101968B
S1132F700E947F176D960FB6F894DEBF0FBECDBFCB
S1132F80DF91CF9108952F923F924F925F926F926B
S1132F907F928F929F92AF92BF92CF92DF92EF92E5
S1132FA0FF920F931F93CF93DF9300D000D01F9213
S1132FB0CDB7DEB77C016B011A01DC0115968C914B
S1132FC015978130C9F414961C9111FF15C012FF96
S1132FD01DC0F70143895489658976898285938563
S1132FE0A485B58584179507A607B70779F0C701A7
S1132FF00E942E1481110AC081E090E0D70113963B
S11330009C938E93129780E090E04CC141011295FD
S11330101F70109511701D8380C05B968D919C91DB
S11330205C97FC0174807A94B901A80129E0769533
S11330306795579547952A95D1F774221170772093
S113304009F477C080E092E0801B910B540188154D
S1133050990508F45C01D7015B962D913C915C972E
S113306016968D919D910D90BC91A02D0297A1096A
S1133070B109F901058404C0880F991FAA1FBB1F59
S11330800A94D2F74685578560897189840F951F04
S1133090A61FB71F9C01AD01270D311D411D511DF8
S11330A029013A01A11432E0B30609F089C08091E4
S11330B00A0190910B01A0910C01B0910D014816E9
S11330C059066A067B0659F48FEF9FEFDC01809363
S11330D00A0190930B01A0930C01B0930D010D8193
S11330E09601B301A2018091CF029091D0020E9477
S11330F04711882309F480CF9EEFD91A8A189B08B8
S1133100F70182859385A485B5858A0D9B1DA11D34
S1133110B11D82879387A487B587D7011A960D912D
S11331201D912D913C911D978114910409F075CF47
S113313088C00115110509F085CF16964D915D9152
S11331406D917C911997411551056105710559F4EB
S113315057968D919D910D90BC91A02D0097A1053E
S1133160B10541F521C09E012F5F3F4F0E94291AEE
S1133170882309F449CF89819A81AB81BC81F70105
S1133180238D348DF9012789203129F048EF5FEF31
S11331906FEF7FE004C048EF5FEF60E070E08417FA
S11331A09507A607B70730F0C7010E94B311811134
S11331B049CF22CFF70186839783A087B18742CF77
S11331C00115110531F5D7011A964D915D916D9157
S11331D07C911D9753968D919D910D90BC91A02D3E
S11331E0481759076A077B07A0F081E00E949F19DE
S11331F0882309F401CF40920A0150920B01609296
S11332000C0170920D018091CE0281608093CE02F8
S113321008C041E0C301B2010E94C819882309F41F
S1133220EBCED601F801EF52FD4F9F012A0D3B1D55
S11332302E173F0719F08D918193FACFCA0CDB1C2E
S11332405DCFD70153964D915D916D917C915697C9
S113325014968C91401751076207730740F4F701E5
S1133260038B148B258B368B806884830DC020914F
S1133270C8023091C902232B39F02114310421F002
S11332808068D70114968C93F701848183FD02C072
S1133290C10108C061E0C7010E94C514882309F474
S11332A0ABCEF6CF0F900F900F900F900F90DF9151
S11332B0CF911F910F91FF90EF90DF90CF90BF902F
S11332C0AF909F908F907F906F905F904F903F90C2
S11332D02F900895CF93DF931F92CDB7DEB7698304
S11332E041E050E0BE016F5F7F4F0E94C3170F9013
S11332F0DF91CF9108950F934091CA025091CB0270
S11333006091CC027091CD024115510561057105A2
S113331099F0082F21ED32E08091CF029091D002F4
S11333200E944711882349F01092CA021092CB02DE
S11333301092CC021092CD0281E00F9108950F9368
S1133340CF939091CE029923F9F0C82F40910A01AE
S113335050910B0160910C0170910D01082F21ED2A
S113336032E08091CF029091D0020E9447118111E6
S113337002C080E00AC0CC2339F08C2F0E947B1954
S11333808823B9F31092CE0281E0CF910F91089572
S1133390CF92DF92EF92FF92CF936B017C01C42F07
S11333A080910A0190910B01A0910C01B0910D0143
S11333B08C159D05AE05BF05D9F081E00E949F19CB
S11333C0811102C080E01AC021ED32E0B701A601EC
S11333D08091CF029091D0020E940711882391F32B
S11333E0C0920A01D0920B01E0920C01F0920D01FF
S11333F08091CE02C82BC093CE0281E0CF91FF9082
S1133400EF90DF90CF900895CF92DF92EF92FF92EA
S11334106B017C0181E00E949F198823A9F0E1EDF2
S1133420F2E0119284E0E13DF807D9F7C0920A0175
S1133430D0920B01E0920C01F0920D018091CE022A
S113344081608093CE0281E0FF90EF90DF90CF9077
S113345008958F929F92AF92BF92CF92DF92EF9294
S1133460FF920F931F93CF93DF93FC018185928585
S1133470A385B4850196A11DB11D84179507A607E0
S1133480B70710F480E05BC083889488A588B68869
S11334908789803129F4BB27A72F962F852F09C050
S11334A0DB01CA01C7E0B695A79597958795CA959C
S11334B0D1F7E9016A017B018F01BC01CD01680DDF
S11334C0791D8A1D9B1D80900A0190900B01A0908C
S11334D00C01B0900D01681579058A059B0591F4DE
S11334E0F80187898031A1F4DD24EE24FF24C6018C
S11334F0880F991FFC01EF52FD4F80819181A0E05C
S1133500B0E018C040E00E94C8198111E9CFBACFD9
S1133510E894C7F8DD24EE24FF24C601880F991F20
S1133520880F991FFC01EF52FD4F80819181A28188
S1133530B381BF7088839983AA83BB8381E0DF91C1
S1133540CF911F910F91FF90EF90DF90CF90BF909C
S1133550AF909F908F9008954F925F926F927F9259
S1133560AF92BF92CF92DF92EF92FF920F931F938D
S1133570CF93DF9300D000D0CDB7DEB78C01498361
S11335805A836B837C835901C12CD12C7601412C45
S113359082E0582E612C712C49815A816B817C8187
S11335A09E012F5F3F4FC8010E94291A882351F1C1
S11335B0D301C201F801058404C0880F991FAA1F12
S11335C0BB1F0A94D2F7C80ED91EEA1EFB1E4981FE
S11335D05A816B817C818789803129F088EF9FEF44
S11335E0AFEFBFE004C088EF9FEFA0E0B0E0481762
S11335F059076A077B0780F2F501C082D182E28213
S1133600F38281E00F900F900F900F90DF91CF9194
S11336101F910F91FF90EF90DF90CF90BF90AF90EC
S11336207F906F905F904F9008954F925F926F924A
S11336307F928F929F92AF92BF92CF92DF92EF923E
S1133640FF920F931F93CF93DF93EC014230510508
S11336506105710510F480E078C089859A85AB8591
S1133660BC850196A11DB11D84179507A607B70750
S113367090F3CB88DC88ED88FE888F89803129F42B
S1133680BB27A72F962F852F09C0DB01CA01E7E0CE
S1133690B695A79597958795EA95D1F7480159016D
S11336A02A013B01C80ED91EEA1EFB1E80910A01A5
S11336B090910B01A0910C01B0910D01C816D9068F
S11336C0EA06FB0681F48F898031A9F4B301A201D3
S11336D0552766277727440F551FFA01EF52FD4FF0
S11336E09182808219C040E0C701B6010E94C819C6
S11336F08111E9CFB0CFB301A2014F7755276627D7
S11337007727440F551F440F551FFA01EF52FD4F01
S113371080829182A282B3828091CE028160809362
S1133720CE028A89823080F08D819E81AF81B885F6
S1133730C80ED91EEA1EFB1EC092CA02D092CB024A
S1133740E092CC02F092CD0281E0DF91CF911F9103
S11337500F91FF90EF90DF90CF90BF90AF909F902C
S11337608F907F906F905F904F9008952F923F922B
S11337704F925F926F927F929F92AF92BF92CF923D
S1133780DF92EF92FF920F931F93CF93DF93CDB706
S1133790DEB760970FB6F894DEBF0FBECDBF5C01F5
S11337A049875A876B877C871901D901CD90DD90B1
S11337B0ED90FC90C114D104E104F10431F0BFEFA9
S11337C0CB1ADB0AEB0AFB0A10C0FC01C080D180D3
S11337D0E280F3809924939409851A852B853C858E
S11337E0013011052105310509F0912CF501818580
S11337F09285A385B4858C019D010F5F1F4F2F4FC8
S11338003F4F0D871E872F87388B260137011D8276
S11338101E821F821886F50181859285A385B48551
S11338200D811E812F813885081719072A073B0748
S113383008F056C02D853E854F85588924153505D9
S11338404605570550F482E0482E512C612C712C0A
S113385092E0C92ED12CE12CF12C9E012F5F3F4F19
S1133860B301A201C5010E94291A8823C9F1498123
S11338705A816B817C81D301C2010196A11DB11DC6
S1133880452B462B472B19F06C017D010FC0AC0171
S1133890BD014C195D096E097F0909851A852B85BF
S11338A03C85041715072607370779F02D813E81DB
S11338B04F8158852F5F3F4F4F4F5F4F2D833E837E
S11338C04F8358872C013D01A6CF0FEF1FEF2FEF39
S11338D03FE0B301A201C5010E94151B811118C06C
S11338E080E041C0D301C2010197A109B1098D83D0
S11338F09E83AF83B88793018201AC01BD01C501EA
S11339000E94151B882361F34D805E806F8078844C
S1133910C414D504E604F70428F3D1014D915D9154
S11339206D917C91411551056105710599F4F10181
S1133930C082D182E282F3829920A1F0FFEFCF1AF4
S1133940DF0AEF0AFF0AD501CD92DD92ED92FC92D7
S1133950139708C097018601C5010E94151B8111A8
S1133960E6CFBECF81E060960FB6F894DEBF0FBEFF
S1133970CDBFDF91CF911F910F91FF90EF90DF901A
S1133980CF90BF90AF909F907F906F905F904F903B
S11339903F902F900895AF92BF92CF92DF92EF9213
S11339A0FF920F931F93CF93DF9300D000D0CDB736
S11339B0DEB75C016A017B0182E090E0A0E0B0E048
S11339C0F50180839183A283B3839E012F5F3F4FD0
S11339D0B701A601C5010E94291A882311F100E04C
S11339E010E09801B701A601C5010E94151B8823A8
S11339F0C1F0C980DA80EB80FC80F50187898031D1
S1133A0029F088EF9FEFAFEFBFE004C088EF9FEF8E
S1133A10A0E0B0E0C816D906EA06FB06B0F281E0E1
S1133A2001C080E00F900F900F900F90DF91CF9125
S1133A301F910F91FF90EF90DF90CF90BF90AF90C8
S1133A4008958F929F92AF92BF92CF92DF92EF929E
S1133A50FF920F931F93CF93DF93EC01142F709376
S1133A60D0026093CF02442369F1453010F080E026
S1133A70F2C040E060E070E0CB010E94C8198823E6
S1133A80B1F320E1129FA00111244F535D4FFA01BD
S1133A90E254FE4F80818F7751F73C96808191816B
S1133AA0A281B38184369105A105B10500F3349751
S1133AB0C080D180E280F380C114D104E104F10418
S1133AC021F4D5CFC12CD12C760140E0C701B60139
S1133AD00E94C819882359F28091DC029091DD027A
S1133AE08115924021F69091E102992309F4BFCF08
S1133AF02091DF023091E002232B09F4B8CF8091AA
S1133B00DE02882309F4B3CF9A8B8C831D8690E060
S1133B1041E050E02D85E22FBA01022E02C0660F6B
S1133B20771F0A94E2F78617970731F031E0320FD6
S1133B303D87283078F39BCF2091E7023091E8024B
S1133B402115310519F040E050E008C02091F5023C
S1133B503091F6024091F7025091F8022D833E8392
S1133B604F8358878091DF029091E002460157010C
S1133B70880E991EA11CB11C8B8A9C8AAD8ABE8AB0
S1133B800091E2021091E302198F088FA091E102E3
S1133B90B0E00E947F20860E971EA81EB91E8A8E52
S1133BA09B8EAC8EBD8E85E0000F111F8A95E1F7C8
S1133BB001501E4F012F11270695800E911EA11C46
S1133BC0B11C8E869F86A88AB98A2091E40230911E
S1133BD0E5022115310521F0A90160E070E008C07B
S1133BE04091F1025091F2026091F3027091F4025B
S1133BF0D701C60188199909AA09BB09840F951F21
S1133C00A61FB71F04C0B695A79597958795EA9503
S1133C10D2F789879A87AB87BC87853F2FE09207C5
S1133C20A105B10510F48CE014C0853F9F4FA10598
S1133C30B10510F480E10DC08091FD029091FE0267
S1133C40A091FF02B09100038A8F9B8FAC8FBD8F30
S1133C5080E28F8B81E0DF91CF911F910F91FF90D4
S1133C60EF90DF90CF90BF90AF909F908F9008958A
S1133C70CF93CFB7F8948091D404811127C0EAEA96
S1133C80F0E08491E6E9F0E09491E82FF0E0EE0FA3
S1133C90FF1FE254FF4FA591B491EC91E92321F465
S1133CA061E08AE00E94502061E08AE00E941420D2
S1133CB08CB580618CBD8CB580648CBD61E08DE079
S1133CC00E94142061E08BE00E9414208091D404AF
S1133CD08F5F8093D404CFBFCF910895FC01918D61
S1133CE0228D892F90E0805C9F4F821B91098F73F6
S1133CF099270895FC01918D828D981731F0828D5A
S1133D00E80FF11D858D90E008958FEF9FEF0895E2
S1133D10FC01918D828D981761F0828DDF01A80FCF
S1133D20B11D5D968C91928D9F5F9F73928F90E0F1
S1133D3008958FEF9FEF0895FC01538D448D252F37
S1133D4030E0842F90E0821B930B541710F0CF9631
S1133D50089501970895FC01848DDF01A80FB11D1A
S1133D60A35ABF4F2C91848D90E001968F739927AD
S1133D70848FA689B7892C93A089B1898C9183708B
S1133D8080648C93938D848D981306C00288F38984
S1133D90E02D80818F7D80830895EF92FF920F93B1
S1133DA01F93CF93DF93EC0181E0888F9B8D8C8DE3
S1133DB0981305C0E889F989808185FD26C0F62E0F
S1133DC00B8D10E00F5F1F4F0F731127E02E8C8DAA
S1133DD0E8120CC00FB607FCFACFE889F989808194
S1133DE085FFF5CFCE010E94AB1EF1CF8B8DFE0176
S1133DF0E80FF11DE35AFF4FF0829FB7F8940B8F41
S1133E00EA89FB89808180620AC09FB7F894EE89B1
S1133E10FF896083E889F989808183708064808365
S1133E209FBF81E090E0DF91CF911F910F91FF90B0
S1133E30EF900895CF93DF93EC01888D8823C9F028
S1133E40EA89FB89808185FD05C0A889B9898C919F
S1133E5086FD0FC00FB607FCF5CF808185FFF2CF3A
S1133E60A889B9898C9185FFEDCFCE010E94AB1E44
S1133E70E7CFDF91CF9108951F920F920FB60F9263
S1133E8011242F938F939F93EF93FF93E091E50475
S1133E90F091E6048081E091EB04F091EC0482FD62
S1133EA012C090818091EE048F5F8F732091EF0494
S1133EB0821751F0E091EE04F0E0EB52FB4F958F46
S1133EC08093EE0401C08081FF91EF919F918F91C7
S1133ED02F910F900FBE0F901F9018951F920F9265
S1133EE00FB60F9211242F933F934F935F936F93C9
S1133EF07F938F939F93AF93BF93EF93FF9385ED3E
S1133F0094E00E94AB1EFF91EF91BF91AF919F91FE
S1133F108F917F916F915F914F913F912F910F906E
S1133F200FBE0F901F901895E5EDF4E013821282F6
S1133F3088EE93E0A0E0B0E084839583A683B78302
S1133F4082E292E09183808385EC90E09587848778
S1133F5084EC90E09787868780EC90E0918B808B4F
S1133F6081EC90E0938B828B82EC90E0958B848B38
S1133F7086EC90E0978B868B118E128E138E148EA6
S1133F800895CF92DF92EF92FF920F931F93CF93F6
S1133F90DF936C017A018B01C0E0D0E0CE15DF0520
S1133FA081F0D8016D918D01D601ED91FC910190C4
S1133FB0F081E02DC6010995892B11F02196EECFF1
S1133FC07E01C701DF91CF911F910F91FF90EF9078
S1133FD0DF90CF900895833081F028F4813099F0F8
S1133FE08230A1F008958730A9F08830B9F0843088
S1133FF0D1F4809180008F7D03C0809180008F7701
S113400080938000089584B58F7702C084B58F7D36
S113401084BD08958091B0008F7703C08091B00073
S11340208F7D8093B0000895CF93DF9390E0FC01DF
S1134030E457FF4F2491FC01E056FF4F84918823FD
S113404061F190E0880F991FFC01E254FF4FC59184
S1134050D491FC01EC54FF4FA591B491611109C0B6
S11340609FB7F8948881209582238883EC912E232E
S11340700BC0623061F49FB7F8948881322F309579
S113408083238883EC912E2B2C939FBF06C08FB77C
S1134090F894E8812E2B28838FBFDF91CF91089568
S11340A01F93CF93DF93282F30E0F901E858FF4F97
S11340B08491F901E457FF4FD491F901E056FF4F81
S11340C0C491CC23C1F0162F81110E94EB1FEC2F59
S11340D0F0E0EE0FFF1FEC54FF4FA591B4919FB792
S11340E0F894111104C08C91D095D82302C0EC919E
S11340F0DE2BDC939FBFDF91CF911F9108950E9427
S11341009020A59F900DB49F900DA49F800D911DAC
S113411011240895EE0FFF1F0590F491E02D0994EA
S1134120A29FB001B39FC001A39F700D811D1124F4
S1134130911DB29F700D811D1124911D08950F933F
S11341401F93CF93DF938230910510F482E090E0C7
S1134150E0917405F091750520E030E0A0E0B0E056
S1134160309719F140815181028113814817590711
S1134170C8F08417950769F4109731F012960C93E0
S1134180129713961C9327C000937405109375051A
S113419022C02115310519F04217530718F49A016A
S11341A0BD01EF01DF01F801DBCF21153105F9F085
S11341B0281B390B2430310580F48A819B816115D9
S11341C0710521F0FB019383828304C090937505EC
S11341D080937405FE01329644C0FE01E20FF31F82
S11341E08193919322503109398328833AC02091D5
S11341F0720530917305232B41F420910201309113
S113420003013093730520937205209100013091CE
S113421001012115310541F42DB73EB74091040148
S113422050910501241B350BE0917205F091730543
S1134230E217F307A0F42E1B3F0B2817390778F079
S1134240AC014E5F5F4F2417350748F04E0F5F1FD8
S113425050937305409372058193919302C0E0E0FB
S1134260F0E0CF01DF91CF911F910F910895CF938B
S1134270DF93009709F481C0FC0132971382128204
S1134280A0917405B0917505109781F42081318156
S1134290820F931F209172053091730528173907F7
S11342A051F5F0937305E093720567C0ED0120E0CA
S11342B030E0CE17DF0740F44A815B819E0141154F
S11342C05105F1F0EA01F5CFD383C28340815181D6
S11342D0840F951FC817D90759F488819981840FD1
S11342E0951F0296918380838A819B819383828325
S11342F02115310529F4F0937505E09374053DC04B
S1134300E901FB83EA8349915991C40FD51FEC1746
S1134310FD0761F480819181840F951F0296E90164
S113432099838883828193819B838A83E0E0F0E090
S113433012968D919C911397009719F0FD01DC0161
S1134340F7CF8D919C9111979D012E5F3F4F820F66
S1134350931F20917205309173052817390769F46A
S1134360309729F4109275051092740502C01382D7
S11343701282B0937305A0937205DF91CF910895D3
S1134380A0E0B0E0E6ECF1E20C943223EC010097FB
S113439021F4CB010E949F20B4C0FC01E60FF71F5B
S11343A09C0122503109E217F30708F4A8C0D9018F
S11343B00D911C91119706171707B0F005301105E0
S11343C008F49BC0C80104978617970708F495C0A2
S11343D002501109061B170B019311936D937C93E3
S11343E0CF010E94372189C05B01A01AB10A4C0198
S11343F0800E911EA0917405B0917505612C712CED
S1134400E12CF12C109709F446C08D919C911197E1
S1134410A815B905B1F56C0142E0C40ED11CCA144B
S1134420DB0478F14C018A189B08640142E0C40E55
S1134430D11C1296BC9012971396AC91B5E0CB1692
S1134440D10440F0B282A38391828082D9016D931A
S11344507C9309C00E5F1F4F800F911FF901918358
S11344608083EB2DFA2FE114F10431F0D701139678
S1134470FC93EE93129741C0F0937505E093740595
S11344803CC06816790608F43C017D0112960D9033
S1134490BC91A02DB7CF80917205909173058816B9
S11344A09906E1F466167706C8F4809100019091AC
S11344B00101009741F48DB79EB7409104015091DA
S11344C00501841B950BE817F907C8F4F0937305ED
S11344D0E0937205F901718360830FC0CB010E94E0
S11344E09F207C01009759F0A801BE010E94BA22C6
S11344F0CE010E943721C70104C0CE0102C080E072
S113450090E0CDB7DEB7EEE00C944E231F93FC0190
S113451099278827BC01E89411911032E9F31930E6
S113452010F01E30C8F31B3251F01D3249F4689468
S113453006C00E94EF22610F711D811D911D119112
S113454010531A30B0F33EF49095809570956195B0
S11345507F4F8F4F9F4F1F910895FB01DC0104C0D3
S11345608D910190801921F441505040C8F7881B67
S1134570990B0895FB01DC0102C001900D9241509A
S11345805040D8F70895FC018191861721F08823C3
S1134590D9F7992708953197CF010895FB01DC01DC
S11345A001900D920020E1F70895FB01DC014150D8
S11345B0504048F001900D920020C9F701C01D92AF
S11345C041505040E0F70895BB274A3031F4992315
S11345D022F4BDE2909581959F4F0C940523592FA9
S11345E0482F372F262F660F771F881F991F660FB6
S11345F0771F881F991F620F731F841F951F660FF3
S1134600771F881F991F0895BB27FB015527AA27E9
S1134610880F991FAA1FA41710F0A41B839550514B
S1134620B9F7A05DAA3308F0A95DA193009779F7C3
S1134630B111B1931192CB010C941E23DC01FC0146
S1134640672F71917723E1F7329704C07C916D93C2
S113465070836291AE17BF07C8F308952F923F92FB
S11346604F925F926F927F928F929F92AF92BF927E
S1134670CF92DF92EF92FF920F931F93CF93DF932A
S1134680CDB7DEB7CA1BDB0B0FB6F894DEBF0FBE87
S1134690CDBF09942A88398848885F846E847D84D4
S11346A08C849B84AA84B984C884DF80EE80FD80D6
S11346B00C811B81AA81B981CE0FD11D0FB6F8944C
S11346C0DEBF0FBECDBFED01089510E0C8E6D0E017
S11346D004C0FE010E948A202196C936D107C9F779
S10746E0F894FFCF78
S11346E400007605200001000100FFFFFFFF506C6D
S11346F461796261636B20617564696F0044656C00
S113470465746520417564696F00417564696F203F
S1134714312E747874005245434F5244494E472E07
S11347242E2E0046696C65205361766564004175DC
S113473464696F203100417564696F2032004175EA
S113474464696F203300417564696F2034004E6FCF
S11347542045666665637400426173730054726530
S1134764626C6500436F6E6669726D0043616E63CB
S1134774656C0044656C6574656400417564696FB7
S113478420322E74787400417564696F20332E745A
S1134794787400417564696F20342E747874005001
S11347A46C6179696E6700656E640077697468206A
S11347B4426173732045666665637400776974683F
S11347C420547265626C65204566666563740056A0
S11347D46F696365205265636F72646572000000DB
S11347E400001F0A460A350A620A1E0B820A8C0A52
S11347F42F00000000006A19C11F25151E0A0000BD
S11348040000CD1EC11F9C1E1A1F6E1E881E7A1E18
S9030000FC
